{
	"SupplyChain/s1.sol": {
		"SupplyChain": {
			"abi": [
				{
					"inputs": [],
					"stateMutability": "nonpayable",
					"type": "constructor"
				},
				{
					"anonymous": false,
					"inputs": [
						{
							"indexed": false,
							"internalType": "uint256",
							"name": "index",
							"type": "uint256"
						},
						{
							"indexed": false,
							"internalType": "string",
							"name": "name",
							"type": "string"
						}
					],
					"name": "AccountChoice",
					"type": "event"
				},
				{
					"anonymous": false,
					"inputs": [
						{
							"indexed": true,
							"internalType": "uint256",
							"name": "productId",
							"type": "uint256"
						},
						{
							"indexed": true,
							"internalType": "address",
							"name": "to",
							"type": "address"
						}
					],
					"name": "ProductTransferred",
					"type": "event"
				},
				{
					"inputs": [
						{
							"internalType": "string",
							"name": "_name",
							"type": "string"
						}
					],
					"name": "addProductToGeneralWarehouse",
					"outputs": [],
					"stateMutability": "nonpayable",
					"type": "function"
				},
				{
					"inputs": [],
					"name": "admin",
					"outputs": [
						{
							"internalType": "address",
							"name": "",
							"type": "address"
						}
					],
					"stateMutability": "view",
					"type": "function"
				},
				{
					"inputs": [
						{
							"internalType": "uint256",
							"name": "_index",
							"type": "uint256"
						}
					],
					"name": "chooseAccount",
					"outputs": [],
					"stateMutability": "nonpayable",
					"type": "function"
				},
				{
					"inputs": [],
					"name": "currentUser",
					"outputs": [
						{
							"internalType": "address",
							"name": "",
							"type": "address"
						}
					],
					"stateMutability": "view",
					"type": "function"
				},
				{
					"inputs": [
						{
							"internalType": "uint256",
							"name": "",
							"type": "uint256"
						}
					],
					"name": "generalWarehouse",
					"outputs": [
						{
							"internalType": "uint256",
							"name": "id",
							"type": "uint256"
						},
						{
							"internalType": "string",
							"name": "name",
							"type": "string"
						},
						{
							"internalType": "address",
							"name": "owner",
							"type": "address"
						}
					],
					"stateMutability": "view",
					"type": "function"
				},
				{
					"inputs": [
						{
							"internalType": "uint256",
							"name": "_productId",
							"type": "uint256"
						}
					],
					"name": "getProductById",
					"outputs": [
						{
							"components": [
								{
									"internalType": "uint256",
									"name": "id",
									"type": "uint256"
								},
								{
									"internalType": "string",
									"name": "name",
									"type": "string"
								},
								{
									"internalType": "address",
									"name": "owner",
									"type": "address"
								},
								{
									"internalType": "address[]",
									"name": "history",
									"type": "address[]"
								}
							],
							"internalType": "struct SupplyChain.Product",
							"name": "",
							"type": "tuple"
						}
					],
					"stateMutability": "view",
					"type": "function"
				},
				{
					"inputs": [
						{
							"internalType": "uint256",
							"name": "_productId",
							"type": "uint256"
						}
					],
					"name": "getProductHistory",
					"outputs": [
						{
							"internalType": "address[]",
							"name": "",
							"type": "address[]"
						}
					],
					"stateMutability": "view",
					"type": "function"
				},
				{
					"inputs": [],
					"name": "productCounter",
					"outputs": [
						{
							"internalType": "uint256",
							"name": "",
							"type": "uint256"
						}
					],
					"stateMutability": "view",
					"type": "function"
				},
				{
					"inputs": [
						{
							"internalType": "uint256",
							"name": "_productId",
							"type": "uint256"
						},
						{
							"internalType": "address",
							"name": "_to",
							"type": "address"
						}
					],
					"name": "transferProduct",
					"outputs": [],
					"stateMutability": "nonpayable",
					"type": "function"
				},
				{
					"inputs": [
						{
							"internalType": "uint256",
							"name": "_productId",
							"type": "uint256"
						},
						{
							"internalType": "address",
							"name": "_to",
							"type": "address"
						}
					],
					"name": "transferProductFromGeneral",
					"outputs": [],
					"stateMutability": "nonpayable",
					"type": "function"
				},
				{
					"inputs": [
						{
							"internalType": "uint256",
							"name": "_productId",
							"type": "uint256"
						},
						{
							"internalType": "string",
							"name": "_newName",
							"type": "string"
						}
					],
					"name": "updateProductName",
					"outputs": [],
					"stateMutability": "nonpayable",
					"type": "function"
				},
				{
					"inputs": [
						{
							"internalType": "address",
							"name": "",
							"type": "address"
						},
						{
							"internalType": "uint256",
							"name": "",
							"type": "uint256"
						}
					],
					"name": "userWarehouses",
					"outputs": [
						{
							"internalType": "uint256",
							"name": "id",
							"type": "uint256"
						},
						{
							"internalType": "string",
							"name": "name",
							"type": "string"
						},
						{
							"internalType": "address",
							"name": "owner",
							"type": "address"
						}
					],
					"stateMutability": "view",
					"type": "function"
				},
				{
					"inputs": [
						{
							"internalType": "uint256",
							"name": "",
							"type": "uint256"
						}
					],
					"name": "users",
					"outputs": [
						{
							"internalType": "string",
							"name": "name",
							"type": "string"
						},
						{
							"internalType": "address",
							"name": "userAddress",
							"type": "address"
						},
						{
							"internalType": "bool",
							"name": "isAdmin",
							"type": "bool"
						}
					],
					"stateMutability": "view",
					"type": "function"
				}
			],
			"devdoc": {
				"kind": "dev",
				"methods": {},
				"version": 1
			},
			"evm": {
				"assembly": "    /* \"SupplyChain/s1.sol\":57:7391  contract SupplyChain {... */\n  mstore(0x40, 0x80)\n    /* \"SupplyChain/s1.sol\":456:457  0 */\n  0x00\n    /* \"SupplyChain/s1.sol\":424:457  uint256 public productCounter = 0 */\n  0x02\n  sstore\n    /* \"SupplyChain/s1.sol\":633:1663  constructor() {... */\n  callvalue\n  dup1\n  iszero\n  tag_1\n  jumpi\n  0x00\n  dup1\n  revert\ntag_1:\n  pop\n    /* \"SupplyChain/s1.sol\":665:707  0xB874C7ce83632ce17Dc746C3eebF0732bF2038f5 */\n  0xb874c7ce83632ce17dc746c3eebf0732bf2038f5\n    /* \"SupplyChain/s1.sol\":657:662  admin */\n  0x00\n  dup1\n    /* \"SupplyChain/s1.sol\":657:707  admin = 0xB874C7ce83632ce17Dc746C3eebF0732bF2038f5 */\n  0x0100\n  exp\n  dup2\n  sload\n  dup2\n  0xffffffffffffffffffffffffffffffffffffffff\n  mul\n  not\n  and\n  swap1\n  dup4\n  0xffffffffffffffffffffffffffffffffffffffff\n  and\n  mul\n  or\n  swap1\n  sstore\n  pop\n    /* \"SupplyChain/s1.sol\":733:738  users */\n  0x05\n    /* \"SupplyChain/s1.sol\":744:770  User(\"Ramin\", admin, true) */\n  mload(0x40)\n  dup1\n  0x60\n  add\n  0x40\n  mstore\n  dup1\n  mload(0x40)\n  dup1\n  0x40\n  add\n  0x40\n  mstore\n  dup1\n  0x05\n  dup2\n  mstore\n  0x20\n  add\n  0x52616d696e000000000000000000000000000000000000000000000000000000\n  dup2\n  mstore\n  pop\n  dup2\n  mstore\n  0x20\n  add\n    /* \"SupplyChain/s1.sol\":758:763  admin */\n  0x00\n  dup1\n  sload\n  swap1\n  0x0100\n  exp\n  swap1\n  div\n  0xffffffffffffffffffffffffffffffffffffffff\n  and\n    /* \"SupplyChain/s1.sol\":744:770  User(\"Ramin\", admin, true) */\n  0xffffffffffffffffffffffffffffffffffffffff\n  and\n  dup2\n  mstore\n  0x20\n  add\n    /* \"SupplyChain/s1.sol\":765:769  true */\n  0x01\n    /* \"SupplyChain/s1.sol\":744:770  User(\"Ramin\", admin, true) */\n  iszero\n  iszero\n  dup2\n  mstore\n  pop\n    /* \"SupplyChain/s1.sol\":733:771  users.push(User(\"Ramin\", admin, true)) */\n  swap1\n  dup1\n  0x01\n  dup2\n  sload\n  add\n  dup1\n  dup3\n  sstore\n  dup1\n  swap2\n  pop\n  pop\n  0x01\n  swap1\n  sub\n  swap1\n  0x00\n  mstore\n  keccak256(0x00, 0x20)\n  swap1\n  0x02\n  mul\n  add\n  0x00\n  swap1\n  swap2\n  swap1\n  swap2\n  swap1\n  swap2\n  pop\n  0x00\n  dup3\n  add\n  mload\n  dup2\n  0x00\n  add\n  swap1\n  dup1\n  mload\n  swap1\n  0x20\n  add\n  swap1\n  tag_5\n  swap3\n  swap2\n  swap1\n  tag_6\n  jump\t// in\ntag_5:\n  pop\n  0x20\n  dup3\n  add\n  mload\n  dup2\n  0x01\n  add\n  exp(0x0100, 0x00)\n  dup2\n  sload\n  dup2\n  0xffffffffffffffffffffffffffffffffffffffff\n  mul\n  not\n  and\n  swap1\n  dup4\n  0xffffffffffffffffffffffffffffffffffffffff\n  and\n  mul\n  or\n  swap1\n  sstore\n  pop\n  0x40\n  dup3\n  add\n  mload\n  dup2\n  0x01\n  add\n  exp(0x0100, 0x14)\n  dup2\n  sload\n  dup2\n  0xff\n  mul\n  not\n  and\n  swap1\n  dup4\n  iszero\n  iszero\n  mul\n  or\n  swap1\n  sstore\n  pop\n  pop\n  pop\n    /* \"SupplyChain/s1.sol\":834:839  users */\n  0x05\n    /* \"SupplyChain/s1.sol\":845:909  User(\"User2\", 0xFB2116f8C04DdDE83a66b6c09421dD0722B0c313, false) */\n  mload(0x40)\n  dup1\n  0x60\n  add\n  0x40\n  mstore\n  dup1\n  mload(0x40)\n  dup1\n  0x40\n  add\n  0x40\n  mstore\n  dup1\n  0x05\n  dup2\n  mstore\n  0x20\n  add\n  0x5573657232000000000000000000000000000000000000000000000000000000\n  dup2\n  mstore\n  pop\n  dup2\n  mstore\n  0x20\n  add\n    /* \"SupplyChain/s1.sol\":859:901  0xFB2116f8C04DdDE83a66b6c09421dD0722B0c313 */\n  0xfb2116f8c04ddde83a66b6c09421dd0722b0c313\n    /* \"SupplyChain/s1.sol\":845:909  User(\"User2\", 0xFB2116f8C04DdDE83a66b6c09421dD0722B0c313, false) */\n  0xffffffffffffffffffffffffffffffffffffffff\n  and\n  dup2\n  mstore\n  0x20\n  add\n    /* \"SupplyChain/s1.sol\":903:908  false */\n  0x00\n    /* \"SupplyChain/s1.sol\":845:909  User(\"User2\", 0xFB2116f8C04DdDE83a66b6c09421dD0722B0c313, false) */\n  iszero\n  iszero\n  dup2\n  mstore\n  pop\n    /* \"SupplyChain/s1.sol\":834:910  users.push(User(\"User2\", 0xFB2116f8C04DdDE83a66b6c09421dD0722B0c313, false)) */\n  swap1\n  dup1\n  0x01\n  dup2\n  sload\n  add\n  dup1\n  dup3\n  sstore\n  dup1\n  swap2\n  pop\n  pop\n  0x01\n  swap1\n  sub\n  swap1\n  0x00\n  mstore\n  keccak256(0x00, 0x20)\n  swap1\n  0x02\n  mul\n  add\n  0x00\n  swap1\n  swap2\n  swap1\n  swap2\n  swap1\n  swap2\n  pop\n  0x00\n  dup3\n  add\n  mload\n  dup2\n  0x00\n  add\n  swap1\n  dup1\n  mload\n  swap1\n  0x20\n  add\n  swap1\n  tag_8\n  swap3\n  swap2\n  swap1\n  tag_6\n  jump\t// in\ntag_8:\n  pop\n  0x20\n  dup3\n  add\n  mload\n  dup2\n  0x01\n  add\n  exp(0x0100, 0x00)\n  dup2\n  sload\n  dup2\n  0xffffffffffffffffffffffffffffffffffffffff\n  mul\n  not\n  and\n  swap1\n  dup4\n  0xffffffffffffffffffffffffffffffffffffffff\n  and\n  mul\n  or\n  swap1\n  sstore\n  pop\n  0x40\n  dup3\n  add\n  mload\n  dup2\n  0x01\n  add\n  exp(0x0100, 0x14)\n  dup2\n  sload\n  dup2\n  0xff\n  mul\n  not\n  and\n  swap1\n  dup4\n  iszero\n  iszero\n  mul\n  or\n  swap1\n  sstore\n  pop\n  pop\n  pop\n    /* \"SupplyChain/s1.sol\":920:925  users */\n  0x05\n    /* \"SupplyChain/s1.sol\":931:995  User(\"User3\", 0x940Ba084d29a9c3178d8239b6E8736A37BF90972, false) */\n  mload(0x40)\n  dup1\n  0x60\n  add\n  0x40\n  mstore\n  dup1\n  mload(0x40)\n  dup1\n  0x40\n  add\n  0x40\n  mstore\n  dup1\n  0x05\n  dup2\n  mstore\n  0x20\n  add\n  0x5573657233000000000000000000000000000000000000000000000000000000\n  dup2\n  mstore\n  pop\n  dup2\n  mstore\n  0x20\n  add\n    /* \"SupplyChain/s1.sol\":945:987  0x940Ba084d29a9c3178d8239b6E8736A37BF90972 */\n  0x940ba084d29a9c3178d8239b6e8736a37bf90972\n    /* \"SupplyChain/s1.sol\":931:995  User(\"User3\", 0x940Ba084d29a9c3178d8239b6E8736A37BF90972, false) */\n  0xffffffffffffffffffffffffffffffffffffffff\n  and\n  dup2\n  mstore\n  0x20\n  add\n    /* \"SupplyChain/s1.sol\":989:994  false */\n  0x00\n    /* \"SupplyChain/s1.sol\":931:995  User(\"User3\", 0x940Ba084d29a9c3178d8239b6E8736A37BF90972, false) */\n  iszero\n  iszero\n  dup2\n  mstore\n  pop\n    /* \"SupplyChain/s1.sol\":920:996  users.push(User(\"User3\", 0x940Ba084d29a9c3178d8239b6E8736A37BF90972, false)) */\n  swap1\n  dup1\n  0x01\n  dup2\n  sload\n  add\n  dup1\n  dup3\n  sstore\n  dup1\n  swap2\n  pop\n  pop\n  0x01\n  swap1\n  sub\n  swap1\n  0x00\n  mstore\n  keccak256(0x00, 0x20)\n  swap1\n  0x02\n  mul\n  add\n  0x00\n  swap1\n  swap2\n  swap1\n  swap2\n  swap1\n  swap2\n  pop\n  0x00\n  dup3\n  add\n  mload\n  dup2\n  0x00\n  add\n  swap1\n  dup1\n  mload\n  swap1\n  0x20\n  add\n  swap1\n  tag_10\n  swap3\n  swap2\n  swap1\n  tag_6\n  jump\t// in\ntag_10:\n  pop\n  0x20\n  dup3\n  add\n  mload\n  dup2\n  0x01\n  add\n  exp(0x0100, 0x00)\n  dup2\n  sload\n  dup2\n  0xffffffffffffffffffffffffffffffffffffffff\n  mul\n  not\n  and\n  swap1\n  dup4\n  0xffffffffffffffffffffffffffffffffffffffff\n  and\n  mul\n  or\n  swap1\n  sstore\n  pop\n  0x40\n  dup3\n  add\n  mload\n  dup2\n  0x01\n  add\n  exp(0x0100, 0x14)\n  dup2\n  sload\n  dup2\n  0xff\n  mul\n  not\n  and\n  swap1\n  dup4\n  iszero\n  iszero\n  mul\n  or\n  swap1\n  sstore\n  pop\n  pop\n  pop\n    /* \"SupplyChain/s1.sol\":1006:1011  users */\n  0x05\n    /* \"SupplyChain/s1.sol\":1017:1081  User(\"User4\", 0x1e914BEF7e275402e5Ea3A28bd3301e0895CFBDB, false) */\n  mload(0x40)\n  dup1\n  0x60\n  add\n  0x40\n  mstore\n  dup1\n  mload(0x40)\n  dup1\n  0x40\n  add\n  0x40\n  mstore\n  dup1\n  0x05\n  dup2\n  mstore\n  0x20\n  add\n  0x5573657234000000000000000000000000000000000000000000000000000000\n  dup2\n  mstore\n  pop\n  dup2\n  mstore\n  0x20\n  add\n    /* \"SupplyChain/s1.sol\":1031:1073  0x1e914BEF7e275402e5Ea3A28bd3301e0895CFBDB */\n  0x1e914bef7e275402e5ea3a28bd3301e0895cfbdb\n    /* \"SupplyChain/s1.sol\":1017:1081  User(\"User4\", 0x1e914BEF7e275402e5Ea3A28bd3301e0895CFBDB, false) */\n  0xffffffffffffffffffffffffffffffffffffffff\n  and\n  dup2\n  mstore\n  0x20\n  add\n    /* \"SupplyChain/s1.sol\":1075:1080  false */\n  0x00\n    /* \"SupplyChain/s1.sol\":1017:1081  User(\"User4\", 0x1e914BEF7e275402e5Ea3A28bd3301e0895CFBDB, false) */\n  iszero\n  iszero\n  dup2\n  mstore\n  pop\n    /* \"SupplyChain/s1.sol\":1006:1082  users.push(User(\"User4\", 0x1e914BEF7e275402e5Ea3A28bd3301e0895CFBDB, false)) */\n  swap1\n  dup1\n  0x01\n  dup2\n  sload\n  add\n  dup1\n  dup3\n  sstore\n  dup1\n  swap2\n  pop\n  pop\n  0x01\n  swap1\n  sub\n  swap1\n  0x00\n  mstore\n  keccak256(0x00, 0x20)\n  swap1\n  0x02\n  mul\n  add\n  0x00\n  swap1\n  swap2\n  swap1\n  swap2\n  swap1\n  swap2\n  pop\n  0x00\n  dup3\n  add\n  mload\n  dup2\n  0x00\n  add\n  swap1\n  dup1\n  mload\n  swap1\n  0x20\n  add\n  swap1\n  tag_12\n  swap3\n  swap2\n  swap1\n  tag_6\n  jump\t// in\ntag_12:\n  pop\n  0x20\n  dup3\n  add\n  mload\n  dup2\n  0x01\n  add\n  exp(0x0100, 0x00)\n  dup2\n  sload\n  dup2\n  0xffffffffffffffffffffffffffffffffffffffff\n  mul\n  not\n  and\n  swap1\n  dup4\n  0xffffffffffffffffffffffffffffffffffffffff\n  and\n  mul\n  or\n  swap1\n  sstore\n  pop\n  0x40\n  dup3\n  add\n  mload\n  dup2\n  0x01\n  add\n  exp(0x0100, 0x14)\n  dup2\n  sload\n  dup2\n  0xff\n  mul\n  not\n  and\n  swap1\n  dup4\n  iszero\n  iszero\n  mul\n  or\n  swap1\n  sstore\n  pop\n  pop\n  pop\n    /* \"SupplyChain/s1.sol\":1092:1097  users */\n  0x05\n    /* \"SupplyChain/s1.sol\":1103:1167  User(\"User5\", 0xb60451148B72E50a26fa399e61aA0a61Fb5E15ed, false) */\n  mload(0x40)\n  dup1\n  0x60\n  add\n  0x40\n  mstore\n  dup1\n  mload(0x40)\n  dup1\n  0x40\n  add\n  0x40\n  mstore\n  dup1\n  0x05\n  dup2\n  mstore\n  0x20\n  add\n  0x5573657235000000000000000000000000000000000000000000000000000000\n  dup2\n  mstore\n  pop\n  dup2\n  mstore\n  0x20\n  add\n    /* \"SupplyChain/s1.sol\":1117:1159  0xb60451148B72E50a26fa399e61aA0a61Fb5E15ed */\n  0xb60451148b72e50a26fa399e61aa0a61fb5e15ed\n    /* \"SupplyChain/s1.sol\":1103:1167  User(\"User5\", 0xb60451148B72E50a26fa399e61aA0a61Fb5E15ed, false) */\n  0xffffffffffffffffffffffffffffffffffffffff\n  and\n  dup2\n  mstore\n  0x20\n  add\n    /* \"SupplyChain/s1.sol\":1161:1166  false */\n  0x00\n    /* \"SupplyChain/s1.sol\":1103:1167  User(\"User5\", 0xb60451148B72E50a26fa399e61aA0a61Fb5E15ed, false) */\n  iszero\n  iszero\n  dup2\n  mstore\n  pop\n    /* \"SupplyChain/s1.sol\":1092:1168  users.push(User(\"User5\", 0xb60451148B72E50a26fa399e61aA0a61Fb5E15ed, false)) */\n  swap1\n  dup1\n  0x01\n  dup2\n  sload\n  add\n  dup1\n  dup3\n  sstore\n  dup1\n  swap2\n  pop\n  pop\n  0x01\n  swap1\n  sub\n  swap1\n  0x00\n  mstore\n  keccak256(0x00, 0x20)\n  swap1\n  0x02\n  mul\n  add\n  0x00\n  swap1\n  swap2\n  swap1\n  swap2\n  swap1\n  swap2\n  pop\n  0x00\n  dup3\n  add\n  mload\n  dup2\n  0x00\n  add\n  swap1\n  dup1\n  mload\n  swap1\n  0x20\n  add\n  swap1\n  tag_14\n  swap3\n  swap2\n  swap1\n  tag_6\n  jump\t// in\ntag_14:\n  pop\n  0x20\n  dup3\n  add\n  mload\n  dup2\n  0x01\n  add\n  exp(0x0100, 0x00)\n  dup2\n  sload\n  dup2\n  0xffffffffffffffffffffffffffffffffffffffff\n  mul\n  not\n  and\n  swap1\n  dup4\n  0xffffffffffffffffffffffffffffffffffffffff\n  and\n  mul\n  or\n  swap1\n  sstore\n  pop\n  0x40\n  dup3\n  add\n  mload\n  dup2\n  0x01\n  add\n  exp(0x0100, 0x14)\n  dup2\n  sload\n  dup2\n  0xff\n  mul\n  not\n  and\n  swap1\n  dup4\n  iszero\n  iszero\n  mul\n  or\n  swap1\n  sstore\n  pop\n  pop\n  pop\n    /* \"SupplyChain/s1.sol\":1178:1183  users */\n  0x05\n    /* \"SupplyChain/s1.sol\":1189:1253  User(\"User6\", 0xFd5E5eb4866c8e0A35D1C252d84056cF24A44b0C, false) */\n  mload(0x40)\n  dup1\n  0x60\n  add\n  0x40\n  mstore\n  dup1\n  mload(0x40)\n  dup1\n  0x40\n  add\n  0x40\n  mstore\n  dup1\n  0x05\n  dup2\n  mstore\n  0x20\n  add\n  0x5573657236000000000000000000000000000000000000000000000000000000\n  dup2\n  mstore\n  pop\n  dup2\n  mstore\n  0x20\n  add\n    /* \"SupplyChain/s1.sol\":1203:1245  0xFd5E5eb4866c8e0A35D1C252d84056cF24A44b0C */\n  0xfd5e5eb4866c8e0a35d1c252d84056cf24a44b0c\n    /* \"SupplyChain/s1.sol\":1189:1253  User(\"User6\", 0xFd5E5eb4866c8e0A35D1C252d84056cF24A44b0C, false) */\n  0xffffffffffffffffffffffffffffffffffffffff\n  and\n  dup2\n  mstore\n  0x20\n  add\n    /* \"SupplyChain/s1.sol\":1247:1252  false */\n  0x00\n    /* \"SupplyChain/s1.sol\":1189:1253  User(\"User6\", 0xFd5E5eb4866c8e0A35D1C252d84056cF24A44b0C, false) */\n  iszero\n  iszero\n  dup2\n  mstore\n  pop\n    /* \"SupplyChain/s1.sol\":1178:1254  users.push(User(\"User6\", 0xFd5E5eb4866c8e0A35D1C252d84056cF24A44b0C, false)) */\n  swap1\n  dup1\n  0x01\n  dup2\n  sload\n  add\n  dup1\n  dup3\n  sstore\n  dup1\n  swap2\n  pop\n  pop\n  0x01\n  swap1\n  sub\n  swap1\n  0x00\n  mstore\n  keccak256(0x00, 0x20)\n  swap1\n  0x02\n  mul\n  add\n  0x00\n  swap1\n  swap2\n  swap1\n  swap2\n  swap1\n  swap2\n  pop\n  0x00\n  dup3\n  add\n  mload\n  dup2\n  0x00\n  add\n  swap1\n  dup1\n  mload\n  swap1\n  0x20\n  add\n  swap1\n  tag_16\n  swap3\n  swap2\n  swap1\n  tag_6\n  jump\t// in\ntag_16:\n  pop\n  0x20\n  dup3\n  add\n  mload\n  dup2\n  0x01\n  add\n  exp(0x0100, 0x00)\n  dup2\n  sload\n  dup2\n  0xffffffffffffffffffffffffffffffffffffffff\n  mul\n  not\n  and\n  swap1\n  dup4\n  0xffffffffffffffffffffffffffffffffffffffff\n  and\n  mul\n  or\n  swap1\n  sstore\n  pop\n  0x40\n  dup3\n  add\n  mload\n  dup2\n  0x01\n  add\n  exp(0x0100, 0x14)\n  dup2\n  sload\n  dup2\n  0xff\n  mul\n  not\n  and\n  swap1\n  dup4\n  iszero\n  iszero\n  mul\n  or\n  swap1\n  sstore\n  pop\n  pop\n  pop\n    /* \"SupplyChain/s1.sol\":1264:1269  users */\n  0x05\n    /* \"SupplyChain/s1.sol\":1275:1339  User(\"User7\", 0x4adc466e11C07F8AbB6C09c825F528DDf1125c44, false) */\n  mload(0x40)\n  dup1\n  0x60\n  add\n  0x40\n  mstore\n  dup1\n  mload(0x40)\n  dup1\n  0x40\n  add\n  0x40\n  mstore\n  dup1\n  0x05\n  dup2\n  mstore\n  0x20\n  add\n  0x5573657237000000000000000000000000000000000000000000000000000000\n  dup2\n  mstore\n  pop\n  dup2\n  mstore\n  0x20\n  add\n    /* \"SupplyChain/s1.sol\":1289:1331  0x4adc466e11C07F8AbB6C09c825F528DDf1125c44 */\n  0x4adc466e11c07f8abb6c09c825f528ddf1125c44\n    /* \"SupplyChain/s1.sol\":1275:1339  User(\"User7\", 0x4adc466e11C07F8AbB6C09c825F528DDf1125c44, false) */\n  0xffffffffffffffffffffffffffffffffffffffff\n  and\n  dup2\n  mstore\n  0x20\n  add\n    /* \"SupplyChain/s1.sol\":1333:1338  false */\n  0x00\n    /* \"SupplyChain/s1.sol\":1275:1339  User(\"User7\", 0x4adc466e11C07F8AbB6C09c825F528DDf1125c44, false) */\n  iszero\n  iszero\n  dup2\n  mstore\n  pop\n    /* \"SupplyChain/s1.sol\":1264:1340  users.push(User(\"User7\", 0x4adc466e11C07F8AbB6C09c825F528DDf1125c44, false)) */\n  swap1\n  dup1\n  0x01\n  dup2\n  sload\n  add\n  dup1\n  dup3\n  sstore\n  dup1\n  swap2\n  pop\n  pop\n  0x01\n  swap1\n  sub\n  swap1\n  0x00\n  mstore\n  keccak256(0x00, 0x20)\n  swap1\n  0x02\n  mul\n  add\n  0x00\n  swap1\n  swap2\n  swap1\n  swap2\n  swap1\n  swap2\n  pop\n  0x00\n  dup3\n  add\n  mload\n  dup2\n  0x00\n  add\n  swap1\n  dup1\n  mload\n  swap1\n  0x20\n  add\n  swap1\n  tag_18\n  swap3\n  swap2\n  swap1\n  tag_6\n  jump\t// in\ntag_18:\n  pop\n  0x20\n  dup3\n  add\n  mload\n  dup2\n  0x01\n  add\n  exp(0x0100, 0x00)\n  dup2\n  sload\n  dup2\n  0xffffffffffffffffffffffffffffffffffffffff\n  mul\n  not\n  and\n  swap1\n  dup4\n  0xffffffffffffffffffffffffffffffffffffffff\n  and\n  mul\n  or\n  swap1\n  sstore\n  pop\n  0x40\n  dup3\n  add\n  mload\n  dup2\n  0x01\n  add\n  exp(0x0100, 0x14)\n  dup2\n  sload\n  dup2\n  0xff\n  mul\n  not\n  and\n  swap1\n  dup4\n  iszero\n  iszero\n  mul\n  or\n  swap1\n  sstore\n  pop\n  pop\n  pop\n    /* \"SupplyChain/s1.sol\":1350:1355  users */\n  0x05\n    /* \"SupplyChain/s1.sol\":1361:1425  User(\"User8\", 0xF3b2ac76e7E25DB7756F79A9aec89A0a2bf8Aa1F, false) */\n  mload(0x40)\n  dup1\n  0x60\n  add\n  0x40\n  mstore\n  dup1\n  mload(0x40)\n  dup1\n  0x40\n  add\n  0x40\n  mstore\n  dup1\n  0x05\n  dup2\n  mstore\n  0x20\n  add\n  0x5573657238000000000000000000000000000000000000000000000000000000\n  dup2\n  mstore\n  pop\n  dup2\n  mstore\n  0x20\n  add\n    /* \"SupplyChain/s1.sol\":1375:1417  0xF3b2ac76e7E25DB7756F79A9aec89A0a2bf8Aa1F */\n  0xf3b2ac76e7e25db7756f79a9aec89a0a2bf8aa1f\n    /* \"SupplyChain/s1.sol\":1361:1425  User(\"User8\", 0xF3b2ac76e7E25DB7756F79A9aec89A0a2bf8Aa1F, false) */\n  0xffffffffffffffffffffffffffffffffffffffff\n  and\n  dup2\n  mstore\n  0x20\n  add\n    /* \"SupplyChain/s1.sol\":1419:1424  false */\n  0x00\n    /* \"SupplyChain/s1.sol\":1361:1425  User(\"User8\", 0xF3b2ac76e7E25DB7756F79A9aec89A0a2bf8Aa1F, false) */\n  iszero\n  iszero\n  dup2\n  mstore\n  pop\n    /* \"SupplyChain/s1.sol\":1350:1426  users.push(User(\"User8\", 0xF3b2ac76e7E25DB7756F79A9aec89A0a2bf8Aa1F, false)) */\n  swap1\n  dup1\n  0x01\n  dup2\n  sload\n  add\n  dup1\n  dup3\n  sstore\n  dup1\n  swap2\n  pop\n  pop\n  0x01\n  swap1\n  sub\n  swap1\n  0x00\n  mstore\n  keccak256(0x00, 0x20)\n  swap1\n  0x02\n  mul\n  add\n  0x00\n  swap1\n  swap2\n  swap1\n  swap2\n  swap1\n  swap2\n  pop\n  0x00\n  dup3\n  add\n  mload\n  dup2\n  0x00\n  add\n  swap1\n  dup1\n  mload\n  swap1\n  0x20\n  add\n  swap1\n  tag_20\n  swap3\n  swap2\n  swap1\n  tag_6\n  jump\t// in\ntag_20:\n  pop\n  0x20\n  dup3\n  add\n  mload\n  dup2\n  0x01\n  add\n  exp(0x0100, 0x00)\n  dup2\n  sload\n  dup2\n  0xffffffffffffffffffffffffffffffffffffffff\n  mul\n  not\n  and\n  swap1\n  dup4\n  0xffffffffffffffffffffffffffffffffffffffff\n  and\n  mul\n  or\n  swap1\n  sstore\n  pop\n  0x40\n  dup3\n  add\n  mload\n  dup2\n  0x01\n  add\n  exp(0x0100, 0x14)\n  dup2\n  sload\n  dup2\n  0xff\n  mul\n  not\n  and\n  swap1\n  dup4\n  iszero\n  iszero\n  mul\n  or\n  swap1\n  sstore\n  pop\n  pop\n  pop\n    /* \"SupplyChain/s1.sol\":1436:1441  users */\n  0x05\n    /* \"SupplyChain/s1.sol\":1447:1511  User(\"User9\", 0xBcEa4dd68905779F08f0799ca6e1309107A19f81, false) */\n  mload(0x40)\n  dup1\n  0x60\n  add\n  0x40\n  mstore\n  dup1\n  mload(0x40)\n  dup1\n  0x40\n  add\n  0x40\n  mstore\n  dup1\n  0x05\n  dup2\n  mstore\n  0x20\n  add\n  0x5573657239000000000000000000000000000000000000000000000000000000\n  dup2\n  mstore\n  pop\n  dup2\n  mstore\n  0x20\n  add\n    /* \"SupplyChain/s1.sol\":1461:1503  0xBcEa4dd68905779F08f0799ca6e1309107A19f81 */\n  0xbcea4dd68905779f08f0799ca6e1309107a19f81\n    /* \"SupplyChain/s1.sol\":1447:1511  User(\"User9\", 0xBcEa4dd68905779F08f0799ca6e1309107A19f81, false) */\n  0xffffffffffffffffffffffffffffffffffffffff\n  and\n  dup2\n  mstore\n  0x20\n  add\n    /* \"SupplyChain/s1.sol\":1505:1510  false */\n  0x00\n    /* \"SupplyChain/s1.sol\":1447:1511  User(\"User9\", 0xBcEa4dd68905779F08f0799ca6e1309107A19f81, false) */\n  iszero\n  iszero\n  dup2\n  mstore\n  pop\n    /* \"SupplyChain/s1.sol\":1436:1512  users.push(User(\"User9\", 0xBcEa4dd68905779F08f0799ca6e1309107A19f81, false)) */\n  swap1\n  dup1\n  0x01\n  dup2\n  sload\n  add\n  dup1\n  dup3\n  sstore\n  dup1\n  swap2\n  pop\n  pop\n  0x01\n  swap1\n  sub\n  swap1\n  0x00\n  mstore\n  keccak256(0x00, 0x20)\n  swap1\n  0x02\n  mul\n  add\n  0x00\n  swap1\n  swap2\n  swap1\n  swap2\n  swap1\n  swap2\n  pop\n  0x00\n  dup3\n  add\n  mload\n  dup2\n  0x00\n  add\n  swap1\n  dup1\n  mload\n  swap1\n  0x20\n  add\n  swap1\n  tag_22\n  swap3\n  swap2\n  swap1\n  tag_6\n  jump\t// in\ntag_22:\n  pop\n  0x20\n  dup3\n  add\n  mload\n  dup2\n  0x01\n  add\n  exp(0x0100, 0x00)\n  dup2\n  sload\n  dup2\n  0xffffffffffffffffffffffffffffffffffffffff\n  mul\n  not\n  and\n  swap1\n  dup4\n  0xffffffffffffffffffffffffffffffffffffffff\n  and\n  mul\n  or\n  swap1\n  sstore\n  pop\n  0x40\n  dup3\n  add\n  mload\n  dup2\n  0x01\n  add\n  exp(0x0100, 0x14)\n  dup2\n  sload\n  dup2\n  0xff\n  mul\n  not\n  and\n  swap1\n  dup4\n  iszero\n  iszero\n  mul\n  or\n  swap1\n  sstore\n  pop\n  pop\n  pop\n    /* \"SupplyChain/s1.sol\":1522:1527  users */\n  0x05\n    /* \"SupplyChain/s1.sol\":1533:1598  User(\"User10\", 0x1bC075565A4023cBbBe9e71A905893503697C692, false) */\n  mload(0x40)\n  dup1\n  0x60\n  add\n  0x40\n  mstore\n  dup1\n  mload(0x40)\n  dup1\n  0x40\n  add\n  0x40\n  mstore\n  dup1\n  0x06\n  dup2\n  mstore\n  0x20\n  add\n  0x5573657231300000000000000000000000000000000000000000000000000000\n  dup2\n  mstore\n  pop\n  dup2\n  mstore\n  0x20\n  add\n    /* \"SupplyChain/s1.sol\":1548:1590  0x1bC075565A4023cBbBe9e71A905893503697C692 */\n  0x1bc075565a4023cbbbe9e71a905893503697c692\n    /* \"SupplyChain/s1.sol\":1533:1598  User(\"User10\", 0x1bC075565A4023cBbBe9e71A905893503697C692, false) */\n  0xffffffffffffffffffffffffffffffffffffffff\n  and\n  dup2\n  mstore\n  0x20\n  add\n    /* \"SupplyChain/s1.sol\":1592:1597  false */\n  0x00\n    /* \"SupplyChain/s1.sol\":1533:1598  User(\"User10\", 0x1bC075565A4023cBbBe9e71A905893503697C692, false) */\n  iszero\n  iszero\n  dup2\n  mstore\n  pop\n    /* \"SupplyChain/s1.sol\":1522:1599  users.push(User(\"User10\", 0x1bC075565A4023cBbBe9e71A905893503697C692, false)) */\n  swap1\n  dup1\n  0x01\n  dup2\n  sload\n  add\n  dup1\n  dup3\n  sstore\n  dup1\n  swap2\n  pop\n  pop\n  0x01\n  swap1\n  sub\n  swap1\n  0x00\n  mstore\n  keccak256(0x00, 0x20)\n  swap1\n  0x02\n  mul\n  add\n  0x00\n  swap1\n  swap2\n  swap1\n  swap2\n  swap1\n  swap2\n  pop\n  0x00\n  dup3\n  add\n  mload\n  dup2\n  0x00\n  add\n  swap1\n  dup1\n  mload\n  swap1\n  0x20\n  add\n  swap1\n  tag_24\n  swap3\n  swap2\n  swap1\n  tag_6\n  jump\t// in\ntag_24:\n  pop\n  0x20\n  dup3\n  add\n  mload\n  dup2\n  0x01\n  add\n  exp(0x0100, 0x00)\n  dup2\n  sload\n  dup2\n  0xffffffffffffffffffffffffffffffffffffffff\n  mul\n  not\n  and\n  swap1\n  dup4\n  0xffffffffffffffffffffffffffffffffffffffff\n  and\n  mul\n  or\n  swap1\n  sstore\n  pop\n  0x40\n  dup3\n  add\n  mload\n  dup2\n  0x01\n  add\n  exp(0x0100, 0x14)\n  dup2\n  sload\n  dup2\n  0xff\n  mul\n  not\n  and\n  swap1\n  dup4\n  iszero\n  iszero\n  mul\n  or\n  swap1\n  sstore\n  pop\n  pop\n  pop\n    /* \"SupplyChain/s1.sol\":1624:1629  admin */\n  0x00\n  dup1\n  sload\n  swap1\n  0x0100\n  exp\n  swap1\n  div\n  0xffffffffffffffffffffffffffffffffffffffff\n  and\n    /* \"SupplyChain/s1.sol\":1610:1621  currentUser */\n  0x01\n  0x00\n    /* \"SupplyChain/s1.sol\":1610:1629  currentUser = admin */\n  0x0100\n  exp\n  dup2\n  sload\n  dup2\n  0xffffffffffffffffffffffffffffffffffffffff\n  mul\n  not\n  and\n  swap1\n  dup4\n  0xffffffffffffffffffffffffffffffffffffffff\n  and\n  mul\n  or\n  swap1\n  sstore\n  pop\n    /* \"SupplyChain/s1.sol\":57:7391  contract SupplyChain {... */\n  jump(tag_25)\ntag_6:\n  dup3\n  dup1\n  sload\n  tag_26\n  swap1\n  tag_27\n  jump\t// in\ntag_26:\n  swap1\n  0x00\n  mstore\n  keccak256(0x00, 0x20)\n  swap1\n  0x1f\n  add\n  0x20\n  swap1\n  div\n  dup2\n  add\n  swap3\n  dup3\n  tag_29\n  jumpi\n  0x00\n  dup6\n  sstore\n  jump(tag_28)\ntag_29:\n  dup3\n  0x1f\n  lt\n  tag_30\n  jumpi\n  dup1\n  mload\n  not(0xff)\n  and\n  dup4\n  dup1\n  add\n  or\n  dup6\n  sstore\n  jump(tag_28)\ntag_30:\n  dup3\n  dup1\n  add\n  0x01\n  add\n  dup6\n  sstore\n  dup3\n  iszero\n  tag_28\n  jumpi\n  swap2\n  dup3\n  add\ntag_31:\n  dup3\n  dup2\n  gt\n  iszero\n  tag_32\n  jumpi\n  dup3\n  mload\n  dup3\n  sstore\n  swap2\n  0x20\n  add\n  swap2\n  swap1\n  0x01\n  add\n  swap1\n  jump(tag_31)\ntag_32:\ntag_28:\n  pop\n  swap1\n  pop\n  tag_33\n  swap2\n  swap1\n  tag_34\n  jump\t// in\ntag_33:\n  pop\n  swap1\n  jump\t// out\ntag_34:\ntag_35:\n  dup1\n  dup3\n  gt\n  iszero\n  tag_36\n  jumpi\n  0x00\n  dup2\n  0x00\n  swap1\n  sstore\n  pop\n  0x01\n  add\n  jump(tag_35)\ntag_36:\n  pop\n  swap1\n  jump\t// out\n    /* \"#utility.yul\":7:327   */\ntag_27:\n  0x00\n    /* \"#utility.yul\":88:89   */\n  0x02\n    /* \"#utility.yul\":82:86   */\n  dup3\n    /* \"#utility.yul\":78:90   */\n  div\n    /* \"#utility.yul\":68:90   */\n  swap1\n  pop\n    /* \"#utility.yul\":135:136   */\n  0x01\n    /* \"#utility.yul\":129:133   */\n  dup3\n    /* \"#utility.yul\":125:137   */\n  and\n    /* \"#utility.yul\":156:174   */\n  dup1\n    /* \"#utility.yul\":146:148   */\n  tag_39\n  jumpi\n    /* \"#utility.yul\":212:216   */\n  0x7f\n    /* \"#utility.yul\":204:210   */\n  dup3\n    /* \"#utility.yul\":200:217   */\n  and\n    /* \"#utility.yul\":190:217   */\n  swap2\n  pop\n    /* \"#utility.yul\":146:148   */\ntag_39:\n    /* \"#utility.yul\":274:276   */\n  0x20\n    /* \"#utility.yul\":266:272   */\n  dup3\n    /* \"#utility.yul\":263:277   */\n  lt\n    /* \"#utility.yul\":243:261   */\n  dup2\n    /* \"#utility.yul\":240:278   */\n  eq\n    /* \"#utility.yul\":237:239   */\n  iszero\n  tag_40\n  jumpi\n    /* \"#utility.yul\":293:311   */\n  tag_41\n  tag_42\n  jump\t// in\ntag_41:\n    /* \"#utility.yul\":237:239   */\ntag_40:\n    /* \"#utility.yul\":58:327   */\n  pop\n  swap2\n  swap1\n  pop\n  jump\t// out\n    /* \"#utility.yul\":333:513   */\ntag_42:\n    /* \"#utility.yul\":381:458   */\n  0x4e487b7100000000000000000000000000000000000000000000000000000000\n    /* \"#utility.yul\":378:379   */\n  0x00\n    /* \"#utility.yul\":371:459   */\n  mstore\n    /* \"#utility.yul\":478:482   */\n  0x22\n    /* \"#utility.yul\":475:476   */\n  0x04\n    /* \"#utility.yul\":468:483   */\n  mstore\n    /* \"#utility.yul\":502:506   */\n  0x24\n    /* \"#utility.yul\":499:500   */\n  0x00\n    /* \"#utility.yul\":492:507   */\n  revert\n    /* \"SupplyChain/s1.sol\":57:7391  contract SupplyChain {... */\ntag_25:\n  dataSize(sub_0)\n  dup1\n  dataOffset(sub_0)\n  0x00\n  codecopy\n  0x00\n  return\nstop\n\nsub_0: assembly {\n        /* \"SupplyChain/s1.sol\":57:7391  contract SupplyChain {... */\n      mstore(0x40, 0x80)\n      callvalue\n      dup1\n      iszero\n      tag_1\n      jumpi\n      0x00\n      dup1\n      revert\n    tag_1:\n      pop\n      jumpi(tag_2, lt(calldatasize, 0x04))\n      shr(0xe0, calldataload(0x00))\n      dup1\n      0x4386731f\n      gt\n      tag_16\n      jumpi\n      dup1\n      0xc18db81c\n      gt\n      tag_17\n      jumpi\n      dup1\n      0xc18db81c\n      eq\n      tag_12\n      jumpi\n      dup1\n      0xe43059e5\n      eq\n      tag_13\n      jumpi\n      dup1\n      0xf6959f0a\n      eq\n      tag_14\n      jumpi\n      dup1\n      0xf851a440\n      eq\n      tag_15\n      jumpi\n      jump(tag_2)\n    tag_17:\n      dup1\n      0x4386731f\n      eq\n      tag_9\n      jumpi\n      dup1\n      0x57a096a1\n      eq\n      tag_10\n      jumpi\n      dup1\n      0x92ee0334\n      eq\n      tag_11\n      jumpi\n      jump(tag_2)\n    tag_16:\n      dup1\n      0x1f16653b\n      eq\n      tag_3\n      jumpi\n      dup1\n      0x2346d6cd\n      eq\n      tag_4\n      jumpi\n      dup1\n      0x26af03e2\n      eq\n      tag_5\n      jumpi\n      dup1\n      0x339ca758\n      eq\n      tag_6\n      jumpi\n      dup1\n      0x365b98b2\n      eq\n      tag_7\n      jumpi\n      dup1\n      0x3f70c2b4\n      eq\n      tag_8\n      jumpi\n    tag_2:\n      0x00\n      dup1\n      revert\n        /* \"SupplyChain/s1.sol\":424:457  uint256 public productCounter = 0 */\n    tag_3:\n      tag_18\n      tag_19\n      jump\t// in\n    tag_18:\n      mload(0x40)\n      tag_20\n      swap2\n      swap1\n      tag_21\n      jump\t// in\n    tag_20:\n      mload(0x40)\n      dup1\n      swap2\n      sub\n      swap1\n      return\n        /* \"SupplyChain/s1.sol\":2209:2576  function addProductToGeneralWarehouse(string memory _name) public onlyAdmin {... */\n    tag_4:\n      tag_22\n      0x04\n      dup1\n      calldatasize\n      sub\n      dup2\n      add\n      swap1\n      tag_23\n      swap2\n      swap1\n      tag_24\n      jump\t// in\n    tag_23:\n      tag_25\n      jump\t// in\n    tag_22:\n      stop\n        /* \"SupplyChain/s1.sol\":4901:5660  function updateProductName(uint256 _productId, string memory _newName) public onlyAdmin {... */\n    tag_5:\n      tag_26\n      0x04\n      dup1\n      calldatasize\n      sub\n      dup2\n      add\n      swap1\n      tag_27\n      swap2\n      swap1\n      tag_28\n      jump\t// in\n    tag_27:\n      tag_29\n      jump\t// in\n    tag_26:\n      stop\n        /* \"SupplyChain/s1.sol\":520:571  mapping(address => Product[]) public userWarehouses */\n    tag_6:\n      tag_30\n      0x04\n      dup1\n      calldatasize\n      sub\n      dup2\n      add\n      swap1\n      tag_31\n      swap2\n      swap1\n      tag_32\n      jump\t// in\n    tag_31:\n      tag_33\n      jump\t// in\n    tag_30:\n      mload(0x40)\n      tag_34\n      swap4\n      swap3\n      swap2\n      swap1\n      tag_35\n      jump\t// in\n    tag_34:\n      mload(0x40)\n      dup1\n      swap2\n      sub\n      swap1\n      return\n        /* \"SupplyChain/s1.sol\":578:597  User[] public users */\n    tag_7:\n      tag_36\n      0x04\n      dup1\n      calldatasize\n      sub\n      dup2\n      add\n      swap1\n      tag_37\n      swap2\n      swap1\n      tag_38\n      jump\t// in\n    tag_37:\n      tag_39\n      jump\t// in\n    tag_36:\n      mload(0x40)\n      tag_40\n      swap4\n      swap3\n      swap2\n      swap1\n      tag_41\n      jump\t// in\n    tag_40:\n      mload(0x40)\n      dup1\n      swap2\n      sub\n      swap1\n      return\n        /* \"SupplyChain/s1.sol\":6482:7171  function getProductById(uint256 _productId) public view returns (Product memory) {... */\n    tag_8:\n      tag_42\n      0x04\n      dup1\n      calldatasize\n      sub\n      dup2\n      add\n      swap1\n      tag_43\n      swap2\n      swap1\n      tag_38\n      jump\t// in\n    tag_43:\n      tag_44\n      jump\t// in\n    tag_42:\n      mload(0x40)\n      tag_45\n      swap2\n      swap1\n      tag_46\n      jump\t// in\n    tag_45:\n      mload(0x40)\n      dup1\n      swap2\n      sub\n      swap1\n      return\n        /* \"SupplyChain/s1.sol\":1892:2160  function chooseAccount(uint256 _index) public {... */\n    tag_9:\n      tag_47\n      0x04\n      dup1\n      calldatasize\n      sub\n      dup2\n      add\n      swap1\n      tag_48\n      swap2\n      swap1\n      tag_38\n      jump\t// in\n    tag_48:\n      tag_49\n      jump\t// in\n    tag_47:\n      stop\n        /* \"SupplyChain/s1.sol\":5746:6424  function getProductHistory(uint256 _productId) public view returns (address[] memory) {... */\n    tag_10:\n      tag_50\n      0x04\n      dup1\n      calldatasize\n      sub\n      dup2\n      add\n      swap1\n      tag_51\n      swap2\n      swap1\n      tag_38\n      jump\t// in\n    tag_51:\n      tag_52\n      jump\t// in\n    tag_50:\n      mload(0x40)\n      tag_53\n      swap2\n      swap1\n      tag_54\n      jump\t// in\n    tag_53:\n      mload(0x40)\n      dup1\n      swap2\n      sub\n      swap1\n      return\n        /* \"SupplyChain/s1.sol\":355:381  address public currentUser */\n    tag_11:\n      tag_55\n      tag_56\n      jump\t// in\n    tag_55:\n      mload(0x40)\n      tag_57\n      swap2\n      swap1\n      tag_58\n      jump\t// in\n    tag_57:\n      mload(0x40)\n      dup1\n      swap2\n      sub\n      swap1\n      return\n        /* \"SupplyChain/s1.sol\":463:514  mapping(uint256 => Product) public generalWarehouse */\n    tag_12:\n      tag_59\n      0x04\n      dup1\n      calldatasize\n      sub\n      dup2\n      add\n      swap1\n      tag_60\n      swap2\n      swap1\n      tag_38\n      jump\t// in\n    tag_60:\n      tag_61\n      jump\t// in\n    tag_59:\n      mload(0x40)\n      tag_62\n      swap4\n      swap3\n      swap2\n      swap1\n      tag_35\n      jump\t// in\n    tag_62:\n      mload(0x40)\n      dup1\n      swap2\n      sub\n      swap1\n      return\n        /* \"SupplyChain/s1.sol\":3200:4273  function transferProduct(uint256 _productId, address _to) public {... */\n    tag_13:\n      tag_63\n      0x04\n      dup1\n      calldatasize\n      sub\n      dup2\n      add\n      swap1\n      tag_64\n      swap2\n      swap1\n      tag_65\n      jump\t// in\n    tag_64:\n      tag_66\n      jump\t// in\n    tag_63:\n      stop\n        /* \"SupplyChain/s1.sol\":2647:3144  function transferProductFromGeneral(uint256 _productId, address _to) public onlyAdmin {... */\n    tag_14:\n      tag_67\n      0x04\n      dup1\n      calldatasize\n      sub\n      dup2\n      add\n      swap1\n      tag_68\n      swap2\n      swap1\n      tag_65\n      jump\t// in\n    tag_68:\n      tag_69\n      jump\t// in\n    tag_67:\n      stop\n        /* \"SupplyChain/s1.sol\":329:349  address public admin */\n    tag_15:\n      tag_70\n      tag_71\n      jump\t// in\n    tag_70:\n      mload(0x40)\n      tag_72\n      swap2\n      swap1\n      tag_58\n      jump\t// in\n    tag_72:\n      mload(0x40)\n      dup1\n      swap2\n      sub\n      swap1\n      return\n        /* \"SupplyChain/s1.sol\":424:457  uint256 public productCounter = 0 */\n    tag_19:\n      sload(0x02)\n      dup2\n      jump\t// out\n        /* \"SupplyChain/s1.sol\":2209:2576  function addProductToGeneralWarehouse(string memory _name) public onlyAdmin {... */\n    tag_25:\n        /* \"SupplyChain/s1.sol\":1780:1785  admin */\n      0x00\n      dup1\n      sload\n      swap1\n      0x0100\n      exp\n      swap1\n      div\n      0xffffffffffffffffffffffffffffffffffffffff\n      and\n        /* \"SupplyChain/s1.sol\":1766:1785  msg.sender == admin */\n      0xffffffffffffffffffffffffffffffffffffffff\n      and\n        /* \"SupplyChain/s1.sol\":1766:1776  msg.sender */\n      caller\n        /* \"SupplyChain/s1.sol\":1766:1785  msg.sender == admin */\n      0xffffffffffffffffffffffffffffffffffffffff\n      and\n      eq\n        /* \"SupplyChain/s1.sol\":1758:1826  require(msg.sender == admin, \"Yalniz admin bu emeliyyati ede biler\") */\n      tag_74\n      jumpi\n      mload(0x40)\n      0x08c379a000000000000000000000000000000000000000000000000000000000\n      dup2\n      mstore\n      0x04\n      add\n      tag_75\n      swap1\n      tag_76\n      jump\t// in\n    tag_75:\n      mload(0x40)\n      dup1\n      swap2\n      sub\n      swap1\n      revert\n    tag_74:\n        /* \"SupplyChain/s1.sol\":2295:2309  productCounter */\n      0x02\n      0x00\n        /* \"SupplyChain/s1.sol\":2295:2311  productCounter++ */\n      dup2\n      sload\n      dup1\n      swap3\n      swap2\n      swap1\n      tag_78\n      swap1\n      tag_79\n      jump\t// in\n    tag_78:\n      swap2\n      swap1\n      pop\n      sstore\n      pop\n        /* \"SupplyChain/s1.sol\":2321:2347  Product storage newProduct */\n      0x00\n        /* \"SupplyChain/s1.sol\":2350:2366  generalWarehouse */\n      0x03\n        /* \"SupplyChain/s1.sol\":2350:2382  generalWarehouse[productCounter] */\n      0x00\n        /* \"SupplyChain/s1.sol\":2367:2381  productCounter */\n      sload(0x02)\n        /* \"SupplyChain/s1.sol\":2350:2382  generalWarehouse[productCounter] */\n      dup2\n      mstore\n      0x20\n      add\n      swap1\n      dup2\n      mstore\n      0x20\n      add\n      0x00\n      keccak256\n        /* \"SupplyChain/s1.sol\":2321:2382  Product storage newProduct = generalWarehouse[productCounter] */\n      swap1\n      pop\n        /* \"SupplyChain/s1.sol\":2408:2422  productCounter */\n      sload(0x02)\n        /* \"SupplyChain/s1.sol\":2392:2402  newProduct */\n      dup2\n        /* \"SupplyChain/s1.sol\":2392:2405  newProduct.id */\n      0x00\n      add\n        /* \"SupplyChain/s1.sol\":2392:2422  newProduct.id = productCounter */\n      dup2\n      swap1\n      sstore\n      pop\n        /* \"SupplyChain/s1.sol\":2450:2455  _name */\n      dup2\n        /* \"SupplyChain/s1.sol\":2432:2442  newProduct */\n      dup2\n        /* \"SupplyChain/s1.sol\":2432:2447  newProduct.name */\n      0x01\n      add\n        /* \"SupplyChain/s1.sol\":2432:2455  newProduct.name = _name */\n      swap1\n      dup1\n      mload\n      swap1\n      0x20\n      add\n      swap1\n      tag_80\n      swap3\n      swap2\n      swap1\n      tag_81\n      jump\t// in\n    tag_80:\n      pop\n        /* \"SupplyChain/s1.sol\":2484:2489  admin */\n      0x00\n      dup1\n      sload\n      swap1\n      0x0100\n      exp\n      swap1\n      div\n      0xffffffffffffffffffffffffffffffffffffffff\n      and\n        /* \"SupplyChain/s1.sol\":2465:2475  newProduct */\n      dup2\n        /* \"SupplyChain/s1.sol\":2465:2481  newProduct.owner */\n      0x02\n      add\n      0x00\n        /* \"SupplyChain/s1.sol\":2465:2489  newProduct.owner = admin */\n      0x0100\n      exp\n      dup2\n      sload\n      dup2\n      0xffffffffffffffffffffffffffffffffffffffff\n      mul\n      not\n      and\n      swap1\n      dup4\n      0xffffffffffffffffffffffffffffffffffffffff\n      and\n      mul\n      or\n      swap1\n      sstore\n      pop\n        /* \"SupplyChain/s1.sol\":2499:2509  newProduct */\n      dup1\n        /* \"SupplyChain/s1.sol\":2499:2517  newProduct.history */\n      0x03\n      add\n        /* \"SupplyChain/s1.sol\":2523:2528  admin */\n      0x00\n      dup1\n      sload\n      swap1\n      0x0100\n      exp\n      swap1\n      div\n      0xffffffffffffffffffffffffffffffffffffffff\n      and\n        /* \"SupplyChain/s1.sol\":2499:2529  newProduct.history.push(admin) */\n      swap1\n      dup1\n      0x01\n      dup2\n      sload\n      add\n      dup1\n      dup3\n      sstore\n      dup1\n      swap2\n      pop\n      pop\n      0x01\n      swap1\n      sub\n      swap1\n      0x00\n      mstore\n      keccak256(0x00, 0x20)\n      add\n      0x00\n      swap1\n      swap2\n      swap1\n      swap2\n      swap1\n      swap2\n      0x0100\n      exp\n      dup2\n      sload\n      dup2\n      0xffffffffffffffffffffffffffffffffffffffff\n      mul\n      not\n      and\n      swap1\n      dup4\n      0xffffffffffffffffffffffffffffffffffffffff\n      and\n      mul\n      or\n      swap1\n      sstore\n      pop\n        /* \"SupplyChain/s1.sol\":1836:1837  _ */\n      pop\n        /* \"SupplyChain/s1.sol\":2209:2576  function addProductToGeneralWarehouse(string memory _name) public onlyAdmin {... */\n      pop\n      jump\t// out\n        /* \"SupplyChain/s1.sol\":4901:5660  function updateProductName(uint256 _productId, string memory _newName) public onlyAdmin {... */\n    tag_29:\n        /* \"SupplyChain/s1.sol\":1780:1785  admin */\n      0x00\n      dup1\n      sload\n      swap1\n      0x0100\n      exp\n      swap1\n      div\n      0xffffffffffffffffffffffffffffffffffffffff\n      and\n        /* \"SupplyChain/s1.sol\":1766:1785  msg.sender == admin */\n      0xffffffffffffffffffffffffffffffffffffffff\n      and\n        /* \"SupplyChain/s1.sol\":1766:1776  msg.sender */\n      caller\n        /* \"SupplyChain/s1.sol\":1766:1785  msg.sender == admin */\n      0xffffffffffffffffffffffffffffffffffffffff\n      and\n      eq\n        /* \"SupplyChain/s1.sol\":1758:1826  require(msg.sender == admin, \"Yalniz admin bu emeliyyati ede biler\") */\n      tag_84\n      jumpi\n      mload(0x40)\n      0x08c379a000000000000000000000000000000000000000000000000000000000\n      dup2\n      mstore\n      0x04\n      add\n      tag_85\n      swap1\n      tag_76\n      jump\t// in\n    tag_85:\n      mload(0x40)\n      dup1\n      swap2\n      sub\n      swap1\n      revert\n    tag_84:\n        /* \"SupplyChain/s1.sol\":4999:5022  Product storage product */\n      0x00\n        /* \"SupplyChain/s1.sol\":5025:5041  generalWarehouse */\n      0x03\n        /* \"SupplyChain/s1.sol\":5025:5053  generalWarehouse[_productId] */\n      0x00\n        /* \"SupplyChain/s1.sol\":5042:5052  _productId */\n      dup5\n        /* \"SupplyChain/s1.sol\":5025:5053  generalWarehouse[_productId] */\n      dup2\n      mstore\n      0x20\n      add\n      swap1\n      dup2\n      mstore\n      0x20\n      add\n      0x00\n      keccak256\n        /* \"SupplyChain/s1.sol\":4999:5053  Product storage product = generalWarehouse[_productId] */\n      swap1\n      pop\n        /* \"SupplyChain/s1.sol\":5082:5083  0 */\n      0x00\n        /* \"SupplyChain/s1.sol\":5068:5075  product */\n      dup2\n        /* \"SupplyChain/s1.sol\":5068:5078  product.id */\n      0x00\n      add\n      sload\n        /* \"SupplyChain/s1.sol\":5068:5083  product.id == 0 */\n      eq\n        /* \"SupplyChain/s1.sol\":5064:5566  if (product.id == 0) {... */\n      iszero\n      tag_87\n      jumpi\n        /* \"SupplyChain/s1.sol\":5178:5187  uint256 i */\n      0x00\n        /* \"SupplyChain/s1.sol\":5173:5556  for (uint256 i = 0; i < users.length; i++) {... */\n    tag_88:\n        /* \"SupplyChain/s1.sol\":5197:5202  users */\n      0x05\n        /* \"SupplyChain/s1.sol\":5197:5209  users.length */\n      dup1\n      sload\n      swap1\n      pop\n        /* \"SupplyChain/s1.sol\":5193:5194  i */\n      dup2\n        /* \"SupplyChain/s1.sol\":5193:5209  i < users.length */\n      lt\n        /* \"SupplyChain/s1.sol\":5173:5556  for (uint256 i = 0; i < users.length; i++) {... */\n      iszero\n      tag_89\n      jumpi\n        /* \"SupplyChain/s1.sol\":5234:5261  Product[] storage warehouse */\n      0x00\n        /* \"SupplyChain/s1.sol\":5264:5278  userWarehouses */\n      0x04\n        /* \"SupplyChain/s1.sol\":5264:5300  userWarehouses[users[i].userAddress] */\n      0x00\n        /* \"SupplyChain/s1.sol\":5279:5284  users */\n      0x05\n        /* \"SupplyChain/s1.sol\":5285:5286  i */\n      dup5\n        /* \"SupplyChain/s1.sol\":5279:5287  users[i] */\n      dup2\n      sload\n      dup2\n      lt\n      tag_91\n      jumpi\n      mstore(0x00, 0x4e487b7100000000000000000000000000000000000000000000000000000000)\n      mstore(0x04, 0x32)\n      revert(0x00, 0x24)\n    tag_91:\n      swap1\n      0x00\n      mstore\n      keccak256(0x00, 0x20)\n      swap1\n      0x02\n      mul\n      add\n        /* \"SupplyChain/s1.sol\":5279:5299  users[i].userAddress */\n      0x01\n      add\n      0x00\n      swap1\n      sload\n      swap1\n      0x0100\n      exp\n      swap1\n      div\n      0xffffffffffffffffffffffffffffffffffffffff\n      and\n        /* \"SupplyChain/s1.sol\":5264:5300  userWarehouses[users[i].userAddress] */\n      0xffffffffffffffffffffffffffffffffffffffff\n      and\n      0xffffffffffffffffffffffffffffffffffffffff\n      and\n      dup2\n      mstore\n      0x20\n      add\n      swap1\n      dup2\n      mstore\n      0x20\n      add\n      0x00\n      keccak256\n        /* \"SupplyChain/s1.sol\":5234:5300  Product[] storage warehouse = userWarehouses[users[i].userAddress] */\n      swap1\n      pop\n        /* \"SupplyChain/s1.sol\":5323:5332  uint256 j */\n      0x00\n        /* \"SupplyChain/s1.sol\":5318:5542  for (uint256 j = 0; j < warehouse.length; j++) {... */\n    tag_93:\n        /* \"SupplyChain/s1.sol\":5342:5351  warehouse */\n      dup2\n        /* \"SupplyChain/s1.sol\":5342:5358  warehouse.length */\n      dup1\n      sload\n      swap1\n      pop\n        /* \"SupplyChain/s1.sol\":5338:5339  j */\n      dup2\n        /* \"SupplyChain/s1.sol\":5338:5358  j < warehouse.length */\n      lt\n        /* \"SupplyChain/s1.sol\":5318:5542  for (uint256 j = 0; j < warehouse.length; j++) {... */\n      iszero\n      tag_94\n      jumpi\n        /* \"SupplyChain/s1.sol\":5410:5420  _productId */\n      dup6\n        /* \"SupplyChain/s1.sol\":5391:5400  warehouse */\n      dup3\n        /* \"SupplyChain/s1.sol\":5401:5402  j */\n      dup3\n        /* \"SupplyChain/s1.sol\":5391:5403  warehouse[j] */\n      dup2\n      sload\n      dup2\n      lt\n      tag_96\n      jumpi\n      mstore(0x00, 0x4e487b7100000000000000000000000000000000000000000000000000000000)\n      mstore(0x04, 0x32)\n      revert(0x00, 0x24)\n    tag_96:\n      swap1\n      0x00\n      mstore\n      keccak256(0x00, 0x20)\n      swap1\n      0x04\n      mul\n      add\n        /* \"SupplyChain/s1.sol\":5391:5406  warehouse[j].id */\n      0x00\n      add\n      sload\n        /* \"SupplyChain/s1.sol\":5391:5420  warehouse[j].id == _productId */\n      eq\n        /* \"SupplyChain/s1.sol\":5387:5524  if (warehouse[j].id == _productId) {... */\n      iszero\n      tag_98\n      jumpi\n        /* \"SupplyChain/s1.sol\":5458:5467  warehouse */\n      dup2\n        /* \"SupplyChain/s1.sol\":5468:5469  j */\n      dup2\n        /* \"SupplyChain/s1.sol\":5458:5470  warehouse[j] */\n      dup2\n      sload\n      dup2\n      lt\n      tag_99\n      jumpi\n      mstore(0x00, 0x4e487b7100000000000000000000000000000000000000000000000000000000)\n      mstore(0x04, 0x32)\n      revert(0x00, 0x24)\n    tag_99:\n      swap1\n      0x00\n      mstore\n      keccak256(0x00, 0x20)\n      swap1\n      0x04\n      mul\n      add\n        /* \"SupplyChain/s1.sol\":5448:5470  product = warehouse[j] */\n      swap4\n      pop\n        /* \"SupplyChain/s1.sol\":5496:5501  break */\n      jump(tag_94)\n        /* \"SupplyChain/s1.sol\":5387:5524  if (warehouse[j].id == _productId) {... */\n    tag_98:\n        /* \"SupplyChain/s1.sol\":5360:5363  j++ */\n      dup1\n      dup1\n      tag_101\n      swap1\n      tag_79\n      jump\t// in\n    tag_101:\n      swap2\n      pop\n      pop\n        /* \"SupplyChain/s1.sol\":5318:5542  for (uint256 j = 0; j < warehouse.length; j++) {... */\n      jump(tag_93)\n    tag_94:\n      pop\n        /* \"SupplyChain/s1.sol\":5173:5556  for (uint256 i = 0; i < users.length; i++) {... */\n      pop\n        /* \"SupplyChain/s1.sol\":5211:5214  i++ */\n      dup1\n      dup1\n      tag_102\n      swap1\n      tag_79\n      jump\t// in\n    tag_102:\n      swap2\n      pop\n      pop\n        /* \"SupplyChain/s1.sol\":5173:5556  for (uint256 i = 0; i < users.length; i++) {... */\n      jump(tag_88)\n    tag_89:\n      pop\n        /* \"SupplyChain/s1.sol\":5064:5566  if (product.id == 0) {... */\n    tag_87:\n        /* \"SupplyChain/s1.sol\":5598:5599  0 */\n      0x00\n        /* \"SupplyChain/s1.sol\":5584:5591  product */\n      dup2\n        /* \"SupplyChain/s1.sol\":5584:5594  product.id */\n      0x00\n      add\n      sload\n        /* \"SupplyChain/s1.sol\":5584:5599  product.id != 0 */\n      eq\n      iszero\n        /* \"SupplyChain/s1.sol\":5576:5620  require(product.id != 0, \"Mehsul tapilmadi\") */\n      tag_103\n      jumpi\n      mload(0x40)\n      0x08c379a000000000000000000000000000000000000000000000000000000000\n      dup2\n      mstore\n      0x04\n      add\n      tag_104\n      swap1\n      tag_105\n      jump\t// in\n    tag_104:\n      mload(0x40)\n      dup1\n      swap2\n      sub\n      swap1\n      revert\n    tag_103:\n        /* \"SupplyChain/s1.sol\":5645:5653  _newName */\n      dup2\n        /* \"SupplyChain/s1.sol\":5630:5637  product */\n      dup2\n        /* \"SupplyChain/s1.sol\":5630:5642  product.name */\n      0x01\n      add\n        /* \"SupplyChain/s1.sol\":5630:5653  product.name = _newName */\n      swap1\n      dup1\n      mload\n      swap1\n      0x20\n      add\n      swap1\n      tag_106\n      swap3\n      swap2\n      swap1\n      tag_81\n      jump\t// in\n    tag_106:\n      pop\n        /* \"SupplyChain/s1.sol\":1836:1837  _ */\n      pop\n        /* \"SupplyChain/s1.sol\":4901:5660  function updateProductName(uint256 _productId, string memory _newName) public onlyAdmin {... */\n      pop\n      pop\n      jump\t// out\n        /* \"SupplyChain/s1.sol\":520:571  mapping(address => Product[]) public userWarehouses */\n    tag_33:\n      mstore(0x20, 0x04)\n      dup2\n      0x00\n      mstore\n      keccak256(0x00, 0x40)\n      dup2\n      dup2\n      sload\n      dup2\n      lt\n      tag_107\n      jumpi\n      0x00\n      dup1\n      revert\n    tag_107:\n      swap1\n      0x00\n      mstore\n      keccak256(0x00, 0x20)\n      swap1\n      0x04\n      mul\n      add\n      0x00\n      swap2\n      pop\n      swap2\n      pop\n      pop\n      dup1\n      0x00\n      add\n      sload\n      swap1\n      dup1\n      0x01\n      add\n      dup1\n      sload\n      tag_109\n      swap1\n      tag_110\n      jump\t// in\n    tag_109:\n      dup1\n      0x1f\n      add\n      0x20\n      dup1\n      swap2\n      div\n      mul\n      0x20\n      add\n      mload(0x40)\n      swap1\n      dup2\n      add\n      0x40\n      mstore\n      dup1\n      swap3\n      swap2\n      swap1\n      dup2\n      dup2\n      mstore\n      0x20\n      add\n      dup3\n      dup1\n      sload\n      tag_111\n      swap1\n      tag_110\n      jump\t// in\n    tag_111:\n      dup1\n      iszero\n      tag_112\n      jumpi\n      dup1\n      0x1f\n      lt\n      tag_113\n      jumpi\n      0x0100\n      dup1\n      dup4\n      sload\n      div\n      mul\n      dup4\n      mstore\n      swap2\n      0x20\n      add\n      swap2\n      jump(tag_112)\n    tag_113:\n      dup3\n      add\n      swap2\n      swap1\n      0x00\n      mstore\n      keccak256(0x00, 0x20)\n      swap1\n    tag_114:\n      dup2\n      sload\n      dup2\n      mstore\n      swap1\n      0x01\n      add\n      swap1\n      0x20\n      add\n      dup1\n      dup4\n      gt\n      tag_114\n      jumpi\n      dup3\n      swap1\n      sub\n      0x1f\n      and\n      dup3\n      add\n      swap2\n    tag_112:\n      pop\n      pop\n      pop\n      pop\n      pop\n      swap1\n      dup1\n      0x02\n      add\n      0x00\n      swap1\n      sload\n      swap1\n      0x0100\n      exp\n      swap1\n      div\n      0xffffffffffffffffffffffffffffffffffffffff\n      and\n      swap1\n      pop\n      dup4\n      jump\t// out\n        /* \"SupplyChain/s1.sol\":578:597  User[] public users */\n    tag_39:\n      0x05\n      dup2\n      dup2\n      sload\n      dup2\n      lt\n      tag_115\n      jumpi\n      0x00\n      dup1\n      revert\n    tag_115:\n      swap1\n      0x00\n      mstore\n      keccak256(0x00, 0x20)\n      swap1\n      0x02\n      mul\n      add\n      0x00\n      swap2\n      pop\n      swap1\n      pop\n      dup1\n      0x00\n      add\n      dup1\n      sload\n      tag_117\n      swap1\n      tag_110\n      jump\t// in\n    tag_117:\n      dup1\n      0x1f\n      add\n      0x20\n      dup1\n      swap2\n      div\n      mul\n      0x20\n      add\n      mload(0x40)\n      swap1\n      dup2\n      add\n      0x40\n      mstore\n      dup1\n      swap3\n      swap2\n      swap1\n      dup2\n      dup2\n      mstore\n      0x20\n      add\n      dup3\n      dup1\n      sload\n      tag_118\n      swap1\n      tag_110\n      jump\t// in\n    tag_118:\n      dup1\n      iszero\n      tag_119\n      jumpi\n      dup1\n      0x1f\n      lt\n      tag_120\n      jumpi\n      0x0100\n      dup1\n      dup4\n      sload\n      div\n      mul\n      dup4\n      mstore\n      swap2\n      0x20\n      add\n      swap2\n      jump(tag_119)\n    tag_120:\n      dup3\n      add\n      swap2\n      swap1\n      0x00\n      mstore\n      keccak256(0x00, 0x20)\n      swap1\n    tag_121:\n      dup2\n      sload\n      dup2\n      mstore\n      swap1\n      0x01\n      add\n      swap1\n      0x20\n      add\n      dup1\n      dup4\n      gt\n      tag_121\n      jumpi\n      dup3\n      swap1\n      sub\n      0x1f\n      and\n      dup3\n      add\n      swap2\n    tag_119:\n      pop\n      pop\n      pop\n      pop\n      pop\n      swap1\n      dup1\n      0x01\n      add\n      0x00\n      swap1\n      sload\n      swap1\n      0x0100\n      exp\n      swap1\n      div\n      0xffffffffffffffffffffffffffffffffffffffff\n      and\n      swap1\n      dup1\n      0x01\n      add\n      0x14\n      swap1\n      sload\n      swap1\n      0x0100\n      exp\n      swap1\n      div\n      0xff\n      and\n      swap1\n      pop\n      dup4\n      jump\t// out\n        /* \"SupplyChain/s1.sol\":6482:7171  function getProductById(uint256 _productId) public view returns (Product memory) {... */\n    tag_44:\n        /* \"SupplyChain/s1.sol\":6547:6561  Product memory */\n      tag_122\n      tag_123\n      jump\t// in\n    tag_122:\n        /* \"SupplyChain/s1.sol\":6573:6595  Product memory product */\n      0x00\n        /* \"SupplyChain/s1.sol\":6598:6614  generalWarehouse */\n      0x03\n        /* \"SupplyChain/s1.sol\":6598:6626  generalWarehouse[_productId] */\n      0x00\n        /* \"SupplyChain/s1.sol\":6615:6625  _productId */\n      dup5\n        /* \"SupplyChain/s1.sol\":6598:6626  generalWarehouse[_productId] */\n      dup2\n      mstore\n      0x20\n      add\n      swap1\n      dup2\n      mstore\n      0x20\n      add\n      0x00\n      keccak256\n        /* \"SupplyChain/s1.sol\":6573:6626  Product memory product = generalWarehouse[_productId] */\n      mload(0x40)\n      dup1\n      0x80\n      add\n      0x40\n      mstore\n      swap1\n      dup2\n      0x00\n      dup3\n      add\n      sload\n      dup2\n      mstore\n      0x20\n      add\n      0x01\n      dup3\n      add\n      dup1\n      sload\n      tag_125\n      swap1\n      tag_110\n      jump\t// in\n    tag_125:\n      dup1\n      0x1f\n      add\n      0x20\n      dup1\n      swap2\n      div\n      mul\n      0x20\n      add\n      mload(0x40)\n      swap1\n      dup2\n      add\n      0x40\n      mstore\n      dup1\n      swap3\n      swap2\n      swap1\n      dup2\n      dup2\n      mstore\n      0x20\n      add\n      dup3\n      dup1\n      sload\n      tag_126\n      swap1\n      tag_110\n      jump\t// in\n    tag_126:\n      dup1\n      iszero\n      tag_127\n      jumpi\n      dup1\n      0x1f\n      lt\n      tag_128\n      jumpi\n      0x0100\n      dup1\n      dup4\n      sload\n      div\n      mul\n      dup4\n      mstore\n      swap2\n      0x20\n      add\n      swap2\n      jump(tag_127)\n    tag_128:\n      dup3\n      add\n      swap2\n      swap1\n      0x00\n      mstore\n      keccak256(0x00, 0x20)\n      swap1\n    tag_129:\n      dup2\n      sload\n      dup2\n      mstore\n      swap1\n      0x01\n      add\n      swap1\n      0x20\n      add\n      dup1\n      dup4\n      gt\n      tag_129\n      jumpi\n      dup3\n      swap1\n      sub\n      0x1f\n      and\n      dup3\n      add\n      swap2\n    tag_127:\n      pop\n      pop\n      pop\n      pop\n      pop\n      dup2\n      mstore\n      0x20\n      add\n      0x02\n      dup3\n      add\n      0x00\n      swap1\n      sload\n      swap1\n      0x0100\n      exp\n      swap1\n      div\n      0xffffffffffffffffffffffffffffffffffffffff\n      and\n      0xffffffffffffffffffffffffffffffffffffffff\n      and\n      0xffffffffffffffffffffffffffffffffffffffff\n      and\n      dup2\n      mstore\n      0x20\n      add\n      0x03\n      dup3\n      add\n      dup1\n      sload\n      dup1\n      0x20\n      mul\n      0x20\n      add\n      mload(0x40)\n      swap1\n      dup2\n      add\n      0x40\n      mstore\n      dup1\n      swap3\n      swap2\n      swap1\n      dup2\n      dup2\n      mstore\n      0x20\n      add\n      dup3\n      dup1\n      sload\n      dup1\n      iszero\n      tag_130\n      jumpi\n      0x20\n      mul\n      dup3\n      add\n      swap2\n      swap1\n      0x00\n      mstore\n      keccak256(0x00, 0x20)\n      swap1\n    tag_131:\n      dup2\n      0x00\n      swap1\n      sload\n      swap1\n      0x0100\n      exp\n      swap1\n      div\n      0xffffffffffffffffffffffffffffffffffffffff\n      and\n      0xffffffffffffffffffffffffffffffffffffffff\n      and\n      dup2\n      mstore\n      0x20\n      add\n      swap1\n      0x01\n      add\n      swap1\n      dup1\n      dup4\n      gt\n      tag_131\n      jumpi\n    tag_130:\n      pop\n      pop\n      pop\n      pop\n      pop\n      dup2\n      mstore\n      pop\n      pop\n      swap1\n      pop\n        /* \"SupplyChain/s1.sol\":6655:6656  0 */\n      0x00\n        /* \"SupplyChain/s1.sol\":6641:6648  product */\n      dup2\n        /* \"SupplyChain/s1.sol\":6641:6651  product.id */\n      0x00\n      add\n      mload\n        /* \"SupplyChain/s1.sol\":6641:6656  product.id == 0 */\n      eq\n        /* \"SupplyChain/s1.sol\":6637:7062  if (product.id == 0) {... */\n      iszero\n      tag_132\n      jumpi\n        /* \"SupplyChain/s1.sol\":6677:6686  uint256 i */\n      0x00\n        /* \"SupplyChain/s1.sol\":6672:7052  for (uint256 i = 0; i < users.length; i++) {... */\n    tag_133:\n        /* \"SupplyChain/s1.sol\":6696:6701  users */\n      0x05\n        /* \"SupplyChain/s1.sol\":6696:6708  users.length */\n      dup1\n      sload\n      swap1\n      pop\n        /* \"SupplyChain/s1.sol\":6692:6693  i */\n      dup2\n        /* \"SupplyChain/s1.sol\":6692:6708  i < users.length */\n      lt\n        /* \"SupplyChain/s1.sol\":6672:7052  for (uint256 i = 0; i < users.length; i++) {... */\n      iszero\n      tag_134\n      jumpi\n        /* \"SupplyChain/s1.sol\":6738:6747  uint256 j */\n      0x00\n        /* \"SupplyChain/s1.sol\":6733:7038  for (uint256 j = 0; j < userWarehouses[users[i].userAddress].length; j++) {... */\n    tag_136:\n        /* \"SupplyChain/s1.sol\":6757:6771  userWarehouses */\n      0x04\n        /* \"SupplyChain/s1.sol\":6757:6793  userWarehouses[users[i].userAddress] */\n      0x00\n        /* \"SupplyChain/s1.sol\":6772:6777  users */\n      0x05\n        /* \"SupplyChain/s1.sol\":6778:6779  i */\n      dup5\n        /* \"SupplyChain/s1.sol\":6772:6780  users[i] */\n      dup2\n      sload\n      dup2\n      lt\n      tag_139\n      jumpi\n      mstore(0x00, 0x4e487b7100000000000000000000000000000000000000000000000000000000)\n      mstore(0x04, 0x32)\n      revert(0x00, 0x24)\n    tag_139:\n      swap1\n      0x00\n      mstore\n      keccak256(0x00, 0x20)\n      swap1\n      0x02\n      mul\n      add\n        /* \"SupplyChain/s1.sol\":6772:6792  users[i].userAddress */\n      0x01\n      add\n      0x00\n      swap1\n      sload\n      swap1\n      0x0100\n      exp\n      swap1\n      div\n      0xffffffffffffffffffffffffffffffffffffffff\n      and\n        /* \"SupplyChain/s1.sol\":6757:6793  userWarehouses[users[i].userAddress] */\n      0xffffffffffffffffffffffffffffffffffffffff\n      and\n      0xffffffffffffffffffffffffffffffffffffffff\n      and\n      dup2\n      mstore\n      0x20\n      add\n      swap1\n      dup2\n      mstore\n      0x20\n      add\n      0x00\n      keccak256\n        /* \"SupplyChain/s1.sol\":6757:6800  userWarehouses[users[i].userAddress].length */\n      dup1\n      sload\n      swap1\n      pop\n        /* \"SupplyChain/s1.sol\":6753:6754  j */\n      dup2\n        /* \"SupplyChain/s1.sol\":6753:6800  j < userWarehouses[users[i].userAddress].length */\n      lt\n        /* \"SupplyChain/s1.sol\":6733:7038  for (uint256 j = 0; j < userWarehouses[users[i].userAddress].length; j++) {... */\n      iszero\n      tag_137\n      jumpi\n        /* \"SupplyChain/s1.sol\":6879:6889  _productId */\n      dup5\n        /* \"SupplyChain/s1.sol\":6833:6847  userWarehouses */\n      0x04\n        /* \"SupplyChain/s1.sol\":6833:6869  userWarehouses[users[i].userAddress] */\n      0x00\n        /* \"SupplyChain/s1.sol\":6848:6853  users */\n      0x05\n        /* \"SupplyChain/s1.sol\":6854:6855  i */\n      dup6\n        /* \"SupplyChain/s1.sol\":6848:6856  users[i] */\n      dup2\n      sload\n      dup2\n      lt\n      tag_141\n      jumpi\n      mstore(0x00, 0x4e487b7100000000000000000000000000000000000000000000000000000000)\n      mstore(0x04, 0x32)\n      revert(0x00, 0x24)\n    tag_141:\n      swap1\n      0x00\n      mstore\n      keccak256(0x00, 0x20)\n      swap1\n      0x02\n      mul\n      add\n        /* \"SupplyChain/s1.sol\":6848:6868  users[i].userAddress */\n      0x01\n      add\n      0x00\n      swap1\n      sload\n      swap1\n      0x0100\n      exp\n      swap1\n      div\n      0xffffffffffffffffffffffffffffffffffffffff\n      and\n        /* \"SupplyChain/s1.sol\":6833:6869  userWarehouses[users[i].userAddress] */\n      0xffffffffffffffffffffffffffffffffffffffff\n      and\n      0xffffffffffffffffffffffffffffffffffffffff\n      and\n      dup2\n      mstore\n      0x20\n      add\n      swap1\n      dup2\n      mstore\n      0x20\n      add\n      0x00\n      keccak256\n        /* \"SupplyChain/s1.sol\":6870:6871  j */\n      dup3\n        /* \"SupplyChain/s1.sol\":6833:6872  userWarehouses[users[i].userAddress][j] */\n      dup2\n      sload\n      dup2\n      lt\n      tag_143\n      jumpi\n      mstore(0x00, 0x4e487b7100000000000000000000000000000000000000000000000000000000)\n      mstore(0x04, 0x32)\n      revert(0x00, 0x24)\n    tag_143:\n      swap1\n      0x00\n      mstore\n      keccak256(0x00, 0x20)\n      swap1\n      0x04\n      mul\n      add\n        /* \"SupplyChain/s1.sol\":6833:6875  userWarehouses[users[i].userAddress][j].id */\n      0x00\n      add\n      sload\n        /* \"SupplyChain/s1.sol\":6833:6889  userWarehouses[users[i].userAddress][j].id == _productId */\n      eq\n        /* \"SupplyChain/s1.sol\":6829:7020  if (userWarehouses[users[i].userAddress][j].id == _productId) {... */\n      iszero\n      tag_145\n      jumpi\n        /* \"SupplyChain/s1.sol\":6927:6941  userWarehouses */\n      0x04\n        /* \"SupplyChain/s1.sol\":6927:6963  userWarehouses[users[i].userAddress] */\n      0x00\n        /* \"SupplyChain/s1.sol\":6942:6947  users */\n      0x05\n        /* \"SupplyChain/s1.sol\":6948:6949  i */\n      dup5\n        /* \"SupplyChain/s1.sol\":6942:6950  users[i] */\n      dup2\n      sload\n      dup2\n      lt\n      tag_146\n      jumpi\n      mstore(0x00, 0x4e487b7100000000000000000000000000000000000000000000000000000000)\n      mstore(0x04, 0x32)\n      revert(0x00, 0x24)\n    tag_146:\n      swap1\n      0x00\n      mstore\n      keccak256(0x00, 0x20)\n      swap1\n      0x02\n      mul\n      add\n        /* \"SupplyChain/s1.sol\":6942:6962  users[i].userAddress */\n      0x01\n      add\n      0x00\n      swap1\n      sload\n      swap1\n      0x0100\n      exp\n      swap1\n      div\n      0xffffffffffffffffffffffffffffffffffffffff\n      and\n        /* \"SupplyChain/s1.sol\":6927:6963  userWarehouses[users[i].userAddress] */\n      0xffffffffffffffffffffffffffffffffffffffff\n      and\n      0xffffffffffffffffffffffffffffffffffffffff\n      and\n      dup2\n      mstore\n      0x20\n      add\n      swap1\n      dup2\n      mstore\n      0x20\n      add\n      0x00\n      keccak256\n        /* \"SupplyChain/s1.sol\":6964:6965  j */\n      dup2\n        /* \"SupplyChain/s1.sol\":6927:6966  userWarehouses[users[i].userAddress][j] */\n      dup2\n      sload\n      dup2\n      lt\n      tag_148\n      jumpi\n      mstore(0x00, 0x4e487b7100000000000000000000000000000000000000000000000000000000)\n      mstore(0x04, 0x32)\n      revert(0x00, 0x24)\n    tag_148:\n      swap1\n      0x00\n      mstore\n      keccak256(0x00, 0x20)\n      swap1\n      0x04\n      mul\n      add\n        /* \"SupplyChain/s1.sol\":6917:6966  product = userWarehouses[users[i].userAddress][j] */\n      mload(0x40)\n      dup1\n      0x80\n      add\n      0x40\n      mstore\n      swap1\n      dup2\n      0x00\n      dup3\n      add\n      sload\n      dup2\n      mstore\n      0x20\n      add\n      0x01\n      dup3\n      add\n      dup1\n      sload\n      tag_150\n      swap1\n      tag_110\n      jump\t// in\n    tag_150:\n      dup1\n      0x1f\n      add\n      0x20\n      dup1\n      swap2\n      div\n      mul\n      0x20\n      add\n      mload(0x40)\n      swap1\n      dup2\n      add\n      0x40\n      mstore\n      dup1\n      swap3\n      swap2\n      swap1\n      dup2\n      dup2\n      mstore\n      0x20\n      add\n      dup3\n      dup1\n      sload\n      tag_151\n      swap1\n      tag_110\n      jump\t// in\n    tag_151:\n      dup1\n      iszero\n      tag_152\n      jumpi\n      dup1\n      0x1f\n      lt\n      tag_153\n      jumpi\n      0x0100\n      dup1\n      dup4\n      sload\n      div\n      mul\n      dup4\n      mstore\n      swap2\n      0x20\n      add\n      swap2\n      jump(tag_152)\n    tag_153:\n      dup3\n      add\n      swap2\n      swap1\n      0x00\n      mstore\n      keccak256(0x00, 0x20)\n      swap1\n    tag_154:\n      dup2\n      sload\n      dup2\n      mstore\n      swap1\n      0x01\n      add\n      swap1\n      0x20\n      add\n      dup1\n      dup4\n      gt\n      tag_154\n      jumpi\n      dup3\n      swap1\n      sub\n      0x1f\n      and\n      dup3\n      add\n      swap2\n    tag_152:\n      pop\n      pop\n      pop\n      pop\n      pop\n      dup2\n      mstore\n      0x20\n      add\n      0x02\n      dup3\n      add\n      0x00\n      swap1\n      sload\n      swap1\n      0x0100\n      exp\n      swap1\n      div\n      0xffffffffffffffffffffffffffffffffffffffff\n      and\n      0xffffffffffffffffffffffffffffffffffffffff\n      and\n      0xffffffffffffffffffffffffffffffffffffffff\n      and\n      dup2\n      mstore\n      0x20\n      add\n      0x03\n      dup3\n      add\n      dup1\n      sload\n      dup1\n      0x20\n      mul\n      0x20\n      add\n      mload(0x40)\n      swap1\n      dup2\n      add\n      0x40\n      mstore\n      dup1\n      swap3\n      swap2\n      swap1\n      dup2\n      dup2\n      mstore\n      0x20\n      add\n      dup3\n      dup1\n      sload\n      dup1\n      iszero\n      tag_155\n      jumpi\n      0x20\n      mul\n      dup3\n      add\n      swap2\n      swap1\n      0x00\n      mstore\n      keccak256(0x00, 0x20)\n      swap1\n    tag_156:\n      dup2\n      0x00\n      swap1\n      sload\n      swap1\n      0x0100\n      exp\n      swap1\n      div\n      0xffffffffffffffffffffffffffffffffffffffff\n      and\n      0xffffffffffffffffffffffffffffffffffffffff\n      and\n      dup2\n      mstore\n      0x20\n      add\n      swap1\n      0x01\n      add\n      swap1\n      dup1\n      dup4\n      gt\n      tag_156\n      jumpi\n    tag_155:\n      pop\n      pop\n      pop\n      pop\n      pop\n      dup2\n      mstore\n      pop\n      pop\n      swap3\n      pop\n        /* \"SupplyChain/s1.sol\":6992:6997  break */\n      jump(tag_137)\n        /* \"SupplyChain/s1.sol\":6829:7020  if (userWarehouses[users[i].userAddress][j].id == _productId) {... */\n    tag_145:\n        /* \"SupplyChain/s1.sol\":6802:6805  j++ */\n      dup1\n      dup1\n      tag_157\n      swap1\n      tag_79\n      jump\t// in\n    tag_157:\n      swap2\n      pop\n      pop\n        /* \"SupplyChain/s1.sol\":6733:7038  for (uint256 j = 0; j < userWarehouses[users[i].userAddress].length; j++) {... */\n      jump(tag_136)\n    tag_137:\n      pop\n        /* \"SupplyChain/s1.sol\":6710:6713  i++ */\n      dup1\n      dup1\n      tag_158\n      swap1\n      tag_79\n      jump\t// in\n    tag_158:\n      swap2\n      pop\n      pop\n        /* \"SupplyChain/s1.sol\":6672:7052  for (uint256 i = 0; i < users.length; i++) {... */\n      jump(tag_133)\n    tag_134:\n      pop\n        /* \"SupplyChain/s1.sol\":6637:7062  if (product.id == 0) {... */\n    tag_132:\n        /* \"SupplyChain/s1.sol\":7094:7095  0 */\n      0x00\n        /* \"SupplyChain/s1.sol\":7080:7087  product */\n      dup2\n        /* \"SupplyChain/s1.sol\":7080:7090  product.id */\n      0x00\n      add\n      mload\n        /* \"SupplyChain/s1.sol\":7080:7095  product.id != 0 */\n      eq\n      iszero\n        /* \"SupplyChain/s1.sol\":7072:7116  require(product.id != 0, \"Mehsul tapilmadi\") */\n      tag_159\n      jumpi\n      mload(0x40)\n      0x08c379a000000000000000000000000000000000000000000000000000000000\n      dup2\n      mstore\n      0x04\n      add\n      tag_160\n      swap1\n      tag_105\n      jump\t// in\n    tag_160:\n      mload(0x40)\n      dup1\n      swap2\n      sub\n      swap1\n      revert\n    tag_159:\n        /* \"SupplyChain/s1.sol\":7133:7140  product */\n      dup1\n        /* \"SupplyChain/s1.sol\":7126:7140  return product */\n      swap2\n      pop\n      pop\n        /* \"SupplyChain/s1.sol\":6482:7171  function getProductById(uint256 _productId) public view returns (Product memory) {... */\n      swap2\n      swap1\n      pop\n      jump\t// out\n        /* \"SupplyChain/s1.sol\":1892:2160  function chooseAccount(uint256 _index) public {... */\n    tag_49:\n        /* \"SupplyChain/s1.sol\":1965:1970  users */\n      0x05\n        /* \"SupplyChain/s1.sol\":1965:1977  users.length */\n      dup1\n      sload\n      swap1\n      pop\n        /* \"SupplyChain/s1.sol\":1956:1962  _index */\n      dup2\n        /* \"SupplyChain/s1.sol\":1956:1977  _index < users.length */\n      lt\n        /* \"SupplyChain/s1.sol\":1948:2003  require(_index < users.length, \"Bu index movcud deyil\") */\n      tag_162\n      jumpi\n      mload(0x40)\n      0x08c379a000000000000000000000000000000000000000000000000000000000\n      dup2\n      mstore\n      0x04\n      add\n      tag_163\n      swap1\n      tag_164\n      jump\t// in\n    tag_163:\n      mload(0x40)\n      dup1\n      swap2\n      sub\n      swap1\n      revert\n    tag_162:\n        /* \"SupplyChain/s1.sol\":2027:2032  users */\n      0x05\n        /* \"SupplyChain/s1.sol\":2033:2039  _index */\n      dup2\n        /* \"SupplyChain/s1.sol\":2027:2040  users[_index] */\n      dup2\n      sload\n      dup2\n      lt\n      tag_165\n      jumpi\n      mstore(0x00, 0x4e487b7100000000000000000000000000000000000000000000000000000000)\n      mstore(0x04, 0x32)\n      revert(0x00, 0x24)\n    tag_165:\n      swap1\n      0x00\n      mstore\n      keccak256(0x00, 0x20)\n      swap1\n      0x02\n      mul\n      add\n        /* \"SupplyChain/s1.sol\":2027:2052  users[_index].userAddress */\n      0x01\n      add\n      0x00\n      swap1\n      sload\n      swap1\n      0x0100\n      exp\n      swap1\n      div\n      0xffffffffffffffffffffffffffffffffffffffff\n      and\n        /* \"SupplyChain/s1.sol\":2013:2024  currentUser */\n      0x01\n      0x00\n        /* \"SupplyChain/s1.sol\":2013:2052  currentUser = users[_index].userAddress */\n      0x0100\n      exp\n      dup2\n      sload\n      dup2\n      0xffffffffffffffffffffffffffffffffffffffff\n      mul\n      not\n      and\n      swap1\n      dup4\n      0xffffffffffffffffffffffffffffffffffffffff\n      and\n      mul\n      or\n      swap1\n      sstore\n      pop\n        /* \"SupplyChain/s1.sol\":2096:2137  AccountChoice(_index, users[_index].name) */\n      0x3e35af141deef2b1ce77be826a4f3918605311fbf910edbb00373b9f1021a686\n        /* \"SupplyChain/s1.sol\":2110:2116  _index */\n      dup2\n        /* \"SupplyChain/s1.sol\":2118:2123  users */\n      0x05\n        /* \"SupplyChain/s1.sol\":2124:2130  _index */\n      dup4\n        /* \"SupplyChain/s1.sol\":2118:2131  users[_index] */\n      dup2\n      sload\n      dup2\n      lt\n      tag_167\n      jumpi\n      mstore(0x00, 0x4e487b7100000000000000000000000000000000000000000000000000000000)\n      mstore(0x04, 0x32)\n      revert(0x00, 0x24)\n    tag_167:\n      swap1\n      0x00\n      mstore\n      keccak256(0x00, 0x20)\n      swap1\n      0x02\n      mul\n      add\n        /* \"SupplyChain/s1.sol\":2118:2136  users[_index].name */\n      0x00\n      add\n        /* \"SupplyChain/s1.sol\":2096:2137  AccountChoice(_index, users[_index].name) */\n      mload(0x40)\n      tag_169\n      swap3\n      swap2\n      swap1\n      tag_170\n      jump\t// in\n    tag_169:\n      mload(0x40)\n      dup1\n      swap2\n      sub\n      swap1\n      log1\n        /* \"SupplyChain/s1.sol\":1892:2160  function chooseAccount(uint256 _index) public {... */\n      pop\n      jump\t// out\n        /* \"SupplyChain/s1.sol\":5746:6424  function getProductHistory(uint256 _productId) public view returns (address[] memory) {... */\n    tag_52:\n        /* \"SupplyChain/s1.sol\":5814:5830  address[] memory */\n      0x60\n        /* \"SupplyChain/s1.sol\":5842:5864  Product memory product */\n      0x00\n        /* \"SupplyChain/s1.sol\":5867:5883  generalWarehouse */\n      0x03\n        /* \"SupplyChain/s1.sol\":5867:5895  generalWarehouse[_productId] */\n      0x00\n        /* \"SupplyChain/s1.sol\":5884:5894  _productId */\n      dup5\n        /* \"SupplyChain/s1.sol\":5867:5895  generalWarehouse[_productId] */\n      dup2\n      mstore\n      0x20\n      add\n      swap1\n      dup2\n      mstore\n      0x20\n      add\n      0x00\n      keccak256\n        /* \"SupplyChain/s1.sol\":5842:5895  Product memory product = generalWarehouse[_productId] */\n      mload(0x40)\n      dup1\n      0x80\n      add\n      0x40\n      mstore\n      swap1\n      dup2\n      0x00\n      dup3\n      add\n      sload\n      dup2\n      mstore\n      0x20\n      add\n      0x01\n      dup3\n      add\n      dup1\n      sload\n      tag_172\n      swap1\n      tag_110\n      jump\t// in\n    tag_172:\n      dup1\n      0x1f\n      add\n      0x20\n      dup1\n      swap2\n      div\n      mul\n      0x20\n      add\n      mload(0x40)\n      swap1\n      dup2\n      add\n      0x40\n      mstore\n      dup1\n      swap3\n      swap2\n      swap1\n      dup2\n      dup2\n      mstore\n      0x20\n      add\n      dup3\n      dup1\n      sload\n      tag_173\n      swap1\n      tag_110\n      jump\t// in\n    tag_173:\n      dup1\n      iszero\n      tag_174\n      jumpi\n      dup1\n      0x1f\n      lt\n      tag_175\n      jumpi\n      0x0100\n      dup1\n      dup4\n      sload\n      div\n      mul\n      dup4\n      mstore\n      swap2\n      0x20\n      add\n      swap2\n      jump(tag_174)\n    tag_175:\n      dup3\n      add\n      swap2\n      swap1\n      0x00\n      mstore\n      keccak256(0x00, 0x20)\n      swap1\n    tag_176:\n      dup2\n      sload\n      dup2\n      mstore\n      swap1\n      0x01\n      add\n      swap1\n      0x20\n      add\n      dup1\n      dup4\n      gt\n      tag_176\n      jumpi\n      dup3\n      swap1\n      sub\n      0x1f\n      and\n      dup3\n      add\n      swap2\n    tag_174:\n      pop\n      pop\n      pop\n      pop\n      pop\n      dup2\n      mstore\n      0x20\n      add\n      0x02\n      dup3\n      add\n      0x00\n      swap1\n      sload\n      swap1\n      0x0100\n      exp\n      swap1\n      div\n      0xffffffffffffffffffffffffffffffffffffffff\n      and\n      0xffffffffffffffffffffffffffffffffffffffff\n      and\n      0xffffffffffffffffffffffffffffffffffffffff\n      and\n      dup2\n      mstore\n      0x20\n      add\n      0x03\n      dup3\n      add\n      dup1\n      sload\n      dup1\n      0x20\n      mul\n      0x20\n      add\n      mload(0x40)\n      swap1\n      dup2\n      add\n      0x40\n      mstore\n      dup1\n      swap3\n      swap2\n      swap1\n      dup2\n      dup2\n      mstore\n      0x20\n      add\n      dup3\n      dup1\n      sload\n      dup1\n      iszero\n      tag_177\n      jumpi\n      0x20\n      mul\n      dup3\n      add\n      swap2\n      swap1\n      0x00\n      mstore\n      keccak256(0x00, 0x20)\n      swap1\n    tag_178:\n      dup2\n      0x00\n      swap1\n      sload\n      swap1\n      0x0100\n      exp\n      swap1\n      div\n      0xffffffffffffffffffffffffffffffffffffffff\n      and\n      0xffffffffffffffffffffffffffffffffffffffff\n      and\n      dup2\n      mstore\n      0x20\n      add\n      swap1\n      0x01\n      add\n      swap1\n      dup1\n      dup4\n      gt\n      tag_178\n      jumpi\n    tag_177:\n      pop\n      pop\n      pop\n      pop\n      pop\n      dup2\n      mstore\n      pop\n      pop\n      swap1\n      pop\n        /* \"SupplyChain/s1.sol\":5924:5925  0 */\n      0x00\n        /* \"SupplyChain/s1.sol\":5910:5917  product */\n      dup2\n        /* \"SupplyChain/s1.sol\":5910:5920  product.id */\n      0x00\n      add\n      mload\n        /* \"SupplyChain/s1.sol\":5910:5925  product.id == 0 */\n      eq\n        /* \"SupplyChain/s1.sol\":5906:6331  if (product.id == 0) {... */\n      iszero\n      tag_179\n      jumpi\n        /* \"SupplyChain/s1.sol\":5946:5955  uint256 i */\n      0x00\n        /* \"SupplyChain/s1.sol\":5941:6321  for (uint256 i = 0; i < users.length; i++) {... */\n    tag_180:\n        /* \"SupplyChain/s1.sol\":5965:5970  users */\n      0x05\n        /* \"SupplyChain/s1.sol\":5965:5977  users.length */\n      dup1\n      sload\n      swap1\n      pop\n        /* \"SupplyChain/s1.sol\":5961:5962  i */\n      dup2\n        /* \"SupplyChain/s1.sol\":5961:5977  i < users.length */\n      lt\n        /* \"SupplyChain/s1.sol\":5941:6321  for (uint256 i = 0; i < users.length; i++) {... */\n      iszero\n      tag_181\n      jumpi\n        /* \"SupplyChain/s1.sol\":6007:6016  uint256 j */\n      0x00\n        /* \"SupplyChain/s1.sol\":6002:6307  for (uint256 j = 0; j < userWarehouses[users[i].userAddress].length; j++) {... */\n    tag_183:\n        /* \"SupplyChain/s1.sol\":6026:6040  userWarehouses */\n      0x04\n        /* \"SupplyChain/s1.sol\":6026:6062  userWarehouses[users[i].userAddress] */\n      0x00\n        /* \"SupplyChain/s1.sol\":6041:6046  users */\n      0x05\n        /* \"SupplyChain/s1.sol\":6047:6048  i */\n      dup5\n        /* \"SupplyChain/s1.sol\":6041:6049  users[i] */\n      dup2\n      sload\n      dup2\n      lt\n      tag_186\n      jumpi\n      mstore(0x00, 0x4e487b7100000000000000000000000000000000000000000000000000000000)\n      mstore(0x04, 0x32)\n      revert(0x00, 0x24)\n    tag_186:\n      swap1\n      0x00\n      mstore\n      keccak256(0x00, 0x20)\n      swap1\n      0x02\n      mul\n      add\n        /* \"SupplyChain/s1.sol\":6041:6061  users[i].userAddress */\n      0x01\n      add\n      0x00\n      swap1\n      sload\n      swap1\n      0x0100\n      exp\n      swap1\n      div\n      0xffffffffffffffffffffffffffffffffffffffff\n      and\n        /* \"SupplyChain/s1.sol\":6026:6062  userWarehouses[users[i].userAddress] */\n      0xffffffffffffffffffffffffffffffffffffffff\n      and\n      0xffffffffffffffffffffffffffffffffffffffff\n      and\n      dup2\n      mstore\n      0x20\n      add\n      swap1\n      dup2\n      mstore\n      0x20\n      add\n      0x00\n      keccak256\n        /* \"SupplyChain/s1.sol\":6026:6069  userWarehouses[users[i].userAddress].length */\n      dup1\n      sload\n      swap1\n      pop\n        /* \"SupplyChain/s1.sol\":6022:6023  j */\n      dup2\n        /* \"SupplyChain/s1.sol\":6022:6069  j < userWarehouses[users[i].userAddress].length */\n      lt\n        /* \"SupplyChain/s1.sol\":6002:6307  for (uint256 j = 0; j < userWarehouses[users[i].userAddress].length; j++) {... */\n      iszero\n      tag_184\n      jumpi\n        /* \"SupplyChain/s1.sol\":6148:6158  _productId */\n      dup5\n        /* \"SupplyChain/s1.sol\":6102:6116  userWarehouses */\n      0x04\n        /* \"SupplyChain/s1.sol\":6102:6138  userWarehouses[users[i].userAddress] */\n      0x00\n        /* \"SupplyChain/s1.sol\":6117:6122  users */\n      0x05\n        /* \"SupplyChain/s1.sol\":6123:6124  i */\n      dup6\n        /* \"SupplyChain/s1.sol\":6117:6125  users[i] */\n      dup2\n      sload\n      dup2\n      lt\n      tag_188\n      jumpi\n      mstore(0x00, 0x4e487b7100000000000000000000000000000000000000000000000000000000)\n      mstore(0x04, 0x32)\n      revert(0x00, 0x24)\n    tag_188:\n      swap1\n      0x00\n      mstore\n      keccak256(0x00, 0x20)\n      swap1\n      0x02\n      mul\n      add\n        /* \"SupplyChain/s1.sol\":6117:6137  users[i].userAddress */\n      0x01\n      add\n      0x00\n      swap1\n      sload\n      swap1\n      0x0100\n      exp\n      swap1\n      div\n      0xffffffffffffffffffffffffffffffffffffffff\n      and\n        /* \"SupplyChain/s1.sol\":6102:6138  userWarehouses[users[i].userAddress] */\n      0xffffffffffffffffffffffffffffffffffffffff\n      and\n      0xffffffffffffffffffffffffffffffffffffffff\n      and\n      dup2\n      mstore\n      0x20\n      add\n      swap1\n      dup2\n      mstore\n      0x20\n      add\n      0x00\n      keccak256\n        /* \"SupplyChain/s1.sol\":6139:6140  j */\n      dup3\n        /* \"SupplyChain/s1.sol\":6102:6141  userWarehouses[users[i].userAddress][j] */\n      dup2\n      sload\n      dup2\n      lt\n      tag_190\n      jumpi\n      mstore(0x00, 0x4e487b7100000000000000000000000000000000000000000000000000000000)\n      mstore(0x04, 0x32)\n      revert(0x00, 0x24)\n    tag_190:\n      swap1\n      0x00\n      mstore\n      keccak256(0x00, 0x20)\n      swap1\n      0x04\n      mul\n      add\n        /* \"SupplyChain/s1.sol\":6102:6144  userWarehouses[users[i].userAddress][j].id */\n      0x00\n      add\n      sload\n        /* \"SupplyChain/s1.sol\":6102:6158  userWarehouses[users[i].userAddress][j].id == _productId */\n      eq\n        /* \"SupplyChain/s1.sol\":6098:6289  if (userWarehouses[users[i].userAddress][j].id == _productId) {... */\n      iszero\n      tag_192\n      jumpi\n        /* \"SupplyChain/s1.sol\":6196:6210  userWarehouses */\n      0x04\n        /* \"SupplyChain/s1.sol\":6196:6232  userWarehouses[users[i].userAddress] */\n      0x00\n        /* \"SupplyChain/s1.sol\":6211:6216  users */\n      0x05\n        /* \"SupplyChain/s1.sol\":6217:6218  i */\n      dup5\n        /* \"SupplyChain/s1.sol\":6211:6219  users[i] */\n      dup2\n      sload\n      dup2\n      lt\n      tag_193\n      jumpi\n      mstore(0x00, 0x4e487b7100000000000000000000000000000000000000000000000000000000)\n      mstore(0x04, 0x32)\n      revert(0x00, 0x24)\n    tag_193:\n      swap1\n      0x00\n      mstore\n      keccak256(0x00, 0x20)\n      swap1\n      0x02\n      mul\n      add\n        /* \"SupplyChain/s1.sol\":6211:6231  users[i].userAddress */\n      0x01\n      add\n      0x00\n      swap1\n      sload\n      swap1\n      0x0100\n      exp\n      swap1\n      div\n      0xffffffffffffffffffffffffffffffffffffffff\n      and\n        /* \"SupplyChain/s1.sol\":6196:6232  userWarehouses[users[i].userAddress] */\n      0xffffffffffffffffffffffffffffffffffffffff\n      and\n      0xffffffffffffffffffffffffffffffffffffffff\n      and\n      dup2\n      mstore\n      0x20\n      add\n      swap1\n      dup2\n      mstore\n      0x20\n      add\n      0x00\n      keccak256\n        /* \"SupplyChain/s1.sol\":6233:6234  j */\n      dup2\n        /* \"SupplyChain/s1.sol\":6196:6235  userWarehouses[users[i].userAddress][j] */\n      dup2\n      sload\n      dup2\n      lt\n      tag_195\n      jumpi\n      mstore(0x00, 0x4e487b7100000000000000000000000000000000000000000000000000000000)\n      mstore(0x04, 0x32)\n      revert(0x00, 0x24)\n    tag_195:\n      swap1\n      0x00\n      mstore\n      keccak256(0x00, 0x20)\n      swap1\n      0x04\n      mul\n      add\n        /* \"SupplyChain/s1.sol\":6186:6235  product = userWarehouses[users[i].userAddress][j] */\n      mload(0x40)\n      dup1\n      0x80\n      add\n      0x40\n      mstore\n      swap1\n      dup2\n      0x00\n      dup3\n      add\n      sload\n      dup2\n      mstore\n      0x20\n      add\n      0x01\n      dup3\n      add\n      dup1\n      sload\n      tag_197\n      swap1\n      tag_110\n      jump\t// in\n    tag_197:\n      dup1\n      0x1f\n      add\n      0x20\n      dup1\n      swap2\n      div\n      mul\n      0x20\n      add\n      mload(0x40)\n      swap1\n      dup2\n      add\n      0x40\n      mstore\n      dup1\n      swap3\n      swap2\n      swap1\n      dup2\n      dup2\n      mstore\n      0x20\n      add\n      dup3\n      dup1\n      sload\n      tag_198\n      swap1\n      tag_110\n      jump\t// in\n    tag_198:\n      dup1\n      iszero\n      tag_199\n      jumpi\n      dup1\n      0x1f\n      lt\n      tag_200\n      jumpi\n      0x0100\n      dup1\n      dup4\n      sload\n      div\n      mul\n      dup4\n      mstore\n      swap2\n      0x20\n      add\n      swap2\n      jump(tag_199)\n    tag_200:\n      dup3\n      add\n      swap2\n      swap1\n      0x00\n      mstore\n      keccak256(0x00, 0x20)\n      swap1\n    tag_201:\n      dup2\n      sload\n      dup2\n      mstore\n      swap1\n      0x01\n      add\n      swap1\n      0x20\n      add\n      dup1\n      dup4\n      gt\n      tag_201\n      jumpi\n      dup3\n      swap1\n      sub\n      0x1f\n      and\n      dup3\n      add\n      swap2\n    tag_199:\n      pop\n      pop\n      pop\n      pop\n      pop\n      dup2\n      mstore\n      0x20\n      add\n      0x02\n      dup3\n      add\n      0x00\n      swap1\n      sload\n      swap1\n      0x0100\n      exp\n      swap1\n      div\n      0xffffffffffffffffffffffffffffffffffffffff\n      and\n      0xffffffffffffffffffffffffffffffffffffffff\n      and\n      0xffffffffffffffffffffffffffffffffffffffff\n      and\n      dup2\n      mstore\n      0x20\n      add\n      0x03\n      dup3\n      add\n      dup1\n      sload\n      dup1\n      0x20\n      mul\n      0x20\n      add\n      mload(0x40)\n      swap1\n      dup2\n      add\n      0x40\n      mstore\n      dup1\n      swap3\n      swap2\n      swap1\n      dup2\n      dup2\n      mstore\n      0x20\n      add\n      dup3\n      dup1\n      sload\n      dup1\n      iszero\n      tag_202\n      jumpi\n      0x20\n      mul\n      dup3\n      add\n      swap2\n      swap1\n      0x00\n      mstore\n      keccak256(0x00, 0x20)\n      swap1\n    tag_203:\n      dup2\n      0x00\n      swap1\n      sload\n      swap1\n      0x0100\n      exp\n      swap1\n      div\n      0xffffffffffffffffffffffffffffffffffffffff\n      and\n      0xffffffffffffffffffffffffffffffffffffffff\n      and\n      dup2\n      mstore\n      0x20\n      add\n      swap1\n      0x01\n      add\n      swap1\n      dup1\n      dup4\n      gt\n      tag_203\n      jumpi\n    tag_202:\n      pop\n      pop\n      pop\n      pop\n      pop\n      dup2\n      mstore\n      pop\n      pop\n      swap3\n      pop\n        /* \"SupplyChain/s1.sol\":6261:6266  break */\n      jump(tag_184)\n        /* \"SupplyChain/s1.sol\":6098:6289  if (userWarehouses[users[i].userAddress][j].id == _productId) {... */\n    tag_192:\n        /* \"SupplyChain/s1.sol\":6071:6074  j++ */\n      dup1\n      dup1\n      tag_204\n      swap1\n      tag_79\n      jump\t// in\n    tag_204:\n      swap2\n      pop\n      pop\n        /* \"SupplyChain/s1.sol\":6002:6307  for (uint256 j = 0; j < userWarehouses[users[i].userAddress].length; j++) {... */\n      jump(tag_183)\n    tag_184:\n      pop\n        /* \"SupplyChain/s1.sol\":5979:5982  i++ */\n      dup1\n      dup1\n      tag_205\n      swap1\n      tag_79\n      jump\t// in\n    tag_205:\n      swap2\n      pop\n      pop\n        /* \"SupplyChain/s1.sol\":5941:6321  for (uint256 i = 0; i < users.length; i++) {... */\n      jump(tag_180)\n    tag_181:\n      pop\n        /* \"SupplyChain/s1.sol\":5906:6331  if (product.id == 0) {... */\n    tag_179:\n        /* \"SupplyChain/s1.sol\":6363:6364  0 */\n      0x00\n        /* \"SupplyChain/s1.sol\":6349:6356  product */\n      dup2\n        /* \"SupplyChain/s1.sol\":6349:6359  product.id */\n      0x00\n      add\n      mload\n        /* \"SupplyChain/s1.sol\":6349:6364  product.id != 0 */\n      eq\n      iszero\n        /* \"SupplyChain/s1.sol\":6341:6385  require(product.id != 0, \"Mehsul tapilmadi\") */\n      tag_206\n      jumpi\n      mload(0x40)\n      0x08c379a000000000000000000000000000000000000000000000000000000000\n      dup2\n      mstore\n      0x04\n      add\n      tag_207\n      swap1\n      tag_105\n      jump\t// in\n    tag_207:\n      mload(0x40)\n      dup1\n      swap2\n      sub\n      swap1\n      revert\n    tag_206:\n        /* \"SupplyChain/s1.sol\":6402:6409  product */\n      dup1\n        /* \"SupplyChain/s1.sol\":6402:6417  product.history */\n      0x60\n      add\n      mload\n        /* \"SupplyChain/s1.sol\":6395:6417  return product.history */\n      swap2\n      pop\n      pop\n        /* \"SupplyChain/s1.sol\":5746:6424  function getProductHistory(uint256 _productId) public view returns (address[] memory) {... */\n      swap2\n      swap1\n      pop\n      jump\t// out\n        /* \"SupplyChain/s1.sol\":355:381  address public currentUser */\n    tag_56:\n      0x01\n      0x00\n      swap1\n      sload\n      swap1\n      0x0100\n      exp\n      swap1\n      div\n      0xffffffffffffffffffffffffffffffffffffffff\n      and\n      dup2\n      jump\t// out\n        /* \"SupplyChain/s1.sol\":463:514  mapping(uint256 => Product) public generalWarehouse */\n    tag_61:\n      mstore(0x20, 0x03)\n      dup1\n      0x00\n      mstore\n      keccak256(0x00, 0x40)\n      0x00\n      swap2\n      pop\n      swap1\n      pop\n      dup1\n      0x00\n      add\n      sload\n      swap1\n      dup1\n      0x01\n      add\n      dup1\n      sload\n      tag_208\n      swap1\n      tag_110\n      jump\t// in\n    tag_208:\n      dup1\n      0x1f\n      add\n      0x20\n      dup1\n      swap2\n      div\n      mul\n      0x20\n      add\n      mload(0x40)\n      swap1\n      dup2\n      add\n      0x40\n      mstore\n      dup1\n      swap3\n      swap2\n      swap1\n      dup2\n      dup2\n      mstore\n      0x20\n      add\n      dup3\n      dup1\n      sload\n      tag_209\n      swap1\n      tag_110\n      jump\t// in\n    tag_209:\n      dup1\n      iszero\n      tag_210\n      jumpi\n      dup1\n      0x1f\n      lt\n      tag_211\n      jumpi\n      0x0100\n      dup1\n      dup4\n      sload\n      div\n      mul\n      dup4\n      mstore\n      swap2\n      0x20\n      add\n      swap2\n      jump(tag_210)\n    tag_211:\n      dup3\n      add\n      swap2\n      swap1\n      0x00\n      mstore\n      keccak256(0x00, 0x20)\n      swap1\n    tag_212:\n      dup2\n      sload\n      dup2\n      mstore\n      swap1\n      0x01\n      add\n      swap1\n      0x20\n      add\n      dup1\n      dup4\n      gt\n      tag_212\n      jumpi\n      dup3\n      swap1\n      sub\n      0x1f\n      and\n      dup3\n      add\n      swap2\n    tag_210:\n      pop\n      pop\n      pop\n      pop\n      pop\n      swap1\n      dup1\n      0x02\n      add\n      0x00\n      swap1\n      sload\n      swap1\n      0x0100\n      exp\n      swap1\n      div\n      0xffffffffffffffffffffffffffffffffffffffff\n      and\n      swap1\n      pop\n      dup4\n      jump\t// out\n        /* \"SupplyChain/s1.sol\":3200:4273  function transferProduct(uint256 _productId, address _to) public {... */\n    tag_66:\n        /* \"SupplyChain/s1.sol\":3275:3292  bool productFound */\n      0x00\n        /* \"SupplyChain/s1.sol\":3373:3400  Product[] storage warehouse */\n      dup1\n        /* \"SupplyChain/s1.sol\":3403:3417  userWarehouses */\n      0x04\n        /* \"SupplyChain/s1.sol\":3403:3429  userWarehouses[msg.sender] */\n      0x00\n        /* \"SupplyChain/s1.sol\":3418:3428  msg.sender */\n      caller\n        /* \"SupplyChain/s1.sol\":3403:3429  userWarehouses[msg.sender] */\n      0xffffffffffffffffffffffffffffffffffffffff\n      and\n      0xffffffffffffffffffffffffffffffffffffffff\n      and\n      dup2\n      mstore\n      0x20\n      add\n      swap1\n      dup2\n      mstore\n      0x20\n      add\n      0x00\n      keccak256\n        /* \"SupplyChain/s1.sol\":3373:3429  Product[] storage warehouse = userWarehouses[msg.sender] */\n      swap1\n      pop\n        /* \"SupplyChain/s1.sol\":3445:3454  uint256 i */\n      0x00\n        /* \"SupplyChain/s1.sol\":3440:4194  for (uint256 i = 0; i < warehouse.length; i++) {... */\n    tag_214:\n        /* \"SupplyChain/s1.sol\":3464:3473  warehouse */\n      dup2\n        /* \"SupplyChain/s1.sol\":3464:3480  warehouse.length */\n      dup1\n      sload\n      swap1\n      pop\n        /* \"SupplyChain/s1.sol\":3460:3461  i */\n      dup2\n        /* \"SupplyChain/s1.sol\":3460:3480  i < warehouse.length */\n      lt\n        /* \"SupplyChain/s1.sol\":3440:4194  for (uint256 i = 0; i < warehouse.length; i++) {... */\n      iszero\n      tag_215\n      jumpi\n        /* \"SupplyChain/s1.sol\":3524:3534  _productId */\n      dup5\n        /* \"SupplyChain/s1.sol\":3505:3514  warehouse */\n      dup3\n        /* \"SupplyChain/s1.sol\":3515:3516  i */\n      dup3\n        /* \"SupplyChain/s1.sol\":3505:3517  warehouse[i] */\n      dup2\n      sload\n      dup2\n      lt\n      tag_217\n      jumpi\n      mstore(0x00, 0x4e487b7100000000000000000000000000000000000000000000000000000000)\n      mstore(0x04, 0x32)\n      revert(0x00, 0x24)\n    tag_217:\n      swap1\n      0x00\n      mstore\n      keccak256(0x00, 0x20)\n      swap1\n      0x04\n      mul\n      add\n        /* \"SupplyChain/s1.sol\":3505:3520  warehouse[i].id */\n      0x00\n      add\n      sload\n        /* \"SupplyChain/s1.sol\":3505:3534  warehouse[i].id == _productId */\n      eq\n        /* \"SupplyChain/s1.sol\":3501:4184  if (warehouse[i].id == _productId) {... */\n      iszero\n      tag_219\n      jumpi\n        /* \"SupplyChain/s1.sol\":3614:3637  Product storage product */\n      0x00\n        /* \"SupplyChain/s1.sol\":3640:3649  warehouse */\n      dup3\n        /* \"SupplyChain/s1.sol\":3650:3651  i */\n      dup3\n        /* \"SupplyChain/s1.sol\":3640:3652  warehouse[i] */\n      dup2\n      sload\n      dup2\n      lt\n      tag_220\n      jumpi\n      mstore(0x00, 0x4e487b7100000000000000000000000000000000000000000000000000000000)\n      mstore(0x04, 0x32)\n      revert(0x00, 0x24)\n    tag_220:\n      swap1\n      0x00\n      mstore\n      keccak256(0x00, 0x20)\n      swap1\n      0x04\n      mul\n      add\n        /* \"SupplyChain/s1.sol\":3614:3652  Product storage product = warehouse[i] */\n      swap1\n      pop\n        /* \"SupplyChain/s1.sol\":3686:3689  _to */\n      dup5\n        /* \"SupplyChain/s1.sol\":3670:3677  product */\n      dup2\n        /* \"SupplyChain/s1.sol\":3670:3683  product.owner */\n      0x02\n      add\n      0x00\n        /* \"SupplyChain/s1.sol\":3670:3689  product.owner = _to */\n      0x0100\n      exp\n      dup2\n      sload\n      dup2\n      0xffffffffffffffffffffffffffffffffffffffff\n      mul\n      not\n      and\n      swap1\n      dup4\n      0xffffffffffffffffffffffffffffffffffffffff\n      and\n      mul\n      or\n      swap1\n      sstore\n      pop\n        /* \"SupplyChain/s1.sol\":3707:3714  product */\n      dup1\n        /* \"SupplyChain/s1.sol\":3707:3722  product.history */\n      0x03\n      add\n        /* \"SupplyChain/s1.sol\":3728:3731  _to */\n      dup6\n        /* \"SupplyChain/s1.sol\":3707:3732  product.history.push(_to) */\n      swap1\n      dup1\n      0x01\n      dup2\n      sload\n      add\n      dup1\n      dup3\n      sstore\n      dup1\n      swap2\n      pop\n      pop\n      0x01\n      swap1\n      sub\n      swap1\n      0x00\n      mstore\n      keccak256(0x00, 0x20)\n      add\n      0x00\n      swap1\n      swap2\n      swap1\n      swap2\n      swap1\n      swap2\n      0x0100\n      exp\n      dup2\n      sload\n      dup2\n      0xffffffffffffffffffffffffffffffffffffffff\n      mul\n      not\n      and\n      swap1\n      dup4\n      0xffffffffffffffffffffffffffffffffffffffff\n      and\n      mul\n      or\n      swap1\n      sstore\n      pop\n        /* \"SupplyChain/s1.sol\":3824:3838  userWarehouses */\n      0x04\n        /* \"SupplyChain/s1.sol\":3824:3843  userWarehouses[_to] */\n      0x00\n        /* \"SupplyChain/s1.sol\":3839:3842  _to */\n      dup7\n        /* \"SupplyChain/s1.sol\":3824:3843  userWarehouses[_to] */\n      0xffffffffffffffffffffffffffffffffffffffff\n      and\n      0xffffffffffffffffffffffffffffffffffffffff\n      and\n      dup2\n      mstore\n      0x20\n      add\n      swap1\n      dup2\n      mstore\n      0x20\n      add\n      0x00\n      keccak256\n        /* \"SupplyChain/s1.sol\":3849:3856  product */\n      dup2\n        /* \"SupplyChain/s1.sol\":3824:3857  userWarehouses[_to].push(product) */\n      swap1\n      dup1\n      0x01\n      dup2\n      sload\n      add\n      dup1\n      dup3\n      sstore\n      dup1\n      swap2\n      pop\n      pop\n      0x01\n      swap1\n      sub\n      swap1\n      0x00\n      mstore\n      keccak256(0x00, 0x20)\n      swap1\n      0x04\n      mul\n      add\n      0x00\n      swap1\n      swap2\n      swap1\n      swap2\n      swap1\n      swap2\n      pop\n      0x00\n      dup3\n      add\n      sload\n      dup2\n      0x00\n      add\n      sstore\n      0x01\n      dup3\n      add\n      dup2\n      0x01\n      add\n      swap1\n      dup1\n      sload\n      tag_224\n      swap1\n      tag_110\n      jump\t// in\n    tag_224:\n      tag_225\n      swap3\n      swap2\n      swap1\n      tag_226\n      jump\t// in\n    tag_225:\n      pop\n      0x02\n      dup3\n      add\n      0x00\n      swap1\n      sload\n      swap1\n      0x0100\n      exp\n      swap1\n      div\n      0xffffffffffffffffffffffffffffffffffffffff\n      and\n      dup2\n      0x02\n      add\n      exp(0x0100, 0x00)\n      dup2\n      sload\n      dup2\n      0xffffffffffffffffffffffffffffffffffffffff\n      mul\n      not\n      and\n      swap1\n      dup4\n      0xffffffffffffffffffffffffffffffffffffffff\n      and\n      mul\n      or\n      swap1\n      sstore\n      pop\n      0x03\n      dup3\n      add\n      dup2\n      0x03\n      add\n      swap1\n      dup1\n      sload\n      tag_227\n      swap3\n      swap2\n      swap1\n      tag_228\n      jump\t// in\n    tag_227:\n      pop\n      pop\n      pop\n        /* \"SupplyChain/s1.sol\":3930:3975  removeProductFromUser(msg.sender, _productId) */\n      tag_229\n        /* \"SupplyChain/s1.sol\":3952:3962  msg.sender */\n      caller\n        /* \"SupplyChain/s1.sol\":3964:3974  _productId */\n      dup8\n        /* \"SupplyChain/s1.sol\":3930:3951  removeProductFromUser */\n      tag_230\n        /* \"SupplyChain/s1.sol\":3930:3975  removeProductFromUser(msg.sender, _productId) */\n      jump\t// in\n    tag_229:\n        /* \"SupplyChain/s1.sol\":4104:4107  _to */\n      dup5\n        /* \"SupplyChain/s1.sol\":4073:4108  ProductTransferred(_productId, _to) */\n      0xffffffffffffffffffffffffffffffffffffffff\n      and\n        /* \"SupplyChain/s1.sol\":4092:4102  _productId */\n      dup7\n        /* \"SupplyChain/s1.sol\":4073:4108  ProductTransferred(_productId, _to) */\n      0xa071c6e1af53a60acd8a5b2e1db68b30800b74279783e2d4d3ddf7d371826c89\n      mload(0x40)\n      mload(0x40)\n      dup1\n      swap2\n      sub\n      swap1\n      log3\n        /* \"SupplyChain/s1.sol\":4142:4146  true */\n      0x01\n        /* \"SupplyChain/s1.sol\":4127:4146  productFound = true */\n      swap4\n      pop\n        /* \"SupplyChain/s1.sol\":4164:4169  break */\n      pop\n      jump(tag_215)\n        /* \"SupplyChain/s1.sol\":3501:4184  if (warehouse[i].id == _productId) {... */\n    tag_219:\n        /* \"SupplyChain/s1.sol\":3482:3485  i++ */\n      dup1\n      dup1\n      tag_231\n      swap1\n      tag_79\n      jump\t// in\n    tag_231:\n      swap2\n      pop\n      pop\n        /* \"SupplyChain/s1.sol\":3440:4194  for (uint256 i = 0; i < warehouse.length; i++) {... */\n      jump(tag_214)\n    tag_215:\n      pop\n        /* \"SupplyChain/s1.sol\":4212:4224  productFound */\n      dup2\n        /* \"SupplyChain/s1.sol\":4204:4266  require(productFound, \"Mehsul istifadeci deposunda tapilmadi\") */\n      tag_232\n      jumpi\n      mload(0x40)\n      0x08c379a000000000000000000000000000000000000000000000000000000000\n      dup2\n      mstore\n      0x04\n      add\n      tag_233\n      swap1\n      tag_234\n      jump\t// in\n    tag_233:\n      mload(0x40)\n      dup1\n      swap2\n      sub\n      swap1\n      revert\n    tag_232:\n        /* \"SupplyChain/s1.sol\":3200:4273  function transferProduct(uint256 _productId, address _to) public {... */\n      pop\n      pop\n      pop\n      pop\n      jump\t// out\n        /* \"SupplyChain/s1.sol\":2647:3144  function transferProductFromGeneral(uint256 _productId, address _to) public onlyAdmin {... */\n    tag_69:\n        /* \"SupplyChain/s1.sol\":1780:1785  admin */\n      0x00\n      dup1\n      sload\n      swap1\n      0x0100\n      exp\n      swap1\n      div\n      0xffffffffffffffffffffffffffffffffffffffff\n      and\n        /* \"SupplyChain/s1.sol\":1766:1785  msg.sender == admin */\n      0xffffffffffffffffffffffffffffffffffffffff\n      and\n        /* \"SupplyChain/s1.sol\":1766:1776  msg.sender */\n      caller\n        /* \"SupplyChain/s1.sol\":1766:1785  msg.sender == admin */\n      0xffffffffffffffffffffffffffffffffffffffff\n      and\n      eq\n        /* \"SupplyChain/s1.sol\":1758:1826  require(msg.sender == admin, \"Yalniz admin bu emeliyyati ede biler\") */\n      tag_236\n      jumpi\n      mload(0x40)\n      0x08c379a000000000000000000000000000000000000000000000000000000000\n      dup2\n      mstore\n      0x04\n      add\n      tag_237\n      swap1\n      tag_76\n      jump\t// in\n    tag_237:\n      mload(0x40)\n      dup1\n      swap2\n      sub\n      swap1\n      revert\n    tag_236:\n        /* \"SupplyChain/s1.sol\":2786:2787  0 */\n      0x00\n        /* \"SupplyChain/s1.sol\":2751:2767  generalWarehouse */\n      0x03\n        /* \"SupplyChain/s1.sol\":2751:2779  generalWarehouse[_productId] */\n      0x00\n        /* \"SupplyChain/s1.sol\":2768:2778  _productId */\n      dup5\n        /* \"SupplyChain/s1.sol\":2751:2779  generalWarehouse[_productId] */\n      dup2\n      mstore\n      0x20\n      add\n      swap1\n      dup2\n      mstore\n      0x20\n      add\n      0x00\n      keccak256\n        /* \"SupplyChain/s1.sol\":2751:2782  generalWarehouse[_productId].id */\n      0x00\n      add\n      sload\n        /* \"SupplyChain/s1.sol\":2751:2787  generalWarehouse[_productId].id != 0 */\n      eq\n      iszero\n        /* \"SupplyChain/s1.sol\":2743:2823  require(generalWarehouse[_productId].id != 0, \"Mehsul umumidepoda movcud deyil\") */\n      tag_239\n      jumpi\n      mload(0x40)\n      0x08c379a000000000000000000000000000000000000000000000000000000000\n      dup2\n      mstore\n      0x04\n      add\n      tag_240\n      swap1\n      tag_241\n      jump\t// in\n    tag_240:\n      mload(0x40)\n      dup1\n      swap2\n      sub\n      swap1\n      revert\n    tag_239:\n        /* \"SupplyChain/s1.sol\":2834:2857  Product storage product */\n      0x00\n        /* \"SupplyChain/s1.sol\":2860:2876  generalWarehouse */\n      0x03\n        /* \"SupplyChain/s1.sol\":2860:2888  generalWarehouse[_productId] */\n      0x00\n        /* \"SupplyChain/s1.sol\":2877:2887  _productId */\n      dup5\n        /* \"SupplyChain/s1.sol\":2860:2888  generalWarehouse[_productId] */\n      dup2\n      mstore\n      0x20\n      add\n      swap1\n      dup2\n      mstore\n      0x20\n      add\n      0x00\n      keccak256\n        /* \"SupplyChain/s1.sol\":2834:2888  Product storage product = generalWarehouse[_productId] */\n      swap1\n      pop\n        /* \"SupplyChain/s1.sol\":2914:2917  _to */\n      dup2\n        /* \"SupplyChain/s1.sol\":2898:2905  product */\n      dup2\n        /* \"SupplyChain/s1.sol\":2898:2911  product.owner */\n      0x02\n      add\n      0x00\n        /* \"SupplyChain/s1.sol\":2898:2917  product.owner = _to */\n      0x0100\n      exp\n      dup2\n      sload\n      dup2\n      0xffffffffffffffffffffffffffffffffffffffff\n      mul\n      not\n      and\n      swap1\n      dup4\n      0xffffffffffffffffffffffffffffffffffffffff\n      and\n      mul\n      or\n      swap1\n      sstore\n      pop\n        /* \"SupplyChain/s1.sol\":2971:2985  userWarehouses */\n      0x04\n        /* \"SupplyChain/s1.sol\":2971:2990  userWarehouses[_to] */\n      0x00\n        /* \"SupplyChain/s1.sol\":2986:2989  _to */\n      dup4\n        /* \"SupplyChain/s1.sol\":2971:2990  userWarehouses[_to] */\n      0xffffffffffffffffffffffffffffffffffffffff\n      and\n      0xffffffffffffffffffffffffffffffffffffffff\n      and\n      dup2\n      mstore\n      0x20\n      add\n      swap1\n      dup2\n      mstore\n      0x20\n      add\n      0x00\n      keccak256\n        /* \"SupplyChain/s1.sol\":2996:3003  product */\n      dup2\n        /* \"SupplyChain/s1.sol\":2971:3004  userWarehouses[_to].push(product) */\n      swap1\n      dup1\n      0x01\n      dup2\n      sload\n      add\n      dup1\n      dup3\n      sstore\n      dup1\n      swap2\n      pop\n      pop\n      0x01\n      swap1\n      sub\n      swap1\n      0x00\n      mstore\n      keccak256(0x00, 0x20)\n      swap1\n      0x04\n      mul\n      add\n      0x00\n      swap1\n      swap2\n      swap1\n      swap2\n      swap1\n      swap2\n      pop\n      0x00\n      dup3\n      add\n      sload\n      dup2\n      0x00\n      add\n      sstore\n      0x01\n      dup3\n      add\n      dup2\n      0x01\n      add\n      swap1\n      dup1\n      sload\n      tag_243\n      swap1\n      tag_110\n      jump\t// in\n    tag_243:\n      tag_244\n      swap3\n      swap2\n      swap1\n      tag_226\n      jump\t// in\n    tag_244:\n      pop\n      0x02\n      dup3\n      add\n      0x00\n      swap1\n      sload\n      swap1\n      0x0100\n      exp\n      swap1\n      div\n      0xffffffffffffffffffffffffffffffffffffffff\n      and\n      dup2\n      0x02\n      add\n      exp(0x0100, 0x00)\n      dup2\n      sload\n      dup2\n      0xffffffffffffffffffffffffffffffffffffffff\n      mul\n      not\n      and\n      swap1\n      dup4\n      0xffffffffffffffffffffffffffffffffffffffff\n      and\n      mul\n      or\n      swap1\n      sstore\n      pop\n      0x03\n      dup3\n      add\n      dup2\n      0x03\n      add\n      swap1\n      dup1\n      sload\n      tag_245\n      swap3\n      swap2\n      swap1\n      tag_228\n      jump\t// in\n    tag_245:\n      pop\n      pop\n      pop\n        /* \"SupplyChain/s1.sol\":3014:3021  product */\n      dup1\n        /* \"SupplyChain/s1.sol\":3014:3029  product.history */\n      0x03\n      add\n        /* \"SupplyChain/s1.sol\":3035:3038  _to */\n      dup3\n        /* \"SupplyChain/s1.sol\":3014:3039  product.history.push(_to) */\n      swap1\n      dup1\n      0x01\n      dup2\n      sload\n      add\n      dup1\n      dup3\n      sstore\n      dup1\n      swap2\n      pop\n      pop\n      0x01\n      swap1\n      sub\n      swap1\n      0x00\n      mstore\n      keccak256(0x00, 0x20)\n      add\n      0x00\n      swap1\n      swap2\n      swap1\n      swap2\n      swap1\n      swap2\n      0x0100\n      exp\n      dup2\n      sload\n      dup2\n      0xffffffffffffffffffffffffffffffffffffffff\n      mul\n      not\n      and\n      swap1\n      dup4\n      0xffffffffffffffffffffffffffffffffffffffff\n      and\n      mul\n      or\n      swap1\n      sstore\n      pop\n        /* \"SupplyChain/s1.sol\":3109:3125  generalWarehouse */\n      0x03\n        /* \"SupplyChain/s1.sol\":3109:3137  generalWarehouse[_productId] */\n      0x00\n        /* \"SupplyChain/s1.sol\":3126:3136  _productId */\n      dup5\n        /* \"SupplyChain/s1.sol\":3109:3137  generalWarehouse[_productId] */\n      dup2\n      mstore\n      0x20\n      add\n      swap1\n      dup2\n      mstore\n      0x20\n      add\n      0x00\n      keccak256\n      0x00\n        /* \"SupplyChain/s1.sol\":3102:3137  delete generalWarehouse[_productId] */\n      dup1\n      dup3\n      add\n      0x00\n      swap1\n      sstore\n      0x01\n      dup3\n      add\n      0x00\n      tag_247\n      swap2\n      swap1\n      tag_248\n      jump\t// in\n    tag_247:\n      0x02\n      dup3\n      add\n      exp(0x0100, 0x00)\n      dup2\n      sload\n      swap1\n      0xffffffffffffffffffffffffffffffffffffffff\n      mul\n      not\n      and\n      swap1\n      sstore\n      0x03\n      dup3\n      add\n      0x00\n      tag_249\n      swap2\n      swap1\n      tag_250\n      jump\t// in\n    tag_249:\n      pop\n      pop\n        /* \"SupplyChain/s1.sol\":1836:1837  _ */\n      pop\n        /* \"SupplyChain/s1.sol\":2647:3144  function transferProductFromGeneral(uint256 _productId, address _to) public onlyAdmin {... */\n      pop\n      pop\n      jump\t// out\n        /* \"SupplyChain/s1.sol\":329:349  address public admin */\n    tag_71:\n      0x00\n      dup1\n      sload\n      swap1\n      0x0100\n      exp\n      swap1\n      div\n      0xffffffffffffffffffffffffffffffffffffffff\n      and\n      dup2\n      jump\t// out\n        /* \"SupplyChain/s1.sol\":4359:4852  function removeProductFromUser(address _user, uint256 _productId) internal {... */\n    tag_230:\n        /* \"SupplyChain/s1.sol\":4444:4471  Product[] storage warehouse */\n      0x00\n        /* \"SupplyChain/s1.sol\":4474:4488  userWarehouses */\n      0x04\n        /* \"SupplyChain/s1.sol\":4474:4495  userWarehouses[_user] */\n      0x00\n        /* \"SupplyChain/s1.sol\":4489:4494  _user */\n      dup5\n        /* \"SupplyChain/s1.sol\":4474:4495  userWarehouses[_user] */\n      0xffffffffffffffffffffffffffffffffffffffff\n      and\n      0xffffffffffffffffffffffffffffffffffffffff\n      and\n      dup2\n      mstore\n      0x20\n      add\n      swap1\n      dup2\n      mstore\n      0x20\n      add\n      0x00\n      keccak256\n        /* \"SupplyChain/s1.sol\":4444:4495  Product[] storage warehouse = userWarehouses[_user] */\n      swap1\n      pop\n        /* \"SupplyChain/s1.sol\":4511:4520  uint256 i */\n      0x00\n        /* \"SupplyChain/s1.sol\":4506:4846  for (uint256 i = 0; i < warehouse.length; i++) {... */\n    tag_252:\n        /* \"SupplyChain/s1.sol\":4530:4539  warehouse */\n      dup2\n        /* \"SupplyChain/s1.sol\":4530:4546  warehouse.length */\n      dup1\n      sload\n      swap1\n      pop\n        /* \"SupplyChain/s1.sol\":4526:4527  i */\n      dup2\n        /* \"SupplyChain/s1.sol\":4526:4546  i < warehouse.length */\n      lt\n        /* \"SupplyChain/s1.sol\":4506:4846  for (uint256 i = 0; i < warehouse.length; i++) {... */\n      iszero\n      tag_253\n      jumpi\n        /* \"SupplyChain/s1.sol\":4590:4600  _productId */\n      dup3\n        /* \"SupplyChain/s1.sol\":4571:4580  warehouse */\n      dup3\n        /* \"SupplyChain/s1.sol\":4581:4582  i */\n      dup3\n        /* \"SupplyChain/s1.sol\":4571:4583  warehouse[i] */\n      dup2\n      sload\n      dup2\n      lt\n      tag_255\n      jumpi\n      mstore(0x00, 0x4e487b7100000000000000000000000000000000000000000000000000000000)\n      mstore(0x04, 0x32)\n      revert(0x00, 0x24)\n    tag_255:\n      swap1\n      0x00\n      mstore\n      keccak256(0x00, 0x20)\n      swap1\n      0x04\n      mul\n      add\n        /* \"SupplyChain/s1.sol\":4571:4586  warehouse[i].id */\n      0x00\n      add\n      sload\n        /* \"SupplyChain/s1.sol\":4571:4600  warehouse[i].id == _productId */\n      eq\n        /* \"SupplyChain/s1.sol\":4567:4836  if (warehouse[i].id == _productId) {... */\n      iszero\n      tag_257\n      jumpi\n        /* \"SupplyChain/s1.sol\":4671:4680  warehouse */\n      dup2\n        /* \"SupplyChain/s1.sol\":4700:4701  1 */\n      0x01\n        /* \"SupplyChain/s1.sol\":4681:4690  warehouse */\n      dup4\n        /* \"SupplyChain/s1.sol\":4681:4697  warehouse.length */\n      dup1\n      sload\n      swap1\n      pop\n        /* \"SupplyChain/s1.sol\":4681:4701  warehouse.length - 1 */\n      tag_258\n      swap2\n      swap1\n      tag_259\n      jump\t// in\n    tag_258:\n        /* \"SupplyChain/s1.sol\":4671:4702  warehouse[warehouse.length - 1] */\n      dup2\n      sload\n      dup2\n      lt\n      tag_260\n      jumpi\n      mstore(0x00, 0x4e487b7100000000000000000000000000000000000000000000000000000000)\n      mstore(0x04, 0x32)\n      revert(0x00, 0x24)\n    tag_260:\n      swap1\n      0x00\n      mstore\n      keccak256(0x00, 0x20)\n      swap1\n      0x04\n      mul\n      add\n        /* \"SupplyChain/s1.sol\":4656:4665  warehouse */\n      dup3\n        /* \"SupplyChain/s1.sol\":4666:4667  i */\n      dup3\n        /* \"SupplyChain/s1.sol\":4656:4668  warehouse[i] */\n      dup2\n      sload\n      dup2\n      lt\n      tag_262\n      jumpi\n      mstore(0x00, 0x4e487b7100000000000000000000000000000000000000000000000000000000)\n      mstore(0x04, 0x32)\n      revert(0x00, 0x24)\n    tag_262:\n      swap1\n      0x00\n      mstore\n      keccak256(0x00, 0x20)\n      swap1\n      0x04\n      mul\n      add\n        /* \"SupplyChain/s1.sol\":4656:4702  warehouse[i] = warehouse[warehouse.length - 1] */\n      0x00\n      dup3\n      add\n      sload\n      dup2\n      0x00\n      add\n      sstore\n      0x01\n      dup3\n      add\n      dup2\n      0x01\n      add\n      swap1\n      dup1\n      sload\n      tag_264\n      swap1\n      tag_110\n      jump\t// in\n    tag_264:\n      tag_265\n      swap3\n      swap2\n      swap1\n      tag_226\n      jump\t// in\n    tag_265:\n      pop\n      0x02\n      dup3\n      add\n      0x00\n      swap1\n      sload\n      swap1\n      0x0100\n      exp\n      swap1\n      div\n      0xffffffffffffffffffffffffffffffffffffffff\n      and\n      dup2\n      0x02\n      add\n      exp(0x0100, 0x00)\n      dup2\n      sload\n      dup2\n      0xffffffffffffffffffffffffffffffffffffffff\n      mul\n      not\n      and\n      swap1\n      dup4\n      0xffffffffffffffffffffffffffffffffffffffff\n      and\n      mul\n      or\n      swap1\n      sstore\n      pop\n      0x03\n      dup3\n      add\n      dup2\n      0x03\n      add\n      swap1\n      dup1\n      sload\n      tag_266\n      swap3\n      swap2\n      swap1\n      tag_228\n      jump\t// in\n    tag_266:\n      pop\n      swap1\n      pop\n      pop\n        /* \"SupplyChain/s1.sol\":4762:4771  warehouse */\n      dup2\n        /* \"SupplyChain/s1.sol\":4762:4777  warehouse.pop() */\n      dup1\n      sload\n      dup1\n      tag_267\n      jumpi\n      mstore(0x00, 0x4e487b7100000000000000000000000000000000000000000000000000000000)\n      mstore(0x04, 0x31)\n      revert(0x00, 0x24)\n    tag_267:\n      0x01\n      swap1\n      sub\n      dup2\n      dup2\n      swap1\n      0x00\n      mstore\n      keccak256(0x00, 0x20)\n      swap1\n      0x04\n      mul\n      add\n      0x00\n      dup1\n      dup3\n      add\n      0x00\n      swap1\n      sstore\n      0x01\n      dup3\n      add\n      0x00\n      tag_269\n      swap2\n      swap1\n      tag_248\n      jump\t// in\n    tag_269:\n      0x02\n      dup3\n      add\n      exp(0x0100, 0x00)\n      dup2\n      sload\n      swap1\n      0xffffffffffffffffffffffffffffffffffffffff\n      mul\n      not\n      and\n      swap1\n      sstore\n      0x03\n      dup3\n      add\n      0x00\n      tag_270\n      swap2\n      swap1\n      tag_250\n      jump\t// in\n    tag_270:\n      pop\n      pop\n      swap1\n      sstore\n        /* \"SupplyChain/s1.sol\":4816:4821  break */\n      jump(tag_253)\n        /* \"SupplyChain/s1.sol\":4567:4836  if (warehouse[i].id == _productId) {... */\n    tag_257:\n        /* \"SupplyChain/s1.sol\":4548:4551  i++ */\n      dup1\n      dup1\n      tag_271\n      swap1\n      tag_79\n      jump\t// in\n    tag_271:\n      swap2\n      pop\n      pop\n        /* \"SupplyChain/s1.sol\":4506:4846  for (uint256 i = 0; i < warehouse.length; i++) {... */\n      jump(tag_252)\n    tag_253:\n      pop\n        /* \"SupplyChain/s1.sol\":4359:4852  function removeProductFromUser(address _user, uint256 _productId) internal {... */\n      pop\n      pop\n      pop\n      jump\t// out\n    tag_81:\n      dup3\n      dup1\n      sload\n      tag_272\n      swap1\n      tag_110\n      jump\t// in\n    tag_272:\n      swap1\n      0x00\n      mstore\n      keccak256(0x00, 0x20)\n      swap1\n      0x1f\n      add\n      0x20\n      swap1\n      div\n      dup2\n      add\n      swap3\n      dup3\n      tag_274\n      jumpi\n      0x00\n      dup6\n      sstore\n      jump(tag_273)\n    tag_274:\n      dup3\n      0x1f\n      lt\n      tag_275\n      jumpi\n      dup1\n      mload\n      not(0xff)\n      and\n      dup4\n      dup1\n      add\n      or\n      dup6\n      sstore\n      jump(tag_273)\n    tag_275:\n      dup3\n      dup1\n      add\n      0x01\n      add\n      dup6\n      sstore\n      dup3\n      iszero\n      tag_273\n      jumpi\n      swap2\n      dup3\n      add\n    tag_276:\n      dup3\n      dup2\n      gt\n      iszero\n      tag_277\n      jumpi\n      dup3\n      mload\n      dup3\n      sstore\n      swap2\n      0x20\n      add\n      swap2\n      swap1\n      0x01\n      add\n      swap1\n      jump(tag_276)\n    tag_277:\n    tag_273:\n      pop\n      swap1\n      pop\n      tag_278\n      swap2\n      swap1\n      tag_279\n      jump\t// in\n    tag_278:\n      pop\n      swap1\n      jump\t// out\n    tag_123:\n      mload(0x40)\n      dup1\n      0x80\n      add\n      0x40\n      mstore\n      dup1\n      0x00\n      dup2\n      mstore\n      0x20\n      add\n      0x60\n      dup2\n      mstore\n      0x20\n      add\n      and(0xffffffffffffffffffffffffffffffffffffffff, 0x00)\n      dup2\n      mstore\n      0x20\n      add\n      0x60\n      dup2\n      mstore\n      pop\n      swap1\n      jump\t// out\n    tag_226:\n      dup3\n      dup1\n      sload\n      tag_280\n      swap1\n      tag_110\n      jump\t// in\n    tag_280:\n      swap1\n      0x00\n      mstore\n      keccak256(0x00, 0x20)\n      swap1\n      0x1f\n      add\n      0x20\n      swap1\n      div\n      dup2\n      add\n      swap3\n      dup3\n      tag_282\n      jumpi\n      0x00\n      dup6\n      sstore\n      jump(tag_281)\n    tag_282:\n      dup3\n      0x1f\n      lt\n      tag_283\n      jumpi\n      dup1\n      sload\n      dup6\n      sstore\n      jump(tag_281)\n    tag_283:\n      dup3\n      dup1\n      add\n      0x01\n      add\n      dup6\n      sstore\n      dup3\n      iszero\n      tag_281\n      jumpi\n      0x00\n      mstore\n      keccak256(0x00, 0x20)\n      swap2\n      0x1f\n      add\n      0x20\n      swap1\n      div\n      dup3\n      add\n    tag_284:\n      dup3\n      dup2\n      gt\n      iszero\n      tag_285\n      jumpi\n      dup3\n      sload\n      dup3\n      sstore\n      swap2\n      0x01\n      add\n      swap2\n      swap1\n      0x01\n      add\n      swap1\n      jump(tag_284)\n    tag_285:\n    tag_281:\n      pop\n      swap1\n      pop\n      tag_286\n      swap2\n      swap1\n      tag_279\n      jump\t// in\n    tag_286:\n      pop\n      swap1\n      jump\t// out\n    tag_228:\n      dup3\n      dup1\n      sload\n      dup3\n      dup3\n      sstore\n      swap1\n      0x00\n      mstore\n      keccak256(0x00, 0x20)\n      swap1\n      dup2\n      add\n      swap3\n      dup3\n      iszero\n      tag_287\n      jumpi\n      0x00\n      mstore\n      keccak256(0x00, 0x20)\n      swap2\n      dup3\n      add\n    tag_288:\n      dup3\n      dup2\n      gt\n      iszero\n      tag_289\n      jumpi\n      dup3\n      sload\n      dup3\n      sstore\n      swap2\n      0x01\n      add\n      swap2\n      swap1\n      0x01\n      add\n      swap1\n      jump(tag_288)\n    tag_289:\n    tag_287:\n      pop\n      swap1\n      pop\n      tag_290\n      swap2\n      swap1\n      tag_279\n      jump\t// in\n    tag_290:\n      pop\n      swap1\n      jump\t// out\n    tag_248:\n      pop\n      dup1\n      sload\n      tag_291\n      swap1\n      tag_110\n      jump\t// in\n    tag_291:\n      0x00\n      dup3\n      sstore\n      dup1\n      0x1f\n      lt\n      tag_293\n      jumpi\n      pop\n      jump(tag_292)\n    tag_293:\n      0x1f\n      add\n      0x20\n      swap1\n      div\n      swap1\n      0x00\n      mstore\n      keccak256(0x00, 0x20)\n      swap1\n      dup2\n      add\n      swap1\n      tag_294\n      swap2\n      swap1\n      tag_279\n      jump\t// in\n    tag_294:\n    tag_292:\n      pop\n      jump\t// out\n    tag_250:\n      pop\n      dup1\n      sload\n      0x00\n      dup3\n      sstore\n      swap1\n      0x00\n      mstore\n      keccak256(0x00, 0x20)\n      swap1\n      dup2\n      add\n      swap1\n      tag_296\n      swap2\n      swap1\n      tag_279\n      jump\t// in\n    tag_296:\n      pop\n      jump\t// out\n    tag_279:\n    tag_297:\n      dup1\n      dup3\n      gt\n      iszero\n      tag_298\n      jumpi\n      0x00\n      dup2\n      0x00\n      swap1\n      sstore\n      pop\n      0x01\n      add\n      jump(tag_297)\n    tag_298:\n      pop\n      swap1\n      jump\t// out\n        /* \"#utility.yul\":7:351   */\n    tag_300:\n      0x00\n        /* \"#utility.yul\":110:175   */\n      tag_302\n        /* \"#utility.yul\":125:174   */\n      tag_303\n        /* \"#utility.yul\":167:173   */\n      dup5\n        /* \"#utility.yul\":125:174   */\n      tag_304\n      jump\t// in\n    tag_303:\n        /* \"#utility.yul\":110:175   */\n      tag_305\n      jump\t// in\n    tag_302:\n        /* \"#utility.yul\":101:175   */\n      swap1\n      pop\n        /* \"#utility.yul\":198:204   */\n      dup3\n        /* \"#utility.yul\":191:196   */\n      dup2\n        /* \"#utility.yul\":184:205   */\n      mstore\n        /* \"#utility.yul\":236:240   */\n      0x20\n        /* \"#utility.yul\":229:234   */\n      dup2\n        /* \"#utility.yul\":225:241   */\n      add\n        /* \"#utility.yul\":274:277   */\n      dup5\n        /* \"#utility.yul\":265:271   */\n      dup5\n        /* \"#utility.yul\":260:263   */\n      dup5\n        /* \"#utility.yul\":256:272   */\n      add\n        /* \"#utility.yul\":253:278   */\n      gt\n        /* \"#utility.yul\":250:252   */\n      iszero\n      tag_306\n      jumpi\n        /* \"#utility.yul\":291:292   */\n      0x00\n        /* \"#utility.yul\":288:289   */\n      dup1\n        /* \"#utility.yul\":281:293   */\n      revert\n        /* \"#utility.yul\":250:252   */\n    tag_306:\n        /* \"#utility.yul\":304:345   */\n      tag_307\n        /* \"#utility.yul\":338:344   */\n      dup5\n        /* \"#utility.yul\":333:336   */\n      dup3\n        /* \"#utility.yul\":328:331   */\n      dup6\n        /* \"#utility.yul\":304:345   */\n      tag_308\n      jump\t// in\n    tag_307:\n        /* \"#utility.yul\":91:351   */\n      pop\n      swap4\n      swap3\n      pop\n      pop\n      pop\n      jump\t// out\n        /* \"#utility.yul\":357:496   */\n    tag_309:\n      0x00\n        /* \"#utility.yul\":441:447   */\n      dup2\n        /* \"#utility.yul\":428:448   */\n      calldataload\n        /* \"#utility.yul\":419:448   */\n      swap1\n      pop\n        /* \"#utility.yul\":457:490   */\n      tag_311\n        /* \"#utility.yul\":484:489   */\n      dup2\n        /* \"#utility.yul\":457:490   */\n      tag_312\n      jump\t// in\n    tag_311:\n        /* \"#utility.yul\":409:496   */\n      swap3\n      swap2\n      pop\n      pop\n      jump\t// out\n        /* \"#utility.yul\":516:789   */\n    tag_313:\n      0x00\n        /* \"#utility.yul\":621:624   */\n      dup3\n        /* \"#utility.yul\":614:618   */\n      0x1f\n        /* \"#utility.yul\":606:612   */\n      dup4\n        /* \"#utility.yul\":602:619   */\n      add\n        /* \"#utility.yul\":598:625   */\n      slt\n        /* \"#utility.yul\":588:590   */\n      tag_315\n      jumpi\n        /* \"#utility.yul\":639:640   */\n      0x00\n        /* \"#utility.yul\":636:637   */\n      dup1\n        /* \"#utility.yul\":629:641   */\n      revert\n        /* \"#utility.yul\":588:590   */\n    tag_315:\n        /* \"#utility.yul\":679:685   */\n      dup2\n        /* \"#utility.yul\":666:686   */\n      calldataload\n        /* \"#utility.yul\":704:783   */\n      tag_316\n        /* \"#utility.yul\":779:782   */\n      dup5\n        /* \"#utility.yul\":771:777   */\n      dup3\n        /* \"#utility.yul\":764:768   */\n      0x20\n        /* \"#utility.yul\":756:762   */\n      dup7\n        /* \"#utility.yul\":752:769   */\n      add\n        /* \"#utility.yul\":704:783   */\n      tag_300\n      jump\t// in\n    tag_316:\n        /* \"#utility.yul\":695:783   */\n      swap2\n      pop\n        /* \"#utility.yul\":578:789   */\n      pop\n      swap3\n      swap2\n      pop\n      pop\n      jump\t// out\n        /* \"#utility.yul\":795:934   */\n    tag_317:\n      0x00\n        /* \"#utility.yul\":879:885   */\n      dup2\n        /* \"#utility.yul\":866:886   */\n      calldataload\n        /* \"#utility.yul\":857:886   */\n      swap1\n      pop\n        /* \"#utility.yul\":895:928   */\n      tag_319\n        /* \"#utility.yul\":922:927   */\n      dup2\n        /* \"#utility.yul\":895:928   */\n      tag_320\n      jump\t// in\n    tag_319:\n        /* \"#utility.yul\":847:934   */\n      swap3\n      swap2\n      pop\n      pop\n      jump\t// out\n        /* \"#utility.yul\":940:1347   */\n    tag_32:\n      0x00\n      dup1\n        /* \"#utility.yul\":1065:1067   */\n      0x40\n        /* \"#utility.yul\":1053:1062   */\n      dup4\n        /* \"#utility.yul\":1044:1051   */\n      dup6\n        /* \"#utility.yul\":1040:1063   */\n      sub\n        /* \"#utility.yul\":1036:1068   */\n      slt\n        /* \"#utility.yul\":1033:1035   */\n      iszero\n      tag_322\n      jumpi\n        /* \"#utility.yul\":1081:1082   */\n      0x00\n        /* \"#utility.yul\":1078:1079   */\n      dup1\n        /* \"#utility.yul\":1071:1083   */\n      revert\n        /* \"#utility.yul\":1033:1035   */\n    tag_322:\n        /* \"#utility.yul\":1124:1125   */\n      0x00\n        /* \"#utility.yul\":1149:1202   */\n      tag_323\n        /* \"#utility.yul\":1194:1201   */\n      dup6\n        /* \"#utility.yul\":1185:1191   */\n      dup3\n        /* \"#utility.yul\":1174:1183   */\n      dup7\n        /* \"#utility.yul\":1170:1192   */\n      add\n        /* \"#utility.yul\":1149:1202   */\n      tag_309\n      jump\t// in\n    tag_323:\n        /* \"#utility.yul\":1139:1202   */\n      swap3\n      pop\n        /* \"#utility.yul\":1095:1212   */\n      pop\n        /* \"#utility.yul\":1251:1253   */\n      0x20\n        /* \"#utility.yul\":1277:1330   */\n      tag_324\n        /* \"#utility.yul\":1322:1329   */\n      dup6\n        /* \"#utility.yul\":1313:1319   */\n      dup3\n        /* \"#utility.yul\":1302:1311   */\n      dup7\n        /* \"#utility.yul\":1298:1320   */\n      add\n        /* \"#utility.yul\":1277:1330   */\n      tag_317\n      jump\t// in\n    tag_324:\n        /* \"#utility.yul\":1267:1330   */\n      swap2\n      pop\n        /* \"#utility.yul\":1222:1340   */\n      pop\n        /* \"#utility.yul\":1023:1347   */\n      swap3\n      pop\n      swap3\n      swap1\n      pop\n      jump\t// out\n        /* \"#utility.yul\":1353:1728   */\n    tag_24:\n      0x00\n        /* \"#utility.yul\":1471:1473   */\n      0x20\n        /* \"#utility.yul\":1459:1468   */\n      dup3\n        /* \"#utility.yul\":1450:1457   */\n      dup5\n        /* \"#utility.yul\":1446:1469   */\n      sub\n        /* \"#utility.yul\":1442:1474   */\n      slt\n        /* \"#utility.yul\":1439:1441   */\n      iszero\n      tag_326\n      jumpi\n        /* \"#utility.yul\":1487:1488   */\n      0x00\n        /* \"#utility.yul\":1484:1485   */\n      dup1\n        /* \"#utility.yul\":1477:1489   */\n      revert\n        /* \"#utility.yul\":1439:1441   */\n    tag_326:\n        /* \"#utility.yul\":1558:1559   */\n      0x00\n        /* \"#utility.yul\":1547:1556   */\n      dup3\n        /* \"#utility.yul\":1543:1560   */\n      add\n        /* \"#utility.yul\":1530:1561   */\n      calldataload\n        /* \"#utility.yul\":1588:1606   */\n      0xffffffffffffffff\n        /* \"#utility.yul\":1580:1586   */\n      dup2\n        /* \"#utility.yul\":1577:1607   */\n      gt\n        /* \"#utility.yul\":1574:1576   */\n      iszero\n      tag_327\n      jumpi\n        /* \"#utility.yul\":1620:1621   */\n      0x00\n        /* \"#utility.yul\":1617:1618   */\n      dup1\n        /* \"#utility.yul\":1610:1622   */\n      revert\n        /* \"#utility.yul\":1574:1576   */\n    tag_327:\n        /* \"#utility.yul\":1648:1711   */\n      tag_328\n        /* \"#utility.yul\":1703:1710   */\n      dup5\n        /* \"#utility.yul\":1694:1700   */\n      dup3\n        /* \"#utility.yul\":1683:1692   */\n      dup6\n        /* \"#utility.yul\":1679:1701   */\n      add\n        /* \"#utility.yul\":1648:1711   */\n      tag_313\n      jump\t// in\n    tag_328:\n        /* \"#utility.yul\":1638:1711   */\n      swap2\n      pop\n        /* \"#utility.yul\":1501:1721   */\n      pop\n        /* \"#utility.yul\":1429:1728   */\n      swap3\n      swap2\n      pop\n      pop\n      jump\t// out\n        /* \"#utility.yul\":1734:1996   */\n    tag_38:\n      0x00\n        /* \"#utility.yul\":1842:1844   */\n      0x20\n        /* \"#utility.yul\":1830:1839   */\n      dup3\n        /* \"#utility.yul\":1821:1828   */\n      dup5\n        /* \"#utility.yul\":1817:1840   */\n      sub\n        /* \"#utility.yul\":1813:1845   */\n      slt\n        /* \"#utility.yul\":1810:1812   */\n      iszero\n      tag_330\n      jumpi\n        /* \"#utility.yul\":1858:1859   */\n      0x00\n        /* \"#utility.yul\":1855:1856   */\n      dup1\n        /* \"#utility.yul\":1848:1860   */\n      revert\n        /* \"#utility.yul\":1810:1812   */\n    tag_330:\n        /* \"#utility.yul\":1901:1902   */\n      0x00\n        /* \"#utility.yul\":1926:1979   */\n      tag_331\n        /* \"#utility.yul\":1971:1978   */\n      dup5\n        /* \"#utility.yul\":1962:1968   */\n      dup3\n        /* \"#utility.yul\":1951:1960   */\n      dup6\n        /* \"#utility.yul\":1947:1969   */\n      add\n        /* \"#utility.yul\":1926:1979   */\n      tag_317\n      jump\t// in\n    tag_331:\n        /* \"#utility.yul\":1916:1979   */\n      swap2\n      pop\n        /* \"#utility.yul\":1872:1989   */\n      pop\n        /* \"#utility.yul\":1800:1996   */\n      swap3\n      swap2\n      pop\n      pop\n      jump\t// out\n        /* \"#utility.yul\":2002:2409   */\n    tag_65:\n      0x00\n      dup1\n        /* \"#utility.yul\":2127:2129   */\n      0x40\n        /* \"#utility.yul\":2115:2124   */\n      dup4\n        /* \"#utility.yul\":2106:2113   */\n      dup6\n        /* \"#utility.yul\":2102:2125   */\n      sub\n        /* \"#utility.yul\":2098:2130   */\n      slt\n        /* \"#utility.yul\":2095:2097   */\n      iszero\n      tag_333\n      jumpi\n        /* \"#utility.yul\":2143:2144   */\n      0x00\n        /* \"#utility.yul\":2140:2141   */\n      dup1\n        /* \"#utility.yul\":2133:2145   */\n      revert\n        /* \"#utility.yul\":2095:2097   */\n    tag_333:\n        /* \"#utility.yul\":2186:2187   */\n      0x00\n        /* \"#utility.yul\":2211:2264   */\n      tag_334\n        /* \"#utility.yul\":2256:2263   */\n      dup6\n        /* \"#utility.yul\":2247:2253   */\n      dup3\n        /* \"#utility.yul\":2236:2245   */\n      dup7\n        /* \"#utility.yul\":2232:2254   */\n      add\n        /* \"#utility.yul\":2211:2264   */\n      tag_317\n      jump\t// in\n    tag_334:\n        /* \"#utility.yul\":2201:2264   */\n      swap3\n      pop\n        /* \"#utility.yul\":2157:2274   */\n      pop\n        /* \"#utility.yul\":2313:2315   */\n      0x20\n        /* \"#utility.yul\":2339:2392   */\n      tag_335\n        /* \"#utility.yul\":2384:2391   */\n      dup6\n        /* \"#utility.yul\":2375:2381   */\n      dup3\n        /* \"#utility.yul\":2364:2373   */\n      dup7\n        /* \"#utility.yul\":2360:2382   */\n      add\n        /* \"#utility.yul\":2339:2392   */\n      tag_309\n      jump\t// in\n    tag_335:\n        /* \"#utility.yul\":2329:2392   */\n      swap2\n      pop\n        /* \"#utility.yul\":2284:2402   */\n      pop\n        /* \"#utility.yul\":2085:2409   */\n      swap3\n      pop\n      swap3\n      swap1\n      pop\n      jump\t// out\n        /* \"#utility.yul\":2415:2935   */\n    tag_28:\n      0x00\n      dup1\n        /* \"#utility.yul\":2550:2552   */\n      0x40\n        /* \"#utility.yul\":2538:2547   */\n      dup4\n        /* \"#utility.yul\":2529:2536   */\n      dup6\n        /* \"#utility.yul\":2525:2548   */\n      sub\n        /* \"#utility.yul\":2521:2553   */\n      slt\n        /* \"#utility.yul\":2518:2520   */\n      iszero\n      tag_337\n      jumpi\n        /* \"#utility.yul\":2566:2567   */\n      0x00\n        /* \"#utility.yul\":2563:2564   */\n      dup1\n        /* \"#utility.yul\":2556:2568   */\n      revert\n        /* \"#utility.yul\":2518:2520   */\n    tag_337:\n        /* \"#utility.yul\":2609:2610   */\n      0x00\n        /* \"#utility.yul\":2634:2687   */\n      tag_338\n        /* \"#utility.yul\":2679:2686   */\n      dup6\n        /* \"#utility.yul\":2670:2676   */\n      dup3\n        /* \"#utility.yul\":2659:2668   */\n      dup7\n        /* \"#utility.yul\":2655:2677   */\n      add\n        /* \"#utility.yul\":2634:2687   */\n      tag_317\n      jump\t// in\n    tag_338:\n        /* \"#utility.yul\":2624:2687   */\n      swap3\n      pop\n        /* \"#utility.yul\":2580:2697   */\n      pop\n        /* \"#utility.yul\":2764:2766   */\n      0x20\n        /* \"#utility.yul\":2753:2762   */\n      dup4\n        /* \"#utility.yul\":2749:2767   */\n      add\n        /* \"#utility.yul\":2736:2768   */\n      calldataload\n        /* \"#utility.yul\":2795:2813   */\n      0xffffffffffffffff\n        /* \"#utility.yul\":2787:2793   */\n      dup2\n        /* \"#utility.yul\":2784:2814   */\n      gt\n        /* \"#utility.yul\":2781:2783   */\n      iszero\n      tag_339\n      jumpi\n        /* \"#utility.yul\":2827:2828   */\n      0x00\n        /* \"#utility.yul\":2824:2825   */\n      dup1\n        /* \"#utility.yul\":2817:2829   */\n      revert\n        /* \"#utility.yul\":2781:2783   */\n    tag_339:\n        /* \"#utility.yul\":2855:2918   */\n      tag_340\n        /* \"#utility.yul\":2910:2917   */\n      dup6\n        /* \"#utility.yul\":2901:2907   */\n      dup3\n        /* \"#utility.yul\":2890:2899   */\n      dup7\n        /* \"#utility.yul\":2886:2908   */\n      add\n        /* \"#utility.yul\":2855:2918   */\n      tag_313\n      jump\t// in\n    tag_340:\n        /* \"#utility.yul\":2845:2918   */\n      swap2\n      pop\n        /* \"#utility.yul\":2707:2928   */\n      pop\n        /* \"#utility.yul\":2508:2935   */\n      swap3\n      pop\n      swap3\n      swap1\n      pop\n      jump\t// out\n        /* \"#utility.yul\":2941:3120   */\n    tag_341:\n      0x00\n        /* \"#utility.yul\":3031:3077   */\n      tag_343\n        /* \"#utility.yul\":3073:3076   */\n      dup4\n        /* \"#utility.yul\":3065:3071   */\n      dup4\n        /* \"#utility.yul\":3031:3077   */\n      tag_344\n      jump\t// in\n    tag_343:\n        /* \"#utility.yul\":3109:3113   */\n      0x20\n        /* \"#utility.yul\":3104:3107   */\n      dup4\n        /* \"#utility.yul\":3100:3114   */\n      add\n        /* \"#utility.yul\":3086:3114   */\n      swap1\n      pop\n        /* \"#utility.yul\":3021:3120   */\n      swap3\n      swap2\n      pop\n      pop\n      jump\t// out\n        /* \"#utility.yul\":3126:3234   */\n    tag_344:\n        /* \"#utility.yul\":3203:3227   */\n      tag_346\n        /* \"#utility.yul\":3221:3226   */\n      dup2\n        /* \"#utility.yul\":3203:3227   */\n      tag_347\n      jump\t// in\n    tag_346:\n        /* \"#utility.yul\":3198:3201   */\n      dup3\n        /* \"#utility.yul\":3191:3228   */\n      mstore\n        /* \"#utility.yul\":3181:3234   */\n      pop\n      pop\n      jump\t// out\n        /* \"#utility.yul\":3240:3358   */\n    tag_348:\n        /* \"#utility.yul\":3327:3351   */\n      tag_350\n        /* \"#utility.yul\":3345:3350   */\n      dup2\n        /* \"#utility.yul\":3327:3351   */\n      tag_347\n      jump\t// in\n    tag_350:\n        /* \"#utility.yul\":3322:3325   */\n      dup3\n        /* \"#utility.yul\":3315:3352   */\n      mstore\n        /* \"#utility.yul\":3305:3358   */\n      pop\n      pop\n      jump\t// out\n        /* \"#utility.yul\":3394:4106   */\n    tag_351:\n      0x00\n        /* \"#utility.yul\":3532:3586   */\n      tag_353\n        /* \"#utility.yul\":3580:3585   */\n      dup3\n        /* \"#utility.yul\":3532:3586   */\n      tag_354\n      jump\t// in\n    tag_353:\n        /* \"#utility.yul\":3602:3678   */\n      tag_355\n        /* \"#utility.yul\":3671:3677   */\n      dup2\n        /* \"#utility.yul\":3666:3669   */\n      dup6\n        /* \"#utility.yul\":3602:3678   */\n      tag_356\n      jump\t// in\n    tag_355:\n        /* \"#utility.yul\":3595:3678   */\n      swap4\n      pop\n        /* \"#utility.yul\":3702:3758   */\n      tag_357\n        /* \"#utility.yul\":3752:3757   */\n      dup4\n        /* \"#utility.yul\":3702:3758   */\n      tag_358\n      jump\t// in\n    tag_357:\n        /* \"#utility.yul\":3781:3788   */\n      dup1\n        /* \"#utility.yul\":3812:3813   */\n      0x00\n        /* \"#utility.yul\":3797:4081   */\n    tag_359:\n        /* \"#utility.yul\":3822:3828   */\n      dup4\n        /* \"#utility.yul\":3819:3820   */\n      dup2\n        /* \"#utility.yul\":3816:3829   */\n      lt\n        /* \"#utility.yul\":3797:4081   */\n      iszero\n      tag_361\n      jumpi\n        /* \"#utility.yul\":3898:3904   */\n      dup2\n        /* \"#utility.yul\":3892:3905   */\n      mload\n        /* \"#utility.yul\":3925:3988   */\n      tag_362\n        /* \"#utility.yul\":3984:3987   */\n      dup9\n        /* \"#utility.yul\":3969:3982   */\n      dup3\n        /* \"#utility.yul\":3925:3988   */\n      tag_341\n      jump\t// in\n    tag_362:\n        /* \"#utility.yul\":3918:3988   */\n      swap8\n      pop\n        /* \"#utility.yul\":4011:4071   */\n      tag_363\n        /* \"#utility.yul\":4064:4070   */\n      dup4\n        /* \"#utility.yul\":4011:4071   */\n      tag_364\n      jump\t// in\n    tag_363:\n        /* \"#utility.yul\":4001:4071   */\n      swap3\n      pop\n        /* \"#utility.yul\":3857:4081   */\n      pop\n        /* \"#utility.yul\":3844:3845   */\n      0x01\n        /* \"#utility.yul\":3841:3842   */\n      dup2\n        /* \"#utility.yul\":3837:3846   */\n      add\n        /* \"#utility.yul\":3832:3846   */\n      swap1\n      pop\n        /* \"#utility.yul\":3797:4081   */\n      jump(tag_359)\n    tag_361:\n        /* \"#utility.yul\":3801:3815   */\n      pop\n        /* \"#utility.yul\":4097:4100   */\n      dup6\n        /* \"#utility.yul\":4090:4100   */\n      swap4\n      pop\n        /* \"#utility.yul\":3508:4106   */\n      pop\n      pop\n      pop\n      swap3\n      swap2\n      pop\n      pop\n      jump\t// out\n        /* \"#utility.yul\":4142:4874   */\n    tag_365:\n      0x00\n        /* \"#utility.yul\":4290:4344   */\n      tag_367\n        /* \"#utility.yul\":4338:4343   */\n      dup3\n        /* \"#utility.yul\":4290:4344   */\n      tag_354\n      jump\t// in\n    tag_367:\n        /* \"#utility.yul\":4360:4446   */\n      tag_368\n        /* \"#utility.yul\":4439:4445   */\n      dup2\n        /* \"#utility.yul\":4434:4437   */\n      dup6\n        /* \"#utility.yul\":4360:4446   */\n      tag_369\n      jump\t// in\n    tag_368:\n        /* \"#utility.yul\":4353:4446   */\n      swap4\n      pop\n        /* \"#utility.yul\":4470:4526   */\n      tag_370\n        /* \"#utility.yul\":4520:4525   */\n      dup4\n        /* \"#utility.yul\":4470:4526   */\n      tag_358\n      jump\t// in\n    tag_370:\n        /* \"#utility.yul\":4549:4556   */\n      dup1\n        /* \"#utility.yul\":4580:4581   */\n      0x00\n        /* \"#utility.yul\":4565:4849   */\n    tag_371:\n        /* \"#utility.yul\":4590:4596   */\n      dup4\n        /* \"#utility.yul\":4587:4588   */\n      dup2\n        /* \"#utility.yul\":4584:4597   */\n      lt\n        /* \"#utility.yul\":4565:4849   */\n      iszero\n      tag_373\n      jumpi\n        /* \"#utility.yul\":4666:4672   */\n      dup2\n        /* \"#utility.yul\":4660:4673   */\n      mload\n        /* \"#utility.yul\":4693:4756   */\n      tag_374\n        /* \"#utility.yul\":4752:4755   */\n      dup9\n        /* \"#utility.yul\":4737:4750   */\n      dup3\n        /* \"#utility.yul\":4693:4756   */\n      tag_341\n      jump\t// in\n    tag_374:\n        /* \"#utility.yul\":4686:4756   */\n      swap8\n      pop\n        /* \"#utility.yul\":4779:4839   */\n      tag_375\n        /* \"#utility.yul\":4832:4838   */\n      dup4\n        /* \"#utility.yul\":4779:4839   */\n      tag_364\n      jump\t// in\n    tag_375:\n        /* \"#utility.yul\":4769:4839   */\n      swap3\n      pop\n        /* \"#utility.yul\":4625:4849   */\n      pop\n        /* \"#utility.yul\":4612:4613   */\n      0x01\n        /* \"#utility.yul\":4609:4610   */\n      dup2\n        /* \"#utility.yul\":4605:4614   */\n      add\n        /* \"#utility.yul\":4600:4614   */\n      swap1\n      pop\n        /* \"#utility.yul\":4565:4849   */\n      jump(tag_371)\n    tag_373:\n        /* \"#utility.yul\":4569:4583   */\n      pop\n        /* \"#utility.yul\":4865:4868   */\n      dup6\n        /* \"#utility.yul\":4858:4868   */\n      swap4\n      pop\n        /* \"#utility.yul\":4266:4874   */\n      pop\n      pop\n      pop\n      swap3\n      swap2\n      pop\n      pop\n      jump\t// out\n        /* \"#utility.yul\":4880:4989   */\n    tag_376:\n        /* \"#utility.yul\":4961:4982   */\n      tag_378\n        /* \"#utility.yul\":4976:4981   */\n      dup2\n        /* \"#utility.yul\":4961:4982   */\n      tag_379\n      jump\t// in\n    tag_378:\n        /* \"#utility.yul\":4956:4959   */\n      dup3\n        /* \"#utility.yul\":4949:4983   */\n      mstore\n        /* \"#utility.yul\":4939:4989   */\n      pop\n      pop\n      jump\t// out\n        /* \"#utility.yul\":4995:5339   */\n    tag_380:\n      0x00\n        /* \"#utility.yul\":5101:5140   */\n      tag_382\n        /* \"#utility.yul\":5134:5139   */\n      dup3\n        /* \"#utility.yul\":5101:5140   */\n      tag_383\n      jump\t// in\n    tag_382:\n        /* \"#utility.yul\":5156:5217   */\n      tag_384\n        /* \"#utility.yul\":5210:5216   */\n      dup2\n        /* \"#utility.yul\":5205:5208   */\n      dup6\n        /* \"#utility.yul\":5156:5217   */\n      tag_385\n      jump\t// in\n    tag_384:\n        /* \"#utility.yul\":5149:5217   */\n      swap4\n      pop\n        /* \"#utility.yul\":5226:5278   */\n      tag_386\n        /* \"#utility.yul\":5271:5277   */\n      dup2\n        /* \"#utility.yul\":5266:5269   */\n      dup6\n        /* \"#utility.yul\":5259:5263   */\n      0x20\n        /* \"#utility.yul\":5252:5257   */\n      dup7\n        /* \"#utility.yul\":5248:5264   */\n      add\n        /* \"#utility.yul\":5226:5278   */\n      tag_387\n      jump\t// in\n    tag_386:\n        /* \"#utility.yul\":5303:5332   */\n      tag_388\n        /* \"#utility.yul\":5325:5331   */\n      dup2\n        /* \"#utility.yul\":5303:5332   */\n      tag_389\n      jump\t// in\n    tag_388:\n        /* \"#utility.yul\":5298:5301   */\n      dup5\n        /* \"#utility.yul\":5294:5333   */\n      add\n        /* \"#utility.yul\":5287:5333   */\n      swap2\n      pop\n        /* \"#utility.yul\":5077:5339   */\n      pop\n      swap3\n      swap2\n      pop\n      pop\n      jump\t// out\n        /* \"#utility.yul\":5345:5709   */\n    tag_390:\n      0x00\n        /* \"#utility.yul\":5461:5500   */\n      tag_392\n        /* \"#utility.yul\":5494:5499   */\n      dup3\n        /* \"#utility.yul\":5461:5500   */\n      tag_383\n      jump\t// in\n    tag_392:\n        /* \"#utility.yul\":5516:5587   */\n      tag_393\n        /* \"#utility.yul\":5580:5586   */\n      dup2\n        /* \"#utility.yul\":5575:5578   */\n      dup6\n        /* \"#utility.yul\":5516:5587   */\n      tag_394\n      jump\t// in\n    tag_393:\n        /* \"#utility.yul\":5509:5587   */\n      swap4\n      pop\n        /* \"#utility.yul\":5596:5648   */\n      tag_395\n        /* \"#utility.yul\":5641:5647   */\n      dup2\n        /* \"#utility.yul\":5636:5639   */\n      dup6\n        /* \"#utility.yul\":5629:5633   */\n      0x20\n        /* \"#utility.yul\":5622:5627   */\n      dup7\n        /* \"#utility.yul\":5618:5634   */\n      add\n        /* \"#utility.yul\":5596:5648   */\n      tag_387\n      jump\t// in\n    tag_395:\n        /* \"#utility.yul\":5673:5702   */\n      tag_396\n        /* \"#utility.yul\":5695:5701   */\n      dup2\n        /* \"#utility.yul\":5673:5702   */\n      tag_389\n      jump\t// in\n    tag_396:\n        /* \"#utility.yul\":5668:5671   */\n      dup5\n        /* \"#utility.yul\":5664:5703   */\n      add\n        /* \"#utility.yul\":5657:5703   */\n      swap2\n      pop\n        /* \"#utility.yul\":5437:5709   */\n      pop\n      swap3\n      swap2\n      pop\n      pop\n      jump\t// out\n        /* \"#utility.yul\":5739:6541   */\n    tag_397:\n      0x00\n        /* \"#utility.yul\":5861:5866   */\n      dup2\n        /* \"#utility.yul\":5855:5867   */\n      sload\n        /* \"#utility.yul\":5890:5926   */\n      tag_399\n        /* \"#utility.yul\":5916:5925   */\n      dup2\n        /* \"#utility.yul\":5890:5926   */\n      tag_110\n      jump\t// in\n    tag_399:\n        /* \"#utility.yul\":5942:6013   */\n      tag_400\n        /* \"#utility.yul\":6006:6012   */\n      dup2\n        /* \"#utility.yul\":6001:6004   */\n      dup7\n        /* \"#utility.yul\":5942:6013   */\n      tag_394\n      jump\t// in\n    tag_400:\n        /* \"#utility.yul\":5935:6013   */\n      swap5\n      pop\n        /* \"#utility.yul\":6044:6045   */\n      0x01\n        /* \"#utility.yul\":6033:6042   */\n      dup3\n        /* \"#utility.yul\":6029:6046   */\n      and\n        /* \"#utility.yul\":6060:6061   */\n      0x00\n        /* \"#utility.yul\":6055:6190   */\n      dup2\n      eq\n      tag_402\n      jumpi\n        /* \"#utility.yul\":6204:6205   */\n      0x01\n        /* \"#utility.yul\":6199:6535   */\n      dup2\n      eq\n      tag_403\n      jumpi\n        /* \"#utility.yul\":6022:6535   */\n      jump(tag_401)\n        /* \"#utility.yul\":6055:6190   */\n    tag_402:\n        /* \"#utility.yul\":6139:6143   */\n      0xff\n        /* \"#utility.yul\":6135:6144   */\n      not\n        /* \"#utility.yul\":6124:6133   */\n      dup4\n        /* \"#utility.yul\":6120:6145   */\n      and\n        /* \"#utility.yul\":6115:6118   */\n      dup7\n        /* \"#utility.yul\":6108:6146   */\n      mstore\n        /* \"#utility.yul\":6175:6179   */\n      0x20\n        /* \"#utility.yul\":6170:6173   */\n      dup7\n        /* \"#utility.yul\":6166:6180   */\n      add\n        /* \"#utility.yul\":6159:6180   */\n      swap4\n      pop\n        /* \"#utility.yul\":6055:6190   */\n      jump(tag_401)\n        /* \"#utility.yul\":6199:6535   */\n    tag_403:\n        /* \"#utility.yul\":6266:6304   */\n      tag_404\n        /* \"#utility.yul\":6298:6303   */\n      dup6\n        /* \"#utility.yul\":6266:6304   */\n      tag_405\n      jump\t// in\n    tag_404:\n        /* \"#utility.yul\":6326:6327   */\n      0x00\n        /* \"#utility.yul\":6340:6494   */\n    tag_406:\n        /* \"#utility.yul\":6354:6360   */\n      dup4\n        /* \"#utility.yul\":6351:6352   */\n      dup2\n        /* \"#utility.yul\":6348:6361   */\n      lt\n        /* \"#utility.yul\":6340:6494   */\n      iszero\n      tag_408\n      jumpi\n        /* \"#utility.yul\":6428:6435   */\n      dup2\n        /* \"#utility.yul\":6422:6436   */\n      sload\n        /* \"#utility.yul\":6418:6419   */\n      dup2\n        /* \"#utility.yul\":6413:6416   */\n      dup10\n        /* \"#utility.yul\":6409:6420   */\n      add\n        /* \"#utility.yul\":6402:6437   */\n      mstore\n        /* \"#utility.yul\":6478:6479   */\n      0x01\n        /* \"#utility.yul\":6469:6476   */\n      dup3\n        /* \"#utility.yul\":6465:6480   */\n      add\n        /* \"#utility.yul\":6454:6480   */\n      swap2\n      pop\n        /* \"#utility.yul\":6376:6380   */\n      0x20\n        /* \"#utility.yul\":6373:6374   */\n      dup2\n        /* \"#utility.yul\":6369:6381   */\n      add\n        /* \"#utility.yul\":6364:6381   */\n      swap1\n      pop\n        /* \"#utility.yul\":6340:6494   */\n      jump(tag_406)\n    tag_408:\n        /* \"#utility.yul\":6523:6524   */\n      dup1\n        /* \"#utility.yul\":6518:6521   */\n      dup9\n        /* \"#utility.yul\":6514:6525   */\n      add\n        /* \"#utility.yul\":6507:6525   */\n      swap6\n      pop\n        /* \"#utility.yul\":6206:6535   */\n      pop\n      pop\n        /* \"#utility.yul\":6022:6535   */\n    tag_401:\n      pop\n        /* \"#utility.yul\":5828:6541   */\n      pop\n      pop\n      swap3\n      swap2\n      pop\n      pop\n      jump\t// out\n        /* \"#utility.yul\":6547:6916   */\n    tag_409:\n      0x00\n        /* \"#utility.yul\":6710:6777   */\n      tag_411\n        /* \"#utility.yul\":6774:6776   */\n      0x25\n        /* \"#utility.yul\":6769:6772   */\n      dup4\n        /* \"#utility.yul\":6710:6777   */\n      tag_394\n      jump\t// in\n    tag_411:\n        /* \"#utility.yul\":6703:6777   */\n      swap2\n      pop\n        /* \"#utility.yul\":6807:6841   */\n      0x4d656873756c2069737469666164656369206465706f73756e64612074617069\n        /* \"#utility.yul\":6803:6804   */\n      0x00\n        /* \"#utility.yul\":6798:6801   */\n      dup4\n        /* \"#utility.yul\":6794:6805   */\n      add\n        /* \"#utility.yul\":6787:6842   */\n      mstore\n        /* \"#utility.yul\":6873:6880   */\n      0x6c6d616469000000000000000000000000000000000000000000000000000000\n        /* \"#utility.yul\":6868:6870   */\n      0x20\n        /* \"#utility.yul\":6863:6866   */\n      dup4\n        /* \"#utility.yul\":6859:6871   */\n      add\n        /* \"#utility.yul\":6852:6881   */\n      mstore\n        /* \"#utility.yul\":6907:6909   */\n      0x40\n        /* \"#utility.yul\":6902:6905   */\n      dup3\n        /* \"#utility.yul\":6898:6910   */\n      add\n        /* \"#utility.yul\":6891:6910   */\n      swap1\n      pop\n        /* \"#utility.yul\":6693:6916   */\n      swap2\n      swap1\n      pop\n      jump\t// out\n        /* \"#utility.yul\":6922:7290   */\n    tag_412:\n      0x00\n        /* \"#utility.yul\":7085:7152   */\n      tag_414\n        /* \"#utility.yul\":7149:7151   */\n      0x24\n        /* \"#utility.yul\":7144:7147   */\n      dup4\n        /* \"#utility.yul\":7085:7152   */\n      tag_394\n      jump\t// in\n    tag_414:\n        /* \"#utility.yul\":7078:7152   */\n      swap2\n      pop\n        /* \"#utility.yul\":7182:7216   */\n      0x59616c6e697a2061646d696e20627520656d656c697979617469206564652062\n        /* \"#utility.yul\":7178:7179   */\n      0x00\n        /* \"#utility.yul\":7173:7176   */\n      dup4\n        /* \"#utility.yul\":7169:7180   */\n      add\n        /* \"#utility.yul\":7162:7217   */\n      mstore\n        /* \"#utility.yul\":7248:7254   */\n      0x696c657200000000000000000000000000000000000000000000000000000000\n        /* \"#utility.yul\":7243:7245   */\n      0x20\n        /* \"#utility.yul\":7238:7241   */\n      dup4\n        /* \"#utility.yul\":7234:7246   */\n      add\n        /* \"#utility.yul\":7227:7255   */\n      mstore\n        /* \"#utility.yul\":7281:7283   */\n      0x40\n        /* \"#utility.yul\":7276:7279   */\n      dup3\n        /* \"#utility.yul\":7272:7284   */\n      add\n        /* \"#utility.yul\":7265:7284   */\n      swap1\n      pop\n        /* \"#utility.yul\":7068:7290   */\n      swap2\n      swap1\n      pop\n      jump\t// out\n        /* \"#utility.yul\":7296:7615   */\n    tag_415:\n      0x00\n        /* \"#utility.yul\":7459:7526   */\n      tag_417\n        /* \"#utility.yul\":7523:7525   */\n      0x15\n        /* \"#utility.yul\":7518:7521   */\n      dup4\n        /* \"#utility.yul\":7459:7526   */\n      tag_394\n      jump\t// in\n    tag_417:\n        /* \"#utility.yul\":7452:7526   */\n      swap2\n      pop\n        /* \"#utility.yul\":7556:7579   */\n      0x427520696e646578206d6f7663756420646579696c0000000000000000000000\n        /* \"#utility.yul\":7552:7553   */\n      0x00\n        /* \"#utility.yul\":7547:7550   */\n      dup4\n        /* \"#utility.yul\":7543:7554   */\n      add\n        /* \"#utility.yul\":7536:7580   */\n      mstore\n        /* \"#utility.yul\":7606:7608   */\n      0x20\n        /* \"#utility.yul\":7601:7604   */\n      dup3\n        /* \"#utility.yul\":7597:7609   */\n      add\n        /* \"#utility.yul\":7590:7609   */\n      swap1\n      pop\n        /* \"#utility.yul\":7442:7615   */\n      swap2\n      swap1\n      pop\n      jump\t// out\n        /* \"#utility.yul\":7621:7935   */\n    tag_418:\n      0x00\n        /* \"#utility.yul\":7784:7851   */\n      tag_420\n        /* \"#utility.yul\":7848:7850   */\n      0x10\n        /* \"#utility.yul\":7843:7846   */\n      dup4\n        /* \"#utility.yul\":7784:7851   */\n      tag_394\n      jump\t// in\n    tag_420:\n        /* \"#utility.yul\":7777:7851   */\n      swap2\n      pop\n        /* \"#utility.yul\":7881:7899   */\n      0x4d656873756c20746170696c6d61646900000000000000000000000000000000\n        /* \"#utility.yul\":7877:7878   */\n      0x00\n        /* \"#utility.yul\":7872:7875   */\n      dup4\n        /* \"#utility.yul\":7868:7879   */\n      add\n        /* \"#utility.yul\":7861:7900   */\n      mstore\n        /* \"#utility.yul\":7926:7928   */\n      0x20\n        /* \"#utility.yul\":7921:7924   */\n      dup3\n        /* \"#utility.yul\":7917:7929   */\n      add\n        /* \"#utility.yul\":7910:7929   */\n      swap1\n      pop\n        /* \"#utility.yul\":7767:7935   */\n      swap2\n      swap1\n      pop\n      jump\t// out\n        /* \"#utility.yul\":7941:8270   */\n    tag_421:\n      0x00\n        /* \"#utility.yul\":8104:8171   */\n      tag_423\n        /* \"#utility.yul\":8168:8170   */\n      0x1f\n        /* \"#utility.yul\":8163:8166   */\n      dup4\n        /* \"#utility.yul\":8104:8171   */\n      tag_394\n      jump\t// in\n    tag_423:\n        /* \"#utility.yul\":8097:8171   */\n      swap2\n      pop\n        /* \"#utility.yul\":8201:8234   */\n      0x4d656873756c20756d756d696465706f6461206d6f7663756420646579696c00\n        /* \"#utility.yul\":8197:8198   */\n      0x00\n        /* \"#utility.yul\":8192:8195   */\n      dup4\n        /* \"#utility.yul\":8188:8199   */\n      add\n        /* \"#utility.yul\":8181:8235   */\n      mstore\n        /* \"#utility.yul\":8261:8263   */\n      0x20\n        /* \"#utility.yul\":8256:8259   */\n      dup3\n        /* \"#utility.yul\":8252:8264   */\n      add\n        /* \"#utility.yul\":8245:8264   */\n      swap1\n      pop\n        /* \"#utility.yul\":8087:8270   */\n      swap2\n      swap1\n      pop\n      jump\t// out\n        /* \"#utility.yul\":8340:9393   */\n    tag_424:\n      0x00\n        /* \"#utility.yul\":8491:8495   */\n      0x80\n        /* \"#utility.yul\":8486:8489   */\n      dup4\n        /* \"#utility.yul\":8482:8496   */\n      add\n        /* \"#utility.yul\":8576:8580   */\n      0x00\n        /* \"#utility.yul\":8569:8574   */\n      dup4\n        /* \"#utility.yul\":8565:8581   */\n      add\n        /* \"#utility.yul\":8559:8582   */\n      mload\n        /* \"#utility.yul\":8595:8658   */\n      tag_426\n        /* \"#utility.yul\":8652:8656   */\n      0x00\n        /* \"#utility.yul\":8647:8650   */\n      dup7\n        /* \"#utility.yul\":8643:8657   */\n      add\n        /* \"#utility.yul\":8629:8641   */\n      dup3\n        /* \"#utility.yul\":8595:8658   */\n      tag_427\n      jump\t// in\n    tag_426:\n        /* \"#utility.yul\":8506:8668   */\n      pop\n        /* \"#utility.yul\":8750:8754   */\n      0x20\n        /* \"#utility.yul\":8743:8748   */\n      dup4\n        /* \"#utility.yul\":8739:8755   */\n      add\n        /* \"#utility.yul\":8733:8756   */\n      mload\n        /* \"#utility.yul\":8803:8806   */\n      dup5\n        /* \"#utility.yul\":8797:8801   */\n      dup3\n        /* \"#utility.yul\":8793:8807   */\n      sub\n        /* \"#utility.yul\":8786:8790   */\n      0x20\n        /* \"#utility.yul\":8781:8784   */\n      dup7\n        /* \"#utility.yul\":8777:8791   */\n      add\n        /* \"#utility.yul\":8770:8808   */\n      mstore\n        /* \"#utility.yul\":8829:8902   */\n      tag_428\n        /* \"#utility.yul\":8897:8901   */\n      dup3\n        /* \"#utility.yul\":8883:8895   */\n      dup3\n        /* \"#utility.yul\":8829:8902   */\n      tag_380\n      jump\t// in\n    tag_428:\n        /* \"#utility.yul\":8821:8902   */\n      swap2\n      pop\n        /* \"#utility.yul\":8678:8913   */\n      pop\n        /* \"#utility.yul\":8996:9000   */\n      0x40\n        /* \"#utility.yul\":8989:8994   */\n      dup4\n        /* \"#utility.yul\":8985:9001   */\n      add\n        /* \"#utility.yul\":8979:9002   */\n      mload\n        /* \"#utility.yul\":9015:9078   */\n      tag_429\n        /* \"#utility.yul\":9072:9076   */\n      0x40\n        /* \"#utility.yul\":9067:9070   */\n      dup7\n        /* \"#utility.yul\":9063:9077   */\n      add\n        /* \"#utility.yul\":9049:9061   */\n      dup3\n        /* \"#utility.yul\":9015:9078   */\n      tag_344\n      jump\t// in\n    tag_429:\n        /* \"#utility.yul\":8923:9088   */\n      pop\n        /* \"#utility.yul\":9173:9177   */\n      0x60\n        /* \"#utility.yul\":9166:9171   */\n      dup4\n        /* \"#utility.yul\":9162:9178   */\n      add\n        /* \"#utility.yul\":9156:9179   */\n      mload\n        /* \"#utility.yul\":9226:9229   */\n      dup5\n        /* \"#utility.yul\":9220:9224   */\n      dup3\n        /* \"#utility.yul\":9216:9230   */\n      sub\n        /* \"#utility.yul\":9209:9213   */\n      0x60\n        /* \"#utility.yul\":9204:9207   */\n      dup7\n        /* \"#utility.yul\":9200:9214   */\n      add\n        /* \"#utility.yul\":9193:9231   */\n      mstore\n        /* \"#utility.yul\":9252:9355   */\n      tag_430\n        /* \"#utility.yul\":9350:9354   */\n      dup3\n        /* \"#utility.yul\":9336:9348   */\n      dup3\n        /* \"#utility.yul\":9252:9355   */\n      tag_351\n      jump\t// in\n    tag_430:\n        /* \"#utility.yul\":9244:9355   */\n      swap2\n      pop\n        /* \"#utility.yul\":9098:9366   */\n      pop\n        /* \"#utility.yul\":9383:9387   */\n      dup1\n        /* \"#utility.yul\":9376:9387   */\n      swap2\n      pop\n        /* \"#utility.yul\":8460:9393   */\n      pop\n      swap3\n      swap2\n      pop\n      pop\n      jump\t// out\n        /* \"#utility.yul\":9399:9507   */\n    tag_427:\n        /* \"#utility.yul\":9476:9500   */\n      tag_432\n        /* \"#utility.yul\":9494:9499   */\n      dup2\n        /* \"#utility.yul\":9476:9500   */\n      tag_433\n      jump\t// in\n    tag_432:\n        /* \"#utility.yul\":9471:9474   */\n      dup3\n        /* \"#utility.yul\":9464:9501   */\n      mstore\n        /* \"#utility.yul\":9454:9507   */\n      pop\n      pop\n      jump\t// out\n        /* \"#utility.yul\":9513:9631   */\n    tag_434:\n        /* \"#utility.yul\":9600:9624   */\n      tag_436\n        /* \"#utility.yul\":9618:9623   */\n      dup2\n        /* \"#utility.yul\":9600:9624   */\n      tag_433\n      jump\t// in\n    tag_436:\n        /* \"#utility.yul\":9595:9598   */\n      dup3\n        /* \"#utility.yul\":9588:9625   */\n      mstore\n        /* \"#utility.yul\":9578:9631   */\n      pop\n      pop\n      jump\t// out\n        /* \"#utility.yul\":9637:9859   */\n    tag_58:\n      0x00\n        /* \"#utility.yul\":9768:9770   */\n      0x20\n        /* \"#utility.yul\":9757:9766   */\n      dup3\n        /* \"#utility.yul\":9753:9771   */\n      add\n        /* \"#utility.yul\":9745:9771   */\n      swap1\n      pop\n        /* \"#utility.yul\":9781:9852   */\n      tag_438\n        /* \"#utility.yul\":9849:9850   */\n      0x00\n        /* \"#utility.yul\":9838:9847   */\n      dup4\n        /* \"#utility.yul\":9834:9851   */\n      add\n        /* \"#utility.yul\":9825:9831   */\n      dup5\n        /* \"#utility.yul\":9781:9852   */\n      tag_348\n      jump\t// in\n    tag_438:\n        /* \"#utility.yul\":9735:9859   */\n      swap3\n      swap2\n      pop\n      pop\n      jump\t// out\n        /* \"#utility.yul\":9865:10238   */\n    tag_54:\n      0x00\n        /* \"#utility.yul\":10046:10048   */\n      0x20\n        /* \"#utility.yul\":10035:10044   */\n      dup3\n        /* \"#utility.yul\":10031:10049   */\n      add\n        /* \"#utility.yul\":10023:10049   */\n      swap1\n      pop\n        /* \"#utility.yul\":10095:10104   */\n      dup2\n        /* \"#utility.yul\":10089:10093   */\n      dup2\n        /* \"#utility.yul\":10085:10105   */\n      sub\n        /* \"#utility.yul\":10081:10082   */\n      0x00\n        /* \"#utility.yul\":10070:10079   */\n      dup4\n        /* \"#utility.yul\":10066:10083   */\n      add\n        /* \"#utility.yul\":10059:10106   */\n      mstore\n        /* \"#utility.yul\":10123:10231   */\n      tag_440\n        /* \"#utility.yul\":10226:10230   */\n      dup2\n        /* \"#utility.yul\":10217:10223   */\n      dup5\n        /* \"#utility.yul\":10123:10231   */\n      tag_365\n      jump\t// in\n    tag_440:\n        /* \"#utility.yul\":10115:10231   */\n      swap1\n      pop\n        /* \"#utility.yul\":10013:10238   */\n      swap3\n      swap2\n      pop\n      pop\n      jump\t// out\n        /* \"#utility.yul\":10244:10765   */\n    tag_41:\n      0x00\n        /* \"#utility.yul\":10445:10447   */\n      0x60\n        /* \"#utility.yul\":10434:10443   */\n      dup3\n        /* \"#utility.yul\":10430:10448   */\n      add\n        /* \"#utility.yul\":10422:10448   */\n      swap1\n      pop\n        /* \"#utility.yul\":10494:10503   */\n      dup2\n        /* \"#utility.yul\":10488:10492   */\n      dup2\n        /* \"#utility.yul\":10484:10504   */\n      sub\n        /* \"#utility.yul\":10480:10481   */\n      0x00\n        /* \"#utility.yul\":10469:10478   */\n      dup4\n        /* \"#utility.yul\":10465:10482   */\n      add\n        /* \"#utility.yul\":10458:10505   */\n      mstore\n        /* \"#utility.yul\":10522:10600   */\n      tag_442\n        /* \"#utility.yul\":10595:10599   */\n      dup2\n        /* \"#utility.yul\":10586:10592   */\n      dup7\n        /* \"#utility.yul\":10522:10600   */\n      tag_390\n      jump\t// in\n    tag_442:\n        /* \"#utility.yul\":10514:10600   */\n      swap1\n      pop\n        /* \"#utility.yul\":10610:10682   */\n      tag_443\n        /* \"#utility.yul\":10678:10680   */\n      0x20\n        /* \"#utility.yul\":10667:10676   */\n      dup4\n        /* \"#utility.yul\":10663:10681   */\n      add\n        /* \"#utility.yul\":10654:10660   */\n      dup6\n        /* \"#utility.yul\":10610:10682   */\n      tag_348\n      jump\t// in\n    tag_443:\n        /* \"#utility.yul\":10692:10758   */\n      tag_444\n        /* \"#utility.yul\":10754:10756   */\n      0x40\n        /* \"#utility.yul\":10743:10752   */\n      dup4\n        /* \"#utility.yul\":10739:10757   */\n      add\n        /* \"#utility.yul\":10730:10736   */\n      dup5\n        /* \"#utility.yul\":10692:10758   */\n      tag_376\n      jump\t// in\n    tag_444:\n        /* \"#utility.yul\":10412:10765   */\n      swap5\n      swap4\n      pop\n      pop\n      pop\n      pop\n      jump\t// out\n        /* \"#utility.yul\":10771:11190   */\n    tag_234:\n      0x00\n        /* \"#utility.yul\":10975:10977   */\n      0x20\n        /* \"#utility.yul\":10964:10973   */\n      dup3\n        /* \"#utility.yul\":10960:10978   */\n      add\n        /* \"#utility.yul\":10952:10978   */\n      swap1\n      pop\n        /* \"#utility.yul\":11024:11033   */\n      dup2\n        /* \"#utility.yul\":11018:11022   */\n      dup2\n        /* \"#utility.yul\":11014:11034   */\n      sub\n        /* \"#utility.yul\":11010:11011   */\n      0x00\n        /* \"#utility.yul\":10999:11008   */\n      dup4\n        /* \"#utility.yul\":10995:11012   */\n      add\n        /* \"#utility.yul\":10988:11035   */\n      mstore\n        /* \"#utility.yul\":11052:11183   */\n      tag_446\n        /* \"#utility.yul\":11178:11182   */\n      dup2\n        /* \"#utility.yul\":11052:11183   */\n      tag_409\n      jump\t// in\n    tag_446:\n        /* \"#utility.yul\":11044:11183   */\n      swap1\n      pop\n        /* \"#utility.yul\":10942:11190   */\n      swap2\n      swap1\n      pop\n      jump\t// out\n        /* \"#utility.yul\":11196:11615   */\n    tag_76:\n      0x00\n        /* \"#utility.yul\":11400:11402   */\n      0x20\n        /* \"#utility.yul\":11389:11398   */\n      dup3\n        /* \"#utility.yul\":11385:11403   */\n      add\n        /* \"#utility.yul\":11377:11403   */\n      swap1\n      pop\n        /* \"#utility.yul\":11449:11458   */\n      dup2\n        /* \"#utility.yul\":11443:11447   */\n      dup2\n        /* \"#utility.yul\":11439:11459   */\n      sub\n        /* \"#utility.yul\":11435:11436   */\n      0x00\n        /* \"#utility.yul\":11424:11433   */\n      dup4\n        /* \"#utility.yul\":11420:11437   */\n      add\n        /* \"#utility.yul\":11413:11460   */\n      mstore\n        /* \"#utility.yul\":11477:11608   */\n      tag_448\n        /* \"#utility.yul\":11603:11607   */\n      dup2\n        /* \"#utility.yul\":11477:11608   */\n      tag_412\n      jump\t// in\n    tag_448:\n        /* \"#utility.yul\":11469:11608   */\n      swap1\n      pop\n        /* \"#utility.yul\":11367:11615   */\n      swap2\n      swap1\n      pop\n      jump\t// out\n        /* \"#utility.yul\":11621:12040   */\n    tag_164:\n      0x00\n        /* \"#utility.yul\":11825:11827   */\n      0x20\n        /* \"#utility.yul\":11814:11823   */\n      dup3\n        /* \"#utility.yul\":11810:11828   */\n      add\n        /* \"#utility.yul\":11802:11828   */\n      swap1\n      pop\n        /* \"#utility.yul\":11874:11883   */\n      dup2\n        /* \"#utility.yul\":11868:11872   */\n      dup2\n        /* \"#utility.yul\":11864:11884   */\n      sub\n        /* \"#utility.yul\":11860:11861   */\n      0x00\n        /* \"#utility.yul\":11849:11858   */\n      dup4\n        /* \"#utility.yul\":11845:11862   */\n      add\n        /* \"#utility.yul\":11838:11885   */\n      mstore\n        /* \"#utility.yul\":11902:12033   */\n      tag_450\n        /* \"#utility.yul\":12028:12032   */\n      dup2\n        /* \"#utility.yul\":11902:12033   */\n      tag_415\n      jump\t// in\n    tag_450:\n        /* \"#utility.yul\":11894:12033   */\n      swap1\n      pop\n        /* \"#utility.yul\":11792:12040   */\n      swap2\n      swap1\n      pop\n      jump\t// out\n        /* \"#utility.yul\":12046:12465   */\n    tag_105:\n      0x00\n        /* \"#utility.yul\":12250:12252   */\n      0x20\n        /* \"#utility.yul\":12239:12248   */\n      dup3\n        /* \"#utility.yul\":12235:12253   */\n      add\n        /* \"#utility.yul\":12227:12253   */\n      swap1\n      pop\n        /* \"#utility.yul\":12299:12308   */\n      dup2\n        /* \"#utility.yul\":12293:12297   */\n      dup2\n        /* \"#utility.yul\":12289:12309   */\n      sub\n        /* \"#utility.yul\":12285:12286   */\n      0x00\n        /* \"#utility.yul\":12274:12283   */\n      dup4\n        /* \"#utility.yul\":12270:12287   */\n      add\n        /* \"#utility.yul\":12263:12310   */\n      mstore\n        /* \"#utility.yul\":12327:12458   */\n      tag_452\n        /* \"#utility.yul\":12453:12457   */\n      dup2\n        /* \"#utility.yul\":12327:12458   */\n      tag_418\n      jump\t// in\n    tag_452:\n        /* \"#utility.yul\":12319:12458   */\n      swap1\n      pop\n        /* \"#utility.yul\":12217:12465   */\n      swap2\n      swap1\n      pop\n      jump\t// out\n        /* \"#utility.yul\":12471:12890   */\n    tag_241:\n      0x00\n        /* \"#utility.yul\":12675:12677   */\n      0x20\n        /* \"#utility.yul\":12664:12673   */\n      dup3\n        /* \"#utility.yul\":12660:12678   */\n      add\n        /* \"#utility.yul\":12652:12678   */\n      swap1\n      pop\n        /* \"#utility.yul\":12724:12733   */\n      dup2\n        /* \"#utility.yul\":12718:12722   */\n      dup2\n        /* \"#utility.yul\":12714:12734   */\n      sub\n        /* \"#utility.yul\":12710:12711   */\n      0x00\n        /* \"#utility.yul\":12699:12708   */\n      dup4\n        /* \"#utility.yul\":12695:12712   */\n      add\n        /* \"#utility.yul\":12688:12735   */\n      mstore\n        /* \"#utility.yul\":12752:12883   */\n      tag_454\n        /* \"#utility.yul\":12878:12882   */\n      dup2\n        /* \"#utility.yul\":12752:12883   */\n      tag_421\n      jump\t// in\n    tag_454:\n        /* \"#utility.yul\":12744:12883   */\n      swap1\n      pop\n        /* \"#utility.yul\":12642:12890   */\n      swap2\n      swap1\n      pop\n      jump\t// out\n        /* \"#utility.yul\":12896:13261   */\n    tag_46:\n      0x00\n        /* \"#utility.yul\":13073:13075   */\n      0x20\n        /* \"#utility.yul\":13062:13071   */\n      dup3\n        /* \"#utility.yul\":13058:13076   */\n      add\n        /* \"#utility.yul\":13050:13076   */\n      swap1\n      pop\n        /* \"#utility.yul\":13122:13131   */\n      dup2\n        /* \"#utility.yul\":13116:13120   */\n      dup2\n        /* \"#utility.yul\":13112:13132   */\n      sub\n        /* \"#utility.yul\":13108:13109   */\n      0x00\n        /* \"#utility.yul\":13097:13106   */\n      dup4\n        /* \"#utility.yul\":13093:13110   */\n      add\n        /* \"#utility.yul\":13086:13133   */\n      mstore\n        /* \"#utility.yul\":13150:13254   */\n      tag_456\n        /* \"#utility.yul\":13249:13253   */\n      dup2\n        /* \"#utility.yul\":13240:13246   */\n      dup5\n        /* \"#utility.yul\":13150:13254   */\n      tag_424\n      jump\t// in\n    tag_456:\n        /* \"#utility.yul\":13142:13254   */\n      swap1\n      pop\n        /* \"#utility.yul\":13040:13261   */\n      swap3\n      swap2\n      pop\n      pop\n      jump\t// out\n        /* \"#utility.yul\":13267:13489   */\n    tag_21:\n      0x00\n        /* \"#utility.yul\":13398:13400   */\n      0x20\n        /* \"#utility.yul\":13387:13396   */\n      dup3\n        /* \"#utility.yul\":13383:13401   */\n      add\n        /* \"#utility.yul\":13375:13401   */\n      swap1\n      pop\n        /* \"#utility.yul\":13411:13482   */\n      tag_458\n        /* \"#utility.yul\":13479:13480   */\n      0x00\n        /* \"#utility.yul\":13468:13477   */\n      dup4\n        /* \"#utility.yul\":13464:13481   */\n      add\n        /* \"#utility.yul\":13455:13461   */\n      dup5\n        /* \"#utility.yul\":13411:13482   */\n      tag_434\n      jump\t// in\n    tag_458:\n        /* \"#utility.yul\":13365:13489   */\n      swap3\n      swap2\n      pop\n      pop\n      jump\t// out\n        /* \"#utility.yul\":13495:14028   */\n    tag_35:\n      0x00\n        /* \"#utility.yul\":13702:13704   */\n      0x60\n        /* \"#utility.yul\":13691:13700   */\n      dup3\n        /* \"#utility.yul\":13687:13705   */\n      add\n        /* \"#utility.yul\":13679:13705   */\n      swap1\n      pop\n        /* \"#utility.yul\":13715:13786   */\n      tag_460\n        /* \"#utility.yul\":13783:13784   */\n      0x00\n        /* \"#utility.yul\":13772:13781   */\n      dup4\n        /* \"#utility.yul\":13768:13785   */\n      add\n        /* \"#utility.yul\":13759:13765   */\n      dup7\n        /* \"#utility.yul\":13715:13786   */\n      tag_434\n      jump\t// in\n    tag_460:\n        /* \"#utility.yul\":13833:13842   */\n      dup2\n        /* \"#utility.yul\":13827:13831   */\n      dup2\n        /* \"#utility.yul\":13823:13843   */\n      sub\n        /* \"#utility.yul\":13818:13820   */\n      0x20\n        /* \"#utility.yul\":13807:13816   */\n      dup4\n        /* \"#utility.yul\":13803:13821   */\n      add\n        /* \"#utility.yul\":13796:13844   */\n      mstore\n        /* \"#utility.yul\":13861:13939   */\n      tag_461\n        /* \"#utility.yul\":13934:13938   */\n      dup2\n        /* \"#utility.yul\":13925:13931   */\n      dup6\n        /* \"#utility.yul\":13861:13939   */\n      tag_390\n      jump\t// in\n    tag_461:\n        /* \"#utility.yul\":13853:13939   */\n      swap1\n      pop\n        /* \"#utility.yul\":13949:14021   */\n      tag_462\n        /* \"#utility.yul\":14017:14019   */\n      0x40\n        /* \"#utility.yul\":14006:14015   */\n      dup4\n        /* \"#utility.yul\":14002:14020   */\n      add\n        /* \"#utility.yul\":13993:13999   */\n      dup5\n        /* \"#utility.yul\":13949:14021   */\n      tag_348\n      jump\t// in\n    tag_462:\n        /* \"#utility.yul\":13669:14028   */\n      swap5\n      swap4\n      pop\n      pop\n      pop\n      pop\n      jump\t// out\n        /* \"#utility.yul\":14034:14451   */\n    tag_170:\n      0x00\n        /* \"#utility.yul\":14210:14212   */\n      0x40\n        /* \"#utility.yul\":14199:14208   */\n      dup3\n        /* \"#utility.yul\":14195:14213   */\n      add\n        /* \"#utility.yul\":14187:14213   */\n      swap1\n      pop\n        /* \"#utility.yul\":14223:14294   */\n      tag_464\n        /* \"#utility.yul\":14291:14292   */\n      0x00\n        /* \"#utility.yul\":14280:14289   */\n      dup4\n        /* \"#utility.yul\":14276:14293   */\n      add\n        /* \"#utility.yul\":14267:14273   */\n      dup6\n        /* \"#utility.yul\":14223:14294   */\n      tag_434\n      jump\t// in\n    tag_464:\n        /* \"#utility.yul\":14341:14350   */\n      dup2\n        /* \"#utility.yul\":14335:14339   */\n      dup2\n        /* \"#utility.yul\":14331:14351   */\n      sub\n        /* \"#utility.yul\":14326:14328   */\n      0x20\n        /* \"#utility.yul\":14315:14324   */\n      dup4\n        /* \"#utility.yul\":14311:14329   */\n      add\n        /* \"#utility.yul\":14304:14352   */\n      mstore\n        /* \"#utility.yul\":14369:14444   */\n      tag_465\n        /* \"#utility.yul\":14439:14443   */\n      dup2\n        /* \"#utility.yul\":14430:14436   */\n      dup5\n        /* \"#utility.yul\":14369:14444   */\n      tag_397\n      jump\t// in\n    tag_465:\n        /* \"#utility.yul\":14361:14444   */\n      swap1\n      pop\n        /* \"#utility.yul\":14177:14451   */\n      swap4\n      swap3\n      pop\n      pop\n      pop\n      jump\t// out\n        /* \"#utility.yul\":14457:14740   */\n    tag_305:\n      0x00\n        /* \"#utility.yul\":14523:14525   */\n      0x40\n        /* \"#utility.yul\":14517:14526   */\n      mload\n        /* \"#utility.yul\":14507:14526   */\n      swap1\n      pop\n        /* \"#utility.yul\":14565:14569   */\n      dup2\n        /* \"#utility.yul\":14557:14563   */\n      dup2\n        /* \"#utility.yul\":14553:14570   */\n      add\n        /* \"#utility.yul\":14672:14678   */\n      dup2\n        /* \"#utility.yul\":14660:14670   */\n      dup2\n        /* \"#utility.yul\":14657:14679   */\n      lt\n        /* \"#utility.yul\":14636:14654   */\n      0xffffffffffffffff\n        /* \"#utility.yul\":14624:14634   */\n      dup3\n        /* \"#utility.yul\":14621:14655   */\n      gt\n        /* \"#utility.yul\":14618:14680   */\n      or\n        /* \"#utility.yul\":14615:14617   */\n      iszero\n      tag_467\n      jumpi\n        /* \"#utility.yul\":14683:14701   */\n      tag_468\n      tag_469\n      jump\t// in\n    tag_468:\n        /* \"#utility.yul\":14615:14617   */\n    tag_467:\n        /* \"#utility.yul\":14723:14733   */\n      dup1\n        /* \"#utility.yul\":14719:14721   */\n      0x40\n        /* \"#utility.yul\":14712:14734   */\n      mstore\n        /* \"#utility.yul\":14497:14740   */\n      pop\n      swap2\n      swap1\n      pop\n      jump\t// out\n        /* \"#utility.yul\":14746:15078   */\n    tag_304:\n      0x00\n        /* \"#utility.yul\":14898:14916   */\n      0xffffffffffffffff\n        /* \"#utility.yul\":14890:14896   */\n      dup3\n        /* \"#utility.yul\":14887:14917   */\n      gt\n        /* \"#utility.yul\":14884:14886   */\n      iszero\n      tag_471\n      jumpi\n        /* \"#utility.yul\":14920:14938   */\n      tag_472\n      tag_469\n      jump\t// in\n    tag_472:\n        /* \"#utility.yul\":14884:14886   */\n    tag_471:\n        /* \"#utility.yul\":15005:15009   */\n      0x1f\n        /* \"#utility.yul\":15001:15010   */\n      not\n        /* \"#utility.yul\":14994:14998   */\n      0x1f\n        /* \"#utility.yul\":14986:14992   */\n      dup4\n        /* \"#utility.yul\":14982:14999   */\n      add\n        /* \"#utility.yul\":14978:15011   */\n      and\n        /* \"#utility.yul\":14970:15011   */\n      swap1\n      pop\n        /* \"#utility.yul\":15066:15070   */\n      0x20\n        /* \"#utility.yul\":15060:15064   */\n      dup2\n        /* \"#utility.yul\":15056:15071   */\n      add\n        /* \"#utility.yul\":15048:15071   */\n      swap1\n      pop\n        /* \"#utility.yul\":14813:15078   */\n      swap2\n      swap1\n      pop\n      jump\t// out\n        /* \"#utility.yul\":15084:15216   */\n    tag_358:\n      0x00\n        /* \"#utility.yul\":15174:15177   */\n      dup2\n        /* \"#utility.yul\":15166:15177   */\n      swap1\n      pop\n        /* \"#utility.yul\":15204:15208   */\n      0x20\n        /* \"#utility.yul\":15199:15202   */\n      dup3\n        /* \"#utility.yul\":15195:15209   */\n      add\n        /* \"#utility.yul\":15187:15209   */\n      swap1\n      pop\n        /* \"#utility.yul\":15156:15216   */\n      swap2\n      swap1\n      pop\n      jump\t// out\n        /* \"#utility.yul\":15222:15363   */\n    tag_405:\n      0x00\n        /* \"#utility.yul\":15294:15297   */\n      dup2\n        /* \"#utility.yul\":15286:15297   */\n      swap1\n      pop\n        /* \"#utility.yul\":15317:15320   */\n      dup2\n        /* \"#utility.yul\":15314:15315   */\n      0x00\n        /* \"#utility.yul\":15307:15321   */\n      mstore\n        /* \"#utility.yul\":15351:15355   */\n      0x20\n        /* \"#utility.yul\":15348:15349   */\n      0x00\n        /* \"#utility.yul\":15338:15356   */\n      keccak256\n        /* \"#utility.yul\":15330:15356   */\n      swap1\n      pop\n        /* \"#utility.yul\":15276:15363   */\n      swap2\n      swap1\n      pop\n      jump\t// out\n        /* \"#utility.yul\":15369:15483   */\n    tag_354:\n      0x00\n        /* \"#utility.yul\":15470:15475   */\n      dup2\n        /* \"#utility.yul\":15464:15476   */\n      mload\n        /* \"#utility.yul\":15454:15476   */\n      swap1\n      pop\n        /* \"#utility.yul\":15443:15483   */\n      swap2\n      swap1\n      pop\n      jump\t// out\n        /* \"#utility.yul\":15489:15588   */\n    tag_383:\n      0x00\n        /* \"#utility.yul\":15575:15580   */\n      dup2\n        /* \"#utility.yul\":15569:15581   */\n      mload\n        /* \"#utility.yul\":15559:15581   */\n      swap1\n      pop\n        /* \"#utility.yul\":15548:15588   */\n      swap2\n      swap1\n      pop\n      jump\t// out\n        /* \"#utility.yul\":15594:15707   */\n    tag_364:\n      0x00\n        /* \"#utility.yul\":15696:15700   */\n      0x20\n        /* \"#utility.yul\":15691:15694   */\n      dup3\n        /* \"#utility.yul\":15687:15701   */\n      add\n        /* \"#utility.yul\":15679:15701   */\n      swap1\n      pop\n        /* \"#utility.yul\":15669:15707   */\n      swap2\n      swap1\n      pop\n      jump\t// out\n        /* \"#utility.yul\":15713:15887   */\n    tag_356:\n      0x00\n        /* \"#utility.yul\":15836:15842   */\n      dup3\n        /* \"#utility.yul\":15831:15834   */\n      dup3\n        /* \"#utility.yul\":15824:15843   */\n      mstore\n        /* \"#utility.yul\":15876:15880   */\n      0x20\n        /* \"#utility.yul\":15871:15874   */\n      dup3\n        /* \"#utility.yul\":15867:15881   */\n      add\n        /* \"#utility.yul\":15852:15881   */\n      swap1\n      pop\n        /* \"#utility.yul\":15814:15887   */\n      swap3\n      swap2\n      pop\n      pop\n      jump\t// out\n        /* \"#utility.yul\":15893:16077   */\n    tag_369:\n      0x00\n        /* \"#utility.yul\":16026:16032   */\n      dup3\n        /* \"#utility.yul\":16021:16024   */\n      dup3\n        /* \"#utility.yul\":16014:16033   */\n      mstore\n        /* \"#utility.yul\":16066:16070   */\n      0x20\n        /* \"#utility.yul\":16061:16064   */\n      dup3\n        /* \"#utility.yul\":16057:16071   */\n      add\n        /* \"#utility.yul\":16042:16071   */\n      swap1\n      pop\n        /* \"#utility.yul\":16004:16077   */\n      swap3\n      swap2\n      pop\n      pop\n      jump\t// out\n        /* \"#utility.yul\":16083:16242   */\n    tag_385:\n      0x00\n        /* \"#utility.yul\":16191:16197   */\n      dup3\n        /* \"#utility.yul\":16186:16189   */\n      dup3\n        /* \"#utility.yul\":16179:16198   */\n      mstore\n        /* \"#utility.yul\":16231:16235   */\n      0x20\n        /* \"#utility.yul\":16226:16229   */\n      dup3\n        /* \"#utility.yul\":16222:16236   */\n      add\n        /* \"#utility.yul\":16207:16236   */\n      swap1\n      pop\n        /* \"#utility.yul\":16169:16242   */\n      swap3\n      swap2\n      pop\n      pop\n      jump\t// out\n        /* \"#utility.yul\":16248:16417   */\n    tag_394:\n      0x00\n        /* \"#utility.yul\":16366:16372   */\n      dup3\n        /* \"#utility.yul\":16361:16364   */\n      dup3\n        /* \"#utility.yul\":16354:16373   */\n      mstore\n        /* \"#utility.yul\":16406:16410   */\n      0x20\n        /* \"#utility.yul\":16401:16404   */\n      dup3\n        /* \"#utility.yul\":16397:16411   */\n      add\n        /* \"#utility.yul\":16382:16411   */\n      swap1\n      pop\n        /* \"#utility.yul\":16344:16417   */\n      swap3\n      swap2\n      pop\n      pop\n      jump\t// out\n        /* \"#utility.yul\":16423:16614   */\n    tag_259:\n      0x00\n        /* \"#utility.yul\":16483:16503   */\n      tag_483\n        /* \"#utility.yul\":16501:16502   */\n      dup3\n        /* \"#utility.yul\":16483:16503   */\n      tag_433\n      jump\t// in\n    tag_483:\n        /* \"#utility.yul\":16478:16503   */\n      swap2\n      pop\n        /* \"#utility.yul\":16517:16537   */\n      tag_484\n        /* \"#utility.yul\":16535:16536   */\n      dup4\n        /* \"#utility.yul\":16517:16537   */\n      tag_433\n      jump\t// in\n    tag_484:\n        /* \"#utility.yul\":16512:16537   */\n      swap3\n      pop\n        /* \"#utility.yul\":16556:16557   */\n      dup3\n        /* \"#utility.yul\":16553:16554   */\n      dup3\n        /* \"#utility.yul\":16550:16558   */\n      lt\n        /* \"#utility.yul\":16547:16549   */\n      iszero\n      tag_485\n      jumpi\n        /* \"#utility.yul\":16561:16579   */\n      tag_486\n      tag_487\n      jump\t// in\n    tag_486:\n        /* \"#utility.yul\":16547:16549   */\n    tag_485:\n        /* \"#utility.yul\":16606:16607   */\n      dup3\n        /* \"#utility.yul\":16603:16604   */\n      dup3\n        /* \"#utility.yul\":16599:16608   */\n      sub\n        /* \"#utility.yul\":16591:16608   */\n      swap1\n      pop\n        /* \"#utility.yul\":16468:16614   */\n      swap3\n      swap2\n      pop\n      pop\n      jump\t// out\n        /* \"#utility.yul\":16620:16716   */\n    tag_347:\n      0x00\n        /* \"#utility.yul\":16686:16710   */\n      tag_489\n        /* \"#utility.yul\":16704:16709   */\n      dup3\n        /* \"#utility.yul\":16686:16710   */\n      tag_490\n      jump\t// in\n    tag_489:\n        /* \"#utility.yul\":16675:16710   */\n      swap1\n      pop\n        /* \"#utility.yul\":16665:16716   */\n      swap2\n      swap1\n      pop\n      jump\t// out\n        /* \"#utility.yul\":16722:16812   */\n    tag_379:\n      0x00\n        /* \"#utility.yul\":16799:16804   */\n      dup2\n        /* \"#utility.yul\":16792:16805   */\n      iszero\n        /* \"#utility.yul\":16785:16806   */\n      iszero\n        /* \"#utility.yul\":16774:16806   */\n      swap1\n      pop\n        /* \"#utility.yul\":16764:16812   */\n      swap2\n      swap1\n      pop\n      jump\t// out\n        /* \"#utility.yul\":16818:16944   */\n    tag_490:\n      0x00\n        /* \"#utility.yul\":16895:16937   */\n      0xffffffffffffffffffffffffffffffffffffffff\n        /* \"#utility.yul\":16888:16893   */\n      dup3\n        /* \"#utility.yul\":16884:16938   */\n      and\n        /* \"#utility.yul\":16873:16938   */\n      swap1\n      pop\n        /* \"#utility.yul\":16863:16944   */\n      swap2\n      swap1\n      pop\n      jump\t// out\n        /* \"#utility.yul\":16950:17027   */\n    tag_433:\n      0x00\n        /* \"#utility.yul\":17016:17021   */\n      dup2\n        /* \"#utility.yul\":17005:17021   */\n      swap1\n      pop\n        /* \"#utility.yul\":16995:17027   */\n      swap2\n      swap1\n      pop\n      jump\t// out\n        /* \"#utility.yul\":17033:17187   */\n    tag_308:\n        /* \"#utility.yul\":17117:17123   */\n      dup3\n        /* \"#utility.yul\":17112:17115   */\n      dup2\n        /* \"#utility.yul\":17107:17110   */\n      dup4\n        /* \"#utility.yul\":17094:17124   */\n      calldatacopy\n        /* \"#utility.yul\":17179:17180   */\n      0x00\n        /* \"#utility.yul\":17170:17176   */\n      dup4\n        /* \"#utility.yul\":17165:17168   */\n      dup4\n        /* \"#utility.yul\":17161:17177   */\n      add\n        /* \"#utility.yul\":17154:17181   */\n      mstore\n        /* \"#utility.yul\":17084:17187   */\n      pop\n      pop\n      pop\n      jump\t// out\n        /* \"#utility.yul\":17193:17500   */\n    tag_387:\n        /* \"#utility.yul\":17261:17262   */\n      0x00\n        /* \"#utility.yul\":17271:17384   */\n    tag_496:\n        /* \"#utility.yul\":17285:17291   */\n      dup4\n        /* \"#utility.yul\":17282:17283   */\n      dup2\n        /* \"#utility.yul\":17279:17292   */\n      lt\n        /* \"#utility.yul\":17271:17384   */\n      iszero\n      tag_498\n      jumpi\n        /* \"#utility.yul\":17370:17371   */\n      dup1\n        /* \"#utility.yul\":17365:17368   */\n      dup3\n        /* \"#utility.yul\":17361:17372   */\n      add\n        /* \"#utility.yul\":17355:17373   */\n      mload\n        /* \"#utility.yul\":17351:17352   */\n      dup2\n        /* \"#utility.yul\":17346:17349   */\n      dup5\n        /* \"#utility.yul\":17342:17353   */\n      add\n        /* \"#utility.yul\":17335:17374   */\n      mstore\n        /* \"#utility.yul\":17307:17309   */\n      0x20\n        /* \"#utility.yul\":17304:17305   */\n      dup2\n        /* \"#utility.yul\":17300:17310   */\n      add\n        /* \"#utility.yul\":17295:17310   */\n      swap1\n      pop\n        /* \"#utility.yul\":17271:17384   */\n      jump(tag_496)\n    tag_498:\n        /* \"#utility.yul\":17402:17408   */\n      dup4\n        /* \"#utility.yul\":17399:17400   */\n      dup2\n        /* \"#utility.yul\":17396:17409   */\n      gt\n        /* \"#utility.yul\":17393:17395   */\n      iszero\n      tag_499\n      jumpi\n        /* \"#utility.yul\":17482:17483   */\n      0x00\n        /* \"#utility.yul\":17473:17479   */\n      dup5\n        /* \"#utility.yul\":17468:17471   */\n      dup5\n        /* \"#utility.yul\":17464:17480   */\n      add\n        /* \"#utility.yul\":17457:17484   */\n      mstore\n        /* \"#utility.yul\":17393:17395   */\n    tag_499:\n        /* \"#utility.yul\":17242:17500   */\n      pop\n      pop\n      pop\n      pop\n      jump\t// out\n        /* \"#utility.yul\":17506:17826   */\n    tag_110:\n      0x00\n        /* \"#utility.yul\":17587:17588   */\n      0x02\n        /* \"#utility.yul\":17581:17585   */\n      dup3\n        /* \"#utility.yul\":17577:17589   */\n      div\n        /* \"#utility.yul\":17567:17589   */\n      swap1\n      pop\n        /* \"#utility.yul\":17634:17635   */\n      0x01\n        /* \"#utility.yul\":17628:17632   */\n      dup3\n        /* \"#utility.yul\":17624:17636   */\n      and\n        /* \"#utility.yul\":17655:17673   */\n      dup1\n        /* \"#utility.yul\":17645:17647   */\n      tag_501\n      jumpi\n        /* \"#utility.yul\":17711:17715   */\n      0x7f\n        /* \"#utility.yul\":17703:17709   */\n      dup3\n        /* \"#utility.yul\":17699:17716   */\n      and\n        /* \"#utility.yul\":17689:17716   */\n      swap2\n      pop\n        /* \"#utility.yul\":17645:17647   */\n    tag_501:\n        /* \"#utility.yul\":17773:17775   */\n      0x20\n        /* \"#utility.yul\":17765:17771   */\n      dup3\n        /* \"#utility.yul\":17762:17776   */\n      lt\n        /* \"#utility.yul\":17742:17760   */\n      dup2\n        /* \"#utility.yul\":17739:17777   */\n      eq\n        /* \"#utility.yul\":17736:17738   */\n      iszero\n      tag_502\n      jumpi\n        /* \"#utility.yul\":17792:17810   */\n      tag_503\n      tag_504\n      jump\t// in\n    tag_503:\n        /* \"#utility.yul\":17736:17738   */\n    tag_502:\n        /* \"#utility.yul\":17557:17826   */\n      pop\n      swap2\n      swap1\n      pop\n      jump\t// out\n        /* \"#utility.yul\":17832:18065   */\n    tag_79:\n      0x00\n        /* \"#utility.yul\":17894:17918   */\n      tag_506\n        /* \"#utility.yul\":17912:17917   */\n      dup3\n        /* \"#utility.yul\":17894:17918   */\n      tag_433\n      jump\t// in\n    tag_506:\n        /* \"#utility.yul\":17885:17918   */\n      swap2\n      pop\n        /* \"#utility.yul\":17940:18006   */\n      0xffffffffffffffffffffffffffffffffffffffffffffffffffffffffffffffff\n        /* \"#utility.yul\":17933:17938   */\n      dup3\n        /* \"#utility.yul\":17930:18007   */\n      eq\n        /* \"#utility.yul\":17927:17929   */\n      iszero\n      tag_507\n      jumpi\n        /* \"#utility.yul\":18010:18028   */\n      tag_508\n      tag_487\n      jump\t// in\n    tag_508:\n        /* \"#utility.yul\":17927:17929   */\n    tag_507:\n        /* \"#utility.yul\":18057:18058   */\n      0x01\n        /* \"#utility.yul\":18050:18055   */\n      dup3\n        /* \"#utility.yul\":18046:18059   */\n      add\n        /* \"#utility.yul\":18039:18059   */\n      swap1\n      pop\n        /* \"#utility.yul\":17875:18065   */\n      swap2\n      swap1\n      pop\n      jump\t// out\n        /* \"#utility.yul\":18071:18251   */\n    tag_487:\n        /* \"#utility.yul\":18119:18196   */\n      0x4e487b7100000000000000000000000000000000000000000000000000000000\n        /* \"#utility.yul\":18116:18117   */\n      0x00\n        /* \"#utility.yul\":18109:18197   */\n      mstore\n        /* \"#utility.yul\":18216:18220   */\n      0x11\n        /* \"#utility.yul\":18213:18214   */\n      0x04\n        /* \"#utility.yul\":18206:18221   */\n      mstore\n        /* \"#utility.yul\":18240:18244   */\n      0x24\n        /* \"#utility.yul\":18237:18238   */\n      0x00\n        /* \"#utility.yul\":18230:18245   */\n      revert\n        /* \"#utility.yul\":18257:18437   */\n    tag_504:\n        /* \"#utility.yul\":18305:18382   */\n      0x4e487b7100000000000000000000000000000000000000000000000000000000\n        /* \"#utility.yul\":18302:18303   */\n      0x00\n        /* \"#utility.yul\":18295:18383   */\n      mstore\n        /* \"#utility.yul\":18402:18406   */\n      0x22\n        /* \"#utility.yul\":18399:18400   */\n      0x04\n        /* \"#utility.yul\":18392:18407   */\n      mstore\n        /* \"#utility.yul\":18426:18430   */\n      0x24\n        /* \"#utility.yul\":18423:18424   */\n      0x00\n        /* \"#utility.yul\":18416:18431   */\n      revert\n        /* \"#utility.yul\":18443:18623   */\n    tag_469:\n        /* \"#utility.yul\":18491:18568   */\n      0x4e487b7100000000000000000000000000000000000000000000000000000000\n        /* \"#utility.yul\":18488:18489   */\n      0x00\n        /* \"#utility.yul\":18481:18569   */\n      mstore\n        /* \"#utility.yul\":18588:18592   */\n      0x41\n        /* \"#utility.yul\":18585:18586   */\n      0x04\n        /* \"#utility.yul\":18578:18593   */\n      mstore\n        /* \"#utility.yul\":18612:18616   */\n      0x24\n        /* \"#utility.yul\":18609:18610   */\n      0x00\n        /* \"#utility.yul\":18602:18617   */\n      revert\n        /* \"#utility.yul\":18629:18731   */\n    tag_389:\n      0x00\n        /* \"#utility.yul\":18721:18723   */\n      0x1f\n        /* \"#utility.yul\":18717:18724   */\n      not\n        /* \"#utility.yul\":18712:18714   */\n      0x1f\n        /* \"#utility.yul\":18705:18710   */\n      dup4\n        /* \"#utility.yul\":18701:18715   */\n      add\n        /* \"#utility.yul\":18697:18725   */\n      and\n        /* \"#utility.yul\":18687:18725   */\n      swap1\n      pop\n        /* \"#utility.yul\":18677:18731   */\n      swap2\n      swap1\n      pop\n      jump\t// out\n        /* \"#utility.yul\":18737:18859   */\n    tag_312:\n        /* \"#utility.yul\":18810:18834   */\n      tag_514\n        /* \"#utility.yul\":18828:18833   */\n      dup2\n        /* \"#utility.yul\":18810:18834   */\n      tag_347\n      jump\t// in\n    tag_514:\n        /* \"#utility.yul\":18803:18808   */\n      dup2\n        /* \"#utility.yul\":18800:18835   */\n      eq\n        /* \"#utility.yul\":18790:18792   */\n      tag_515\n      jumpi\n        /* \"#utility.yul\":18849:18850   */\n      0x00\n        /* \"#utility.yul\":18846:18847   */\n      dup1\n        /* \"#utility.yul\":18839:18851   */\n      revert\n        /* \"#utility.yul\":18790:18792   */\n    tag_515:\n        /* \"#utility.yul\":18780:18859   */\n      pop\n      jump\t// out\n        /* \"#utility.yul\":18865:18987   */\n    tag_320:\n        /* \"#utility.yul\":18938:18962   */\n      tag_517\n        /* \"#utility.yul\":18956:18961   */\n      dup2\n        /* \"#utility.yul\":18938:18962   */\n      tag_433\n      jump\t// in\n    tag_517:\n        /* \"#utility.yul\":18931:18936   */\n      dup2\n        /* \"#utility.yul\":18928:18963   */\n      eq\n        /* \"#utility.yul\":18918:18920   */\n      tag_518\n      jumpi\n        /* \"#utility.yul\":18977:18978   */\n      0x00\n        /* \"#utility.yul\":18974:18975   */\n      dup1\n        /* \"#utility.yul\":18967:18979   */\n      revert\n        /* \"#utility.yul\":18918:18920   */\n    tag_518:\n        /* \"#utility.yul\":18908:18987   */\n      pop\n      jump\t// out\n\n    auxdata: 0xa2646970667358221220c381100800637c67db766570c21303505383a68432a153aac17773846906274464736f6c63430008000033\n}\n",
				"bytecode": {
					"linkReferences": {},
					"object": "608060405260006002553480156200001657600080fd5b5073b874c7ce83632ce17dc746c3eebf0732bf2038f56000806101000a81548173ffffffffffffffffffffffffffffffffffffffff021916908373ffffffffffffffffffffffffffffffffffffffff160217905550600560405180606001604052806040518060400160405280600581526020017f52616d696e000000000000000000000000000000000000000000000000000000815250815260200160008054906101000a900473ffffffffffffffffffffffffffffffffffffffff1673ffffffffffffffffffffffffffffffffffffffff16815260200160011515815250908060018154018082558091505060019003906000526020600020906002020160009091909190915060008201518160000190805190602001906200013d92919062000cbe565b5060208201518160010160006101000a81548173ffffffffffffffffffffffffffffffffffffffff021916908373ffffffffffffffffffffffffffffffffffffffff16021790555060408201518160010160146101000a81548160ff0219169083151502179055505050600560405180606001604052806040518060400160405280600581526020017f5573657232000000000000000000000000000000000000000000000000000000815250815260200173fb2116f8c04ddde83a66b6c09421dd0722b0c31373ffffffffffffffffffffffffffffffffffffffff16815260200160001515815250908060018154018082558091505060019003906000526020600020906002020160009091909190915060008201518160000190805190602001906200026d92919062000cbe565b5060208201518160010160006101000a81548173ffffffffffffffffffffffffffffffffffffffff021916908373ffffffffffffffffffffffffffffffffffffffff16021790555060408201518160010160146101000a81548160ff0219169083151502179055505050600560405180606001604052806040518060400160405280600581526020017f5573657233000000000000000000000000000000000000000000000000000000815250815260200173940ba084d29a9c3178d8239b6e8736a37bf9097273ffffffffffffffffffffffffffffffffffffffff16815260200160001515815250908060018154018082558091505060019003906000526020600020906002020160009091909190915060008201518160000190805190602001906200039d92919062000cbe565b5060208201518160010160006101000a81548173ffffffffffffffffffffffffffffffffffffffff021916908373ffffffffffffffffffffffffffffffffffffffff16021790555060408201518160010160146101000a81548160ff0219169083151502179055505050600560405180606001604052806040518060400160405280600581526020017f55736572340000000000000000000000000000000000000000000000000000008152508152602001731e914bef7e275402e5ea3a28bd3301e0895cfbdb73ffffffffffffffffffffffffffffffffffffffff1681526020016000151581525090806001815401808255809150506001900390600052602060002090600202016000909190919091506000820151816000019080519060200190620004cd92919062000cbe565b5060208201518160010160006101000a81548173ffffffffffffffffffffffffffffffffffffffff021916908373ffffffffffffffffffffffffffffffffffffffff16021790555060408201518160010160146101000a81548160ff0219169083151502179055505050600560405180606001604052806040518060400160405280600581526020017f5573657235000000000000000000000000000000000000000000000000000000815250815260200173b60451148b72e50a26fa399e61aa0a61fb5e15ed73ffffffffffffffffffffffffffffffffffffffff1681526020016000151581525090806001815401808255809150506001900390600052602060002090600202016000909190919091506000820151816000019080519060200190620005fd92919062000cbe565b5060208201518160010160006101000a81548173ffffffffffffffffffffffffffffffffffffffff021916908373ffffffffffffffffffffffffffffffffffffffff16021790555060408201518160010160146101000a81548160ff0219169083151502179055505050600560405180606001604052806040518060400160405280600581526020017f5573657236000000000000000000000000000000000000000000000000000000815250815260200173fd5e5eb4866c8e0a35d1c252d84056cf24a44b0c73ffffffffffffffffffffffffffffffffffffffff16815260200160001515815250908060018154018082558091505060019003906000526020600020906002020160009091909190915060008201518160000190805190602001906200072d92919062000cbe565b5060208201518160010160006101000a81548173ffffffffffffffffffffffffffffffffffffffff021916908373ffffffffffffffffffffffffffffffffffffffff16021790555060408201518160010160146101000a81548160ff0219169083151502179055505050600560405180606001604052806040518060400160405280600581526020017f55736572370000000000000000000000000000000000000000000000000000008152508152602001734adc466e11c07f8abb6c09c825f528ddf1125c4473ffffffffffffffffffffffffffffffffffffffff16815260200160001515815250908060018154018082558091505060019003906000526020600020906002020160009091909190915060008201518160000190805190602001906200085d92919062000cbe565b5060208201518160010160006101000a81548173ffffffffffffffffffffffffffffffffffffffff021916908373ffffffffffffffffffffffffffffffffffffffff16021790555060408201518160010160146101000a81548160ff0219169083151502179055505050600560405180606001604052806040518060400160405280600581526020017f5573657238000000000000000000000000000000000000000000000000000000815250815260200173f3b2ac76e7e25db7756f79a9aec89a0a2bf8aa1f73ffffffffffffffffffffffffffffffffffffffff16815260200160001515815250908060018154018082558091505060019003906000526020600020906002020160009091909190915060008201518160000190805190602001906200098d92919062000cbe565b5060208201518160010160006101000a81548173ffffffffffffffffffffffffffffffffffffffff021916908373ffffffffffffffffffffffffffffffffffffffff16021790555060408201518160010160146101000a81548160ff0219169083151502179055505050600560405180606001604052806040518060400160405280600581526020017f5573657239000000000000000000000000000000000000000000000000000000815250815260200173bcea4dd68905779f08f0799ca6e1309107a19f8173ffffffffffffffffffffffffffffffffffffffff168152602001600015158152509080600181540180825580915050600190039060005260206000209060020201600090919091909150600082015181600001908051906020019062000abd92919062000cbe565b5060208201518160010160006101000a81548173ffffffffffffffffffffffffffffffffffffffff021916908373ffffffffffffffffffffffffffffffffffffffff16021790555060408201518160010160146101000a81548160ff0219169083151502179055505050600560405180606001604052806040518060400160405280600681526020017f55736572313000000000000000000000000000000000000000000000000000008152508152602001731bc075565a4023cbbbe9e71a905893503697c69273ffffffffffffffffffffffffffffffffffffffff168152602001600015158152509080600181540180825580915050600190039060005260206000209060020201600090919091909150600082015181600001908051906020019062000bed92919062000cbe565b5060208201518160010160006101000a81548173ffffffffffffffffffffffffffffffffffffffff021916908373ffffffffffffffffffffffffffffffffffffffff16021790555060408201518160010160146101000a81548160ff021916908315150217905550505060008054906101000a900473ffffffffffffffffffffffffffffffffffffffff16600160006101000a81548173ffffffffffffffffffffffffffffffffffffffff021916908373ffffffffffffffffffffffffffffffffffffffff16021790555062000dd3565b82805462000ccc9062000d6e565b90600052602060002090601f01602090048101928262000cf0576000855562000d3c565b82601f1062000d0b57805160ff191683800117855562000d3c565b8280016001018555821562000d3c579182015b8281111562000d3b57825182559160200191906001019062000d1e565b5b50905062000d4b919062000d4f565b5090565b5b8082111562000d6a57600081600090555060010162000d50565b5090565b6000600282049050600182168062000d8757607f821691505b6020821081141562000d9e5762000d9d62000da4565b5b50919050565b7f4e487b7100000000000000000000000000000000000000000000000000000000600052602260045260246000fd5b612e9a8062000de36000396000f3fe608060405234801561001057600080fd5b50600436106100cf5760003560e01c80634386731f1161008c578063c18db81c11610066578063c18db81c14610228578063e43059e51461025a578063f6959f0a14610276578063f851a44014610292576100cf565b80634386731f146101be57806357a096a1146101da57806392ee03341461020a576100cf565b80631f16653b146100d45780632346d6cd146100f257806326af03e21461010e578063339ca7581461012a578063365b98b21461015c5780633f70c2b41461018e575b600080fd5b6100dc6102b0565b6040516100e99190612ae9565b60405180910390f35b61010c600480360381019061010791906124ab565b6102b6565b005b61012860048036038101906101239190612551565b610485565b005b610144600480360381019061013f919061246f565b610734565b60405161015393929190612b04565b60405180910390f35b610176600480360381019061017191906124ec565b610823565b604051610185939291906129e9565b60405180910390f35b6101a860048036038101906101a391906124ec565b610912565b6040516101b59190612ac7565b60405180910390f35b6101d860048036038101906101d391906124ec565b610f88565b005b6101f460048036038101906101ef91906124ec565b611101565b60405161020191906129c7565b60405180910390f35b610212611775565b60405161021f91906129ac565b60405180910390f35b610242600480360381019061023d91906124ec565b61179b565b60405161025193929190612b04565b60405180910390f35b610274600480360381019061026f9190612515565b61186d565b005b610290600480360381019061028b9190612515565b611bca565b005b61029a611eee565b6040516102a791906129ac565b60405180910390f35b60025481565b60008054906101000a900473ffffffffffffffffffffffffffffffffffffffff1673ffffffffffffffffffffffffffffffffffffffff163373ffffffffffffffffffffffffffffffffffffffff1614610344576040517f08c379a000000000000000000000000000000000000000000000000000000000815260040161033b90612a47565b60405180910390fd5b6002600081548092919061035790612d4f565b9190505550600060036000600254815260200190815260200160002090506002548160000181905550818160010190805190602001906103989291906121bc565b5060008054906101000a900473ffffffffffffffffffffffffffffffffffffffff168160020160006101000a81548173ffffffffffffffffffffffffffffffffffffffff021916908373ffffffffffffffffffffffffffffffffffffffff1602179055508060030160008054906101000a900473ffffffffffffffffffffffffffffffffffffffff169080600181540180825580915050600190039060005260206000200160009091909190916101000a81548173ffffffffffffffffffffffffffffffffffffffff021916908373ffffffffffffffffffffffffffffffffffffffff1602179055505050565b60008054906101000a900473ffffffffffffffffffffffffffffffffffffffff1673ffffffffffffffffffffffffffffffffffffffff163373ffffffffffffffffffffffffffffffffffffffff1614610513576040517f08c379a000000000000000000000000000000000000000000000000000000000815260040161050a90612a47565b60405180910390fd5b60006003600084815260200190815260200160002090506000816000015414156106ce5760005b6005805490508110156106cc5760006004600060058481548110610587577f4e487b7100000000000000000000000000000000000000000000000000000000600052603260045260246000fd5b906000526020600020906002020160010160009054906101000a900473ffffffffffffffffffffffffffffffffffffffff1673ffffffffffffffffffffffffffffffffffffffff1673ffffffffffffffffffffffffffffffffffffffff168152602001908152602001600020905060005b81805490508110156106b7578582828154811061063e577f4e487b7100000000000000000000000000000000000000000000000000000000600052603260045260246000fd5b90600052602060002090600402016000015414156106a45781818154811061068f577f4e487b7100000000000000000000000000000000000000000000000000000000600052603260045260246000fd5b906000526020600020906004020193506106b7565b80806106af90612d4f565b9150506105f8565b505080806106c490612d4f565b91505061053a565b505b600081600001541415610716576040517f08c379a000000000000000000000000000000000000000000000000000000000815260040161070d90612a87565b60405180910390fd5b8181600101908051906020019061072e9291906121bc565b50505050565b6004602052816000526040600020818154811061075057600080fd5b90600052602060002090600402016000915091505080600001549080600101805461077a90612d1d565b80601f01602080910402602001604051908101604052809291908181526020018280546107a690612d1d565b80156107f35780601f106107c8576101008083540402835291602001916107f3565b820191906000526020600020905b8154815290600101906020018083116107d657829003601f168201915b5050505050908060020160009054906101000a900473ffffffffffffffffffffffffffffffffffffffff16905083565b6005818154811061083357600080fd5b906000526020600020906002020160009150905080600001805461085690612d1d565b80601f016020809104026020016040519081016040528092919081815260200182805461088290612d1d565b80156108cf5780601f106108a4576101008083540402835291602001916108cf565b820191906000526020600020905b8154815290600101906020018083116108b257829003601f168201915b5050505050908060010160009054906101000a900473ffffffffffffffffffffffffffffffffffffffff16908060010160149054906101000a900460ff16905083565b61091a612242565b6000600360008481526020019081526020016000206040518060800160405290816000820154815260200160018201805461095490612d1d565b80601f016020809104026020016040519081016040528092919081815260200182805461098090612d1d565b80156109cd5780601f106109a2576101008083540402835291602001916109cd565b820191906000526020600020905b8154815290600101906020018083116109b057829003601f168201915b505050505081526020016002820160009054906101000a900473ffffffffffffffffffffffffffffffffffffffff1673ffffffffffffffffffffffffffffffffffffffff1673ffffffffffffffffffffffffffffffffffffffff16815260200160038201805480602002602001604051908101604052809291908181526020018280548015610ab157602002820191906000526020600020905b8160009054906101000a900473ffffffffffffffffffffffffffffffffffffffff1673ffffffffffffffffffffffffffffffffffffffff1681526020019060010190808311610a67575b5050505050815250509050600081600001511415610f375760005b600580549050811015610f355760005b6004600060058481548110610b1a577f4e487b7100000000000000000000000000000000000000000000000000000000600052603260045260246000fd5b906000526020600020906002020160010160009054906101000a900473ffffffffffffffffffffffffffffffffffffffff1673ffffffffffffffffffffffffffffffffffffffff1673ffffffffffffffffffffffffffffffffffffffff16815260200190815260200160002080549050811015610f2157846004600060058581548110610bd0577f4e487b7100000000000000000000000000000000000000000000000000000000600052603260045260246000fd5b906000526020600020906002020160010160009054906101000a900473ffffffffffffffffffffffffffffffffffffffff1673ffffffffffffffffffffffffffffffffffffffff1673ffffffffffffffffffffffffffffffffffffffff1681526020019081526020016000208281548110610c74577f4e487b7100000000000000000000000000000000000000000000000000000000600052603260045260246000fd5b9060005260206000209060040201600001541415610f0e576004600060058481548110610cca577f4e487b7100000000000000000000000000000000000000000000000000000000600052603260045260246000fd5b906000526020600020906002020160010160009054906101000a900473ffffffffffffffffffffffffffffffffffffffff1673ffffffffffffffffffffffffffffffffffffffff1673ffffffffffffffffffffffffffffffffffffffff1681526020019081526020016000208181548110610d6e577f4e487b7100000000000000000000000000000000000000000000000000000000600052603260045260246000fd5b906000526020600020906004020160405180608001604052908160008201548152602001600182018054610da190612d1d565b80601f0160208091040260200160405190810160405280929190818152602001828054610dcd90612d1d565b8015610e1a5780601f10610def57610100808354040283529160200191610e1a565b820191906000526020600020905b815481529060010190602001808311610dfd57829003601f168201915b505050505081526020016002820160009054906101000a900473ffffffffffffffffffffffffffffffffffffffff1673ffffffffffffffffffffffffffffffffffffffff1673ffffffffffffffffffffffffffffffffffffffff16815260200160038201805480602002602001604051908101604052809291908181526020018280548015610efe57602002820191906000526020600020905b8160009054906101000a900473ffffffffffffffffffffffffffffffffffffffff1673ffffffffffffffffffffffffffffffffffffffff1681526020019060010190808311610eb4575b5050505050815250509250610f21565b8080610f1990612d4f565b915050610adc565b508080610f2d90612d4f565b915050610acc565b505b600081600001511415610f7f576040517f08c379a0000000000000000000000000000000000000000000000000000000008152600401610f7690612a87565b60405180910390fd5b80915050919050565b6005805490508110610fcf576040517f08c379a0000000000000000000000000000000000000000000000000000000008152600401610fc690612a67565b60405180910390fd5b60058181548110611009577f4e487b7100000000000000000000000000000000000000000000000000000000600052603260045260246000fd5b906000526020600020906002020160010160009054906101000a900473ffffffffffffffffffffffffffffffffffffffff16600160006101000a81548173ffffffffffffffffffffffffffffffffffffffff021916908373ffffffffffffffffffffffffffffffffffffffff1602179055507f3e35af141deef2b1ce77be826a4f3918605311fbf910edbb00373b9f1021a68681600583815481106110d7577f4e487b7100000000000000000000000000000000000000000000000000000000600052603260045260246000fd5b90600052602060002090600202016000016040516110f6929190612b42565b60405180910390a150565b60606000600360008481526020019081526020016000206040518060800160405290816000820154815260200160018201805461113d90612d1d565b80601f016020809104026020016040519081016040528092919081815260200182805461116990612d1d565b80156111b65780601f1061118b576101008083540402835291602001916111b6565b820191906000526020600020905b81548152906001019060200180831161119957829003601f168201915b505050505081526020016002820160009054906101000a900473ffffffffffffffffffffffffffffffffffffffff1673ffffffffffffffffffffffffffffffffffffffff1673ffffffffffffffffffffffffffffffffffffffff1681526020016003820180548060200260200160405190810160405280929190818152602001828054801561129a57602002820191906000526020600020905b8160009054906101000a900473ffffffffffffffffffffffffffffffffffffffff1673ffffffffffffffffffffffffffffffffffffffff1681526020019060010190808311611250575b50505050508152505090506000816000015114156117205760005b60058054905081101561171e5760005b6004600060058481548110611303577f4e487b7100000000000000000000000000000000000000000000000000000000600052603260045260246000fd5b906000526020600020906002020160010160009054906101000a900473ffffffffffffffffffffffffffffffffffffffff1673ffffffffffffffffffffffffffffffffffffffff1673ffffffffffffffffffffffffffffffffffffffff1681526020019081526020016000208054905081101561170a578460046000600585815481106113b9577f4e487b7100000000000000000000000000000000000000000000000000000000600052603260045260246000fd5b906000526020600020906002020160010160009054906101000a900473ffffffffffffffffffffffffffffffffffffffff1673ffffffffffffffffffffffffffffffffffffffff1673ffffffffffffffffffffffffffffffffffffffff168152602001908152602001600020828154811061145d577f4e487b7100000000000000000000000000000000000000000000000000000000600052603260045260246000fd5b90600052602060002090600402016000015414156116f75760046000600584815481106114b3577f4e487b7100000000000000000000000000000000000000000000000000000000600052603260045260246000fd5b906000526020600020906002020160010160009054906101000a900473ffffffffffffffffffffffffffffffffffffffff1673ffffffffffffffffffffffffffffffffffffffff1673ffffffffffffffffffffffffffffffffffffffff1681526020019081526020016000208181548110611557577f4e487b7100000000000000000000000000000000000000000000000000000000600052603260045260246000fd5b90600052602060002090600402016040518060800160405290816000820154815260200160018201805461158a90612d1d565b80601f01602080910402602001604051908101604052809291908181526020018280546115b690612d1d565b80156116035780601f106115d857610100808354040283529160200191611603565b820191906000526020600020905b8154815290600101906020018083116115e657829003601f168201915b505050505081526020016002820160009054906101000a900473ffffffffffffffffffffffffffffffffffffffff1673ffffffffffffffffffffffffffffffffffffffff1673ffffffffffffffffffffffffffffffffffffffff168152602001600382018054806020026020016040519081016040528092919081815260200182805480156116e757602002820191906000526020600020905b8160009054906101000a900473ffffffffffffffffffffffffffffffffffffffff1673ffffffffffffffffffffffffffffffffffffffff168152602001906001019080831161169d575b505050505081525050925061170a565b808061170290612d4f565b9150506112c5565b50808061171690612d4f565b9150506112b5565b505b600081600001511415611768576040517f08c379a000000000000000000000000000000000000000000000000000000000815260040161175f90612a87565b60405180910390fd5b8060600151915050919050565b600160009054906101000a900473ffffffffffffffffffffffffffffffffffffffff1681565b60036020528060005260406000206000915090508060000154908060010180546117c490612d1d565b80601f01602080910402602001604051908101604052809291908181526020018280546117f090612d1d565b801561183d5780601f106118125761010080835404028352916020019161183d565b820191906000526020600020905b81548152906001019060200180831161182057829003601f168201915b5050505050908060020160009054906101000a900473ffffffffffffffffffffffffffffffffffffffff16905083565b600080600460003373ffffffffffffffffffffffffffffffffffffffff1673ffffffffffffffffffffffffffffffffffffffff168152602001908152602001600020905060005b8180549050811015611b8357848282815481106118fa577f4e487b7100000000000000000000000000000000000000000000000000000000600052603260045260246000fd5b9060005260206000209060040201600001541415611b7057600082828154811061194d577f4e487b7100000000000000000000000000000000000000000000000000000000600052603260045260246000fd5b90600052602060002090600402019050848160020160006101000a81548173ffffffffffffffffffffffffffffffffffffffff021916908373ffffffffffffffffffffffffffffffffffffffff16021790555080600301859080600181540180825580915050600190039060005260206000200160009091909190916101000a81548173ffffffffffffffffffffffffffffffffffffffff021916908373ffffffffffffffffffffffffffffffffffffffff160217905550600460008673ffffffffffffffffffffffffffffffffffffffff1673ffffffffffffffffffffffffffffffffffffffff168152602001908152602001600020819080600181540180825580915050600190039060005260206000209060040201600090919091909150600082015481600001556001820181600101908054611a8c90612d1d565b611a97929190612280565b506002820160009054906101000a900473ffffffffffffffffffffffffffffffffffffffff168160020160006101000a81548173ffffffffffffffffffffffffffffffffffffffff021916908373ffffffffffffffffffffffffffffffffffffffff1602179055506003820181600301908054611b1592919061230d565b505050611b223387611f12565b8473ffffffffffffffffffffffffffffffffffffffff16867fa071c6e1af53a60acd8a5b2e1db68b30800b74279783e2d4d3ddf7d371826c8960405160405180910390a36001935050611b83565b8080611b7b90612d4f565b9150506118b4565b5081611bc4576040517f08c379a0000000000000000000000000000000000000000000000000000000008152600401611bbb90612a27565b60405180910390fd5b50505050565b60008054906101000a900473ffffffffffffffffffffffffffffffffffffffff1673ffffffffffffffffffffffffffffffffffffffff163373ffffffffffffffffffffffffffffffffffffffff1614611c58576040517f08c379a0000000000000000000000000000000000000000000000000000000008152600401611c4f90612a47565b60405180910390fd5b600060036000848152602001908152602001600020600001541415611cb2576040517f08c379a0000000000000000000000000000000000000000000000000000000008152600401611ca990612aa7565b60405180910390fd5b6000600360008481526020019081526020016000209050818160020160006101000a81548173ffffffffffffffffffffffffffffffffffffffff021916908373ffffffffffffffffffffffffffffffffffffffff160217905550600460008373ffffffffffffffffffffffffffffffffffffffff1673ffffffffffffffffffffffffffffffffffffffff168152602001908152602001600020819080600181540180825580915050600190039060005260206000209060040201600090919091909150600082015481600001556001820181600101908054611d9390612d1d565b611d9e929190612280565b506002820160009054906101000a900473ffffffffffffffffffffffffffffffffffffffff168160020160006101000a81548173ffffffffffffffffffffffffffffffffffffffff021916908373ffffffffffffffffffffffffffffffffffffffff1602179055506003820181600301908054611e1c92919061230d565b50505080600301829080600181540180825580915050600190039060005260206000200160009091909190916101000a81548173ffffffffffffffffffffffffffffffffffffffff021916908373ffffffffffffffffffffffffffffffffffffffff16021790555060036000848152602001908152602001600020600080820160009055600182016000611eb0919061235f565b6002820160006101000a81549073ffffffffffffffffffffffffffffffffffffffff0219169055600382016000611ee7919061239f565b5050505050565b60008054906101000a900473ffffffffffffffffffffffffffffffffffffffff1681565b6000600460008473ffffffffffffffffffffffffffffffffffffffff1673ffffffffffffffffffffffffffffffffffffffff168152602001908152602001600020905060005b81805490508110156121b65782828281548110611f9e577f4e487b7100000000000000000000000000000000000000000000000000000000600052603260045260246000fd5b90600052602060002090600402016000015414156121a3578160018380549050611fc89190612c5f565b81548110611fff577f4e487b7100000000000000000000000000000000000000000000000000000000600052603260045260246000fd5b9060005260206000209060040201828281548110612046577f4e487b7100000000000000000000000000000000000000000000000000000000600052603260045260246000fd5b906000526020600020906004020160008201548160000155600182018160010190805461207290612d1d565b61207d929190612280565b506002820160009054906101000a900473ffffffffffffffffffffffffffffffffffffffff168160020160006101000a81548173ffffffffffffffffffffffffffffffffffffffff021916908373ffffffffffffffffffffffffffffffffffffffff16021790555060038201816003019080546120fb92919061230d565b5090505081805480612136577f4e487b7100000000000000000000000000000000000000000000000000000000600052603160045260246000fd5b6001900381819060005260206000209060040201600080820160009055600182016000612163919061235f565b6002820160006101000a81549073ffffffffffffffffffffffffffffffffffffffff021916905560038201600061219a919061239f565b505090556121b6565b80806121ae90612d4f565b915050611f58565b50505050565b8280546121c890612d1d565b90600052602060002090601f0160209004810192826121ea5760008555612231565b82601f1061220357805160ff1916838001178555612231565b82800160010185558215612231579182015b82811115612230578251825591602001919060010190612215565b5b50905061223e91906123c0565b5090565b60405180608001604052806000815260200160608152602001600073ffffffffffffffffffffffffffffffffffffffff168152602001606081525090565b82805461228c90612d1d565b90600052602060002090601f0160209004810192826122ae57600085556122fc565b82601f106122bf57805485556122fc565b828001600101855582156122fc57600052602060002091601f016020900482015b828111156122fb5782548255916001019190600101906122e0565b5b50905061230991906123c0565b5090565b82805482825590600052602060002090810192821561234e5760005260206000209182015b8281111561234d578254825591600101919060010190612332565b5b50905061235b91906123c0565b5090565b50805461236b90612d1d565b6000825580601f1061237d575061239c565b601f01602090049060005260206000209081019061239b91906123c0565b5b50565b50805460008255906000526020600020908101906123bd91906123c0565b50565b5b808211156123d95760008160009055506001016123c1565b5090565b60006123f06123eb84612ba3565b612b72565b90508281526020810184848401111561240857600080fd5b612413848285612cdb565b509392505050565b60008135905061242a81612e36565b92915050565b600082601f83011261244157600080fd5b81356124518482602086016123dd565b91505092915050565b60008135905061246981612e4d565b92915050565b6000806040838503121561248257600080fd5b60006124908582860161241b565b92505060206124a18582860161245a565b9150509250929050565b6000602082840312156124bd57600080fd5b600082013567ffffffffffffffff8111156124d757600080fd5b6124e384828501612430565b91505092915050565b6000602082840312156124fe57600080fd5b600061250c8482850161245a565b91505092915050565b6000806040838503121561252857600080fd5b60006125368582860161245a565b92505060206125478582860161241b565b9150509250929050565b6000806040838503121561256457600080fd5b60006125728582860161245a565b925050602083013567ffffffffffffffff81111561258f57600080fd5b61259b85828601612430565b9150509250929050565b60006125b183836125bd565b60208301905092915050565b6125c681612c93565b82525050565b6125d581612c93565b82525050565b60006125e682612bf8565b6125f08185612c1b565b93506125fb83612bd3565b8060005b8381101561262c57815161261388826125a5565b975061261e83612c0e565b9250506001810190506125ff565b5085935050505092915050565b600061264482612bf8565b61264e8185612c2c565b935061265983612bd3565b8060005b8381101561268a57815161267188826125a5565b975061267c83612c0e565b92505060018101905061265d565b5085935050505092915050565b6126a081612ca5565b82525050565b60006126b182612c03565b6126bb8185612c3d565b93506126cb818560208601612cea565b6126d481612e25565b840191505092915050565b60006126ea82612c03565b6126f48185612c4e565b9350612704818560208601612cea565b61270d81612e25565b840191505092915050565b6000815461272581612d1d565b61272f8186612c4e565b9450600182166000811461274a576001811461275c5761278f565b60ff198316865260208601935061278f565b61276585612be3565b60005b8381101561278757815481890152600182019150602081019050612768565b808801955050505b50505092915050565b60006127a5602583612c4e565b91507f4d656873756c2069737469666164656369206465706f73756e6461207461706960008301527f6c6d6164690000000000000000000000000000000000000000000000000000006020830152604082019050919050565b600061280b602483612c4e565b91507f59616c6e697a2061646d696e20627520656d656c69797961746920656465206260008301527f696c6572000000000000000000000000000000000000000000000000000000006020830152604082019050919050565b6000612871601583612c4e565b91507f427520696e646578206d6f7663756420646579696c00000000000000000000006000830152602082019050919050565b60006128b1601083612c4e565b91507f4d656873756c20746170696c6d616469000000000000000000000000000000006000830152602082019050919050565b60006128f1601f83612c4e565b91507f4d656873756c20756d756d696465706f6461206d6f7663756420646579696c006000830152602082019050919050565b600060808301600083015161293c600086018261298e565b506020830151848203602086015261295482826126a6565b915050604083015161296960408601826125bd565b506060830151848203606086015261298182826125db565b9150508091505092915050565b61299781612cd1565b82525050565b6129a681612cd1565b82525050565b60006020820190506129c160008301846125cc565b92915050565b600060208201905081810360008301526129e18184612639565b905092915050565b60006060820190508181036000830152612a0381866126df565b9050612a1260208301856125cc565b612a1f6040830184612697565b949350505050565b60006020820190508181036000830152612a4081612798565b9050919050565b60006020820190508181036000830152612a60816127fe565b9050919050565b60006020820190508181036000830152612a8081612864565b9050919050565b60006020820190508181036000830152612aa0816128a4565b9050919050565b60006020820190508181036000830152612ac0816128e4565b9050919050565b60006020820190508181036000830152612ae18184612924565b905092915050565b6000602082019050612afe600083018461299d565b92915050565b6000606082019050612b19600083018661299d565b8181036020830152612b2b81856126df565b9050612b3a60408301846125cc565b949350505050565b6000604082019050612b57600083018561299d565b8181036020830152612b698184612718565b90509392505050565b6000604051905081810181811067ffffffffffffffff82111715612b9957612b98612df6565b5b8060405250919050565b600067ffffffffffffffff821115612bbe57612bbd612df6565b5b601f19601f8301169050602081019050919050565b6000819050602082019050919050565b60008190508160005260206000209050919050565b600081519050919050565b600081519050919050565b6000602082019050919050565b600082825260208201905092915050565b600082825260208201905092915050565b600082825260208201905092915050565b600082825260208201905092915050565b6000612c6a82612cd1565b9150612c7583612cd1565b925082821015612c8857612c87612d98565b5b828203905092915050565b6000612c9e82612cb1565b9050919050565b60008115159050919050565b600073ffffffffffffffffffffffffffffffffffffffff82169050919050565b6000819050919050565b82818337600083830152505050565b60005b83811015612d08578082015181840152602081019050612ced565b83811115612d17576000848401525b50505050565b60006002820490506001821680612d3557607f821691505b60208210811415612d4957612d48612dc7565b5b50919050565b6000612d5a82612cd1565b91507fffffffffffffffffffffffffffffffffffffffffffffffffffffffffffffffff821415612d8d57612d8c612d98565b5b600182019050919050565b7f4e487b7100000000000000000000000000000000000000000000000000000000600052601160045260246000fd5b7f4e487b7100000000000000000000000000000000000000000000000000000000600052602260045260246000fd5b7f4e487b7100000000000000000000000000000000000000000000000000000000600052604160045260246000fd5b6000601f19601f8301169050919050565b612e3f81612c93565b8114612e4a57600080fd5b50565b612e5681612cd1565b8114612e6157600080fd5b5056fea2646970667358221220c381100800637c67db766570c21303505383a68432a153aac17773846906274464736f6c63430008000033",
					"opcodes": "PUSH1 0x80 PUSH1 0x40 MSTORE PUSH1 0x0 PUSH1 0x2 SSTORE CALLVALUE DUP1 ISZERO PUSH3 0x16 JUMPI PUSH1 0x0 DUP1 REVERT JUMPDEST POP PUSH20 0xB874C7CE83632CE17DC746C3EEBF0732BF2038F5 PUSH1 0x0 DUP1 PUSH2 0x100 EXP DUP2 SLOAD DUP2 PUSH20 0xFFFFFFFFFFFFFFFFFFFFFFFFFFFFFFFFFFFFFFFF MUL NOT AND SWAP1 DUP4 PUSH20 0xFFFFFFFFFFFFFFFFFFFFFFFFFFFFFFFFFFFFFFFF AND MUL OR SWAP1 SSTORE POP PUSH1 0x5 PUSH1 0x40 MLOAD DUP1 PUSH1 0x60 ADD PUSH1 0x40 MSTORE DUP1 PUSH1 0x40 MLOAD DUP1 PUSH1 0x40 ADD PUSH1 0x40 MSTORE DUP1 PUSH1 0x5 DUP2 MSTORE PUSH1 0x20 ADD PUSH32 0x52616D696E000000000000000000000000000000000000000000000000000000 DUP2 MSTORE POP DUP2 MSTORE PUSH1 0x20 ADD PUSH1 0x0 DUP1 SLOAD SWAP1 PUSH2 0x100 EXP SWAP1 DIV PUSH20 0xFFFFFFFFFFFFFFFFFFFFFFFFFFFFFFFFFFFFFFFF AND PUSH20 0xFFFFFFFFFFFFFFFFFFFFFFFFFFFFFFFFFFFFFFFF AND DUP2 MSTORE PUSH1 0x20 ADD PUSH1 0x1 ISZERO ISZERO DUP2 MSTORE POP SWAP1 DUP1 PUSH1 0x1 DUP2 SLOAD ADD DUP1 DUP3 SSTORE DUP1 SWAP2 POP POP PUSH1 0x1 SWAP1 SUB SWAP1 PUSH1 0x0 MSTORE PUSH1 0x20 PUSH1 0x0 KECCAK256 SWAP1 PUSH1 0x2 MUL ADD PUSH1 0x0 SWAP1 SWAP2 SWAP1 SWAP2 SWAP1 SWAP2 POP PUSH1 0x0 DUP3 ADD MLOAD DUP2 PUSH1 0x0 ADD SWAP1 DUP1 MLOAD SWAP1 PUSH1 0x20 ADD SWAP1 PUSH3 0x13D SWAP3 SWAP2 SWAP1 PUSH3 0xCBE JUMP JUMPDEST POP PUSH1 0x20 DUP3 ADD MLOAD DUP2 PUSH1 0x1 ADD PUSH1 0x0 PUSH2 0x100 EXP DUP2 SLOAD DUP2 PUSH20 0xFFFFFFFFFFFFFFFFFFFFFFFFFFFFFFFFFFFFFFFF MUL NOT AND SWAP1 DUP4 PUSH20 0xFFFFFFFFFFFFFFFFFFFFFFFFFFFFFFFFFFFFFFFF AND MUL OR SWAP1 SSTORE POP PUSH1 0x40 DUP3 ADD MLOAD DUP2 PUSH1 0x1 ADD PUSH1 0x14 PUSH2 0x100 EXP DUP2 SLOAD DUP2 PUSH1 0xFF MUL NOT AND SWAP1 DUP4 ISZERO ISZERO MUL OR SWAP1 SSTORE POP POP POP PUSH1 0x5 PUSH1 0x40 MLOAD DUP1 PUSH1 0x60 ADD PUSH1 0x40 MSTORE DUP1 PUSH1 0x40 MLOAD DUP1 PUSH1 0x40 ADD PUSH1 0x40 MSTORE DUP1 PUSH1 0x5 DUP2 MSTORE PUSH1 0x20 ADD PUSH32 0x5573657232000000000000000000000000000000000000000000000000000000 DUP2 MSTORE POP DUP2 MSTORE PUSH1 0x20 ADD PUSH20 0xFB2116F8C04DDDE83A66B6C09421DD0722B0C313 PUSH20 0xFFFFFFFFFFFFFFFFFFFFFFFFFFFFFFFFFFFFFFFF AND DUP2 MSTORE PUSH1 0x20 ADD PUSH1 0x0 ISZERO ISZERO DUP2 MSTORE POP SWAP1 DUP1 PUSH1 0x1 DUP2 SLOAD ADD DUP1 DUP3 SSTORE DUP1 SWAP2 POP POP PUSH1 0x1 SWAP1 SUB SWAP1 PUSH1 0x0 MSTORE PUSH1 0x20 PUSH1 0x0 KECCAK256 SWAP1 PUSH1 0x2 MUL ADD PUSH1 0x0 SWAP1 SWAP2 SWAP1 SWAP2 SWAP1 SWAP2 POP PUSH1 0x0 DUP3 ADD MLOAD DUP2 PUSH1 0x0 ADD SWAP1 DUP1 MLOAD SWAP1 PUSH1 0x20 ADD SWAP1 PUSH3 0x26D SWAP3 SWAP2 SWAP1 PUSH3 0xCBE JUMP JUMPDEST POP PUSH1 0x20 DUP3 ADD MLOAD DUP2 PUSH1 0x1 ADD PUSH1 0x0 PUSH2 0x100 EXP DUP2 SLOAD DUP2 PUSH20 0xFFFFFFFFFFFFFFFFFFFFFFFFFFFFFFFFFFFFFFFF MUL NOT AND SWAP1 DUP4 PUSH20 0xFFFFFFFFFFFFFFFFFFFFFFFFFFFFFFFFFFFFFFFF AND MUL OR SWAP1 SSTORE POP PUSH1 0x40 DUP3 ADD MLOAD DUP2 PUSH1 0x1 ADD PUSH1 0x14 PUSH2 0x100 EXP DUP2 SLOAD DUP2 PUSH1 0xFF MUL NOT AND SWAP1 DUP4 ISZERO ISZERO MUL OR SWAP1 SSTORE POP POP POP PUSH1 0x5 PUSH1 0x40 MLOAD DUP1 PUSH1 0x60 ADD PUSH1 0x40 MSTORE DUP1 PUSH1 0x40 MLOAD DUP1 PUSH1 0x40 ADD PUSH1 0x40 MSTORE DUP1 PUSH1 0x5 DUP2 MSTORE PUSH1 0x20 ADD PUSH32 0x5573657233000000000000000000000000000000000000000000000000000000 DUP2 MSTORE POP DUP2 MSTORE PUSH1 0x20 ADD PUSH20 0x940BA084D29A9C3178D8239B6E8736A37BF90972 PUSH20 0xFFFFFFFFFFFFFFFFFFFFFFFFFFFFFFFFFFFFFFFF AND DUP2 MSTORE PUSH1 0x20 ADD PUSH1 0x0 ISZERO ISZERO DUP2 MSTORE POP SWAP1 DUP1 PUSH1 0x1 DUP2 SLOAD ADD DUP1 DUP3 SSTORE DUP1 SWAP2 POP POP PUSH1 0x1 SWAP1 SUB SWAP1 PUSH1 0x0 MSTORE PUSH1 0x20 PUSH1 0x0 KECCAK256 SWAP1 PUSH1 0x2 MUL ADD PUSH1 0x0 SWAP1 SWAP2 SWAP1 SWAP2 SWAP1 SWAP2 POP PUSH1 0x0 DUP3 ADD MLOAD DUP2 PUSH1 0x0 ADD SWAP1 DUP1 MLOAD SWAP1 PUSH1 0x20 ADD SWAP1 PUSH3 0x39D SWAP3 SWAP2 SWAP1 PUSH3 0xCBE JUMP JUMPDEST POP PUSH1 0x20 DUP3 ADD MLOAD DUP2 PUSH1 0x1 ADD PUSH1 0x0 PUSH2 0x100 EXP DUP2 SLOAD DUP2 PUSH20 0xFFFFFFFFFFFFFFFFFFFFFFFFFFFFFFFFFFFFFFFF MUL NOT AND SWAP1 DUP4 PUSH20 0xFFFFFFFFFFFFFFFFFFFFFFFFFFFFFFFFFFFFFFFF AND MUL OR SWAP1 SSTORE POP PUSH1 0x40 DUP3 ADD MLOAD DUP2 PUSH1 0x1 ADD PUSH1 0x14 PUSH2 0x100 EXP DUP2 SLOAD DUP2 PUSH1 0xFF MUL NOT AND SWAP1 DUP4 ISZERO ISZERO MUL OR SWAP1 SSTORE POP POP POP PUSH1 0x5 PUSH1 0x40 MLOAD DUP1 PUSH1 0x60 ADD PUSH1 0x40 MSTORE DUP1 PUSH1 0x40 MLOAD DUP1 PUSH1 0x40 ADD PUSH1 0x40 MSTORE DUP1 PUSH1 0x5 DUP2 MSTORE PUSH1 0x20 ADD PUSH32 0x5573657234000000000000000000000000000000000000000000000000000000 DUP2 MSTORE POP DUP2 MSTORE PUSH1 0x20 ADD PUSH20 0x1E914BEF7E275402E5EA3A28BD3301E0895CFBDB PUSH20 0xFFFFFFFFFFFFFFFFFFFFFFFFFFFFFFFFFFFFFFFF AND DUP2 MSTORE PUSH1 0x20 ADD PUSH1 0x0 ISZERO ISZERO DUP2 MSTORE POP SWAP1 DUP1 PUSH1 0x1 DUP2 SLOAD ADD DUP1 DUP3 SSTORE DUP1 SWAP2 POP POP PUSH1 0x1 SWAP1 SUB SWAP1 PUSH1 0x0 MSTORE PUSH1 0x20 PUSH1 0x0 KECCAK256 SWAP1 PUSH1 0x2 MUL ADD PUSH1 0x0 SWAP1 SWAP2 SWAP1 SWAP2 SWAP1 SWAP2 POP PUSH1 0x0 DUP3 ADD MLOAD DUP2 PUSH1 0x0 ADD SWAP1 DUP1 MLOAD SWAP1 PUSH1 0x20 ADD SWAP1 PUSH3 0x4CD SWAP3 SWAP2 SWAP1 PUSH3 0xCBE JUMP JUMPDEST POP PUSH1 0x20 DUP3 ADD MLOAD DUP2 PUSH1 0x1 ADD PUSH1 0x0 PUSH2 0x100 EXP DUP2 SLOAD DUP2 PUSH20 0xFFFFFFFFFFFFFFFFFFFFFFFFFFFFFFFFFFFFFFFF MUL NOT AND SWAP1 DUP4 PUSH20 0xFFFFFFFFFFFFFFFFFFFFFFFFFFFFFFFFFFFFFFFF AND MUL OR SWAP1 SSTORE POP PUSH1 0x40 DUP3 ADD MLOAD DUP2 PUSH1 0x1 ADD PUSH1 0x14 PUSH2 0x100 EXP DUP2 SLOAD DUP2 PUSH1 0xFF MUL NOT AND SWAP1 DUP4 ISZERO ISZERO MUL OR SWAP1 SSTORE POP POP POP PUSH1 0x5 PUSH1 0x40 MLOAD DUP1 PUSH1 0x60 ADD PUSH1 0x40 MSTORE DUP1 PUSH1 0x40 MLOAD DUP1 PUSH1 0x40 ADD PUSH1 0x40 MSTORE DUP1 PUSH1 0x5 DUP2 MSTORE PUSH1 0x20 ADD PUSH32 0x5573657235000000000000000000000000000000000000000000000000000000 DUP2 MSTORE POP DUP2 MSTORE PUSH1 0x20 ADD PUSH20 0xB60451148B72E50A26FA399E61AA0A61FB5E15ED PUSH20 0xFFFFFFFFFFFFFFFFFFFFFFFFFFFFFFFFFFFFFFFF AND DUP2 MSTORE PUSH1 0x20 ADD PUSH1 0x0 ISZERO ISZERO DUP2 MSTORE POP SWAP1 DUP1 PUSH1 0x1 DUP2 SLOAD ADD DUP1 DUP3 SSTORE DUP1 SWAP2 POP POP PUSH1 0x1 SWAP1 SUB SWAP1 PUSH1 0x0 MSTORE PUSH1 0x20 PUSH1 0x0 KECCAK256 SWAP1 PUSH1 0x2 MUL ADD PUSH1 0x0 SWAP1 SWAP2 SWAP1 SWAP2 SWAP1 SWAP2 POP PUSH1 0x0 DUP3 ADD MLOAD DUP2 PUSH1 0x0 ADD SWAP1 DUP1 MLOAD SWAP1 PUSH1 0x20 ADD SWAP1 PUSH3 0x5FD SWAP3 SWAP2 SWAP1 PUSH3 0xCBE JUMP JUMPDEST POP PUSH1 0x20 DUP3 ADD MLOAD DUP2 PUSH1 0x1 ADD PUSH1 0x0 PUSH2 0x100 EXP DUP2 SLOAD DUP2 PUSH20 0xFFFFFFFFFFFFFFFFFFFFFFFFFFFFFFFFFFFFFFFF MUL NOT AND SWAP1 DUP4 PUSH20 0xFFFFFFFFFFFFFFFFFFFFFFFFFFFFFFFFFFFFFFFF AND MUL OR SWAP1 SSTORE POP PUSH1 0x40 DUP3 ADD MLOAD DUP2 PUSH1 0x1 ADD PUSH1 0x14 PUSH2 0x100 EXP DUP2 SLOAD DUP2 PUSH1 0xFF MUL NOT AND SWAP1 DUP4 ISZERO ISZERO MUL OR SWAP1 SSTORE POP POP POP PUSH1 0x5 PUSH1 0x40 MLOAD DUP1 PUSH1 0x60 ADD PUSH1 0x40 MSTORE DUP1 PUSH1 0x40 MLOAD DUP1 PUSH1 0x40 ADD PUSH1 0x40 MSTORE DUP1 PUSH1 0x5 DUP2 MSTORE PUSH1 0x20 ADD PUSH32 0x5573657236000000000000000000000000000000000000000000000000000000 DUP2 MSTORE POP DUP2 MSTORE PUSH1 0x20 ADD PUSH20 0xFD5E5EB4866C8E0A35D1C252D84056CF24A44B0C PUSH20 0xFFFFFFFFFFFFFFFFFFFFFFFFFFFFFFFFFFFFFFFF AND DUP2 MSTORE PUSH1 0x20 ADD PUSH1 0x0 ISZERO ISZERO DUP2 MSTORE POP SWAP1 DUP1 PUSH1 0x1 DUP2 SLOAD ADD DUP1 DUP3 SSTORE DUP1 SWAP2 POP POP PUSH1 0x1 SWAP1 SUB SWAP1 PUSH1 0x0 MSTORE PUSH1 0x20 PUSH1 0x0 KECCAK256 SWAP1 PUSH1 0x2 MUL ADD PUSH1 0x0 SWAP1 SWAP2 SWAP1 SWAP2 SWAP1 SWAP2 POP PUSH1 0x0 DUP3 ADD MLOAD DUP2 PUSH1 0x0 ADD SWAP1 DUP1 MLOAD SWAP1 PUSH1 0x20 ADD SWAP1 PUSH3 0x72D SWAP3 SWAP2 SWAP1 PUSH3 0xCBE JUMP JUMPDEST POP PUSH1 0x20 DUP3 ADD MLOAD DUP2 PUSH1 0x1 ADD PUSH1 0x0 PUSH2 0x100 EXP DUP2 SLOAD DUP2 PUSH20 0xFFFFFFFFFFFFFFFFFFFFFFFFFFFFFFFFFFFFFFFF MUL NOT AND SWAP1 DUP4 PUSH20 0xFFFFFFFFFFFFFFFFFFFFFFFFFFFFFFFFFFFFFFFF AND MUL OR SWAP1 SSTORE POP PUSH1 0x40 DUP3 ADD MLOAD DUP2 PUSH1 0x1 ADD PUSH1 0x14 PUSH2 0x100 EXP DUP2 SLOAD DUP2 PUSH1 0xFF MUL NOT AND SWAP1 DUP4 ISZERO ISZERO MUL OR SWAP1 SSTORE POP POP POP PUSH1 0x5 PUSH1 0x40 MLOAD DUP1 PUSH1 0x60 ADD PUSH1 0x40 MSTORE DUP1 PUSH1 0x40 MLOAD DUP1 PUSH1 0x40 ADD PUSH1 0x40 MSTORE DUP1 PUSH1 0x5 DUP2 MSTORE PUSH1 0x20 ADD PUSH32 0x5573657237000000000000000000000000000000000000000000000000000000 DUP2 MSTORE POP DUP2 MSTORE PUSH1 0x20 ADD PUSH20 0x4ADC466E11C07F8ABB6C09C825F528DDF1125C44 PUSH20 0xFFFFFFFFFFFFFFFFFFFFFFFFFFFFFFFFFFFFFFFF AND DUP2 MSTORE PUSH1 0x20 ADD PUSH1 0x0 ISZERO ISZERO DUP2 MSTORE POP SWAP1 DUP1 PUSH1 0x1 DUP2 SLOAD ADD DUP1 DUP3 SSTORE DUP1 SWAP2 POP POP PUSH1 0x1 SWAP1 SUB SWAP1 PUSH1 0x0 MSTORE PUSH1 0x20 PUSH1 0x0 KECCAK256 SWAP1 PUSH1 0x2 MUL ADD PUSH1 0x0 SWAP1 SWAP2 SWAP1 SWAP2 SWAP1 SWAP2 POP PUSH1 0x0 DUP3 ADD MLOAD DUP2 PUSH1 0x0 ADD SWAP1 DUP1 MLOAD SWAP1 PUSH1 0x20 ADD SWAP1 PUSH3 0x85D SWAP3 SWAP2 SWAP1 PUSH3 0xCBE JUMP JUMPDEST POP PUSH1 0x20 DUP3 ADD MLOAD DUP2 PUSH1 0x1 ADD PUSH1 0x0 PUSH2 0x100 EXP DUP2 SLOAD DUP2 PUSH20 0xFFFFFFFFFFFFFFFFFFFFFFFFFFFFFFFFFFFFFFFF MUL NOT AND SWAP1 DUP4 PUSH20 0xFFFFFFFFFFFFFFFFFFFFFFFFFFFFFFFFFFFFFFFF AND MUL OR SWAP1 SSTORE POP PUSH1 0x40 DUP3 ADD MLOAD DUP2 PUSH1 0x1 ADD PUSH1 0x14 PUSH2 0x100 EXP DUP2 SLOAD DUP2 PUSH1 0xFF MUL NOT AND SWAP1 DUP4 ISZERO ISZERO MUL OR SWAP1 SSTORE POP POP POP PUSH1 0x5 PUSH1 0x40 MLOAD DUP1 PUSH1 0x60 ADD PUSH1 0x40 MSTORE DUP1 PUSH1 0x40 MLOAD DUP1 PUSH1 0x40 ADD PUSH1 0x40 MSTORE DUP1 PUSH1 0x5 DUP2 MSTORE PUSH1 0x20 ADD PUSH32 0x5573657238000000000000000000000000000000000000000000000000000000 DUP2 MSTORE POP DUP2 MSTORE PUSH1 0x20 ADD PUSH20 0xF3B2AC76E7E25DB7756F79A9AEC89A0A2BF8AA1F PUSH20 0xFFFFFFFFFFFFFFFFFFFFFFFFFFFFFFFFFFFFFFFF AND DUP2 MSTORE PUSH1 0x20 ADD PUSH1 0x0 ISZERO ISZERO DUP2 MSTORE POP SWAP1 DUP1 PUSH1 0x1 DUP2 SLOAD ADD DUP1 DUP3 SSTORE DUP1 SWAP2 POP POP PUSH1 0x1 SWAP1 SUB SWAP1 PUSH1 0x0 MSTORE PUSH1 0x20 PUSH1 0x0 KECCAK256 SWAP1 PUSH1 0x2 MUL ADD PUSH1 0x0 SWAP1 SWAP2 SWAP1 SWAP2 SWAP1 SWAP2 POP PUSH1 0x0 DUP3 ADD MLOAD DUP2 PUSH1 0x0 ADD SWAP1 DUP1 MLOAD SWAP1 PUSH1 0x20 ADD SWAP1 PUSH3 0x98D SWAP3 SWAP2 SWAP1 PUSH3 0xCBE JUMP JUMPDEST POP PUSH1 0x20 DUP3 ADD MLOAD DUP2 PUSH1 0x1 ADD PUSH1 0x0 PUSH2 0x100 EXP DUP2 SLOAD DUP2 PUSH20 0xFFFFFFFFFFFFFFFFFFFFFFFFFFFFFFFFFFFFFFFF MUL NOT AND SWAP1 DUP4 PUSH20 0xFFFFFFFFFFFFFFFFFFFFFFFFFFFFFFFFFFFFFFFF AND MUL OR SWAP1 SSTORE POP PUSH1 0x40 DUP3 ADD MLOAD DUP2 PUSH1 0x1 ADD PUSH1 0x14 PUSH2 0x100 EXP DUP2 SLOAD DUP2 PUSH1 0xFF MUL NOT AND SWAP1 DUP4 ISZERO ISZERO MUL OR SWAP1 SSTORE POP POP POP PUSH1 0x5 PUSH1 0x40 MLOAD DUP1 PUSH1 0x60 ADD PUSH1 0x40 MSTORE DUP1 PUSH1 0x40 MLOAD DUP1 PUSH1 0x40 ADD PUSH1 0x40 MSTORE DUP1 PUSH1 0x5 DUP2 MSTORE PUSH1 0x20 ADD PUSH32 0x5573657239000000000000000000000000000000000000000000000000000000 DUP2 MSTORE POP DUP2 MSTORE PUSH1 0x20 ADD PUSH20 0xBCEA4DD68905779F08F0799CA6E1309107A19F81 PUSH20 0xFFFFFFFFFFFFFFFFFFFFFFFFFFFFFFFFFFFFFFFF AND DUP2 MSTORE PUSH1 0x20 ADD PUSH1 0x0 ISZERO ISZERO DUP2 MSTORE POP SWAP1 DUP1 PUSH1 0x1 DUP2 SLOAD ADD DUP1 DUP3 SSTORE DUP1 SWAP2 POP POP PUSH1 0x1 SWAP1 SUB SWAP1 PUSH1 0x0 MSTORE PUSH1 0x20 PUSH1 0x0 KECCAK256 SWAP1 PUSH1 0x2 MUL ADD PUSH1 0x0 SWAP1 SWAP2 SWAP1 SWAP2 SWAP1 SWAP2 POP PUSH1 0x0 DUP3 ADD MLOAD DUP2 PUSH1 0x0 ADD SWAP1 DUP1 MLOAD SWAP1 PUSH1 0x20 ADD SWAP1 PUSH3 0xABD SWAP3 SWAP2 SWAP1 PUSH3 0xCBE JUMP JUMPDEST POP PUSH1 0x20 DUP3 ADD MLOAD DUP2 PUSH1 0x1 ADD PUSH1 0x0 PUSH2 0x100 EXP DUP2 SLOAD DUP2 PUSH20 0xFFFFFFFFFFFFFFFFFFFFFFFFFFFFFFFFFFFFFFFF MUL NOT AND SWAP1 DUP4 PUSH20 0xFFFFFFFFFFFFFFFFFFFFFFFFFFFFFFFFFFFFFFFF AND MUL OR SWAP1 SSTORE POP PUSH1 0x40 DUP3 ADD MLOAD DUP2 PUSH1 0x1 ADD PUSH1 0x14 PUSH2 0x100 EXP DUP2 SLOAD DUP2 PUSH1 0xFF MUL NOT AND SWAP1 DUP4 ISZERO ISZERO MUL OR SWAP1 SSTORE POP POP POP PUSH1 0x5 PUSH1 0x40 MLOAD DUP1 PUSH1 0x60 ADD PUSH1 0x40 MSTORE DUP1 PUSH1 0x40 MLOAD DUP1 PUSH1 0x40 ADD PUSH1 0x40 MSTORE DUP1 PUSH1 0x6 DUP2 MSTORE PUSH1 0x20 ADD PUSH32 0x5573657231300000000000000000000000000000000000000000000000000000 DUP2 MSTORE POP DUP2 MSTORE PUSH1 0x20 ADD PUSH20 0x1BC075565A4023CBBBE9E71A905893503697C692 PUSH20 0xFFFFFFFFFFFFFFFFFFFFFFFFFFFFFFFFFFFFFFFF AND DUP2 MSTORE PUSH1 0x20 ADD PUSH1 0x0 ISZERO ISZERO DUP2 MSTORE POP SWAP1 DUP1 PUSH1 0x1 DUP2 SLOAD ADD DUP1 DUP3 SSTORE DUP1 SWAP2 POP POP PUSH1 0x1 SWAP1 SUB SWAP1 PUSH1 0x0 MSTORE PUSH1 0x20 PUSH1 0x0 KECCAK256 SWAP1 PUSH1 0x2 MUL ADD PUSH1 0x0 SWAP1 SWAP2 SWAP1 SWAP2 SWAP1 SWAP2 POP PUSH1 0x0 DUP3 ADD MLOAD DUP2 PUSH1 0x0 ADD SWAP1 DUP1 MLOAD SWAP1 PUSH1 0x20 ADD SWAP1 PUSH3 0xBED SWAP3 SWAP2 SWAP1 PUSH3 0xCBE JUMP JUMPDEST POP PUSH1 0x20 DUP3 ADD MLOAD DUP2 PUSH1 0x1 ADD PUSH1 0x0 PUSH2 0x100 EXP DUP2 SLOAD DUP2 PUSH20 0xFFFFFFFFFFFFFFFFFFFFFFFFFFFFFFFFFFFFFFFF MUL NOT AND SWAP1 DUP4 PUSH20 0xFFFFFFFFFFFFFFFFFFFFFFFFFFFFFFFFFFFFFFFF AND MUL OR SWAP1 SSTORE POP PUSH1 0x40 DUP3 ADD MLOAD DUP2 PUSH1 0x1 ADD PUSH1 0x14 PUSH2 0x100 EXP DUP2 SLOAD DUP2 PUSH1 0xFF MUL NOT AND SWAP1 DUP4 ISZERO ISZERO MUL OR SWAP1 SSTORE POP POP POP PUSH1 0x0 DUP1 SLOAD SWAP1 PUSH2 0x100 EXP SWAP1 DIV PUSH20 0xFFFFFFFFFFFFFFFFFFFFFFFFFFFFFFFFFFFFFFFF AND PUSH1 0x1 PUSH1 0x0 PUSH2 0x100 EXP DUP2 SLOAD DUP2 PUSH20 0xFFFFFFFFFFFFFFFFFFFFFFFFFFFFFFFFFFFFFFFF MUL NOT AND SWAP1 DUP4 PUSH20 0xFFFFFFFFFFFFFFFFFFFFFFFFFFFFFFFFFFFFFFFF AND MUL OR SWAP1 SSTORE POP PUSH3 0xDD3 JUMP JUMPDEST DUP3 DUP1 SLOAD PUSH3 0xCCC SWAP1 PUSH3 0xD6E JUMP JUMPDEST SWAP1 PUSH1 0x0 MSTORE PUSH1 0x20 PUSH1 0x0 KECCAK256 SWAP1 PUSH1 0x1F ADD PUSH1 0x20 SWAP1 DIV DUP2 ADD SWAP3 DUP3 PUSH3 0xCF0 JUMPI PUSH1 0x0 DUP6 SSTORE PUSH3 0xD3C JUMP JUMPDEST DUP3 PUSH1 0x1F LT PUSH3 0xD0B JUMPI DUP1 MLOAD PUSH1 0xFF NOT AND DUP4 DUP1 ADD OR DUP6 SSTORE PUSH3 0xD3C JUMP JUMPDEST DUP3 DUP1 ADD PUSH1 0x1 ADD DUP6 SSTORE DUP3 ISZERO PUSH3 0xD3C JUMPI SWAP2 DUP3 ADD JUMPDEST DUP3 DUP2 GT ISZERO PUSH3 0xD3B JUMPI DUP3 MLOAD DUP3 SSTORE SWAP2 PUSH1 0x20 ADD SWAP2 SWAP1 PUSH1 0x1 ADD SWAP1 PUSH3 0xD1E JUMP JUMPDEST JUMPDEST POP SWAP1 POP PUSH3 0xD4B SWAP2 SWAP1 PUSH3 0xD4F JUMP JUMPDEST POP SWAP1 JUMP JUMPDEST JUMPDEST DUP1 DUP3 GT ISZERO PUSH3 0xD6A JUMPI PUSH1 0x0 DUP2 PUSH1 0x0 SWAP1 SSTORE POP PUSH1 0x1 ADD PUSH3 0xD50 JUMP JUMPDEST POP SWAP1 JUMP JUMPDEST PUSH1 0x0 PUSH1 0x2 DUP3 DIV SWAP1 POP PUSH1 0x1 DUP3 AND DUP1 PUSH3 0xD87 JUMPI PUSH1 0x7F DUP3 AND SWAP2 POP JUMPDEST PUSH1 0x20 DUP3 LT DUP2 EQ ISZERO PUSH3 0xD9E JUMPI PUSH3 0xD9D PUSH3 0xDA4 JUMP JUMPDEST JUMPDEST POP SWAP2 SWAP1 POP JUMP JUMPDEST PUSH32 0x4E487B7100000000000000000000000000000000000000000000000000000000 PUSH1 0x0 MSTORE PUSH1 0x22 PUSH1 0x4 MSTORE PUSH1 0x24 PUSH1 0x0 REVERT JUMPDEST PUSH2 0x2E9A DUP1 PUSH3 0xDE3 PUSH1 0x0 CODECOPY PUSH1 0x0 RETURN INVALID PUSH1 0x80 PUSH1 0x40 MSTORE CALLVALUE DUP1 ISZERO PUSH2 0x10 JUMPI PUSH1 0x0 DUP1 REVERT JUMPDEST POP PUSH1 0x4 CALLDATASIZE LT PUSH2 0xCF JUMPI PUSH1 0x0 CALLDATALOAD PUSH1 0xE0 SHR DUP1 PUSH4 0x4386731F GT PUSH2 0x8C JUMPI DUP1 PUSH4 0xC18DB81C GT PUSH2 0x66 JUMPI DUP1 PUSH4 0xC18DB81C EQ PUSH2 0x228 JUMPI DUP1 PUSH4 0xE43059E5 EQ PUSH2 0x25A JUMPI DUP1 PUSH4 0xF6959F0A EQ PUSH2 0x276 JUMPI DUP1 PUSH4 0xF851A440 EQ PUSH2 0x292 JUMPI PUSH2 0xCF JUMP JUMPDEST DUP1 PUSH4 0x4386731F EQ PUSH2 0x1BE JUMPI DUP1 PUSH4 0x57A096A1 EQ PUSH2 0x1DA JUMPI DUP1 PUSH4 0x92EE0334 EQ PUSH2 0x20A JUMPI PUSH2 0xCF JUMP JUMPDEST DUP1 PUSH4 0x1F16653B EQ PUSH2 0xD4 JUMPI DUP1 PUSH4 0x2346D6CD EQ PUSH2 0xF2 JUMPI DUP1 PUSH4 0x26AF03E2 EQ PUSH2 0x10E JUMPI DUP1 PUSH4 0x339CA758 EQ PUSH2 0x12A JUMPI DUP1 PUSH4 0x365B98B2 EQ PUSH2 0x15C JUMPI DUP1 PUSH4 0x3F70C2B4 EQ PUSH2 0x18E JUMPI JUMPDEST PUSH1 0x0 DUP1 REVERT JUMPDEST PUSH2 0xDC PUSH2 0x2B0 JUMP JUMPDEST PUSH1 0x40 MLOAD PUSH2 0xE9 SWAP2 SWAP1 PUSH2 0x2AE9 JUMP JUMPDEST PUSH1 0x40 MLOAD DUP1 SWAP2 SUB SWAP1 RETURN JUMPDEST PUSH2 0x10C PUSH1 0x4 DUP1 CALLDATASIZE SUB DUP2 ADD SWAP1 PUSH2 0x107 SWAP2 SWAP1 PUSH2 0x24AB JUMP JUMPDEST PUSH2 0x2B6 JUMP JUMPDEST STOP JUMPDEST PUSH2 0x128 PUSH1 0x4 DUP1 CALLDATASIZE SUB DUP2 ADD SWAP1 PUSH2 0x123 SWAP2 SWAP1 PUSH2 0x2551 JUMP JUMPDEST PUSH2 0x485 JUMP JUMPDEST STOP JUMPDEST PUSH2 0x144 PUSH1 0x4 DUP1 CALLDATASIZE SUB DUP2 ADD SWAP1 PUSH2 0x13F SWAP2 SWAP1 PUSH2 0x246F JUMP JUMPDEST PUSH2 0x734 JUMP JUMPDEST PUSH1 0x40 MLOAD PUSH2 0x153 SWAP4 SWAP3 SWAP2 SWAP1 PUSH2 0x2B04 JUMP JUMPDEST PUSH1 0x40 MLOAD DUP1 SWAP2 SUB SWAP1 RETURN JUMPDEST PUSH2 0x176 PUSH1 0x4 DUP1 CALLDATASIZE SUB DUP2 ADD SWAP1 PUSH2 0x171 SWAP2 SWAP1 PUSH2 0x24EC JUMP JUMPDEST PUSH2 0x823 JUMP JUMPDEST PUSH1 0x40 MLOAD PUSH2 0x185 SWAP4 SWAP3 SWAP2 SWAP1 PUSH2 0x29E9 JUMP JUMPDEST PUSH1 0x40 MLOAD DUP1 SWAP2 SUB SWAP1 RETURN JUMPDEST PUSH2 0x1A8 PUSH1 0x4 DUP1 CALLDATASIZE SUB DUP2 ADD SWAP1 PUSH2 0x1A3 SWAP2 SWAP1 PUSH2 0x24EC JUMP JUMPDEST PUSH2 0x912 JUMP JUMPDEST PUSH1 0x40 MLOAD PUSH2 0x1B5 SWAP2 SWAP1 PUSH2 0x2AC7 JUMP JUMPDEST PUSH1 0x40 MLOAD DUP1 SWAP2 SUB SWAP1 RETURN JUMPDEST PUSH2 0x1D8 PUSH1 0x4 DUP1 CALLDATASIZE SUB DUP2 ADD SWAP1 PUSH2 0x1D3 SWAP2 SWAP1 PUSH2 0x24EC JUMP JUMPDEST PUSH2 0xF88 JUMP JUMPDEST STOP JUMPDEST PUSH2 0x1F4 PUSH1 0x4 DUP1 CALLDATASIZE SUB DUP2 ADD SWAP1 PUSH2 0x1EF SWAP2 SWAP1 PUSH2 0x24EC JUMP JUMPDEST PUSH2 0x1101 JUMP JUMPDEST PUSH1 0x40 MLOAD PUSH2 0x201 SWAP2 SWAP1 PUSH2 0x29C7 JUMP JUMPDEST PUSH1 0x40 MLOAD DUP1 SWAP2 SUB SWAP1 RETURN JUMPDEST PUSH2 0x212 PUSH2 0x1775 JUMP JUMPDEST PUSH1 0x40 MLOAD PUSH2 0x21F SWAP2 SWAP1 PUSH2 0x29AC JUMP JUMPDEST PUSH1 0x40 MLOAD DUP1 SWAP2 SUB SWAP1 RETURN JUMPDEST PUSH2 0x242 PUSH1 0x4 DUP1 CALLDATASIZE SUB DUP2 ADD SWAP1 PUSH2 0x23D SWAP2 SWAP1 PUSH2 0x24EC JUMP JUMPDEST PUSH2 0x179B JUMP JUMPDEST PUSH1 0x40 MLOAD PUSH2 0x251 SWAP4 SWAP3 SWAP2 SWAP1 PUSH2 0x2B04 JUMP JUMPDEST PUSH1 0x40 MLOAD DUP1 SWAP2 SUB SWAP1 RETURN JUMPDEST PUSH2 0x274 PUSH1 0x4 DUP1 CALLDATASIZE SUB DUP2 ADD SWAP1 PUSH2 0x26F SWAP2 SWAP1 PUSH2 0x2515 JUMP JUMPDEST PUSH2 0x186D JUMP JUMPDEST STOP JUMPDEST PUSH2 0x290 PUSH1 0x4 DUP1 CALLDATASIZE SUB DUP2 ADD SWAP1 PUSH2 0x28B SWAP2 SWAP1 PUSH2 0x2515 JUMP JUMPDEST PUSH2 0x1BCA JUMP JUMPDEST STOP JUMPDEST PUSH2 0x29A PUSH2 0x1EEE JUMP JUMPDEST PUSH1 0x40 MLOAD PUSH2 0x2A7 SWAP2 SWAP1 PUSH2 0x29AC JUMP JUMPDEST PUSH1 0x40 MLOAD DUP1 SWAP2 SUB SWAP1 RETURN JUMPDEST PUSH1 0x2 SLOAD DUP2 JUMP JUMPDEST PUSH1 0x0 DUP1 SLOAD SWAP1 PUSH2 0x100 EXP SWAP1 DIV PUSH20 0xFFFFFFFFFFFFFFFFFFFFFFFFFFFFFFFFFFFFFFFF AND PUSH20 0xFFFFFFFFFFFFFFFFFFFFFFFFFFFFFFFFFFFFFFFF AND CALLER PUSH20 0xFFFFFFFFFFFFFFFFFFFFFFFFFFFFFFFFFFFFFFFF AND EQ PUSH2 0x344 JUMPI PUSH1 0x40 MLOAD PUSH32 0x8C379A000000000000000000000000000000000000000000000000000000000 DUP2 MSTORE PUSH1 0x4 ADD PUSH2 0x33B SWAP1 PUSH2 0x2A47 JUMP JUMPDEST PUSH1 0x40 MLOAD DUP1 SWAP2 SUB SWAP1 REVERT JUMPDEST PUSH1 0x2 PUSH1 0x0 DUP2 SLOAD DUP1 SWAP3 SWAP2 SWAP1 PUSH2 0x357 SWAP1 PUSH2 0x2D4F JUMP JUMPDEST SWAP2 SWAP1 POP SSTORE POP PUSH1 0x0 PUSH1 0x3 PUSH1 0x0 PUSH1 0x2 SLOAD DUP2 MSTORE PUSH1 0x20 ADD SWAP1 DUP2 MSTORE PUSH1 0x20 ADD PUSH1 0x0 KECCAK256 SWAP1 POP PUSH1 0x2 SLOAD DUP2 PUSH1 0x0 ADD DUP2 SWAP1 SSTORE POP DUP2 DUP2 PUSH1 0x1 ADD SWAP1 DUP1 MLOAD SWAP1 PUSH1 0x20 ADD SWAP1 PUSH2 0x398 SWAP3 SWAP2 SWAP1 PUSH2 0x21BC JUMP JUMPDEST POP PUSH1 0x0 DUP1 SLOAD SWAP1 PUSH2 0x100 EXP SWAP1 DIV PUSH20 0xFFFFFFFFFFFFFFFFFFFFFFFFFFFFFFFFFFFFFFFF AND DUP2 PUSH1 0x2 ADD PUSH1 0x0 PUSH2 0x100 EXP DUP2 SLOAD DUP2 PUSH20 0xFFFFFFFFFFFFFFFFFFFFFFFFFFFFFFFFFFFFFFFF MUL NOT AND SWAP1 DUP4 PUSH20 0xFFFFFFFFFFFFFFFFFFFFFFFFFFFFFFFFFFFFFFFF AND MUL OR SWAP1 SSTORE POP DUP1 PUSH1 0x3 ADD PUSH1 0x0 DUP1 SLOAD SWAP1 PUSH2 0x100 EXP SWAP1 DIV PUSH20 0xFFFFFFFFFFFFFFFFFFFFFFFFFFFFFFFFFFFFFFFF AND SWAP1 DUP1 PUSH1 0x1 DUP2 SLOAD ADD DUP1 DUP3 SSTORE DUP1 SWAP2 POP POP PUSH1 0x1 SWAP1 SUB SWAP1 PUSH1 0x0 MSTORE PUSH1 0x20 PUSH1 0x0 KECCAK256 ADD PUSH1 0x0 SWAP1 SWAP2 SWAP1 SWAP2 SWAP1 SWAP2 PUSH2 0x100 EXP DUP2 SLOAD DUP2 PUSH20 0xFFFFFFFFFFFFFFFFFFFFFFFFFFFFFFFFFFFFFFFF MUL NOT AND SWAP1 DUP4 PUSH20 0xFFFFFFFFFFFFFFFFFFFFFFFFFFFFFFFFFFFFFFFF AND MUL OR SWAP1 SSTORE POP POP POP JUMP JUMPDEST PUSH1 0x0 DUP1 SLOAD SWAP1 PUSH2 0x100 EXP SWAP1 DIV PUSH20 0xFFFFFFFFFFFFFFFFFFFFFFFFFFFFFFFFFFFFFFFF AND PUSH20 0xFFFFFFFFFFFFFFFFFFFFFFFFFFFFFFFFFFFFFFFF AND CALLER PUSH20 0xFFFFFFFFFFFFFFFFFFFFFFFFFFFFFFFFFFFFFFFF AND EQ PUSH2 0x513 JUMPI PUSH1 0x40 MLOAD PUSH32 0x8C379A000000000000000000000000000000000000000000000000000000000 DUP2 MSTORE PUSH1 0x4 ADD PUSH2 0x50A SWAP1 PUSH2 0x2A47 JUMP JUMPDEST PUSH1 0x40 MLOAD DUP1 SWAP2 SUB SWAP1 REVERT JUMPDEST PUSH1 0x0 PUSH1 0x3 PUSH1 0x0 DUP5 DUP2 MSTORE PUSH1 0x20 ADD SWAP1 DUP2 MSTORE PUSH1 0x20 ADD PUSH1 0x0 KECCAK256 SWAP1 POP PUSH1 0x0 DUP2 PUSH1 0x0 ADD SLOAD EQ ISZERO PUSH2 0x6CE JUMPI PUSH1 0x0 JUMPDEST PUSH1 0x5 DUP1 SLOAD SWAP1 POP DUP2 LT ISZERO PUSH2 0x6CC JUMPI PUSH1 0x0 PUSH1 0x4 PUSH1 0x0 PUSH1 0x5 DUP5 DUP2 SLOAD DUP2 LT PUSH2 0x587 JUMPI PUSH32 0x4E487B7100000000000000000000000000000000000000000000000000000000 PUSH1 0x0 MSTORE PUSH1 0x32 PUSH1 0x4 MSTORE PUSH1 0x24 PUSH1 0x0 REVERT JUMPDEST SWAP1 PUSH1 0x0 MSTORE PUSH1 0x20 PUSH1 0x0 KECCAK256 SWAP1 PUSH1 0x2 MUL ADD PUSH1 0x1 ADD PUSH1 0x0 SWAP1 SLOAD SWAP1 PUSH2 0x100 EXP SWAP1 DIV PUSH20 0xFFFFFFFFFFFFFFFFFFFFFFFFFFFFFFFFFFFFFFFF AND PUSH20 0xFFFFFFFFFFFFFFFFFFFFFFFFFFFFFFFFFFFFFFFF AND PUSH20 0xFFFFFFFFFFFFFFFFFFFFFFFFFFFFFFFFFFFFFFFF AND DUP2 MSTORE PUSH1 0x20 ADD SWAP1 DUP2 MSTORE PUSH1 0x20 ADD PUSH1 0x0 KECCAK256 SWAP1 POP PUSH1 0x0 JUMPDEST DUP2 DUP1 SLOAD SWAP1 POP DUP2 LT ISZERO PUSH2 0x6B7 JUMPI DUP6 DUP3 DUP3 DUP2 SLOAD DUP2 LT PUSH2 0x63E JUMPI PUSH32 0x4E487B7100000000000000000000000000000000000000000000000000000000 PUSH1 0x0 MSTORE PUSH1 0x32 PUSH1 0x4 MSTORE PUSH1 0x24 PUSH1 0x0 REVERT JUMPDEST SWAP1 PUSH1 0x0 MSTORE PUSH1 0x20 PUSH1 0x0 KECCAK256 SWAP1 PUSH1 0x4 MUL ADD PUSH1 0x0 ADD SLOAD EQ ISZERO PUSH2 0x6A4 JUMPI DUP2 DUP2 DUP2 SLOAD DUP2 LT PUSH2 0x68F JUMPI PUSH32 0x4E487B7100000000000000000000000000000000000000000000000000000000 PUSH1 0x0 MSTORE PUSH1 0x32 PUSH1 0x4 MSTORE PUSH1 0x24 PUSH1 0x0 REVERT JUMPDEST SWAP1 PUSH1 0x0 MSTORE PUSH1 0x20 PUSH1 0x0 KECCAK256 SWAP1 PUSH1 0x4 MUL ADD SWAP4 POP PUSH2 0x6B7 JUMP JUMPDEST DUP1 DUP1 PUSH2 0x6AF SWAP1 PUSH2 0x2D4F JUMP JUMPDEST SWAP2 POP POP PUSH2 0x5F8 JUMP JUMPDEST POP POP DUP1 DUP1 PUSH2 0x6C4 SWAP1 PUSH2 0x2D4F JUMP JUMPDEST SWAP2 POP POP PUSH2 0x53A JUMP JUMPDEST POP JUMPDEST PUSH1 0x0 DUP2 PUSH1 0x0 ADD SLOAD EQ ISZERO PUSH2 0x716 JUMPI PUSH1 0x40 MLOAD PUSH32 0x8C379A000000000000000000000000000000000000000000000000000000000 DUP2 MSTORE PUSH1 0x4 ADD PUSH2 0x70D SWAP1 PUSH2 0x2A87 JUMP JUMPDEST PUSH1 0x40 MLOAD DUP1 SWAP2 SUB SWAP1 REVERT JUMPDEST DUP2 DUP2 PUSH1 0x1 ADD SWAP1 DUP1 MLOAD SWAP1 PUSH1 0x20 ADD SWAP1 PUSH2 0x72E SWAP3 SWAP2 SWAP1 PUSH2 0x21BC JUMP JUMPDEST POP POP POP POP JUMP JUMPDEST PUSH1 0x4 PUSH1 0x20 MSTORE DUP2 PUSH1 0x0 MSTORE PUSH1 0x40 PUSH1 0x0 KECCAK256 DUP2 DUP2 SLOAD DUP2 LT PUSH2 0x750 JUMPI PUSH1 0x0 DUP1 REVERT JUMPDEST SWAP1 PUSH1 0x0 MSTORE PUSH1 0x20 PUSH1 0x0 KECCAK256 SWAP1 PUSH1 0x4 MUL ADD PUSH1 0x0 SWAP2 POP SWAP2 POP POP DUP1 PUSH1 0x0 ADD SLOAD SWAP1 DUP1 PUSH1 0x1 ADD DUP1 SLOAD PUSH2 0x77A SWAP1 PUSH2 0x2D1D JUMP JUMPDEST DUP1 PUSH1 0x1F ADD PUSH1 0x20 DUP1 SWAP2 DIV MUL PUSH1 0x20 ADD PUSH1 0x40 MLOAD SWAP1 DUP2 ADD PUSH1 0x40 MSTORE DUP1 SWAP3 SWAP2 SWAP1 DUP2 DUP2 MSTORE PUSH1 0x20 ADD DUP3 DUP1 SLOAD PUSH2 0x7A6 SWAP1 PUSH2 0x2D1D JUMP JUMPDEST DUP1 ISZERO PUSH2 0x7F3 JUMPI DUP1 PUSH1 0x1F LT PUSH2 0x7C8 JUMPI PUSH2 0x100 DUP1 DUP4 SLOAD DIV MUL DUP4 MSTORE SWAP2 PUSH1 0x20 ADD SWAP2 PUSH2 0x7F3 JUMP JUMPDEST DUP3 ADD SWAP2 SWAP1 PUSH1 0x0 MSTORE PUSH1 0x20 PUSH1 0x0 KECCAK256 SWAP1 JUMPDEST DUP2 SLOAD DUP2 MSTORE SWAP1 PUSH1 0x1 ADD SWAP1 PUSH1 0x20 ADD DUP1 DUP4 GT PUSH2 0x7D6 JUMPI DUP3 SWAP1 SUB PUSH1 0x1F AND DUP3 ADD SWAP2 JUMPDEST POP POP POP POP POP SWAP1 DUP1 PUSH1 0x2 ADD PUSH1 0x0 SWAP1 SLOAD SWAP1 PUSH2 0x100 EXP SWAP1 DIV PUSH20 0xFFFFFFFFFFFFFFFFFFFFFFFFFFFFFFFFFFFFFFFF AND SWAP1 POP DUP4 JUMP JUMPDEST PUSH1 0x5 DUP2 DUP2 SLOAD DUP2 LT PUSH2 0x833 JUMPI PUSH1 0x0 DUP1 REVERT JUMPDEST SWAP1 PUSH1 0x0 MSTORE PUSH1 0x20 PUSH1 0x0 KECCAK256 SWAP1 PUSH1 0x2 MUL ADD PUSH1 0x0 SWAP2 POP SWAP1 POP DUP1 PUSH1 0x0 ADD DUP1 SLOAD PUSH2 0x856 SWAP1 PUSH2 0x2D1D JUMP JUMPDEST DUP1 PUSH1 0x1F ADD PUSH1 0x20 DUP1 SWAP2 DIV MUL PUSH1 0x20 ADD PUSH1 0x40 MLOAD SWAP1 DUP2 ADD PUSH1 0x40 MSTORE DUP1 SWAP3 SWAP2 SWAP1 DUP2 DUP2 MSTORE PUSH1 0x20 ADD DUP3 DUP1 SLOAD PUSH2 0x882 SWAP1 PUSH2 0x2D1D JUMP JUMPDEST DUP1 ISZERO PUSH2 0x8CF JUMPI DUP1 PUSH1 0x1F LT PUSH2 0x8A4 JUMPI PUSH2 0x100 DUP1 DUP4 SLOAD DIV MUL DUP4 MSTORE SWAP2 PUSH1 0x20 ADD SWAP2 PUSH2 0x8CF JUMP JUMPDEST DUP3 ADD SWAP2 SWAP1 PUSH1 0x0 MSTORE PUSH1 0x20 PUSH1 0x0 KECCAK256 SWAP1 JUMPDEST DUP2 SLOAD DUP2 MSTORE SWAP1 PUSH1 0x1 ADD SWAP1 PUSH1 0x20 ADD DUP1 DUP4 GT PUSH2 0x8B2 JUMPI DUP3 SWAP1 SUB PUSH1 0x1F AND DUP3 ADD SWAP2 JUMPDEST POP POP POP POP POP SWAP1 DUP1 PUSH1 0x1 ADD PUSH1 0x0 SWAP1 SLOAD SWAP1 PUSH2 0x100 EXP SWAP1 DIV PUSH20 0xFFFFFFFFFFFFFFFFFFFFFFFFFFFFFFFFFFFFFFFF AND SWAP1 DUP1 PUSH1 0x1 ADD PUSH1 0x14 SWAP1 SLOAD SWAP1 PUSH2 0x100 EXP SWAP1 DIV PUSH1 0xFF AND SWAP1 POP DUP4 JUMP JUMPDEST PUSH2 0x91A PUSH2 0x2242 JUMP JUMPDEST PUSH1 0x0 PUSH1 0x3 PUSH1 0x0 DUP5 DUP2 MSTORE PUSH1 0x20 ADD SWAP1 DUP2 MSTORE PUSH1 0x20 ADD PUSH1 0x0 KECCAK256 PUSH1 0x40 MLOAD DUP1 PUSH1 0x80 ADD PUSH1 0x40 MSTORE SWAP1 DUP2 PUSH1 0x0 DUP3 ADD SLOAD DUP2 MSTORE PUSH1 0x20 ADD PUSH1 0x1 DUP3 ADD DUP1 SLOAD PUSH2 0x954 SWAP1 PUSH2 0x2D1D JUMP JUMPDEST DUP1 PUSH1 0x1F ADD PUSH1 0x20 DUP1 SWAP2 DIV MUL PUSH1 0x20 ADD PUSH1 0x40 MLOAD SWAP1 DUP2 ADD PUSH1 0x40 MSTORE DUP1 SWAP3 SWAP2 SWAP1 DUP2 DUP2 MSTORE PUSH1 0x20 ADD DUP3 DUP1 SLOAD PUSH2 0x980 SWAP1 PUSH2 0x2D1D JUMP JUMPDEST DUP1 ISZERO PUSH2 0x9CD JUMPI DUP1 PUSH1 0x1F LT PUSH2 0x9A2 JUMPI PUSH2 0x100 DUP1 DUP4 SLOAD DIV MUL DUP4 MSTORE SWAP2 PUSH1 0x20 ADD SWAP2 PUSH2 0x9CD JUMP JUMPDEST DUP3 ADD SWAP2 SWAP1 PUSH1 0x0 MSTORE PUSH1 0x20 PUSH1 0x0 KECCAK256 SWAP1 JUMPDEST DUP2 SLOAD DUP2 MSTORE SWAP1 PUSH1 0x1 ADD SWAP1 PUSH1 0x20 ADD DUP1 DUP4 GT PUSH2 0x9B0 JUMPI DUP3 SWAP1 SUB PUSH1 0x1F AND DUP3 ADD SWAP2 JUMPDEST POP POP POP POP POP DUP2 MSTORE PUSH1 0x20 ADD PUSH1 0x2 DUP3 ADD PUSH1 0x0 SWAP1 SLOAD SWAP1 PUSH2 0x100 EXP SWAP1 DIV PUSH20 0xFFFFFFFFFFFFFFFFFFFFFFFFFFFFFFFFFFFFFFFF AND PUSH20 0xFFFFFFFFFFFFFFFFFFFFFFFFFFFFFFFFFFFFFFFF AND PUSH20 0xFFFFFFFFFFFFFFFFFFFFFFFFFFFFFFFFFFFFFFFF AND DUP2 MSTORE PUSH1 0x20 ADD PUSH1 0x3 DUP3 ADD DUP1 SLOAD DUP1 PUSH1 0x20 MUL PUSH1 0x20 ADD PUSH1 0x40 MLOAD SWAP1 DUP2 ADD PUSH1 0x40 MSTORE DUP1 SWAP3 SWAP2 SWAP1 DUP2 DUP2 MSTORE PUSH1 0x20 ADD DUP3 DUP1 SLOAD DUP1 ISZERO PUSH2 0xAB1 JUMPI PUSH1 0x20 MUL DUP3 ADD SWAP2 SWAP1 PUSH1 0x0 MSTORE PUSH1 0x20 PUSH1 0x0 KECCAK256 SWAP1 JUMPDEST DUP2 PUSH1 0x0 SWAP1 SLOAD SWAP1 PUSH2 0x100 EXP SWAP1 DIV PUSH20 0xFFFFFFFFFFFFFFFFFFFFFFFFFFFFFFFFFFFFFFFF AND PUSH20 0xFFFFFFFFFFFFFFFFFFFFFFFFFFFFFFFFFFFFFFFF AND DUP2 MSTORE PUSH1 0x20 ADD SWAP1 PUSH1 0x1 ADD SWAP1 DUP1 DUP4 GT PUSH2 0xA67 JUMPI JUMPDEST POP POP POP POP POP DUP2 MSTORE POP POP SWAP1 POP PUSH1 0x0 DUP2 PUSH1 0x0 ADD MLOAD EQ ISZERO PUSH2 0xF37 JUMPI PUSH1 0x0 JUMPDEST PUSH1 0x5 DUP1 SLOAD SWAP1 POP DUP2 LT ISZERO PUSH2 0xF35 JUMPI PUSH1 0x0 JUMPDEST PUSH1 0x4 PUSH1 0x0 PUSH1 0x5 DUP5 DUP2 SLOAD DUP2 LT PUSH2 0xB1A JUMPI PUSH32 0x4E487B7100000000000000000000000000000000000000000000000000000000 PUSH1 0x0 MSTORE PUSH1 0x32 PUSH1 0x4 MSTORE PUSH1 0x24 PUSH1 0x0 REVERT JUMPDEST SWAP1 PUSH1 0x0 MSTORE PUSH1 0x20 PUSH1 0x0 KECCAK256 SWAP1 PUSH1 0x2 MUL ADD PUSH1 0x1 ADD PUSH1 0x0 SWAP1 SLOAD SWAP1 PUSH2 0x100 EXP SWAP1 DIV PUSH20 0xFFFFFFFFFFFFFFFFFFFFFFFFFFFFFFFFFFFFFFFF AND PUSH20 0xFFFFFFFFFFFFFFFFFFFFFFFFFFFFFFFFFFFFFFFF AND PUSH20 0xFFFFFFFFFFFFFFFFFFFFFFFFFFFFFFFFFFFFFFFF AND DUP2 MSTORE PUSH1 0x20 ADD SWAP1 DUP2 MSTORE PUSH1 0x20 ADD PUSH1 0x0 KECCAK256 DUP1 SLOAD SWAP1 POP DUP2 LT ISZERO PUSH2 0xF21 JUMPI DUP5 PUSH1 0x4 PUSH1 0x0 PUSH1 0x5 DUP6 DUP2 SLOAD DUP2 LT PUSH2 0xBD0 JUMPI PUSH32 0x4E487B7100000000000000000000000000000000000000000000000000000000 PUSH1 0x0 MSTORE PUSH1 0x32 PUSH1 0x4 MSTORE PUSH1 0x24 PUSH1 0x0 REVERT JUMPDEST SWAP1 PUSH1 0x0 MSTORE PUSH1 0x20 PUSH1 0x0 KECCAK256 SWAP1 PUSH1 0x2 MUL ADD PUSH1 0x1 ADD PUSH1 0x0 SWAP1 SLOAD SWAP1 PUSH2 0x100 EXP SWAP1 DIV PUSH20 0xFFFFFFFFFFFFFFFFFFFFFFFFFFFFFFFFFFFFFFFF AND PUSH20 0xFFFFFFFFFFFFFFFFFFFFFFFFFFFFFFFFFFFFFFFF AND PUSH20 0xFFFFFFFFFFFFFFFFFFFFFFFFFFFFFFFFFFFFFFFF AND DUP2 MSTORE PUSH1 0x20 ADD SWAP1 DUP2 MSTORE PUSH1 0x20 ADD PUSH1 0x0 KECCAK256 DUP3 DUP2 SLOAD DUP2 LT PUSH2 0xC74 JUMPI PUSH32 0x4E487B7100000000000000000000000000000000000000000000000000000000 PUSH1 0x0 MSTORE PUSH1 0x32 PUSH1 0x4 MSTORE PUSH1 0x24 PUSH1 0x0 REVERT JUMPDEST SWAP1 PUSH1 0x0 MSTORE PUSH1 0x20 PUSH1 0x0 KECCAK256 SWAP1 PUSH1 0x4 MUL ADD PUSH1 0x0 ADD SLOAD EQ ISZERO PUSH2 0xF0E JUMPI PUSH1 0x4 PUSH1 0x0 PUSH1 0x5 DUP5 DUP2 SLOAD DUP2 LT PUSH2 0xCCA JUMPI PUSH32 0x4E487B7100000000000000000000000000000000000000000000000000000000 PUSH1 0x0 MSTORE PUSH1 0x32 PUSH1 0x4 MSTORE PUSH1 0x24 PUSH1 0x0 REVERT JUMPDEST SWAP1 PUSH1 0x0 MSTORE PUSH1 0x20 PUSH1 0x0 KECCAK256 SWAP1 PUSH1 0x2 MUL ADD PUSH1 0x1 ADD PUSH1 0x0 SWAP1 SLOAD SWAP1 PUSH2 0x100 EXP SWAP1 DIV PUSH20 0xFFFFFFFFFFFFFFFFFFFFFFFFFFFFFFFFFFFFFFFF AND PUSH20 0xFFFFFFFFFFFFFFFFFFFFFFFFFFFFFFFFFFFFFFFF AND PUSH20 0xFFFFFFFFFFFFFFFFFFFFFFFFFFFFFFFFFFFFFFFF AND DUP2 MSTORE PUSH1 0x20 ADD SWAP1 DUP2 MSTORE PUSH1 0x20 ADD PUSH1 0x0 KECCAK256 DUP2 DUP2 SLOAD DUP2 LT PUSH2 0xD6E JUMPI PUSH32 0x4E487B7100000000000000000000000000000000000000000000000000000000 PUSH1 0x0 MSTORE PUSH1 0x32 PUSH1 0x4 MSTORE PUSH1 0x24 PUSH1 0x0 REVERT JUMPDEST SWAP1 PUSH1 0x0 MSTORE PUSH1 0x20 PUSH1 0x0 KECCAK256 SWAP1 PUSH1 0x4 MUL ADD PUSH1 0x40 MLOAD DUP1 PUSH1 0x80 ADD PUSH1 0x40 MSTORE SWAP1 DUP2 PUSH1 0x0 DUP3 ADD SLOAD DUP2 MSTORE PUSH1 0x20 ADD PUSH1 0x1 DUP3 ADD DUP1 SLOAD PUSH2 0xDA1 SWAP1 PUSH2 0x2D1D JUMP JUMPDEST DUP1 PUSH1 0x1F ADD PUSH1 0x20 DUP1 SWAP2 DIV MUL PUSH1 0x20 ADD PUSH1 0x40 MLOAD SWAP1 DUP2 ADD PUSH1 0x40 MSTORE DUP1 SWAP3 SWAP2 SWAP1 DUP2 DUP2 MSTORE PUSH1 0x20 ADD DUP3 DUP1 SLOAD PUSH2 0xDCD SWAP1 PUSH2 0x2D1D JUMP JUMPDEST DUP1 ISZERO PUSH2 0xE1A JUMPI DUP1 PUSH1 0x1F LT PUSH2 0xDEF JUMPI PUSH2 0x100 DUP1 DUP4 SLOAD DIV MUL DUP4 MSTORE SWAP2 PUSH1 0x20 ADD SWAP2 PUSH2 0xE1A JUMP JUMPDEST DUP3 ADD SWAP2 SWAP1 PUSH1 0x0 MSTORE PUSH1 0x20 PUSH1 0x0 KECCAK256 SWAP1 JUMPDEST DUP2 SLOAD DUP2 MSTORE SWAP1 PUSH1 0x1 ADD SWAP1 PUSH1 0x20 ADD DUP1 DUP4 GT PUSH2 0xDFD JUMPI DUP3 SWAP1 SUB PUSH1 0x1F AND DUP3 ADD SWAP2 JUMPDEST POP POP POP POP POP DUP2 MSTORE PUSH1 0x20 ADD PUSH1 0x2 DUP3 ADD PUSH1 0x0 SWAP1 SLOAD SWAP1 PUSH2 0x100 EXP SWAP1 DIV PUSH20 0xFFFFFFFFFFFFFFFFFFFFFFFFFFFFFFFFFFFFFFFF AND PUSH20 0xFFFFFFFFFFFFFFFFFFFFFFFFFFFFFFFFFFFFFFFF AND PUSH20 0xFFFFFFFFFFFFFFFFFFFFFFFFFFFFFFFFFFFFFFFF AND DUP2 MSTORE PUSH1 0x20 ADD PUSH1 0x3 DUP3 ADD DUP1 SLOAD DUP1 PUSH1 0x20 MUL PUSH1 0x20 ADD PUSH1 0x40 MLOAD SWAP1 DUP2 ADD PUSH1 0x40 MSTORE DUP1 SWAP3 SWAP2 SWAP1 DUP2 DUP2 MSTORE PUSH1 0x20 ADD DUP3 DUP1 SLOAD DUP1 ISZERO PUSH2 0xEFE JUMPI PUSH1 0x20 MUL DUP3 ADD SWAP2 SWAP1 PUSH1 0x0 MSTORE PUSH1 0x20 PUSH1 0x0 KECCAK256 SWAP1 JUMPDEST DUP2 PUSH1 0x0 SWAP1 SLOAD SWAP1 PUSH2 0x100 EXP SWAP1 DIV PUSH20 0xFFFFFFFFFFFFFFFFFFFFFFFFFFFFFFFFFFFFFFFF AND PUSH20 0xFFFFFFFFFFFFFFFFFFFFFFFFFFFFFFFFFFFFFFFF AND DUP2 MSTORE PUSH1 0x20 ADD SWAP1 PUSH1 0x1 ADD SWAP1 DUP1 DUP4 GT PUSH2 0xEB4 JUMPI JUMPDEST POP POP POP POP POP DUP2 MSTORE POP POP SWAP3 POP PUSH2 0xF21 JUMP JUMPDEST DUP1 DUP1 PUSH2 0xF19 SWAP1 PUSH2 0x2D4F JUMP JUMPDEST SWAP2 POP POP PUSH2 0xADC JUMP JUMPDEST POP DUP1 DUP1 PUSH2 0xF2D SWAP1 PUSH2 0x2D4F JUMP JUMPDEST SWAP2 POP POP PUSH2 0xACC JUMP JUMPDEST POP JUMPDEST PUSH1 0x0 DUP2 PUSH1 0x0 ADD MLOAD EQ ISZERO PUSH2 0xF7F JUMPI PUSH1 0x40 MLOAD PUSH32 0x8C379A000000000000000000000000000000000000000000000000000000000 DUP2 MSTORE PUSH1 0x4 ADD PUSH2 0xF76 SWAP1 PUSH2 0x2A87 JUMP JUMPDEST PUSH1 0x40 MLOAD DUP1 SWAP2 SUB SWAP1 REVERT JUMPDEST DUP1 SWAP2 POP POP SWAP2 SWAP1 POP JUMP JUMPDEST PUSH1 0x5 DUP1 SLOAD SWAP1 POP DUP2 LT PUSH2 0xFCF JUMPI PUSH1 0x40 MLOAD PUSH32 0x8C379A000000000000000000000000000000000000000000000000000000000 DUP2 MSTORE PUSH1 0x4 ADD PUSH2 0xFC6 SWAP1 PUSH2 0x2A67 JUMP JUMPDEST PUSH1 0x40 MLOAD DUP1 SWAP2 SUB SWAP1 REVERT JUMPDEST PUSH1 0x5 DUP2 DUP2 SLOAD DUP2 LT PUSH2 0x1009 JUMPI PUSH32 0x4E487B7100000000000000000000000000000000000000000000000000000000 PUSH1 0x0 MSTORE PUSH1 0x32 PUSH1 0x4 MSTORE PUSH1 0x24 PUSH1 0x0 REVERT JUMPDEST SWAP1 PUSH1 0x0 MSTORE PUSH1 0x20 PUSH1 0x0 KECCAK256 SWAP1 PUSH1 0x2 MUL ADD PUSH1 0x1 ADD PUSH1 0x0 SWAP1 SLOAD SWAP1 PUSH2 0x100 EXP SWAP1 DIV PUSH20 0xFFFFFFFFFFFFFFFFFFFFFFFFFFFFFFFFFFFFFFFF AND PUSH1 0x1 PUSH1 0x0 PUSH2 0x100 EXP DUP2 SLOAD DUP2 PUSH20 0xFFFFFFFFFFFFFFFFFFFFFFFFFFFFFFFFFFFFFFFF MUL NOT AND SWAP1 DUP4 PUSH20 0xFFFFFFFFFFFFFFFFFFFFFFFFFFFFFFFFFFFFFFFF AND MUL OR SWAP1 SSTORE POP PUSH32 0x3E35AF141DEEF2B1CE77BE826A4F3918605311FBF910EDBB00373B9F1021A686 DUP2 PUSH1 0x5 DUP4 DUP2 SLOAD DUP2 LT PUSH2 0x10D7 JUMPI PUSH32 0x4E487B7100000000000000000000000000000000000000000000000000000000 PUSH1 0x0 MSTORE PUSH1 0x32 PUSH1 0x4 MSTORE PUSH1 0x24 PUSH1 0x0 REVERT JUMPDEST SWAP1 PUSH1 0x0 MSTORE PUSH1 0x20 PUSH1 0x0 KECCAK256 SWAP1 PUSH1 0x2 MUL ADD PUSH1 0x0 ADD PUSH1 0x40 MLOAD PUSH2 0x10F6 SWAP3 SWAP2 SWAP1 PUSH2 0x2B42 JUMP JUMPDEST PUSH1 0x40 MLOAD DUP1 SWAP2 SUB SWAP1 LOG1 POP JUMP JUMPDEST PUSH1 0x60 PUSH1 0x0 PUSH1 0x3 PUSH1 0x0 DUP5 DUP2 MSTORE PUSH1 0x20 ADD SWAP1 DUP2 MSTORE PUSH1 0x20 ADD PUSH1 0x0 KECCAK256 PUSH1 0x40 MLOAD DUP1 PUSH1 0x80 ADD PUSH1 0x40 MSTORE SWAP1 DUP2 PUSH1 0x0 DUP3 ADD SLOAD DUP2 MSTORE PUSH1 0x20 ADD PUSH1 0x1 DUP3 ADD DUP1 SLOAD PUSH2 0x113D SWAP1 PUSH2 0x2D1D JUMP JUMPDEST DUP1 PUSH1 0x1F ADD PUSH1 0x20 DUP1 SWAP2 DIV MUL PUSH1 0x20 ADD PUSH1 0x40 MLOAD SWAP1 DUP2 ADD PUSH1 0x40 MSTORE DUP1 SWAP3 SWAP2 SWAP1 DUP2 DUP2 MSTORE PUSH1 0x20 ADD DUP3 DUP1 SLOAD PUSH2 0x1169 SWAP1 PUSH2 0x2D1D JUMP JUMPDEST DUP1 ISZERO PUSH2 0x11B6 JUMPI DUP1 PUSH1 0x1F LT PUSH2 0x118B JUMPI PUSH2 0x100 DUP1 DUP4 SLOAD DIV MUL DUP4 MSTORE SWAP2 PUSH1 0x20 ADD SWAP2 PUSH2 0x11B6 JUMP JUMPDEST DUP3 ADD SWAP2 SWAP1 PUSH1 0x0 MSTORE PUSH1 0x20 PUSH1 0x0 KECCAK256 SWAP1 JUMPDEST DUP2 SLOAD DUP2 MSTORE SWAP1 PUSH1 0x1 ADD SWAP1 PUSH1 0x20 ADD DUP1 DUP4 GT PUSH2 0x1199 JUMPI DUP3 SWAP1 SUB PUSH1 0x1F AND DUP3 ADD SWAP2 JUMPDEST POP POP POP POP POP DUP2 MSTORE PUSH1 0x20 ADD PUSH1 0x2 DUP3 ADD PUSH1 0x0 SWAP1 SLOAD SWAP1 PUSH2 0x100 EXP SWAP1 DIV PUSH20 0xFFFFFFFFFFFFFFFFFFFFFFFFFFFFFFFFFFFFFFFF AND PUSH20 0xFFFFFFFFFFFFFFFFFFFFFFFFFFFFFFFFFFFFFFFF AND PUSH20 0xFFFFFFFFFFFFFFFFFFFFFFFFFFFFFFFFFFFFFFFF AND DUP2 MSTORE PUSH1 0x20 ADD PUSH1 0x3 DUP3 ADD DUP1 SLOAD DUP1 PUSH1 0x20 MUL PUSH1 0x20 ADD PUSH1 0x40 MLOAD SWAP1 DUP2 ADD PUSH1 0x40 MSTORE DUP1 SWAP3 SWAP2 SWAP1 DUP2 DUP2 MSTORE PUSH1 0x20 ADD DUP3 DUP1 SLOAD DUP1 ISZERO PUSH2 0x129A JUMPI PUSH1 0x20 MUL DUP3 ADD SWAP2 SWAP1 PUSH1 0x0 MSTORE PUSH1 0x20 PUSH1 0x0 KECCAK256 SWAP1 JUMPDEST DUP2 PUSH1 0x0 SWAP1 SLOAD SWAP1 PUSH2 0x100 EXP SWAP1 DIV PUSH20 0xFFFFFFFFFFFFFFFFFFFFFFFFFFFFFFFFFFFFFFFF AND PUSH20 0xFFFFFFFFFFFFFFFFFFFFFFFFFFFFFFFFFFFFFFFF AND DUP2 MSTORE PUSH1 0x20 ADD SWAP1 PUSH1 0x1 ADD SWAP1 DUP1 DUP4 GT PUSH2 0x1250 JUMPI JUMPDEST POP POP POP POP POP DUP2 MSTORE POP POP SWAP1 POP PUSH1 0x0 DUP2 PUSH1 0x0 ADD MLOAD EQ ISZERO PUSH2 0x1720 JUMPI PUSH1 0x0 JUMPDEST PUSH1 0x5 DUP1 SLOAD SWAP1 POP DUP2 LT ISZERO PUSH2 0x171E JUMPI PUSH1 0x0 JUMPDEST PUSH1 0x4 PUSH1 0x0 PUSH1 0x5 DUP5 DUP2 SLOAD DUP2 LT PUSH2 0x1303 JUMPI PUSH32 0x4E487B7100000000000000000000000000000000000000000000000000000000 PUSH1 0x0 MSTORE PUSH1 0x32 PUSH1 0x4 MSTORE PUSH1 0x24 PUSH1 0x0 REVERT JUMPDEST SWAP1 PUSH1 0x0 MSTORE PUSH1 0x20 PUSH1 0x0 KECCAK256 SWAP1 PUSH1 0x2 MUL ADD PUSH1 0x1 ADD PUSH1 0x0 SWAP1 SLOAD SWAP1 PUSH2 0x100 EXP SWAP1 DIV PUSH20 0xFFFFFFFFFFFFFFFFFFFFFFFFFFFFFFFFFFFFFFFF AND PUSH20 0xFFFFFFFFFFFFFFFFFFFFFFFFFFFFFFFFFFFFFFFF AND PUSH20 0xFFFFFFFFFFFFFFFFFFFFFFFFFFFFFFFFFFFFFFFF AND DUP2 MSTORE PUSH1 0x20 ADD SWAP1 DUP2 MSTORE PUSH1 0x20 ADD PUSH1 0x0 KECCAK256 DUP1 SLOAD SWAP1 POP DUP2 LT ISZERO PUSH2 0x170A JUMPI DUP5 PUSH1 0x4 PUSH1 0x0 PUSH1 0x5 DUP6 DUP2 SLOAD DUP2 LT PUSH2 0x13B9 JUMPI PUSH32 0x4E487B7100000000000000000000000000000000000000000000000000000000 PUSH1 0x0 MSTORE PUSH1 0x32 PUSH1 0x4 MSTORE PUSH1 0x24 PUSH1 0x0 REVERT JUMPDEST SWAP1 PUSH1 0x0 MSTORE PUSH1 0x20 PUSH1 0x0 KECCAK256 SWAP1 PUSH1 0x2 MUL ADD PUSH1 0x1 ADD PUSH1 0x0 SWAP1 SLOAD SWAP1 PUSH2 0x100 EXP SWAP1 DIV PUSH20 0xFFFFFFFFFFFFFFFFFFFFFFFFFFFFFFFFFFFFFFFF AND PUSH20 0xFFFFFFFFFFFFFFFFFFFFFFFFFFFFFFFFFFFFFFFF AND PUSH20 0xFFFFFFFFFFFFFFFFFFFFFFFFFFFFFFFFFFFFFFFF AND DUP2 MSTORE PUSH1 0x20 ADD SWAP1 DUP2 MSTORE PUSH1 0x20 ADD PUSH1 0x0 KECCAK256 DUP3 DUP2 SLOAD DUP2 LT PUSH2 0x145D JUMPI PUSH32 0x4E487B7100000000000000000000000000000000000000000000000000000000 PUSH1 0x0 MSTORE PUSH1 0x32 PUSH1 0x4 MSTORE PUSH1 0x24 PUSH1 0x0 REVERT JUMPDEST SWAP1 PUSH1 0x0 MSTORE PUSH1 0x20 PUSH1 0x0 KECCAK256 SWAP1 PUSH1 0x4 MUL ADD PUSH1 0x0 ADD SLOAD EQ ISZERO PUSH2 0x16F7 JUMPI PUSH1 0x4 PUSH1 0x0 PUSH1 0x5 DUP5 DUP2 SLOAD DUP2 LT PUSH2 0x14B3 JUMPI PUSH32 0x4E487B7100000000000000000000000000000000000000000000000000000000 PUSH1 0x0 MSTORE PUSH1 0x32 PUSH1 0x4 MSTORE PUSH1 0x24 PUSH1 0x0 REVERT JUMPDEST SWAP1 PUSH1 0x0 MSTORE PUSH1 0x20 PUSH1 0x0 KECCAK256 SWAP1 PUSH1 0x2 MUL ADD PUSH1 0x1 ADD PUSH1 0x0 SWAP1 SLOAD SWAP1 PUSH2 0x100 EXP SWAP1 DIV PUSH20 0xFFFFFFFFFFFFFFFFFFFFFFFFFFFFFFFFFFFFFFFF AND PUSH20 0xFFFFFFFFFFFFFFFFFFFFFFFFFFFFFFFFFFFFFFFF AND PUSH20 0xFFFFFFFFFFFFFFFFFFFFFFFFFFFFFFFFFFFFFFFF AND DUP2 MSTORE PUSH1 0x20 ADD SWAP1 DUP2 MSTORE PUSH1 0x20 ADD PUSH1 0x0 KECCAK256 DUP2 DUP2 SLOAD DUP2 LT PUSH2 0x1557 JUMPI PUSH32 0x4E487B7100000000000000000000000000000000000000000000000000000000 PUSH1 0x0 MSTORE PUSH1 0x32 PUSH1 0x4 MSTORE PUSH1 0x24 PUSH1 0x0 REVERT JUMPDEST SWAP1 PUSH1 0x0 MSTORE PUSH1 0x20 PUSH1 0x0 KECCAK256 SWAP1 PUSH1 0x4 MUL ADD PUSH1 0x40 MLOAD DUP1 PUSH1 0x80 ADD PUSH1 0x40 MSTORE SWAP1 DUP2 PUSH1 0x0 DUP3 ADD SLOAD DUP2 MSTORE PUSH1 0x20 ADD PUSH1 0x1 DUP3 ADD DUP1 SLOAD PUSH2 0x158A SWAP1 PUSH2 0x2D1D JUMP JUMPDEST DUP1 PUSH1 0x1F ADD PUSH1 0x20 DUP1 SWAP2 DIV MUL PUSH1 0x20 ADD PUSH1 0x40 MLOAD SWAP1 DUP2 ADD PUSH1 0x40 MSTORE DUP1 SWAP3 SWAP2 SWAP1 DUP2 DUP2 MSTORE PUSH1 0x20 ADD DUP3 DUP1 SLOAD PUSH2 0x15B6 SWAP1 PUSH2 0x2D1D JUMP JUMPDEST DUP1 ISZERO PUSH2 0x1603 JUMPI DUP1 PUSH1 0x1F LT PUSH2 0x15D8 JUMPI PUSH2 0x100 DUP1 DUP4 SLOAD DIV MUL DUP4 MSTORE SWAP2 PUSH1 0x20 ADD SWAP2 PUSH2 0x1603 JUMP JUMPDEST DUP3 ADD SWAP2 SWAP1 PUSH1 0x0 MSTORE PUSH1 0x20 PUSH1 0x0 KECCAK256 SWAP1 JUMPDEST DUP2 SLOAD DUP2 MSTORE SWAP1 PUSH1 0x1 ADD SWAP1 PUSH1 0x20 ADD DUP1 DUP4 GT PUSH2 0x15E6 JUMPI DUP3 SWAP1 SUB PUSH1 0x1F AND DUP3 ADD SWAP2 JUMPDEST POP POP POP POP POP DUP2 MSTORE PUSH1 0x20 ADD PUSH1 0x2 DUP3 ADD PUSH1 0x0 SWAP1 SLOAD SWAP1 PUSH2 0x100 EXP SWAP1 DIV PUSH20 0xFFFFFFFFFFFFFFFFFFFFFFFFFFFFFFFFFFFFFFFF AND PUSH20 0xFFFFFFFFFFFFFFFFFFFFFFFFFFFFFFFFFFFFFFFF AND PUSH20 0xFFFFFFFFFFFFFFFFFFFFFFFFFFFFFFFFFFFFFFFF AND DUP2 MSTORE PUSH1 0x20 ADD PUSH1 0x3 DUP3 ADD DUP1 SLOAD DUP1 PUSH1 0x20 MUL PUSH1 0x20 ADD PUSH1 0x40 MLOAD SWAP1 DUP2 ADD PUSH1 0x40 MSTORE DUP1 SWAP3 SWAP2 SWAP1 DUP2 DUP2 MSTORE PUSH1 0x20 ADD DUP3 DUP1 SLOAD DUP1 ISZERO PUSH2 0x16E7 JUMPI PUSH1 0x20 MUL DUP3 ADD SWAP2 SWAP1 PUSH1 0x0 MSTORE PUSH1 0x20 PUSH1 0x0 KECCAK256 SWAP1 JUMPDEST DUP2 PUSH1 0x0 SWAP1 SLOAD SWAP1 PUSH2 0x100 EXP SWAP1 DIV PUSH20 0xFFFFFFFFFFFFFFFFFFFFFFFFFFFFFFFFFFFFFFFF AND PUSH20 0xFFFFFFFFFFFFFFFFFFFFFFFFFFFFFFFFFFFFFFFF AND DUP2 MSTORE PUSH1 0x20 ADD SWAP1 PUSH1 0x1 ADD SWAP1 DUP1 DUP4 GT PUSH2 0x169D JUMPI JUMPDEST POP POP POP POP POP DUP2 MSTORE POP POP SWAP3 POP PUSH2 0x170A JUMP JUMPDEST DUP1 DUP1 PUSH2 0x1702 SWAP1 PUSH2 0x2D4F JUMP JUMPDEST SWAP2 POP POP PUSH2 0x12C5 JUMP JUMPDEST POP DUP1 DUP1 PUSH2 0x1716 SWAP1 PUSH2 0x2D4F JUMP JUMPDEST SWAP2 POP POP PUSH2 0x12B5 JUMP JUMPDEST POP JUMPDEST PUSH1 0x0 DUP2 PUSH1 0x0 ADD MLOAD EQ ISZERO PUSH2 0x1768 JUMPI PUSH1 0x40 MLOAD PUSH32 0x8C379A000000000000000000000000000000000000000000000000000000000 DUP2 MSTORE PUSH1 0x4 ADD PUSH2 0x175F SWAP1 PUSH2 0x2A87 JUMP JUMPDEST PUSH1 0x40 MLOAD DUP1 SWAP2 SUB SWAP1 REVERT JUMPDEST DUP1 PUSH1 0x60 ADD MLOAD SWAP2 POP POP SWAP2 SWAP1 POP JUMP JUMPDEST PUSH1 0x1 PUSH1 0x0 SWAP1 SLOAD SWAP1 PUSH2 0x100 EXP SWAP1 DIV PUSH20 0xFFFFFFFFFFFFFFFFFFFFFFFFFFFFFFFFFFFFFFFF AND DUP2 JUMP JUMPDEST PUSH1 0x3 PUSH1 0x20 MSTORE DUP1 PUSH1 0x0 MSTORE PUSH1 0x40 PUSH1 0x0 KECCAK256 PUSH1 0x0 SWAP2 POP SWAP1 POP DUP1 PUSH1 0x0 ADD SLOAD SWAP1 DUP1 PUSH1 0x1 ADD DUP1 SLOAD PUSH2 0x17C4 SWAP1 PUSH2 0x2D1D JUMP JUMPDEST DUP1 PUSH1 0x1F ADD PUSH1 0x20 DUP1 SWAP2 DIV MUL PUSH1 0x20 ADD PUSH1 0x40 MLOAD SWAP1 DUP2 ADD PUSH1 0x40 MSTORE DUP1 SWAP3 SWAP2 SWAP1 DUP2 DUP2 MSTORE PUSH1 0x20 ADD DUP3 DUP1 SLOAD PUSH2 0x17F0 SWAP1 PUSH2 0x2D1D JUMP JUMPDEST DUP1 ISZERO PUSH2 0x183D JUMPI DUP1 PUSH1 0x1F LT PUSH2 0x1812 JUMPI PUSH2 0x100 DUP1 DUP4 SLOAD DIV MUL DUP4 MSTORE SWAP2 PUSH1 0x20 ADD SWAP2 PUSH2 0x183D JUMP JUMPDEST DUP3 ADD SWAP2 SWAP1 PUSH1 0x0 MSTORE PUSH1 0x20 PUSH1 0x0 KECCAK256 SWAP1 JUMPDEST DUP2 SLOAD DUP2 MSTORE SWAP1 PUSH1 0x1 ADD SWAP1 PUSH1 0x20 ADD DUP1 DUP4 GT PUSH2 0x1820 JUMPI DUP3 SWAP1 SUB PUSH1 0x1F AND DUP3 ADD SWAP2 JUMPDEST POP POP POP POP POP SWAP1 DUP1 PUSH1 0x2 ADD PUSH1 0x0 SWAP1 SLOAD SWAP1 PUSH2 0x100 EXP SWAP1 DIV PUSH20 0xFFFFFFFFFFFFFFFFFFFFFFFFFFFFFFFFFFFFFFFF AND SWAP1 POP DUP4 JUMP JUMPDEST PUSH1 0x0 DUP1 PUSH1 0x4 PUSH1 0x0 CALLER PUSH20 0xFFFFFFFFFFFFFFFFFFFFFFFFFFFFFFFFFFFFFFFF AND PUSH20 0xFFFFFFFFFFFFFFFFFFFFFFFFFFFFFFFFFFFFFFFF AND DUP2 MSTORE PUSH1 0x20 ADD SWAP1 DUP2 MSTORE PUSH1 0x20 ADD PUSH1 0x0 KECCAK256 SWAP1 POP PUSH1 0x0 JUMPDEST DUP2 DUP1 SLOAD SWAP1 POP DUP2 LT ISZERO PUSH2 0x1B83 JUMPI DUP5 DUP3 DUP3 DUP2 SLOAD DUP2 LT PUSH2 0x18FA JUMPI PUSH32 0x4E487B7100000000000000000000000000000000000000000000000000000000 PUSH1 0x0 MSTORE PUSH1 0x32 PUSH1 0x4 MSTORE PUSH1 0x24 PUSH1 0x0 REVERT JUMPDEST SWAP1 PUSH1 0x0 MSTORE PUSH1 0x20 PUSH1 0x0 KECCAK256 SWAP1 PUSH1 0x4 MUL ADD PUSH1 0x0 ADD SLOAD EQ ISZERO PUSH2 0x1B70 JUMPI PUSH1 0x0 DUP3 DUP3 DUP2 SLOAD DUP2 LT PUSH2 0x194D JUMPI PUSH32 0x4E487B7100000000000000000000000000000000000000000000000000000000 PUSH1 0x0 MSTORE PUSH1 0x32 PUSH1 0x4 MSTORE PUSH1 0x24 PUSH1 0x0 REVERT JUMPDEST SWAP1 PUSH1 0x0 MSTORE PUSH1 0x20 PUSH1 0x0 KECCAK256 SWAP1 PUSH1 0x4 MUL ADD SWAP1 POP DUP5 DUP2 PUSH1 0x2 ADD PUSH1 0x0 PUSH2 0x100 EXP DUP2 SLOAD DUP2 PUSH20 0xFFFFFFFFFFFFFFFFFFFFFFFFFFFFFFFFFFFFFFFF MUL NOT AND SWAP1 DUP4 PUSH20 0xFFFFFFFFFFFFFFFFFFFFFFFFFFFFFFFFFFFFFFFF AND MUL OR SWAP1 SSTORE POP DUP1 PUSH1 0x3 ADD DUP6 SWAP1 DUP1 PUSH1 0x1 DUP2 SLOAD ADD DUP1 DUP3 SSTORE DUP1 SWAP2 POP POP PUSH1 0x1 SWAP1 SUB SWAP1 PUSH1 0x0 MSTORE PUSH1 0x20 PUSH1 0x0 KECCAK256 ADD PUSH1 0x0 SWAP1 SWAP2 SWAP1 SWAP2 SWAP1 SWAP2 PUSH2 0x100 EXP DUP2 SLOAD DUP2 PUSH20 0xFFFFFFFFFFFFFFFFFFFFFFFFFFFFFFFFFFFFFFFF MUL NOT AND SWAP1 DUP4 PUSH20 0xFFFFFFFFFFFFFFFFFFFFFFFFFFFFFFFFFFFFFFFF AND MUL OR SWAP1 SSTORE POP PUSH1 0x4 PUSH1 0x0 DUP7 PUSH20 0xFFFFFFFFFFFFFFFFFFFFFFFFFFFFFFFFFFFFFFFF AND PUSH20 0xFFFFFFFFFFFFFFFFFFFFFFFFFFFFFFFFFFFFFFFF AND DUP2 MSTORE PUSH1 0x20 ADD SWAP1 DUP2 MSTORE PUSH1 0x20 ADD PUSH1 0x0 KECCAK256 DUP2 SWAP1 DUP1 PUSH1 0x1 DUP2 SLOAD ADD DUP1 DUP3 SSTORE DUP1 SWAP2 POP POP PUSH1 0x1 SWAP1 SUB SWAP1 PUSH1 0x0 MSTORE PUSH1 0x20 PUSH1 0x0 KECCAK256 SWAP1 PUSH1 0x4 MUL ADD PUSH1 0x0 SWAP1 SWAP2 SWAP1 SWAP2 SWAP1 SWAP2 POP PUSH1 0x0 DUP3 ADD SLOAD DUP2 PUSH1 0x0 ADD SSTORE PUSH1 0x1 DUP3 ADD DUP2 PUSH1 0x1 ADD SWAP1 DUP1 SLOAD PUSH2 0x1A8C SWAP1 PUSH2 0x2D1D JUMP JUMPDEST PUSH2 0x1A97 SWAP3 SWAP2 SWAP1 PUSH2 0x2280 JUMP JUMPDEST POP PUSH1 0x2 DUP3 ADD PUSH1 0x0 SWAP1 SLOAD SWAP1 PUSH2 0x100 EXP SWAP1 DIV PUSH20 0xFFFFFFFFFFFFFFFFFFFFFFFFFFFFFFFFFFFFFFFF AND DUP2 PUSH1 0x2 ADD PUSH1 0x0 PUSH2 0x100 EXP DUP2 SLOAD DUP2 PUSH20 0xFFFFFFFFFFFFFFFFFFFFFFFFFFFFFFFFFFFFFFFF MUL NOT AND SWAP1 DUP4 PUSH20 0xFFFFFFFFFFFFFFFFFFFFFFFFFFFFFFFFFFFFFFFF AND MUL OR SWAP1 SSTORE POP PUSH1 0x3 DUP3 ADD DUP2 PUSH1 0x3 ADD SWAP1 DUP1 SLOAD PUSH2 0x1B15 SWAP3 SWAP2 SWAP1 PUSH2 0x230D JUMP JUMPDEST POP POP POP PUSH2 0x1B22 CALLER DUP8 PUSH2 0x1F12 JUMP JUMPDEST DUP5 PUSH20 0xFFFFFFFFFFFFFFFFFFFFFFFFFFFFFFFFFFFFFFFF AND DUP7 PUSH32 0xA071C6E1AF53A60ACD8A5B2E1DB68B30800B74279783E2D4D3DDF7D371826C89 PUSH1 0x40 MLOAD PUSH1 0x40 MLOAD DUP1 SWAP2 SUB SWAP1 LOG3 PUSH1 0x1 SWAP4 POP POP PUSH2 0x1B83 JUMP JUMPDEST DUP1 DUP1 PUSH2 0x1B7B SWAP1 PUSH2 0x2D4F JUMP JUMPDEST SWAP2 POP POP PUSH2 0x18B4 JUMP JUMPDEST POP DUP2 PUSH2 0x1BC4 JUMPI PUSH1 0x40 MLOAD PUSH32 0x8C379A000000000000000000000000000000000000000000000000000000000 DUP2 MSTORE PUSH1 0x4 ADD PUSH2 0x1BBB SWAP1 PUSH2 0x2A27 JUMP JUMPDEST PUSH1 0x40 MLOAD DUP1 SWAP2 SUB SWAP1 REVERT JUMPDEST POP POP POP POP JUMP JUMPDEST PUSH1 0x0 DUP1 SLOAD SWAP1 PUSH2 0x100 EXP SWAP1 DIV PUSH20 0xFFFFFFFFFFFFFFFFFFFFFFFFFFFFFFFFFFFFFFFF AND PUSH20 0xFFFFFFFFFFFFFFFFFFFFFFFFFFFFFFFFFFFFFFFF AND CALLER PUSH20 0xFFFFFFFFFFFFFFFFFFFFFFFFFFFFFFFFFFFFFFFF AND EQ PUSH2 0x1C58 JUMPI PUSH1 0x40 MLOAD PUSH32 0x8C379A000000000000000000000000000000000000000000000000000000000 DUP2 MSTORE PUSH1 0x4 ADD PUSH2 0x1C4F SWAP1 PUSH2 0x2A47 JUMP JUMPDEST PUSH1 0x40 MLOAD DUP1 SWAP2 SUB SWAP1 REVERT JUMPDEST PUSH1 0x0 PUSH1 0x3 PUSH1 0x0 DUP5 DUP2 MSTORE PUSH1 0x20 ADD SWAP1 DUP2 MSTORE PUSH1 0x20 ADD PUSH1 0x0 KECCAK256 PUSH1 0x0 ADD SLOAD EQ ISZERO PUSH2 0x1CB2 JUMPI PUSH1 0x40 MLOAD PUSH32 0x8C379A000000000000000000000000000000000000000000000000000000000 DUP2 MSTORE PUSH1 0x4 ADD PUSH2 0x1CA9 SWAP1 PUSH2 0x2AA7 JUMP JUMPDEST PUSH1 0x40 MLOAD DUP1 SWAP2 SUB SWAP1 REVERT JUMPDEST PUSH1 0x0 PUSH1 0x3 PUSH1 0x0 DUP5 DUP2 MSTORE PUSH1 0x20 ADD SWAP1 DUP2 MSTORE PUSH1 0x20 ADD PUSH1 0x0 KECCAK256 SWAP1 POP DUP2 DUP2 PUSH1 0x2 ADD PUSH1 0x0 PUSH2 0x100 EXP DUP2 SLOAD DUP2 PUSH20 0xFFFFFFFFFFFFFFFFFFFFFFFFFFFFFFFFFFFFFFFF MUL NOT AND SWAP1 DUP4 PUSH20 0xFFFFFFFFFFFFFFFFFFFFFFFFFFFFFFFFFFFFFFFF AND MUL OR SWAP1 SSTORE POP PUSH1 0x4 PUSH1 0x0 DUP4 PUSH20 0xFFFFFFFFFFFFFFFFFFFFFFFFFFFFFFFFFFFFFFFF AND PUSH20 0xFFFFFFFFFFFFFFFFFFFFFFFFFFFFFFFFFFFFFFFF AND DUP2 MSTORE PUSH1 0x20 ADD SWAP1 DUP2 MSTORE PUSH1 0x20 ADD PUSH1 0x0 KECCAK256 DUP2 SWAP1 DUP1 PUSH1 0x1 DUP2 SLOAD ADD DUP1 DUP3 SSTORE DUP1 SWAP2 POP POP PUSH1 0x1 SWAP1 SUB SWAP1 PUSH1 0x0 MSTORE PUSH1 0x20 PUSH1 0x0 KECCAK256 SWAP1 PUSH1 0x4 MUL ADD PUSH1 0x0 SWAP1 SWAP2 SWAP1 SWAP2 SWAP1 SWAP2 POP PUSH1 0x0 DUP3 ADD SLOAD DUP2 PUSH1 0x0 ADD SSTORE PUSH1 0x1 DUP3 ADD DUP2 PUSH1 0x1 ADD SWAP1 DUP1 SLOAD PUSH2 0x1D93 SWAP1 PUSH2 0x2D1D JUMP JUMPDEST PUSH2 0x1D9E SWAP3 SWAP2 SWAP1 PUSH2 0x2280 JUMP JUMPDEST POP PUSH1 0x2 DUP3 ADD PUSH1 0x0 SWAP1 SLOAD SWAP1 PUSH2 0x100 EXP SWAP1 DIV PUSH20 0xFFFFFFFFFFFFFFFFFFFFFFFFFFFFFFFFFFFFFFFF AND DUP2 PUSH1 0x2 ADD PUSH1 0x0 PUSH2 0x100 EXP DUP2 SLOAD DUP2 PUSH20 0xFFFFFFFFFFFFFFFFFFFFFFFFFFFFFFFFFFFFFFFF MUL NOT AND SWAP1 DUP4 PUSH20 0xFFFFFFFFFFFFFFFFFFFFFFFFFFFFFFFFFFFFFFFF AND MUL OR SWAP1 SSTORE POP PUSH1 0x3 DUP3 ADD DUP2 PUSH1 0x3 ADD SWAP1 DUP1 SLOAD PUSH2 0x1E1C SWAP3 SWAP2 SWAP1 PUSH2 0x230D JUMP JUMPDEST POP POP POP DUP1 PUSH1 0x3 ADD DUP3 SWAP1 DUP1 PUSH1 0x1 DUP2 SLOAD ADD DUP1 DUP3 SSTORE DUP1 SWAP2 POP POP PUSH1 0x1 SWAP1 SUB SWAP1 PUSH1 0x0 MSTORE PUSH1 0x20 PUSH1 0x0 KECCAK256 ADD PUSH1 0x0 SWAP1 SWAP2 SWAP1 SWAP2 SWAP1 SWAP2 PUSH2 0x100 EXP DUP2 SLOAD DUP2 PUSH20 0xFFFFFFFFFFFFFFFFFFFFFFFFFFFFFFFFFFFFFFFF MUL NOT AND SWAP1 DUP4 PUSH20 0xFFFFFFFFFFFFFFFFFFFFFFFFFFFFFFFFFFFFFFFF AND MUL OR SWAP1 SSTORE POP PUSH1 0x3 PUSH1 0x0 DUP5 DUP2 MSTORE PUSH1 0x20 ADD SWAP1 DUP2 MSTORE PUSH1 0x20 ADD PUSH1 0x0 KECCAK256 PUSH1 0x0 DUP1 DUP3 ADD PUSH1 0x0 SWAP1 SSTORE PUSH1 0x1 DUP3 ADD PUSH1 0x0 PUSH2 0x1EB0 SWAP2 SWAP1 PUSH2 0x235F JUMP JUMPDEST PUSH1 0x2 DUP3 ADD PUSH1 0x0 PUSH2 0x100 EXP DUP2 SLOAD SWAP1 PUSH20 0xFFFFFFFFFFFFFFFFFFFFFFFFFFFFFFFFFFFFFFFF MUL NOT AND SWAP1 SSTORE PUSH1 0x3 DUP3 ADD PUSH1 0x0 PUSH2 0x1EE7 SWAP2 SWAP1 PUSH2 0x239F JUMP JUMPDEST POP POP POP POP POP JUMP JUMPDEST PUSH1 0x0 DUP1 SLOAD SWAP1 PUSH2 0x100 EXP SWAP1 DIV PUSH20 0xFFFFFFFFFFFFFFFFFFFFFFFFFFFFFFFFFFFFFFFF AND DUP2 JUMP JUMPDEST PUSH1 0x0 PUSH1 0x4 PUSH1 0x0 DUP5 PUSH20 0xFFFFFFFFFFFFFFFFFFFFFFFFFFFFFFFFFFFFFFFF AND PUSH20 0xFFFFFFFFFFFFFFFFFFFFFFFFFFFFFFFFFFFFFFFF AND DUP2 MSTORE PUSH1 0x20 ADD SWAP1 DUP2 MSTORE PUSH1 0x20 ADD PUSH1 0x0 KECCAK256 SWAP1 POP PUSH1 0x0 JUMPDEST DUP2 DUP1 SLOAD SWAP1 POP DUP2 LT ISZERO PUSH2 0x21B6 JUMPI DUP3 DUP3 DUP3 DUP2 SLOAD DUP2 LT PUSH2 0x1F9E JUMPI PUSH32 0x4E487B7100000000000000000000000000000000000000000000000000000000 PUSH1 0x0 MSTORE PUSH1 0x32 PUSH1 0x4 MSTORE PUSH1 0x24 PUSH1 0x0 REVERT JUMPDEST SWAP1 PUSH1 0x0 MSTORE PUSH1 0x20 PUSH1 0x0 KECCAK256 SWAP1 PUSH1 0x4 MUL ADD PUSH1 0x0 ADD SLOAD EQ ISZERO PUSH2 0x21A3 JUMPI DUP2 PUSH1 0x1 DUP4 DUP1 SLOAD SWAP1 POP PUSH2 0x1FC8 SWAP2 SWAP1 PUSH2 0x2C5F JUMP JUMPDEST DUP2 SLOAD DUP2 LT PUSH2 0x1FFF JUMPI PUSH32 0x4E487B7100000000000000000000000000000000000000000000000000000000 PUSH1 0x0 MSTORE PUSH1 0x32 PUSH1 0x4 MSTORE PUSH1 0x24 PUSH1 0x0 REVERT JUMPDEST SWAP1 PUSH1 0x0 MSTORE PUSH1 0x20 PUSH1 0x0 KECCAK256 SWAP1 PUSH1 0x4 MUL ADD DUP3 DUP3 DUP2 SLOAD DUP2 LT PUSH2 0x2046 JUMPI PUSH32 0x4E487B7100000000000000000000000000000000000000000000000000000000 PUSH1 0x0 MSTORE PUSH1 0x32 PUSH1 0x4 MSTORE PUSH1 0x24 PUSH1 0x0 REVERT JUMPDEST SWAP1 PUSH1 0x0 MSTORE PUSH1 0x20 PUSH1 0x0 KECCAK256 SWAP1 PUSH1 0x4 MUL ADD PUSH1 0x0 DUP3 ADD SLOAD DUP2 PUSH1 0x0 ADD SSTORE PUSH1 0x1 DUP3 ADD DUP2 PUSH1 0x1 ADD SWAP1 DUP1 SLOAD PUSH2 0x2072 SWAP1 PUSH2 0x2D1D JUMP JUMPDEST PUSH2 0x207D SWAP3 SWAP2 SWAP1 PUSH2 0x2280 JUMP JUMPDEST POP PUSH1 0x2 DUP3 ADD PUSH1 0x0 SWAP1 SLOAD SWAP1 PUSH2 0x100 EXP SWAP1 DIV PUSH20 0xFFFFFFFFFFFFFFFFFFFFFFFFFFFFFFFFFFFFFFFF AND DUP2 PUSH1 0x2 ADD PUSH1 0x0 PUSH2 0x100 EXP DUP2 SLOAD DUP2 PUSH20 0xFFFFFFFFFFFFFFFFFFFFFFFFFFFFFFFFFFFFFFFF MUL NOT AND SWAP1 DUP4 PUSH20 0xFFFFFFFFFFFFFFFFFFFFFFFFFFFFFFFFFFFFFFFF AND MUL OR SWAP1 SSTORE POP PUSH1 0x3 DUP3 ADD DUP2 PUSH1 0x3 ADD SWAP1 DUP1 SLOAD PUSH2 0x20FB SWAP3 SWAP2 SWAP1 PUSH2 0x230D JUMP JUMPDEST POP SWAP1 POP POP DUP2 DUP1 SLOAD DUP1 PUSH2 0x2136 JUMPI PUSH32 0x4E487B7100000000000000000000000000000000000000000000000000000000 PUSH1 0x0 MSTORE PUSH1 0x31 PUSH1 0x4 MSTORE PUSH1 0x24 PUSH1 0x0 REVERT JUMPDEST PUSH1 0x1 SWAP1 SUB DUP2 DUP2 SWAP1 PUSH1 0x0 MSTORE PUSH1 0x20 PUSH1 0x0 KECCAK256 SWAP1 PUSH1 0x4 MUL ADD PUSH1 0x0 DUP1 DUP3 ADD PUSH1 0x0 SWAP1 SSTORE PUSH1 0x1 DUP3 ADD PUSH1 0x0 PUSH2 0x2163 SWAP2 SWAP1 PUSH2 0x235F JUMP JUMPDEST PUSH1 0x2 DUP3 ADD PUSH1 0x0 PUSH2 0x100 EXP DUP2 SLOAD SWAP1 PUSH20 0xFFFFFFFFFFFFFFFFFFFFFFFFFFFFFFFFFFFFFFFF MUL NOT AND SWAP1 SSTORE PUSH1 0x3 DUP3 ADD PUSH1 0x0 PUSH2 0x219A SWAP2 SWAP1 PUSH2 0x239F JUMP JUMPDEST POP POP SWAP1 SSTORE PUSH2 0x21B6 JUMP JUMPDEST DUP1 DUP1 PUSH2 0x21AE SWAP1 PUSH2 0x2D4F JUMP JUMPDEST SWAP2 POP POP PUSH2 0x1F58 JUMP JUMPDEST POP POP POP POP JUMP JUMPDEST DUP3 DUP1 SLOAD PUSH2 0x21C8 SWAP1 PUSH2 0x2D1D JUMP JUMPDEST SWAP1 PUSH1 0x0 MSTORE PUSH1 0x20 PUSH1 0x0 KECCAK256 SWAP1 PUSH1 0x1F ADD PUSH1 0x20 SWAP1 DIV DUP2 ADD SWAP3 DUP3 PUSH2 0x21EA JUMPI PUSH1 0x0 DUP6 SSTORE PUSH2 0x2231 JUMP JUMPDEST DUP3 PUSH1 0x1F LT PUSH2 0x2203 JUMPI DUP1 MLOAD PUSH1 0xFF NOT AND DUP4 DUP1 ADD OR DUP6 SSTORE PUSH2 0x2231 JUMP JUMPDEST DUP3 DUP1 ADD PUSH1 0x1 ADD DUP6 SSTORE DUP3 ISZERO PUSH2 0x2231 JUMPI SWAP2 DUP3 ADD JUMPDEST DUP3 DUP2 GT ISZERO PUSH2 0x2230 JUMPI DUP3 MLOAD DUP3 SSTORE SWAP2 PUSH1 0x20 ADD SWAP2 SWAP1 PUSH1 0x1 ADD SWAP1 PUSH2 0x2215 JUMP JUMPDEST JUMPDEST POP SWAP1 POP PUSH2 0x223E SWAP2 SWAP1 PUSH2 0x23C0 JUMP JUMPDEST POP SWAP1 JUMP JUMPDEST PUSH1 0x40 MLOAD DUP1 PUSH1 0x80 ADD PUSH1 0x40 MSTORE DUP1 PUSH1 0x0 DUP2 MSTORE PUSH1 0x20 ADD PUSH1 0x60 DUP2 MSTORE PUSH1 0x20 ADD PUSH1 0x0 PUSH20 0xFFFFFFFFFFFFFFFFFFFFFFFFFFFFFFFFFFFFFFFF AND DUP2 MSTORE PUSH1 0x20 ADD PUSH1 0x60 DUP2 MSTORE POP SWAP1 JUMP JUMPDEST DUP3 DUP1 SLOAD PUSH2 0x228C SWAP1 PUSH2 0x2D1D JUMP JUMPDEST SWAP1 PUSH1 0x0 MSTORE PUSH1 0x20 PUSH1 0x0 KECCAK256 SWAP1 PUSH1 0x1F ADD PUSH1 0x20 SWAP1 DIV DUP2 ADD SWAP3 DUP3 PUSH2 0x22AE JUMPI PUSH1 0x0 DUP6 SSTORE PUSH2 0x22FC JUMP JUMPDEST DUP3 PUSH1 0x1F LT PUSH2 0x22BF JUMPI DUP1 SLOAD DUP6 SSTORE PUSH2 0x22FC JUMP JUMPDEST DUP3 DUP1 ADD PUSH1 0x1 ADD DUP6 SSTORE DUP3 ISZERO PUSH2 0x22FC JUMPI PUSH1 0x0 MSTORE PUSH1 0x20 PUSH1 0x0 KECCAK256 SWAP2 PUSH1 0x1F ADD PUSH1 0x20 SWAP1 DIV DUP3 ADD JUMPDEST DUP3 DUP2 GT ISZERO PUSH2 0x22FB JUMPI DUP3 SLOAD DUP3 SSTORE SWAP2 PUSH1 0x1 ADD SWAP2 SWAP1 PUSH1 0x1 ADD SWAP1 PUSH2 0x22E0 JUMP JUMPDEST JUMPDEST POP SWAP1 POP PUSH2 0x2309 SWAP2 SWAP1 PUSH2 0x23C0 JUMP JUMPDEST POP SWAP1 JUMP JUMPDEST DUP3 DUP1 SLOAD DUP3 DUP3 SSTORE SWAP1 PUSH1 0x0 MSTORE PUSH1 0x20 PUSH1 0x0 KECCAK256 SWAP1 DUP2 ADD SWAP3 DUP3 ISZERO PUSH2 0x234E JUMPI PUSH1 0x0 MSTORE PUSH1 0x20 PUSH1 0x0 KECCAK256 SWAP2 DUP3 ADD JUMPDEST DUP3 DUP2 GT ISZERO PUSH2 0x234D JUMPI DUP3 SLOAD DUP3 SSTORE SWAP2 PUSH1 0x1 ADD SWAP2 SWAP1 PUSH1 0x1 ADD SWAP1 PUSH2 0x2332 JUMP JUMPDEST JUMPDEST POP SWAP1 POP PUSH2 0x235B SWAP2 SWAP1 PUSH2 0x23C0 JUMP JUMPDEST POP SWAP1 JUMP JUMPDEST POP DUP1 SLOAD PUSH2 0x236B SWAP1 PUSH2 0x2D1D JUMP JUMPDEST PUSH1 0x0 DUP3 SSTORE DUP1 PUSH1 0x1F LT PUSH2 0x237D JUMPI POP PUSH2 0x239C JUMP JUMPDEST PUSH1 0x1F ADD PUSH1 0x20 SWAP1 DIV SWAP1 PUSH1 0x0 MSTORE PUSH1 0x20 PUSH1 0x0 KECCAK256 SWAP1 DUP2 ADD SWAP1 PUSH2 0x239B SWAP2 SWAP1 PUSH2 0x23C0 JUMP JUMPDEST JUMPDEST POP JUMP JUMPDEST POP DUP1 SLOAD PUSH1 0x0 DUP3 SSTORE SWAP1 PUSH1 0x0 MSTORE PUSH1 0x20 PUSH1 0x0 KECCAK256 SWAP1 DUP2 ADD SWAP1 PUSH2 0x23BD SWAP2 SWAP1 PUSH2 0x23C0 JUMP JUMPDEST POP JUMP JUMPDEST JUMPDEST DUP1 DUP3 GT ISZERO PUSH2 0x23D9 JUMPI PUSH1 0x0 DUP2 PUSH1 0x0 SWAP1 SSTORE POP PUSH1 0x1 ADD PUSH2 0x23C1 JUMP JUMPDEST POP SWAP1 JUMP JUMPDEST PUSH1 0x0 PUSH2 0x23F0 PUSH2 0x23EB DUP5 PUSH2 0x2BA3 JUMP JUMPDEST PUSH2 0x2B72 JUMP JUMPDEST SWAP1 POP DUP3 DUP2 MSTORE PUSH1 0x20 DUP2 ADD DUP5 DUP5 DUP5 ADD GT ISZERO PUSH2 0x2408 JUMPI PUSH1 0x0 DUP1 REVERT JUMPDEST PUSH2 0x2413 DUP5 DUP3 DUP6 PUSH2 0x2CDB JUMP JUMPDEST POP SWAP4 SWAP3 POP POP POP JUMP JUMPDEST PUSH1 0x0 DUP2 CALLDATALOAD SWAP1 POP PUSH2 0x242A DUP2 PUSH2 0x2E36 JUMP JUMPDEST SWAP3 SWAP2 POP POP JUMP JUMPDEST PUSH1 0x0 DUP3 PUSH1 0x1F DUP4 ADD SLT PUSH2 0x2441 JUMPI PUSH1 0x0 DUP1 REVERT JUMPDEST DUP2 CALLDATALOAD PUSH2 0x2451 DUP5 DUP3 PUSH1 0x20 DUP7 ADD PUSH2 0x23DD JUMP JUMPDEST SWAP2 POP POP SWAP3 SWAP2 POP POP JUMP JUMPDEST PUSH1 0x0 DUP2 CALLDATALOAD SWAP1 POP PUSH2 0x2469 DUP2 PUSH2 0x2E4D JUMP JUMPDEST SWAP3 SWAP2 POP POP JUMP JUMPDEST PUSH1 0x0 DUP1 PUSH1 0x40 DUP4 DUP6 SUB SLT ISZERO PUSH2 0x2482 JUMPI PUSH1 0x0 DUP1 REVERT JUMPDEST PUSH1 0x0 PUSH2 0x2490 DUP6 DUP3 DUP7 ADD PUSH2 0x241B JUMP JUMPDEST SWAP3 POP POP PUSH1 0x20 PUSH2 0x24A1 DUP6 DUP3 DUP7 ADD PUSH2 0x245A JUMP JUMPDEST SWAP2 POP POP SWAP3 POP SWAP3 SWAP1 POP JUMP JUMPDEST PUSH1 0x0 PUSH1 0x20 DUP3 DUP5 SUB SLT ISZERO PUSH2 0x24BD JUMPI PUSH1 0x0 DUP1 REVERT JUMPDEST PUSH1 0x0 DUP3 ADD CALLDATALOAD PUSH8 0xFFFFFFFFFFFFFFFF DUP2 GT ISZERO PUSH2 0x24D7 JUMPI PUSH1 0x0 DUP1 REVERT JUMPDEST PUSH2 0x24E3 DUP5 DUP3 DUP6 ADD PUSH2 0x2430 JUMP JUMPDEST SWAP2 POP POP SWAP3 SWAP2 POP POP JUMP JUMPDEST PUSH1 0x0 PUSH1 0x20 DUP3 DUP5 SUB SLT ISZERO PUSH2 0x24FE JUMPI PUSH1 0x0 DUP1 REVERT JUMPDEST PUSH1 0x0 PUSH2 0x250C DUP5 DUP3 DUP6 ADD PUSH2 0x245A JUMP JUMPDEST SWAP2 POP POP SWAP3 SWAP2 POP POP JUMP JUMPDEST PUSH1 0x0 DUP1 PUSH1 0x40 DUP4 DUP6 SUB SLT ISZERO PUSH2 0x2528 JUMPI PUSH1 0x0 DUP1 REVERT JUMPDEST PUSH1 0x0 PUSH2 0x2536 DUP6 DUP3 DUP7 ADD PUSH2 0x245A JUMP JUMPDEST SWAP3 POP POP PUSH1 0x20 PUSH2 0x2547 DUP6 DUP3 DUP7 ADD PUSH2 0x241B JUMP JUMPDEST SWAP2 POP POP SWAP3 POP SWAP3 SWAP1 POP JUMP JUMPDEST PUSH1 0x0 DUP1 PUSH1 0x40 DUP4 DUP6 SUB SLT ISZERO PUSH2 0x2564 JUMPI PUSH1 0x0 DUP1 REVERT JUMPDEST PUSH1 0x0 PUSH2 0x2572 DUP6 DUP3 DUP7 ADD PUSH2 0x245A JUMP JUMPDEST SWAP3 POP POP PUSH1 0x20 DUP4 ADD CALLDATALOAD PUSH8 0xFFFFFFFFFFFFFFFF DUP2 GT ISZERO PUSH2 0x258F JUMPI PUSH1 0x0 DUP1 REVERT JUMPDEST PUSH2 0x259B DUP6 DUP3 DUP7 ADD PUSH2 0x2430 JUMP JUMPDEST SWAP2 POP POP SWAP3 POP SWAP3 SWAP1 POP JUMP JUMPDEST PUSH1 0x0 PUSH2 0x25B1 DUP4 DUP4 PUSH2 0x25BD JUMP JUMPDEST PUSH1 0x20 DUP4 ADD SWAP1 POP SWAP3 SWAP2 POP POP JUMP JUMPDEST PUSH2 0x25C6 DUP2 PUSH2 0x2C93 JUMP JUMPDEST DUP3 MSTORE POP POP JUMP JUMPDEST PUSH2 0x25D5 DUP2 PUSH2 0x2C93 JUMP JUMPDEST DUP3 MSTORE POP POP JUMP JUMPDEST PUSH1 0x0 PUSH2 0x25E6 DUP3 PUSH2 0x2BF8 JUMP JUMPDEST PUSH2 0x25F0 DUP2 DUP6 PUSH2 0x2C1B JUMP JUMPDEST SWAP4 POP PUSH2 0x25FB DUP4 PUSH2 0x2BD3 JUMP JUMPDEST DUP1 PUSH1 0x0 JUMPDEST DUP4 DUP2 LT ISZERO PUSH2 0x262C JUMPI DUP2 MLOAD PUSH2 0x2613 DUP9 DUP3 PUSH2 0x25A5 JUMP JUMPDEST SWAP8 POP PUSH2 0x261E DUP4 PUSH2 0x2C0E JUMP JUMPDEST SWAP3 POP POP PUSH1 0x1 DUP2 ADD SWAP1 POP PUSH2 0x25FF JUMP JUMPDEST POP DUP6 SWAP4 POP POP POP POP SWAP3 SWAP2 POP POP JUMP JUMPDEST PUSH1 0x0 PUSH2 0x2644 DUP3 PUSH2 0x2BF8 JUMP JUMPDEST PUSH2 0x264E DUP2 DUP6 PUSH2 0x2C2C JUMP JUMPDEST SWAP4 POP PUSH2 0x2659 DUP4 PUSH2 0x2BD3 JUMP JUMPDEST DUP1 PUSH1 0x0 JUMPDEST DUP4 DUP2 LT ISZERO PUSH2 0x268A JUMPI DUP2 MLOAD PUSH2 0x2671 DUP9 DUP3 PUSH2 0x25A5 JUMP JUMPDEST SWAP8 POP PUSH2 0x267C DUP4 PUSH2 0x2C0E JUMP JUMPDEST SWAP3 POP POP PUSH1 0x1 DUP2 ADD SWAP1 POP PUSH2 0x265D JUMP JUMPDEST POP DUP6 SWAP4 POP POP POP POP SWAP3 SWAP2 POP POP JUMP JUMPDEST PUSH2 0x26A0 DUP2 PUSH2 0x2CA5 JUMP JUMPDEST DUP3 MSTORE POP POP JUMP JUMPDEST PUSH1 0x0 PUSH2 0x26B1 DUP3 PUSH2 0x2C03 JUMP JUMPDEST PUSH2 0x26BB DUP2 DUP6 PUSH2 0x2C3D JUMP JUMPDEST SWAP4 POP PUSH2 0x26CB DUP2 DUP6 PUSH1 0x20 DUP7 ADD PUSH2 0x2CEA JUMP JUMPDEST PUSH2 0x26D4 DUP2 PUSH2 0x2E25 JUMP JUMPDEST DUP5 ADD SWAP2 POP POP SWAP3 SWAP2 POP POP JUMP JUMPDEST PUSH1 0x0 PUSH2 0x26EA DUP3 PUSH2 0x2C03 JUMP JUMPDEST PUSH2 0x26F4 DUP2 DUP6 PUSH2 0x2C4E JUMP JUMPDEST SWAP4 POP PUSH2 0x2704 DUP2 DUP6 PUSH1 0x20 DUP7 ADD PUSH2 0x2CEA JUMP JUMPDEST PUSH2 0x270D DUP2 PUSH2 0x2E25 JUMP JUMPDEST DUP5 ADD SWAP2 POP POP SWAP3 SWAP2 POP POP JUMP JUMPDEST PUSH1 0x0 DUP2 SLOAD PUSH2 0x2725 DUP2 PUSH2 0x2D1D JUMP JUMPDEST PUSH2 0x272F DUP2 DUP7 PUSH2 0x2C4E JUMP JUMPDEST SWAP5 POP PUSH1 0x1 DUP3 AND PUSH1 0x0 DUP2 EQ PUSH2 0x274A JUMPI PUSH1 0x1 DUP2 EQ PUSH2 0x275C JUMPI PUSH2 0x278F JUMP JUMPDEST PUSH1 0xFF NOT DUP4 AND DUP7 MSTORE PUSH1 0x20 DUP7 ADD SWAP4 POP PUSH2 0x278F JUMP JUMPDEST PUSH2 0x2765 DUP6 PUSH2 0x2BE3 JUMP JUMPDEST PUSH1 0x0 JUMPDEST DUP4 DUP2 LT ISZERO PUSH2 0x2787 JUMPI DUP2 SLOAD DUP2 DUP10 ADD MSTORE PUSH1 0x1 DUP3 ADD SWAP2 POP PUSH1 0x20 DUP2 ADD SWAP1 POP PUSH2 0x2768 JUMP JUMPDEST DUP1 DUP9 ADD SWAP6 POP POP POP JUMPDEST POP POP POP SWAP3 SWAP2 POP POP JUMP JUMPDEST PUSH1 0x0 PUSH2 0x27A5 PUSH1 0x25 DUP4 PUSH2 0x2C4E JUMP JUMPDEST SWAP2 POP PUSH32 0x4D656873756C2069737469666164656369206465706F73756E64612074617069 PUSH1 0x0 DUP4 ADD MSTORE PUSH32 0x6C6D616469000000000000000000000000000000000000000000000000000000 PUSH1 0x20 DUP4 ADD MSTORE PUSH1 0x40 DUP3 ADD SWAP1 POP SWAP2 SWAP1 POP JUMP JUMPDEST PUSH1 0x0 PUSH2 0x280B PUSH1 0x24 DUP4 PUSH2 0x2C4E JUMP JUMPDEST SWAP2 POP PUSH32 0x59616C6E697A2061646D696E20627520656D656C697979617469206564652062 PUSH1 0x0 DUP4 ADD MSTORE PUSH32 0x696C657200000000000000000000000000000000000000000000000000000000 PUSH1 0x20 DUP4 ADD MSTORE PUSH1 0x40 DUP3 ADD SWAP1 POP SWAP2 SWAP1 POP JUMP JUMPDEST PUSH1 0x0 PUSH2 0x2871 PUSH1 0x15 DUP4 PUSH2 0x2C4E JUMP JUMPDEST SWAP2 POP PUSH32 0x427520696E646578206D6F7663756420646579696C0000000000000000000000 PUSH1 0x0 DUP4 ADD MSTORE PUSH1 0x20 DUP3 ADD SWAP1 POP SWAP2 SWAP1 POP JUMP JUMPDEST PUSH1 0x0 PUSH2 0x28B1 PUSH1 0x10 DUP4 PUSH2 0x2C4E JUMP JUMPDEST SWAP2 POP PUSH32 0x4D656873756C20746170696C6D61646900000000000000000000000000000000 PUSH1 0x0 DUP4 ADD MSTORE PUSH1 0x20 DUP3 ADD SWAP1 POP SWAP2 SWAP1 POP JUMP JUMPDEST PUSH1 0x0 PUSH2 0x28F1 PUSH1 0x1F DUP4 PUSH2 0x2C4E JUMP JUMPDEST SWAP2 POP PUSH32 0x4D656873756C20756D756D696465706F6461206D6F7663756420646579696C00 PUSH1 0x0 DUP4 ADD MSTORE PUSH1 0x20 DUP3 ADD SWAP1 POP SWAP2 SWAP1 POP JUMP JUMPDEST PUSH1 0x0 PUSH1 0x80 DUP4 ADD PUSH1 0x0 DUP4 ADD MLOAD PUSH2 0x293C PUSH1 0x0 DUP7 ADD DUP3 PUSH2 0x298E JUMP JUMPDEST POP PUSH1 0x20 DUP4 ADD MLOAD DUP5 DUP3 SUB PUSH1 0x20 DUP7 ADD MSTORE PUSH2 0x2954 DUP3 DUP3 PUSH2 0x26A6 JUMP JUMPDEST SWAP2 POP POP PUSH1 0x40 DUP4 ADD MLOAD PUSH2 0x2969 PUSH1 0x40 DUP7 ADD DUP3 PUSH2 0x25BD JUMP JUMPDEST POP PUSH1 0x60 DUP4 ADD MLOAD DUP5 DUP3 SUB PUSH1 0x60 DUP7 ADD MSTORE PUSH2 0x2981 DUP3 DUP3 PUSH2 0x25DB JUMP JUMPDEST SWAP2 POP POP DUP1 SWAP2 POP POP SWAP3 SWAP2 POP POP JUMP JUMPDEST PUSH2 0x2997 DUP2 PUSH2 0x2CD1 JUMP JUMPDEST DUP3 MSTORE POP POP JUMP JUMPDEST PUSH2 0x29A6 DUP2 PUSH2 0x2CD1 JUMP JUMPDEST DUP3 MSTORE POP POP JUMP JUMPDEST PUSH1 0x0 PUSH1 0x20 DUP3 ADD SWAP1 POP PUSH2 0x29C1 PUSH1 0x0 DUP4 ADD DUP5 PUSH2 0x25CC JUMP JUMPDEST SWAP3 SWAP2 POP POP JUMP JUMPDEST PUSH1 0x0 PUSH1 0x20 DUP3 ADD SWAP1 POP DUP2 DUP2 SUB PUSH1 0x0 DUP4 ADD MSTORE PUSH2 0x29E1 DUP2 DUP5 PUSH2 0x2639 JUMP JUMPDEST SWAP1 POP SWAP3 SWAP2 POP POP JUMP JUMPDEST PUSH1 0x0 PUSH1 0x60 DUP3 ADD SWAP1 POP DUP2 DUP2 SUB PUSH1 0x0 DUP4 ADD MSTORE PUSH2 0x2A03 DUP2 DUP7 PUSH2 0x26DF JUMP JUMPDEST SWAP1 POP PUSH2 0x2A12 PUSH1 0x20 DUP4 ADD DUP6 PUSH2 0x25CC JUMP JUMPDEST PUSH2 0x2A1F PUSH1 0x40 DUP4 ADD DUP5 PUSH2 0x2697 JUMP JUMPDEST SWAP5 SWAP4 POP POP POP POP JUMP JUMPDEST PUSH1 0x0 PUSH1 0x20 DUP3 ADD SWAP1 POP DUP2 DUP2 SUB PUSH1 0x0 DUP4 ADD MSTORE PUSH2 0x2A40 DUP2 PUSH2 0x2798 JUMP JUMPDEST SWAP1 POP SWAP2 SWAP1 POP JUMP JUMPDEST PUSH1 0x0 PUSH1 0x20 DUP3 ADD SWAP1 POP DUP2 DUP2 SUB PUSH1 0x0 DUP4 ADD MSTORE PUSH2 0x2A60 DUP2 PUSH2 0x27FE JUMP JUMPDEST SWAP1 POP SWAP2 SWAP1 POP JUMP JUMPDEST PUSH1 0x0 PUSH1 0x20 DUP3 ADD SWAP1 POP DUP2 DUP2 SUB PUSH1 0x0 DUP4 ADD MSTORE PUSH2 0x2A80 DUP2 PUSH2 0x2864 JUMP JUMPDEST SWAP1 POP SWAP2 SWAP1 POP JUMP JUMPDEST PUSH1 0x0 PUSH1 0x20 DUP3 ADD SWAP1 POP DUP2 DUP2 SUB PUSH1 0x0 DUP4 ADD MSTORE PUSH2 0x2AA0 DUP2 PUSH2 0x28A4 JUMP JUMPDEST SWAP1 POP SWAP2 SWAP1 POP JUMP JUMPDEST PUSH1 0x0 PUSH1 0x20 DUP3 ADD SWAP1 POP DUP2 DUP2 SUB PUSH1 0x0 DUP4 ADD MSTORE PUSH2 0x2AC0 DUP2 PUSH2 0x28E4 JUMP JUMPDEST SWAP1 POP SWAP2 SWAP1 POP JUMP JUMPDEST PUSH1 0x0 PUSH1 0x20 DUP3 ADD SWAP1 POP DUP2 DUP2 SUB PUSH1 0x0 DUP4 ADD MSTORE PUSH2 0x2AE1 DUP2 DUP5 PUSH2 0x2924 JUMP JUMPDEST SWAP1 POP SWAP3 SWAP2 POP POP JUMP JUMPDEST PUSH1 0x0 PUSH1 0x20 DUP3 ADD SWAP1 POP PUSH2 0x2AFE PUSH1 0x0 DUP4 ADD DUP5 PUSH2 0x299D JUMP JUMPDEST SWAP3 SWAP2 POP POP JUMP JUMPDEST PUSH1 0x0 PUSH1 0x60 DUP3 ADD SWAP1 POP PUSH2 0x2B19 PUSH1 0x0 DUP4 ADD DUP7 PUSH2 0x299D JUMP JUMPDEST DUP2 DUP2 SUB PUSH1 0x20 DUP4 ADD MSTORE PUSH2 0x2B2B DUP2 DUP6 PUSH2 0x26DF JUMP JUMPDEST SWAP1 POP PUSH2 0x2B3A PUSH1 0x40 DUP4 ADD DUP5 PUSH2 0x25CC JUMP JUMPDEST SWAP5 SWAP4 POP POP POP POP JUMP JUMPDEST PUSH1 0x0 PUSH1 0x40 DUP3 ADD SWAP1 POP PUSH2 0x2B57 PUSH1 0x0 DUP4 ADD DUP6 PUSH2 0x299D JUMP JUMPDEST DUP2 DUP2 SUB PUSH1 0x20 DUP4 ADD MSTORE PUSH2 0x2B69 DUP2 DUP5 PUSH2 0x2718 JUMP JUMPDEST SWAP1 POP SWAP4 SWAP3 POP POP POP JUMP JUMPDEST PUSH1 0x0 PUSH1 0x40 MLOAD SWAP1 POP DUP2 DUP2 ADD DUP2 DUP2 LT PUSH8 0xFFFFFFFFFFFFFFFF DUP3 GT OR ISZERO PUSH2 0x2B99 JUMPI PUSH2 0x2B98 PUSH2 0x2DF6 JUMP JUMPDEST JUMPDEST DUP1 PUSH1 0x40 MSTORE POP SWAP2 SWAP1 POP JUMP JUMPDEST PUSH1 0x0 PUSH8 0xFFFFFFFFFFFFFFFF DUP3 GT ISZERO PUSH2 0x2BBE JUMPI PUSH2 0x2BBD PUSH2 0x2DF6 JUMP JUMPDEST JUMPDEST PUSH1 0x1F NOT PUSH1 0x1F DUP4 ADD AND SWAP1 POP PUSH1 0x20 DUP2 ADD SWAP1 POP SWAP2 SWAP1 POP JUMP JUMPDEST PUSH1 0x0 DUP2 SWAP1 POP PUSH1 0x20 DUP3 ADD SWAP1 POP SWAP2 SWAP1 POP JUMP JUMPDEST PUSH1 0x0 DUP2 SWAP1 POP DUP2 PUSH1 0x0 MSTORE PUSH1 0x20 PUSH1 0x0 KECCAK256 SWAP1 POP SWAP2 SWAP1 POP JUMP JUMPDEST PUSH1 0x0 DUP2 MLOAD SWAP1 POP SWAP2 SWAP1 POP JUMP JUMPDEST PUSH1 0x0 DUP2 MLOAD SWAP1 POP SWAP2 SWAP1 POP JUMP JUMPDEST PUSH1 0x0 PUSH1 0x20 DUP3 ADD SWAP1 POP SWAP2 SWAP1 POP JUMP JUMPDEST PUSH1 0x0 DUP3 DUP3 MSTORE PUSH1 0x20 DUP3 ADD SWAP1 POP SWAP3 SWAP2 POP POP JUMP JUMPDEST PUSH1 0x0 DUP3 DUP3 MSTORE PUSH1 0x20 DUP3 ADD SWAP1 POP SWAP3 SWAP2 POP POP JUMP JUMPDEST PUSH1 0x0 DUP3 DUP3 MSTORE PUSH1 0x20 DUP3 ADD SWAP1 POP SWAP3 SWAP2 POP POP JUMP JUMPDEST PUSH1 0x0 DUP3 DUP3 MSTORE PUSH1 0x20 DUP3 ADD SWAP1 POP SWAP3 SWAP2 POP POP JUMP JUMPDEST PUSH1 0x0 PUSH2 0x2C6A DUP3 PUSH2 0x2CD1 JUMP JUMPDEST SWAP2 POP PUSH2 0x2C75 DUP4 PUSH2 0x2CD1 JUMP JUMPDEST SWAP3 POP DUP3 DUP3 LT ISZERO PUSH2 0x2C88 JUMPI PUSH2 0x2C87 PUSH2 0x2D98 JUMP JUMPDEST JUMPDEST DUP3 DUP3 SUB SWAP1 POP SWAP3 SWAP2 POP POP JUMP JUMPDEST PUSH1 0x0 PUSH2 0x2C9E DUP3 PUSH2 0x2CB1 JUMP JUMPDEST SWAP1 POP SWAP2 SWAP1 POP JUMP JUMPDEST PUSH1 0x0 DUP2 ISZERO ISZERO SWAP1 POP SWAP2 SWAP1 POP JUMP JUMPDEST PUSH1 0x0 PUSH20 0xFFFFFFFFFFFFFFFFFFFFFFFFFFFFFFFFFFFFFFFF DUP3 AND SWAP1 POP SWAP2 SWAP1 POP JUMP JUMPDEST PUSH1 0x0 DUP2 SWAP1 POP SWAP2 SWAP1 POP JUMP JUMPDEST DUP3 DUP2 DUP4 CALLDATACOPY PUSH1 0x0 DUP4 DUP4 ADD MSTORE POP POP POP JUMP JUMPDEST PUSH1 0x0 JUMPDEST DUP4 DUP2 LT ISZERO PUSH2 0x2D08 JUMPI DUP1 DUP3 ADD MLOAD DUP2 DUP5 ADD MSTORE PUSH1 0x20 DUP2 ADD SWAP1 POP PUSH2 0x2CED JUMP JUMPDEST DUP4 DUP2 GT ISZERO PUSH2 0x2D17 JUMPI PUSH1 0x0 DUP5 DUP5 ADD MSTORE JUMPDEST POP POP POP POP JUMP JUMPDEST PUSH1 0x0 PUSH1 0x2 DUP3 DIV SWAP1 POP PUSH1 0x1 DUP3 AND DUP1 PUSH2 0x2D35 JUMPI PUSH1 0x7F DUP3 AND SWAP2 POP JUMPDEST PUSH1 0x20 DUP3 LT DUP2 EQ ISZERO PUSH2 0x2D49 JUMPI PUSH2 0x2D48 PUSH2 0x2DC7 JUMP JUMPDEST JUMPDEST POP SWAP2 SWAP1 POP JUMP JUMPDEST PUSH1 0x0 PUSH2 0x2D5A DUP3 PUSH2 0x2CD1 JUMP JUMPDEST SWAP2 POP PUSH32 0xFFFFFFFFFFFFFFFFFFFFFFFFFFFFFFFFFFFFFFFFFFFFFFFFFFFFFFFFFFFFFFFF DUP3 EQ ISZERO PUSH2 0x2D8D JUMPI PUSH2 0x2D8C PUSH2 0x2D98 JUMP JUMPDEST JUMPDEST PUSH1 0x1 DUP3 ADD SWAP1 POP SWAP2 SWAP1 POP JUMP JUMPDEST PUSH32 0x4E487B7100000000000000000000000000000000000000000000000000000000 PUSH1 0x0 MSTORE PUSH1 0x11 PUSH1 0x4 MSTORE PUSH1 0x24 PUSH1 0x0 REVERT JUMPDEST PUSH32 0x4E487B7100000000000000000000000000000000000000000000000000000000 PUSH1 0x0 MSTORE PUSH1 0x22 PUSH1 0x4 MSTORE PUSH1 0x24 PUSH1 0x0 REVERT JUMPDEST PUSH32 0x4E487B7100000000000000000000000000000000000000000000000000000000 PUSH1 0x0 MSTORE PUSH1 0x41 PUSH1 0x4 MSTORE PUSH1 0x24 PUSH1 0x0 REVERT JUMPDEST PUSH1 0x0 PUSH1 0x1F NOT PUSH1 0x1F DUP4 ADD AND SWAP1 POP SWAP2 SWAP1 POP JUMP JUMPDEST PUSH2 0x2E3F DUP2 PUSH2 0x2C93 JUMP JUMPDEST DUP2 EQ PUSH2 0x2E4A JUMPI PUSH1 0x0 DUP1 REVERT JUMPDEST POP JUMP JUMPDEST PUSH2 0x2E56 DUP2 PUSH2 0x2CD1 JUMP JUMPDEST DUP2 EQ PUSH2 0x2E61 JUMPI PUSH1 0x0 DUP1 REVERT JUMPDEST POP JUMP INVALID LOG2 PUSH5 0x6970667358 0x22 SLT KECCAK256 0xC3 DUP2 LT ADDMOD STOP PUSH4 0x7C67DB76 PUSH6 0x70C213035053 DUP4 0xA6 DUP5 ORIGIN LOG1 MSTORE8 0xAA 0xC1 PUSH24 0x73846906274464736F6C6343000800003300000000000000 "
				},
				"gasEstimates": {
					"creation": {
						"codeDepositCost": "2386000",
						"executionCost": "infinite",
						"totalCost": "infinite"
					},
					"external": {
						"addProductToGeneralWarehouse(string)": "infinite",
						"admin()": "1299",
						"chooseAccount(uint256)": "infinite",
						"currentUser()": "1281",
						"generalWarehouse(uint256)": "infinite",
						"getProductById(uint256)": "infinite",
						"getProductHistory(uint256)": "infinite",
						"productCounter()": "1130",
						"transferProduct(uint256,address)": "infinite",
						"transferProductFromGeneral(uint256,address)": "infinite",
						"updateProductName(uint256,string)": "infinite",
						"userWarehouses(address,uint256)": "infinite",
						"users(uint256)": "infinite"
					},
					"internal": {
						"removeProductFromUser(address,uint256)": "infinite"
					}
				},
				"methodIdentifiers": {
					"addProductToGeneralWarehouse(string)": "2346d6cd",
					"admin()": "f851a440",
					"chooseAccount(uint256)": "4386731f",
					"currentUser()": "92ee0334",
					"generalWarehouse(uint256)": "c18db81c",
					"getProductById(uint256)": "3f70c2b4",
					"getProductHistory(uint256)": "57a096a1",
					"productCounter()": "1f16653b",
					"transferProduct(uint256,address)": "e43059e5",
					"transferProductFromGeneral(uint256,address)": "f6959f0a",
					"updateProductName(uint256,string)": "26af03e2",
					"userWarehouses(address,uint256)": "339ca758",
					"users(uint256)": "365b98b2"
				}
			},
			"storageLayout": {
				"storage": [
					{
						"astId": 20,
						"contract": "SupplyChain/s1.sol:SupplyChain",
						"label": "admin",
						"offset": 0,
						"slot": "0",
						"type": "t_address"
					},
					{
						"astId": 22,
						"contract": "SupplyChain/s1.sol:SupplyChain",
						"label": "currentUser",
						"offset": 0,
						"slot": "1",
						"type": "t_address"
					},
					{
						"astId": 25,
						"contract": "SupplyChain/s1.sol:SupplyChain",
						"label": "productCounter",
						"offset": 0,
						"slot": "2",
						"type": "t_uint256"
					},
					{
						"astId": 30,
						"contract": "SupplyChain/s1.sol:SupplyChain",
						"label": "generalWarehouse",
						"offset": 0,
						"slot": "3",
						"type": "t_mapping(t_uint256,t_struct(Product)11_storage)"
					},
					{
						"astId": 36,
						"contract": "SupplyChain/s1.sol:SupplyChain",
						"label": "userWarehouses",
						"offset": 0,
						"slot": "4",
						"type": "t_mapping(t_address,t_array(t_struct(Product)11_storage)dyn_storage)"
					},
					{
						"astId": 40,
						"contract": "SupplyChain/s1.sol:SupplyChain",
						"label": "users",
						"offset": 0,
						"slot": "5",
						"type": "t_array(t_struct(User)18_storage)dyn_storage"
					}
				],
				"types": {
					"t_address": {
						"encoding": "inplace",
						"label": "address",
						"numberOfBytes": "20"
					},
					"t_array(t_address)dyn_storage": {
						"base": "t_address",
						"encoding": "dynamic_array",
						"label": "address[]",
						"numberOfBytes": "32"
					},
					"t_array(t_struct(Product)11_storage)dyn_storage": {
						"base": "t_struct(Product)11_storage",
						"encoding": "dynamic_array",
						"label": "struct SupplyChain.Product[]",
						"numberOfBytes": "32"
					},
					"t_array(t_struct(User)18_storage)dyn_storage": {
						"base": "t_struct(User)18_storage",
						"encoding": "dynamic_array",
						"label": "struct SupplyChain.User[]",
						"numberOfBytes": "32"
					},
					"t_bool": {
						"encoding": "inplace",
						"label": "bool",
						"numberOfBytes": "1"
					},
					"t_mapping(t_address,t_array(t_struct(Product)11_storage)dyn_storage)": {
						"encoding": "mapping",
						"key": "t_address",
						"label": "mapping(address => struct SupplyChain.Product[])",
						"numberOfBytes": "32",
						"value": "t_array(t_struct(Product)11_storage)dyn_storage"
					},
					"t_mapping(t_uint256,t_struct(Product)11_storage)": {
						"encoding": "mapping",
						"key": "t_uint256",
						"label": "mapping(uint256 => struct SupplyChain.Product)",
						"numberOfBytes": "32",
						"value": "t_struct(Product)11_storage"
					},
					"t_string_storage": {
						"encoding": "bytes",
						"label": "string",
						"numberOfBytes": "32"
					},
					"t_struct(Product)11_storage": {
						"encoding": "inplace",
						"label": "struct SupplyChain.Product",
						"members": [
							{
								"astId": 3,
								"contract": "SupplyChain/s1.sol:SupplyChain",
								"label": "id",
								"offset": 0,
								"slot": "0",
								"type": "t_uint256"
							},
							{
								"astId": 5,
								"contract": "SupplyChain/s1.sol:SupplyChain",
								"label": "name",
								"offset": 0,
								"slot": "1",
								"type": "t_string_storage"
							},
							{
								"astId": 7,
								"contract": "SupplyChain/s1.sol:SupplyChain",
								"label": "owner",
								"offset": 0,
								"slot": "2",
								"type": "t_address"
							},
							{
								"astId": 10,
								"contract": "SupplyChain/s1.sol:SupplyChain",
								"label": "history",
								"offset": 0,
								"slot": "3",
								"type": "t_array(t_address)dyn_storage"
							}
						],
						"numberOfBytes": "128"
					},
					"t_struct(User)18_storage": {
						"encoding": "inplace",
						"label": "struct SupplyChain.User",
						"members": [
							{
								"astId": 13,
								"contract": "SupplyChain/s1.sol:SupplyChain",
								"label": "name",
								"offset": 0,
								"slot": "0",
								"type": "t_string_storage"
							},
							{
								"astId": 15,
								"contract": "SupplyChain/s1.sol:SupplyChain",
								"label": "userAddress",
								"offset": 0,
								"slot": "1",
								"type": "t_address"
							},
							{
								"astId": 17,
								"contract": "SupplyChain/s1.sol:SupplyChain",
								"label": "isAdmin",
								"offset": 20,
								"slot": "1",
								"type": "t_bool"
							}
						],
						"numberOfBytes": "64"
					},
					"t_uint256": {
						"encoding": "inplace",
						"label": "uint256",
						"numberOfBytes": "32"
					}
				}
			},
			"userdoc": {
				"kind": "user",
				"methods": {},
				"version": 1
			}
		}
	}
}